:020000040800F2
:10000000000400206F00000885000008850000083B
:10001000A70B0901000000000101005000200008AA
:1000200004030000D70800088D0B000870040008C6
:1000300000000000000000000000000000000000C0
:100040000000000000000000000000005F00000051
:10005000FFFFFFFF09480068202100EA010028B1E6
:100060000748016842685FEA010D10477047FFF7D3
:10007000F1FF00F010F800F03FF800002C00004005
:100080000020000803E000005FEA000D70474FF415
:10009000017000F095B838B54FF20F043C4D00F0F8
:1000A000BBF820B140F2052028806C8031BD394872
:1000B0000068C00613D56888A0421CD1288840F289
:1000C000022188421CBF40F20621884213D040F230
:1000D000011188421CBF40F2111188420BD02E4CF6
:1000E000208A40F6A721884205D12068FFF7CCFF7F
:1000F0006068804700BF31BD10B572B627480168FF
:1001000049084900016000F0CDF822480068000964
:10011000C10754BF2249234902E0CD2201F8012B37
:10012000214A9142F9D32149214A224B03E011F897
:10013000014B02F8014B9A42F9D31F491F4A002391
:1001400001E001F8013B9142FBD311494A884FF28B
:100150000F039A420BD10A8840F205239A4207D036
:10016000C00704D5100A012818BF022800D00022B9
:10017000064802804CF23C30488000F05FF94FF4B2
:100180000170BDE8104000F01BB80000280C0020F2
:10019000000000202C00004000200008FCED00E0E2
:1001A0000000002098000020000400203C100008FF
:1001B0000004002008040020080400202D0C00206A
:1001C0000D4930220A600D490A600D490A600D4947
:1001D00010220A60010A08BF00020B4908804FF292
:1001E0000F004880BFF35F8F084800210160416025
:1001F00007480849016070473020004030C800407F
:1002000030C0004010D00040000000201C400040E2
:100210000CED00E00400FA050020704780B500F006
:100220002BF90121062000F032F9062000F05FF9D9
:100230000121072000F02BF9072000F04BF91748A7
:10024000016821F01001016001BD0000052800D9FE
:10025000704710B5DFE800F01721030F1C17104C92
:100260002088411E2180C0B9072000F04DF942F2DC
:100270001070208010BD072000F039F90620BDE87D
:10028000104000F041B90620BDE8104000F022B94E
:100290000620BDE8104000F02AB910BD00BC0040A7
:1002A0002A0C002006E04B48016841F00101016082
:1002B000012141604C48512101607047F8B5494C1B
:1002C000454D4FF6FF77464EB088B84227D10223FE
:1002D0007F2246480188301D00F02CF9B088B842D2
:1002E00004BF0220B080A069800703D4A06940F059
:1002F0000200A06101207070B08820600720286093
:1003000000206860A86035484FF000710160A06966
:10031000C00732D5E06980B348F69F403CE0A06951
:100320008007E3D52868C00348BF00F043F8707821
:1003300098BBA06810F00100A168B28803D10F2A11
:1003400008D2521C06E0890704D5F17811B1032ABE
:1003500028BF521EF07092B2022A38BF0222B28029
:100360002068B1888842C5D1A06900F00300032845
:1003700018BFFFF798FF0120F2BDA069C00701D5A3
:10038000E06920B1A069C00704D4E06910B144F26B
:100390004F6001E042F2273068600020F2BD80B576
:1003A00003E040F2DC5000F0F9F8FFF787FF002887
:1003B000F7D001BD0848002141608160016821F04B
:1003C0000201016005484FF00071016004480021FE
:1003D000417070471C40004010E000E004ED00E078
:1003E0000004002004400040008000403810000855
:1003F0000078704730B5DBB00446214636A800F0DF
:10040000E7F8002000904FF402630B4A36A901A8D8
:1004100000F061FA0FF24C0201A90FF2540000F053
:10042000B5FB054600F02FF81DB12146284600F027
:100430001BF928465BB030BD0804002080B5FFF7EB
:10044000AEFFFFF7EBFE00F0C1FB00F047FC40F20F
:100450000120FFF7B5FE002002BD012A08BF00F011
:10046000C9BB7047AD0F0008E90F0008F103000891
:10047000230800085B0800080E48012181604EF641
:10048000BE21416000E00C4801210160704710B5B9
:1004900082080FF2280353F82220136800F00300AB
:1004A00080000F248440A34301FA00F01843106039
:1004B00010BD0000006000400860004000B0004037
:1004C00004B0004000B4004004B4004000B8004054
:1004D00004B80040C108032908D2C1108902124A99
:1004E000012300F0070003FA00F050507047C108E4
:1004F000032908D2C11089020C4A012300F0070029
:1005000003FA00F050507047C10803290BD2C11004
:10051000074A02EB81210A68012300F0070003FA71
:1005200000F050400860704714B0004010B0004028
:100530000CB0004030B583B0044610467F2808BF99
:100540000020B1F5004F1AD108237F2240F6120196
:1005500000A8FFF7EFFF08220FF2380100A800F013
:10056000E0FC30B908237F2240F2A27100A8FFF717
:10057000E1FF082200A9204600F0BAFC37BD1A4668
:10058000034D294300FB0311204600F0B1FC37BDA9
:1005900000000408FFFFFFFFFFFFFFFF0A490A6892
:1005A0000A4B1B68DB0758BF4008032809D34B6D73
:1005B00043F001034B650B689B1A1B031B0B834223
:1005C000F9D3704700000000382000401C40004074
:1005D000017001224270827001290CBF80214021EC
:1005E00081800021C18001811D4801600E2181624E
:1005F000016821F0100101600021416341627047F0
:10060000F8B504460D46164616484FF0FF31016016
:10061000134FFE6200207862386840F001003860B5
:10062000FFF731FF012C19D16DB900F032FB78B919
:10063000786AB042F4D3002EF2D038684008400007
:1006400038601620F2BD284600F02AFB0028EFD1C2
:1006500038684008400038600020F2BD0120F2BD3B
:1006600000E0004000A8004038B504460D4600F008
:1006700009F800F007F82A4621461820BDE838405E
:10068000FFF7EBBE2A4621461820FFF7E6BE30B53D
:1006900083B00446002020814AF6B43200A92078B5
:1006A000FFF7AEFF08B11C203EBD9DF800000328F7
:1006B00018BF182801D118203EBD042801D11720E9
:1006C0003EBD012801D021203EBD002500E06D1C6B
:1006D000EDB2A188091D8D420BDA40F2DD22281906
:1006E00000F10A012078FFF78BFF0028EFD02620C9
:1006F0003EBD0025002006E00146EDB22819007B32
:1007000000F020FC6D1CA188EAB28A42F4D3A27AE0
:10071000E37A9B18FF2B01D022203EBD0B191D7BD5
:10072000B5EB102F01D023203EBD5B7BC0B28342CE
:1007300001D024203EBDA078824207D0401EC0B226
:10074000824201D127203EBD25203EBD881C20814C
:100750000220E08000203EBD38B5044660780128C4
:1007600004D023D3032855D018D31FE020780128C4
:1007700011D13B25432000F03DFA40F2DD2200215B
:100780002078FFF73DFF30B12846451EC0B2002853
:10079000F0D11B2032BD0220607010E000F092FA10
:1007A00000F03AF8A078401CA07008E0182032BD94
:1007B0002278A078411EC9B20620FFF74EFE2046DF
:1007C000FFF765FF050018BF00F07CFA272DEFD07A
:1007D000A8060BD52278A1781520FFF73EFE002D44
:1007E000EDD10320FFF732FD002032BD680603D4AF
:1007F000182D18BF1C2D07D121782846FFF734FF8C
:1008000004206070284632BD172DE8D100F004F8AE
:1008100003206070172032BD2278A1780620FFF7F0
:100820001CBEF8B504460D461646002706E0E088D3
:10083000411CE1800019807A78557F1CBFB2B74215
:1008400009D2E08821898842F1D32046FFF784FF4E
:100850000028ECD0F2BD0020F2BD10B504462046C1
:10086000FFF77AFF0028FAD010BD0000F8B5044663
:100870000D4616461F4607E03046A047294600F0C1
:1008800073FB05467F1E761CBFB2002FF4D12846AD
:10089000F2BD38B50C46154605E0014614F8010BCB
:1008A00000F062FB6D1EADB2002DF6D132BDF8B581
:1008B00004460D4616461F463A46314628682368C8
:1008C0009847040005D13A463146E868FFF7E1FF52
:1008D000E8602046F2BD10B5029C8472038142603C
:1008E00001604FF0FF31C1600021017410BD2DE99E
:1008F000F84F04468B461E469BF81B70802F28BF7E
:100900008027D0689D49884250D1002E4CD0B068D5
:1009100000904FF0FF384FF000090BEB490A9AF8AE
:1009200048500FE0FF2D16D0FFF7ADFD4FF40063E8
:10093000E80240F0006241460098FFF797FF8046CA
:10094000681CC5B29AF84900A842EBDA09F101091E
:10095000B9F1060FE1DBDBF844006FEA08018842D9
:1009600024D1A06800BA7A08594673689847C8B974
:10097000E06805BAA06802BA3B464FF0FF31B068A4
:10098000FFF774FFC04385420CD140F6A720ABF8B7
:100990001000A06800BA01220BF11001103073683A
:1009A000984708B1422002E0172000E04320BDE84C
:1009B000F28F2DE9F84F80460D469146D5F804A0F8
:1009C0002889ADF8000005F1140606F1100704238C
:1009D00052464046FFF76BFF002870D1BAF800007E
:1009E00040BA1FFA80FBBAF8020040BA84B2E007AE
:1009F00048BF462063D4B4F5026FC8BF4E205EDC0A
:100A0000002C5BD05FEA0B000AD04FF60441BBEB31
:100A1000010000F09B80FF3853D0FE3851D0ABE08E
:100A2000287C08B151204AE08D2C28BF4F2046D2A7
:100A30002346321D00F0A7F8002840D1FA7E802A14
:100A400028BF802202F10C00844201BFB08840BA66
:100A500000F47F40B0F5007F2CD1F08840BA4EF210
:100A60005031884202BF388A40F6A721884202BF2F
:100A7000788A00F47F40B0F5807F1BD1B06800BA5F
:100A80003F49C969884215D14FF6FF70388206F197
:100A900010014FF0FF30FFF7FCFEF16809BAC943BF
:100AA000884204BF387E042804D1787E032818BF0A
:100AB000062801D0452002E0012028740020BDE86E
:100AC000F28F287C002843D0042300F05BF8002834
:100AD000F5D1DAF8000006BA201F84B22848C069B0
:100AE000864238BF4820EAD3A019796D884228BFD2
:100AF0004920E4D24FF6035083450DD1B9F1000FE0
:100B00000AD031460220D9F80020904720B14A206F
:100B1000D5E7E01B84B2BE19002CCFD0BDF8000091
:100B20008442B4BF274607463B4600F02BF8002816
:100B3000C5D1B9F1000FECD07A0851463046D9F84A
:100B4000043098470028E4D04B20B8E7287C08B947
:100B50004120B4E7042C18BF4C20B0D104236A68AC
:100B600000F011F80028AAD14B462A4639463046F3
:100B700001B0BDE8F04FBAE64420A0E7E320BBDEB9
:100B80000000000852462946404690E670B50446EB
:100B90000D4616462889C10701D4802803DA4F2064
:100BA00070BDA87A78B9324629462046FFF701FF82
:100BB0000028F6D0172807D12868616888471728C9
:100BC00002D1002070BD502070BD000080B53A48B1
:100BD0006821416100218161022181600121016060
:100BE00009210920FFF753FC04210A20BDE8044035
:100BF000FFF74DBC3249CA685207FCD50860704700
:100C000010B5044603E014F8010BFFF7F3FF20785A
:100C10000028F8D110BD7CB500A90FF2B80218CA9F
:100C200018C1052104220A230CE080B290FBF3F4E2
:100C300003FB1405EDB2204600AC05F130060E555D
:100C400005B10A46491E49B20029EED5D2B200A824
:100C50001018FFF7D5FF73BD10B5044620090A2808
:100C60002CBF37303030C0B2FFF7C4FF04F00F00A4
:100C70000A282CBF37303030C0B2BDE81040B9E789
:100C800010B50446200AFFF7E7FFE0B2BDE81040C8
:100C9000E2E70A48006810F0020018BF0120704720
:100CA00010B50446FFF7F5FF20B105480068207035
:100CB000002010BD012010BD54C8004048C80040AD
:100CC0003CC8004080B500A8FFF7EAFF0028FAD032
:100CD00001BD000030303030300000002DE9F84F09
:100CE000FFF7D1FBFFF7EEFF0020FFF7AFFA0FF29F
:100CF0007018474D44A60FF23C1B44A4DFF8149132
:100D00000FF2141A1DE05046FFF77AFF0C27B9F8CE
:100D10001A00384100F00F00FFF77DFF012FA4BF3C
:100D20002E20FFF767FF3F1FF1D52046FFF768FF32
:100D3000B9F84C00FFF76FFF5846FFF761FFFFF768
:100D4000C1FFFFF7A0FB0220FFF780FA00A8FFF722
:100D5000A7FF0028F5D19DF80000FFF74BFF9DF895
:100D600000000A2818BF0D28CDD0312804D0322821
:100D70002FD0332832D0E2E70FF2F400FFF740FF24
:100D80000120FFF737FB07460FF2F800FFF738FFA7
:100D9000380005D10520FFF759FA0FF2FC00CCE727
:100DA0000420FFF753FA0FF2FC00FFF729FFB80603
:100DB00048BF0FF2FC0005D478064CBF0FF20810B4
:100DC0000FF22010FFF71CFF3846FFF759FF30469F
:100DD000B3E70120FFF73AFABDE8F18F002730466C
:100DE000FFF70EFF288A40F6A721884218BF404629
:100DF000A3D1781990F824007F1C20B1FFF7FAFEE8
:100E0000FFB2202FF5D3E2E70D0A000020620000B8
:100E100000200008000000080D0A454D333537203A
:100E200053657269616C20426F6F746C6F616465A9
:100E3000722076000D0A312E2075706C6F6164206F
:100E400065626C0D0A322E2072756E0D0A332E20EB
:100E500065626C20696E666F0D0A424C203E200070
:100E60002A2A206E6F20617070202A2A0D0A000045
:100E70000D0A626567696E2075706C6F61640D0A9A
:100E8000000000000D0A53657269616C2075706C7A
:100E90006F61642000000000636F6D706C657465A5
:100EA0000D0A000061626F727465640D0A00000033
:100EB0000D0A584D6F64656D20626C6F636B206521
:100EC00072726F72203078000D0A646F776E6C6FEB
:100ED00061642066696C65206572726F722030787B
:100EE000000000000D0A6572726F722030780000F9
:100EF000814212D21018401E5118491E92B2002A87
:100F00001EBF11F8013900F80139521EF6D17047A1
:100F100011F8013B00F8013B521E92B2002AF7D1B2
:100F2000704710B500E0521E92B232B110F8013B8A
:100F300011F8014BA342F6D001E0002010BD181BB0
:100F400040B210BD0A0242EA11214840C0F3031129
:100F5000484080EA00304101C9B20206D20E41EA9F
:100F60000221484080B270470A0A4840C0B20821B6
:100F70004308C00746BF034858401846491EF7D1EA
:100F8000504070472083B8ED2848018A40F6A77288
:100F9000914202BF418A4FF47F40014204D10229AD
:100FA0008041C043C00F704700207047F8B5044629
:100FB0000D461D4E01203070FFF7E6FF18B94FF4C3
:100FC0000170FFF7FDF81948876A294644F48070DC
:100FD000B847002131700FF2580618B9294644F479
:100FE0000070B847805DF2BD2DE9F04104468846A7
:100FF0005600FFF7C9FF18B94FF40170FFF7E0F88A
:101000000A48476A0023324641462046B8470FF255
:10101000200520B93346002241462046B847405DAE
:10102000BDE8F081000000002C0C00200000040846
:10103000000202024B4B4647EE0800000000000190
:10104000FFFF0000FFFFFFFFFFFFFFFFFFFFFFFFAE
:10105000FFFFFFFFFFFFFFFFFFFFFFFFFFFFFFFFA0
:10106000FFFFFFFFFFFFFFFFFFFFFFFFFFFFFFFF90
:10107000FFFFFFFFFFFFFFFFFFFFFFFFFFFFFFFF80
:10108000FFFFFFFFFFFFFFFFFFFFFFFFFFFFFFFF70
:10200000A024002049BF0108C5BE0108C7BE0108C1
:10201000A70A080100210008040303AC00505F0078
:10202000415B805100000000000000000000000043
:1020300000000000000000000000000000000000A0
:10204000000000005A5DAC83043CFFFFFFFFFFFF70
:10205000FFFFFFFF0070020800000000000000000A
:10206000FFFFFFFFFFFFFFFFFFFFFFFFFFFFFFFF80
:10207000FFFFFFFFFFFFFFFFFFFFFFFFFFFFFFFF70
:10208000F02F002000000000EB2F0020EB2F00209D
:10209000A0240020D4E7010828E00108481D002002
:1020A000A80C00200000030800300020FFFFFFFF05
:1020B000FFFFFFFFFFFFFFFFFFFFFFFFFFFFFFFF30
:1020C000FFFFFFFFFFFFFFFFFFFFFFFFFFFFFFFF20
:1020D000FFFFFFFFFFFFFFFFFFFFFFFFFFFFFFFF10
:1020E000FFFFFFFFFFFFFFFFFFFFFFFFFFFFFFFF00
:1020F000FFFFFFFFFFFFFFFFFFFFFFFFFFFFFFFFF0
:10210000A024002049BF0108C5BE0108C7BE0108C0
:10211000CBBE0108C9BE0108CDBE010844BF0108FD
:1021200044BF010844BF010844BF010844BF01087F
:10213000CFBE010844BF010839DF01084974000817
:102140002DBE010844BF01085567000844BF0108BF
:102150006BA800089335000844BF010844BF01087C
:102160001D8100084F470008756E0008F105010841
:1021700044BF010887BD0108D9BD0108AF78000838
:1021800099E9000844BF010844BF010845BF0108A0
:1021900010B501F007010368012405E010B501F056
:1021A0000301890003680F248C40A34302FA01F164
:1021B0001943016010BD000038B500F0CBF80446AB
:1021C00000F0C8F8054600F0C5F805F00F0500F06E
:1021D0000102182C28BF362038D20120A04010F46C
:1021E000F05F18BF382031D1E00803D0022807D0B3
:1021F00003D309E02146484804E02146474801E06E
:1022000021464748FFF7C4FFA00805281DD8DFE88E
:1022100000F003070B0F13172A462146414812E02E
:102220002A46214640480EE02A4621463F480AE019
:102230002A4621463E4806E02A4621463D4802E01D
:102240002A4621463C48FFF7A9FF0020BDE832405E
:1022500000F087B810B501F00301890003880F244E
:102260008C40A34302FA01F11943018010BD2DE90E
:10227000F84300F06FF8044600F06CF8054600F0F3
:1022800069F8064600F066F8074600F063F805F0C6
:102290000F0206F0010507F00F0800F00109182CE5
:1022A00028BF36202BD2012707FA04F010F4F05F84
:1022B00018BF382023D1A6102146204800EB460045
:1022C000FFF7C8FF424621461D4800EB4600FFF7D6
:1022D000C1FFE0101B49421804F0070107FA01F39F
:1022E000DB4314781C408D402C431470164A801830
:1022F00002781A4009FA01F1114301700020BDE88B
:10230000F24300F02EB880B500F04FF80F490840B6
:102310000F49086001BD00000CB000400CB4004043
:102320000CB8004000B0004004B0004000B40040D1
:1023300004B4004000B8004004B80040B4250020B8
:10234000C0250020A8250020AC250020FFE1FF00CB
:10235000CC25002028480168491C016011F8010DB6
:10236000704726490A68264B1B68D31A852BB8BFCD
:1023700010700868401C0860704710B50446C0B271
:10238000FFF7EFFF200A67E010B5FFF7E3FF044611
:10239000FFF7E0FF04EB002080B210BD10B504464B
:1023A00080B2FFF7EAFF200CC5E010B5FFF7ECFFA5
:1023B00000F06CF804EB004010BD38B505460F4C3A
:1023C00023680F4A12689A1AAA18862A03DA024664
:1023D000184600F0FCF820682818206031BD38B598
:1023E00004460846044D2246296800F0F0F82868A3
:1023F0002018286031BD0000902B0020942B002075
:102400006426002070B504460D46002604E0FFF760
:10241000BBFF25F81600761CF6B2A642F7D370BDB6
:1024200010B5044621460820FFF7D9FFFFF7ACFF9F
:102430002081FFF78FFFA072FFF78CFFE072FFF79C
:1024400089FF2073FFF7A0FFE081FFF783FF20746F
:10245000FFF7ABFF606110BDBDE8104081E710B52C
:1024600000F014F82080FFF78FFF6080FFF772FF05
:102470002071FFF76FFF6071FFF786FFE080FFF7C5
:1024800083FF2081FFF766FFA07210BD04467BE743
:1024900010B50446FFF75EFFA070FFF775FF2080C0
:1024A000211D0820FFF79BFFFFF754FFE070FFF7A7
:1024B00051FF2073FFF74EFF607310BD10B5044647
:1024C000214600F004F82069BDE8104066E71020BE
:1024D00073E710B5044621461020FFF780FFFFF791
:1024E00064FF206110BD10B5FFF7D0FF208010BD44
:1024F000207936E710B50446FFF7CAFF04F1100053
:1025000000F01CF804F11C010820FFF768FFFFF73A
:102510003BFFA0842434FFF737FF6080FFF71AFFEA
:102520002071FFF717FF6071FFF714FFA071FFF72D
:1025300011FFE07110BDBDE810401EE710B5044664
:10254000FFF733FF2060FFF730FF6060FFF71CFFED
:10255000208110BD10B500F011F8A088FFF70DFF25
:10256000E088FFF70AFF2089FFF707FF6089FFF780
:1025700004FFA089FFF701FFA07B6DE704462068F8
:102580000CE710B50446FFF710FF2060FFF7FCFED4
:10259000A080FFF7F9FEE080FFF7F6FE2081FFF74D
:1025A000F3FE6081FFF7F0FEA081FFF7D3FEA0737A
:1025B00010BD10B5FFF7E2FFFFF79AFF611DFFF7AF
:1025C00086FF04F115011020BDE81040F5E68142B8
:1025D00033D21018401E5118491E10E0121F11F876
:1025E000013900F8013911F8013900F8013911F801
:1025F000013900F8013911F8013900F8013992B2B6
:10260000042AEBD292B2002A1EBF11F8013900F859
:102610000139521EF6D17047121F11F8013B00F824
:10262000013B11F8013B00F8013B11F8013B00F8B8
:10263000013B11F8013B00F8013B92B2042AEBD2B6
:1026400092B2002A1EBF11F8013B00F8013B521E56
:10265000F6D17047130003D00A46194600F020B89F
:10266000704710B500E0521E92B232B110F8013B33
:1026700011F8014BA342F6D00FE0002010BD10B5B9
:1026800000E0521E92B232B110F8013B11F8014B3A
:10269000A342F6D001E0002010BD181B40B210BDCF
:1026A00062F30F2262F31F42401810F0030308D0B8
:1026B000C91A1FD3DB0748BF00F8012D28BF20F837
:1026C000022D130030B414461546103928BF20E9F6
:1026D0003C00FAD8490728BF20E90C0048BF40F861
:1026E000042D890028BF20F8022D48BF00F8012DD5
:1026F00030BC7047C91818BF00F8012DCB0728BFA0
:1027000000F8012D7047000038B50446607800EBF2
:102710004000001900F110056878207100F088F978
:10272000A9780818A060A9782A788B18212B09DBD2
:102730004942081800F21F00E0602878A978203983
:10274000081803E01018401EE0600020287031BD1A
:1027500038B50446607800EB4002121902F110050A
:102760002A78BAB12079DFF8AC120968405C207190
:1027700000F05EF9A0602978212905D300F21F003E
:10278000E0602878203803E00818401EE060002050
:10279000287031BD401C0FF2842232F8111090FBDA
:1027A000F1F201FB12006070E078401CE070A0784C
:1027B000401EA070A07818B12046BDE83240A3E7C3
:1027C000A06031BD2DE9FC4E0400894692469B462F
:1027D00018BF022C31D0032C18BF042C2DD02CD2C2
:1027E0000FF24020205C022827D1DFF82C5205EBA5
:1027F0008406F76800F0CAFC0021B970397079705E
:10280000F970FF2139710021B960F96000F0C4FC52
:10281000F66900F0BBFC0021B18031807180615508
:1028200000F0BAFC00F0B4FE5B4652464946204632
:1028300002B0BDE8F04E00F0B3BC2120BDE8F68E3A
:102840002DE9F04188460446DFF8CC5105EB8401C0
:10285000CE690FF2D011615C09B9012037E005EBB8
:102860004407615D61B1B9887288914208D100F076
:102870008DFC665D0021615500F08EFC304626E03F
:1028800000F086FDB08808B300F080FC71888919DB
:10289000897988F800107188491C0FF28C1232F87F
:1028A000142091FBF2F302FB13117180B188491ED1
:1028B000B18000F071FC605D30B1B8884FF6FF71F7
:1028C000884204BF3088B880002000E02620BDE8A0
:1028D000F0812DE9F84F80460E4617461C46FF2E24
:1028E00049D0002C45D0C3460FF238101BF8000029
:1028F000022840D1484800EB8B00C56800F046FC38
:1029000095F8029095F803A000F046FC0FF20C1029
:1029100030F81BB00AEB090058450BDBBAF1000F89
:1029200002D000F037F805E0222025E039480068A1
:10293000365C203FFFB2202FF8D2304600F0DEF8A0
:10294000287800EB4000401900F8104F467087705F
:102950002878401C90FBFBF10BFB1100287000F065
:1029600015FCA978491CA97000F016FC404600F03F
:102970006EFC002000E00120BDE8F28F914206D2FB
:102980000FF2980333F810000818801A00E0881A34
:10299000C0B270472DE9F04700240FF280080FF213
:1029A000840914F8090002282DD11B4800EB84008B
:1029B000C768F87838B300F0E9FB8246FD7800205C
:1029C000F8702A467978E0B2FFF7D8FF06465046FD
:1029D00000F0E2FB14E000F0D9FB824606EB460073
:1029E000C019407C00F098F8504600F0D5FB701CF0
:1029F00038F8141090FBF1F201FB1206F6B26D1ECE
:102A0000EDB2002DE7D1641C042CCADBBDE8F087D1
:102A100000000000DC240020A024002000000200B0
:102A20000000000000020000000040000000000064
:102A3000DFF81817096801EB40107047DFF810271E
:102A40001268815470472DE9F041040032D000F043
:102A50009DFBDFF80017DFF80057DFF80027FF23A2
:102A60001678FE2E1DD100261670DFF8F466377832
:102A70002F700027DFF8ECC609E007F1010E07F818
:102A800008E0DCF8008007F808305FFA8EF796F867
:102A900000E0D1F800807745EFDB0EEB080606F882
:102AA000013C2E78A64207D200F076FB00211B20C5
:102AB00000F0E7FFFF201FE0361B2E701578DFF8CF
:102AC000A8761678D7F800C04FF0010E06F80CE093
:102AD000D1F800C016F80CE082F800E0641EE4B201
:102AE000002CEED106F80C30DFF8641609680022DD
:102AF0006A5400F051FB2846BDE8F08110B5044649
:102B000000F044FBDFF860160968625C521C6254F6
:102B1000BDE8104000F040BB2DE9F041044600F054
:102B200032F8054600F032FBDFF83026DFF82836B1
:102B3000DFF82066DFF8308611E03168615C00273D
:102B400004F80E701F787F1C1F70D6F800E017780D
:102B500004F80E701470FF2904D12C46FF25FF2CB9
:102B600001D10CE00C46D8F80010675C7F1E67545A
:102B7000D8F800E014F80E107F273942DDD0BDE808
:102B8000F04100F009BB80B5DFF8DC150968415C55
:102B9000090603D5FFF74CFF007802BDFF2002BDF8
:102BA000BCB504460D46FFF7EEFFFF2818BFFFF740
:102BB000B3FFDFF8B475FF2D04D13868215C01F054
:102BC0007F0106E02846FFF799FF3868215C41F055
:102BD000800121542046FFF72BFF0570B3BD0EB4D2
:102BE00030B504460120FFF72EFF0546FFF720FF12
:102BF000FF2D08BFFF200FD0DFF8541509686C5473
:102C000003A9002204E051F8043B00F8013B521CE8
:102C1000D3B2A342F7D3284630BC5DF810FB70B5A1
:102C200082B004460D4605F11F0000F037F9064654
:102C3000FF2E0DD0DFF81805006835543CB1012097
:102C400000902B4600223146204600F003F8304623
:102C500076BD0000F2B582B0054616461F46089CB8
:102C60000846DFF8EC140968405CB919884204DAB8
:102C700007B54FF4B07100F0D6F85FB1314602A845
:102C800000F0D5F800943B4602469DF8081028460F
:102C900000F001F8F7BD2DE9F843054689461646D0
:102CA0001F46DFF8B084089C0BE04A5D0A54491CBB
:102CB000B142FADBBF1B7519D8F8000019F8009073
:102CC0000026FFB2BFB14846FFF7B2FE3018F11937
:102CD0002029B2BF3E46C6F12006F6B2324624B9DC
:102CE00001462846FFF773FCE4E7012C08BF29469C
:102CF000F8D00021DCE7BDE8F1832DE9F04182B096
:102D00000446884616001F46DFF844040068255C28
:102D10000ED07119C9B2204600F04FF808B1182042
:102D200007E0009733462A4621464046FFF792FFC8
:102D30000020BDE8F6810123DFE70A4600E0521CCF
:102D40001378002BFBD10223521AD2B2D5E7F8B583
:102D5000044601F11F00C5042D0E02F11F00C0043E
:102D6000000E05B9012500B90120854223D0DFF806
:102D7000E463854210DA401BC0B2FFF764FE0746E9
:102D8000FF2F01D10020F2BD691EC9B2204600F01C
:102D900026F8316847540EE08A420CD2411EC9B26F
:102DA000204600F01CF804463068205CFFF7B4FEB3
:102DB0003068FF2121540120F2BD70B504460D4654
:102DC000DFF88C632A463068215C2046FFF7BFFF9E
:102DD00018B130682554002070BD182070BD04E083
:102DE000491EDFF870231268805CC9B20029F7D150
:102DF0007047000011B581B00C46DFF85413096824
:102E0000405C844204D307B54FF4F47100F00BF832
:102E1000214601A800F00BF804469DF80400FFF7D6
:102E200007FE201816BD0FF2543000F04BBF38B526
:102E300004460D46E904090E2078FFF7D0FF207004
:102E400005F01F0032BD80B5FFF7D4FF007802BD4A
:102E500010B51446FFF7CEFF047010BDF0B583B077
:102E60000446DFF8EC522868265CFF2C04D107B535
:102E70004FF40271FFF7D7FF06F11F0000F00EF8C4
:102E80000746FF2F09D028683E54009600232246AB
:102E90000021384600F0DAF83846FEBD0004400D47
:102EA000C0B2D0E5F8B504460D4616460120FFF73E
:102EB000CAFD0746FFF7BCFDFF2F01D1FF20F2BD81
:102EC00033462A462021201800F01FF8A04909683F
:102ED000201878543846F2BD10B582B004AC009486
:102EE00000F001F816BD10B514461A46029B091BE6
:102EF000C9B22018BDE8104007E00CB480B502AAA2
:102F0000FFF7D0FF02BC5DF80CFB2DE9F0478046CF
:102F100016469946C24600250C460AE03A465046F7
:102F2000FFF755FBBA44E819401EC5B2681CC5B28C
:102F3000761CA5423CDA3078002839D0312818BFF9
:102F400032280ED159F8041B0AF8011B3228EDD1A2
:102F5000681CC5B2AC42A4BF08120AF8010BE5DA3E
:102F600026E0342811D159F8040B291D8C421FDBAF
:102F70000AF8010B010A0AF8011B010C0AF8011BEF
:102F8000000E0AF8010BE81CCFE759F8041BA0F16A
:102F90003302072A38BF303806D3A0F14102072A8E
:102FA00034BF373859F8040BC7B27819A042B5DBE3
:102FB000AAEB0800C0B2BDE8F0876848FE210170A6
:102FC00070474178007800EB012080B270470170B3
:102FD000090A4170704770B500F02DF800F005F84F
:102FE000007800EB062080B270BD067829462046A6
:102FF00000E700B583B08DF80420120A8DF8052093
:103000000122009202231BE0F8B500F014F8FFF74C
:10301000ECFF0778E91CC9B2FFF7E9FF007817EB6E
:1030200006260702A91CC9B2FFF7E1FF0078C01904
:1030300006EB0040F2BD04460D46691CC9B2D9E654
:103040000A46014601A8FFF705FE07BD2DE9F54137
:103050001F46089CA4B24CB3254689B200A8FFF7CE
:10306000E6FE0646B9B201A8FFF7E1FE0746304684
:10307000B84238BF3846C0F12000C0B2A842B8BF3D
:1030800005469DF80400FFF7D3FC80469DF800003C
:10309000FFF7CEFC2A4607EB08013018FFF797FA36
:1030A000641BA919EF19A4B2002CD5D1BDE8F38196
:1030B00070B504460D4600F069F82A4A1268237874
:1030C000FF2B08BFAD5403D09B181E78AE541D7063
:1030D0002570BDE8704000F05FB838B5044600F0D8
:1030E00055F82178FF22FF2908BFFF2507D01D4B87
:1030F0001B68CD5C8D420EBF2270EA5CCA5400F0A2
:103100004BF8284632BDF8B504460E46002500F0BF
:103110003DF82178FF2915D00A460125114B1B687F
:1031200002E03A466D1CEDB2D75CB74208D1FF5CB5
:10313000D754B14206D18A4208BFFF22227001E073
:103140008F42EED100F028F82846F2BDD0240020AE
:10315000D4240020DC240020CD240020D22500200F
:10316000CC240020E0240020D82400200078FF2870
:1031700001D1012070470020704700007061636B2F
:1031800065742D6275666665722E6300EFF31180BB
:10319000602181F31188704780F311887047000027
:1031A00010B5012851D1132907D20FF2544030F93C
:1031B00011404FF0FF30844201D1202010BDDFF8D4
:1031C0000004002C04D519B161428166012101E09F
:1031D00084660021C166190907290CBF002102215C
:1031E000012A08BF41F0180103D0022A08BF41F0AC
:1031F000080103F00F02022AA8BF41F00401C165D3
:1032000001214165DFF8BC13496801F20601016044
:1032100001F11F02426001F1200282603F31C16072
:1032200003210163DFF8A0134FF6FF720A60DFF895
:103230009C23202313600A6C42F4C0620A64C16DAF
:1032400041F02101C165002010BD212010BD0128E1
:1032500000D0704710B5DFF87803006801280ED160
:10326000FFF794FF0446DFF86C03016841F4C05196
:1032700041F00401016000F025F9204612E110BD83
:103280007047F0B5DFF83C03406800F20601002209
:103290000023DFF84C436280A2802270DFF82053C5
:1032A00010262E63296001F11F066E6001F12006D1
:1032B000AE6001F13F07EF608788402F2DD007886F
:1032C00007EB010C202F39BFC5F800C00122C5F85B
:1032D00008C00123B0F802C05FEA5C1EF44618BFC4
:1032E0004FF0010C5FEA571E774618BF01275FFABF
:1032F0008CFCFFB2BC4508D1808821280ED2D807AB
:1033000052BF521C012020705B1CD2B20AB10120B6
:103310002863DBB20BB102202863F0BD2960AE60E8
:10332000F0BD70B504464FF4C06004422FD0A548EC
:1033300040684088AB4D202802D22968C90708D4CC
:10334000202802D32868800703D4286B4008400057
:10335000286314F4007602D02868C00604D46005FF
:1033600006D52868800603D50021122000F089FBCD
:1033700016B12868C00504D4600508D52868800502
:1033800005D500211320BDE8704000F07ABB70BD68
:10339000012800D07047F8B58A48406888490A6B10
:1033A000D2B20E6A4C6A8E4B5F888F4DB6B2B7426E
:1033B00011D0F71BBFB2B0F804C0BC44A0F804C0E1
:1033C000B0F800C06744B5F802C097FBFCFE0CFBE8
:1033D0001E7707805E809E88A4B2A6420FD0A71BEE
:1033E000BFB28688BE1986800688BE196D8896FB96
:1033F000F5F705FB176505809C8000241C70848808
:10340000212C32D284880CB9012410E0448865094B
:1034100018BF01250488641E2404640D18BF01240C
:10342000EDB2E4B2A5421DD185F001046DB11D7865
:103430005DB9D50709D400F206050D6000F2250537
:103440004D6000255D8001250D635CB1920709D4B4
:1034500000F226028A6000F24500C86000209880D1
:1034600002200863BDE8F14000E0F1BD10B55A4C00
:10347000E06A00F06100202813D1FFF787FE514970
:1034800049684988202902D22268D20704D4202919
:1034900006D32168890703D5E16A41F00101E162A1
:1034A00000E010BDBDE81040FFF776BE4B48C16894
:1034B000012904D10068800900F001007047002054
:1034C0007047000070B549484568A878F8B9A86801
:1034D000E8B107B54FF49C610FF21C1000F0F2FB4D
:1034E00015E0A9683160E96871604FF4006101601E
:1034F000042030622078FF2818BFFFF70DFB2879E1
:103500002070FFF7FBFA01212846FFF721F9384C1C
:10351000384EA87810B3A86810B92846FFF7F4F819
:103520002948316A490702D4F1694907D9D5316A76
:10353000090713D4F169090710D4A968B160E968D3
:10354000F1604FF480510160082030626078FF28FC
:1035500018BFFFF7E1FA28796070D2E72078FF25DD
:10356000FF2808D0316A490705D4F169490702D418
:10357000FFF7D2FA25706078FF2808D0316A090772
:1035800005D4F169090702D4FFF7C6FA657070BD6A
:1035900077E610B50C480168026C02EA0104046089
:1035A00046F2297004421CBFA0B2FFF7BAFE41F6F2
:1035B000D60004421CBFBDE81040FFF783BF10BD1A
:1035C00000C80040BC24002008A8004000E100E042
:1035D00054C8004048A8004030C8004048C80040D7
:1035E000062E00202CC8004030E00108AC2400204A
:1035F000D025002010C80040756172742E63000051
:10360000409C204EEBCB10278813C409E204BFFC7A
:10361000710260FEC8FEF00030FF9C007800680078
:1036200034001A000D0000002DE9F843DFF8504681
:103630002068DFF85056286268620026DFF8489656
:10364000DFF8488622E04820216800FB0617482260
:1036500000213846FEF7FEFF0020B872F8720B20FA
:103660003873032078734FF6FE70F8814FF6FF70C1
:10367000388200F04FFC387600F04CFC787600F091
:1036800049FCB87699F80000F876761C98F80000A6
:10369000F6B28642D7D30422FF2105F10800BDE827
:1036A000F843FEF7D7BF0000F8B504460FF2F8560E
:1036B000DFF8D05595F902004FF0FF31884204DA67
:1036C00007B54B21304600F0FDFADFF8C0753878B9
:1036D000844206D3FE2C04D007B54D21304600F0BD
:1036E000F1FAA878401CA87040B2401904753878E7
:1036F000844228BF2C784820DFF88415096800FB35
:1037000004102862F1BD000010B5DFF8784594F987
:103710000200002803D507B55E2100F0A3F8A078C9
:10372000401EA070217840B200284EBF0846001904
:10373000007DDFF858251278904238BF01464820B6
:10374000DFF83C25126800FB0120206210BD00005C
:1037500080B5002000E0401CDFF830150978C0B2C9
:1037600088420BD2DFF81C15096A4822DFF81035B1
:103770001B6802FB00329142EDD102BD07B57721F3
:103780006CE0DFF8000590F902004FF0FF3188424D
:1037900001D10120704700207047FE2084E7DFF848
:1037A000E40400787047000038B50546DFF8D444DB
:1037B000FFF7E7FF48B994F902000019007DFE28E1
:1037C00003D007B5932100F04DF8DFF8C00400786E
:1037D000854201D3B12032BD25704820DFF8A01406
:1037E000096800FB05102062002032BD38B5DFF803
:1037F000944494F902502819007DFE2808D0FFF760
:10380000C0FF28B907B5AF2100F02CF8FF2032BD6A
:10381000691E00E0491E49B2002904D40819007D40
:10382000FE28F7D032BD207832BD000080B50020E0
:1038300000E0401CDFF854140978C0B288420BD273
:10384000DFF84014496A4822DFF834341B6802FB71
:1038500000329142EDD102BD07B5CE2100F002F851
:10386000FF2002BD0FF2404000F02CBA10B500F06E
:1038700057FDDFF81044616A097B884203D008468F
:1038800000F046FD50B900F04EFD0146606A90F927
:103890000D00814204D000F04AFD08B1012010BDA6
:1038A000606AC08901F0DBF9606A008A01F0DFF923
:1038B000606A807A012818BF002001F0BAF9002060
:1038C00010BD000010B50446DFF8C0030078844244
:1038D00003D307B5F021FFF7C5FFDFF8A803417850
:1038E00009B9702010BD4821DFF89423126801FB4C
:1038F00004214162BDE81040B8E7DFF88813487042
:10390000704710B5DFF888430020207001F072FC8A
:1039100020B92046BDE8104001F09ABC00F053F8F1
:103920000446DFF868030078844205D3FFF710FFF0
:10393000044600F00EF818B12046BDE81040C1E77B
:1039400010BDD048406AC0897047CE48406A008A9E
:1039500070474821CA4A126801FB0020C07A022839
:103960001CBF1128432801D1012070470020704757
:103970004821C34A126801FB0020807A01281CBF3D
:103980000228032801D10120704700207047F8B5B4
:103990000024BB4DBD4E00E0641C3078E4B284428C
:1039A0000FD24820296800FB04172046FFF7D1FFFB
:1039B0000028F1D0B87A012818BF0228ECD120469F
:1039C000F2BDFF20F2BD38B50024B04D00E0641C0C
:1039D0002878E4B284420BD22046FFF7C9FF0028C2
:1039E000F5D02046FFF7B5FF0028F0D0204632BDC5
:1039F000FF2032BD70B500240025A44E09E0284602
:103A0000FFF752FE01F0C7FD00B10124FFF77CFE75
:103A10006D1C3078EDB28542F1D3204670BD80B583
:103A2000FFF7D1FFFF2801D0012002BD002002BD19
:103A300038B50546974C20680321A940884320608B
:103A4000FFF786FE2168A8400843206031BD9149F8
:103A5000096821FA00F000F00300704738B500F063
:103A60001AF82946204602F013F811E010B5044672
:103A7000FE20FFF719FE204601F0BFFEBDE8104012
:103A800042E638B500F007F82946204602F0F0F982
:103A9000BDE8314038E604460D46FE2004E6F8B5A0
:103AA0000446784D794E3078E87000270DE03846AE
:103AB000FFF7FAFD286A416944F8371004EBC701A3
:103AC000C07E0871FFF720FE7F1C3078FFB287426E
:103AD000EDD3F1BDF8B5044600256A4E0DE0284649
:103AE000FFF7E2FD306A54F83710416104EBC7017B
:103AF0000979C176FFF708FE6D1CF07863490978F3
:103B0000814238BF0846EDB22F468742E7DBF1BD60
:103B100038B5FFF71DFE00215C4A127800E0491C11
:103B2000C9B291420ED2574B1C790C1994FBF2F595
:103B300002FB1544E4B2E3181C7A844202D0FF2C45
:103B4000EDD1187231BD000070B54E4C20790019CE
:103B5000057A4E4E3078854204D307B54FF4ED71A7
:103B6000FFF780FE20790119FF220A72401C31788C
:103B700090FBF1F201FB12002071284670BD414814
:103B800001790818007AFF2801D001207047002031
:103B9000704710B5FFF743FF70B13A4C206A807A46
:103BA000042809D31220FFF743FF642104F10C001D
:103BB000BDE8104001F057BBBDE8104002F011BA5B
:103BC00080B53048002101731220FFF740FFFFF756
:103BD0006BFD02F006FABDE8014095E52DE9F843DA
:103BE0000746FFF7B5FD0FF2C0082B4C254E2B4DB5
:103BF000DFF8AC9037B17F1E012F0BD9BF1E022F0B
:103C00001BD932E0316A0020886201F128000021CE
:103C1000816032E0FFF703FF28B107B540F21121C0
:103C2000404600F04FF8306AD9F800108162283021
:103C300021688160297801711FE0316A2A780E239A
:103C4000D9F8005003FB025503FB00538B62283167
:103C5000144B1B78246804EB820202EB830202EB14
:103C6000800088600120087107E007B540F2232139
:103C70004046BDE8F44300F025B8BDE8F1830000FC
:103C800018250020302600204D2500201C2500206E
:103C9000E42C0020EC2C00202825002024250020E6
:103CA00020250020EC240020656D6265722D6D7565
:103CB0006C74692D6E6574776F726B2E63000000F3
:103CC00042DE704738B504460D4602F07AFBFFF736
:103CD0005DFA2946204602F0DDFB29462046BDE874
:103CE0003440EDE72DE9F0414FF42065DFF8E06165
:103CF000371DDFF8E00101687965016AB965DFF811
:103D0000D8110968F965416A3966816A7966C16ABC
:103D1000B966016BF966806B386797F83400400725
:103D20004CBFFC6BBC6B02F096FD3865DFF8AC1144
:103D3000DFF8AC21DFF8AC31A04238D2A34236D351
:103D4000183454F804EBC7F840E054F804EBC7F813
:103D500044E0D7F854E04FEACE5E4FEADE5EBEF1B3
:103D6000060F2AD1D7F840E0964526D38E4524D2B7
:103D7000BEF800E04DF64268C6451ED106F18C053E
:103D8000D6F804E0C5F804E0D7F804E0C5F808E088
:103D900054F8045B756054F8045B7D6054F8045B70
:103DA000BD6054F8045B7D6340F2017505E04FF09F
:103DB000000EC7F840E0C7F844E0001D984204D266
:103DC000D0F80080B8F1CD3FF7D0181AB8640020C1
:103DD000F86406EB800C4FF0000ECCF878E0401C45
:103DE0000628F6D3386C00283AD0002004E0C0B290
:103DF00006EB800ECEF878C0A3422CD353F804CD46
:103E0000E6469645F8D38E45F6D25FEACC7EF3D5EA
:103E10004FF0000E06EB8E08D8F87880E04504D00D
:103E20000EF1010EBEF1060FF4DBBEF1060FE3D179
:103E3000002814BF401E0520D9E77B6F4FF0000E0D
:103E400006EB8E01CA6F8A670EF1010EBEF1050FF7
:103E5000F6DBC6F88C300146481EC9B20029ECD109
:103E6000786DC005C00D02280AD0032816D004289A
:103E700017D0052818D0062819D00C281DD01FE00F
:103E8000DFF864000168890748BF40F602151CD4BA
:103E90000068C00719D540F2025516E040F601252A
:103EA00013E040F6022510E040F603250DE0B5F5DD
:103EB000206F0AD140F6042507E040F6052504E00E
:103EC00018B1242838BF40F607252846BDE8F08100
:103ED0000000002004ED00E000E300E028E001081D
:103EE00090210008A02400201CA0004081B209B944
:103EF0004BF6EF610E4A1180000C08BF4FF6CE2042
:103F0000508070470288130448BF4A405100018026
:103F10001046704738B5064C62212046FFF7F2FF85
:103F2000054641F20B01A01CFFF7ECFF684032BDD3
:103F30005A250020DFF8DC3433F810001040C84068
:103F4000704730B5DFF8D0340FF27C5434F81040AD
:103F50009C60DFF8C04434F8105095431140294369
:103F6000D96002221A6000221A6024F810105868E2
:103F70000028FCD130BDDFF8A404DFF8A4148A784F
:103F80000AB149780FE089566FF008029142B8BF34
:103F9000302108DBC16D39B140F24A31C26DB1FB4D
:103FA000F2F189B2C91E01607047E0B50A237F2291
:103FB000DFF8700400F062F84FF6FF72BDF80610EB
:103FC0000D20FFF7BEFF07BDF8B50546DFF85044EA
:103FD000B5F5004F19D102237F22DFF84C0400F021
:103FE0004DF8BDF80000000AFF2814BF0028182073
:103FF0006070BDF800000006C00E10281CBF001D38
:1040000000F095F9BDF80000C543E07808B1002044
:1040100005E0A089ADB26840C00701D50120E0707D
:10402000A58105F00106C5F34007DFF8000401682B
:1040300041F4004101604FF440520FF2B04000EBF8
:1040400046004078010389B20220FFF77AFF30462C
:1040500002F034FC4022B90100F000FA2D06A80E4F
:1040600000F001003843A070FFF785FFE07818B139
:10407000FFF79BFF0020E0700020F2BD018800A840
:1040800002F094BCDFF89803808970472DE9F04F67
:1040900087B0DFF89C53287804900B38C0B20390A7
:1040A0000423039A0B2100A802F043FD9DF80000B1
:1040B0008DF80A009DF801008DF809009DF80200B6
:1040C0008DF808009DF803008DF80500D94E307872
:1040D000012804D16878471EBF41FF0F00E0012787
:1040E00002F097FF80469DF90200A8F10A0408F14A
:1040F0000A0A5045B6BF84424FF0010B4FF0000B47
:10410000012003998840ADF806009DF801000006E3
:1041100004D4A888BDF80610084201D04FF0010B66
:1041200003F00CF89DF8030000060AD4E888BDF8F7
:104130000610084205D19DF900005045B8BF8442E1
:1041400002DB4FF0010901E04FF000094BEA0700E4
:1041500059EA000000F09B80B748006800F00200B8
:104160008DF80400DFF8D4A2DAF8000000F4E06073
:104170000590B3484FF4E0610160002000F0C8FDF5
:1041800003F086F9AF4CA7B1687850B1AA4800682F
:1041900040084000A84908600120307003F04DFA43
:1041A00007E0206840F400502060206820F4805030
:1041B0002060307801280CD103F01BFB9E4800687A
:1041C00040F001009C49086000203070642003F03A
:1041D00034FA2FB1687818B90498C0B203F016FC0D
:1041E000687838B1206820F480502060206840F45E
:1041F00000502060BDF80600C643BBF1000F08D098
:1042000003F0F2FC8DF801008DF80280A8883040A0
:10421000A880B9F1000F08D003F08DFD8DF80300E0
:104220008DF80080E8883040E8809DF900009DF915
:104230000A10884202BF9DF801009DF809108842CB
:104240000BD19DF902009DF90810884202BF9DF82C
:1042500003009DF80510884206D0042300AA0399A4
:10426000C9B20B2002F08CFC0598CAF8000002F0DD
:10427000C1FC9DF8040000F04BFD03F080FE68785F
:1042800028B148F260702060642003F0D6F99DF8F0
:10429000010003F013FC9DF8030003F047FD07B095
:1042A000BDE8F08F80B502F0B0FEBDE80140EDE65C
:1042B00002F0ABBE70B50646A6F10B0400F040FC60
:1042C0000546A6F10B00C0B2102801D38A2070BDAC
:1042D0005D488168090702D40068C00701D58C20B9
:1042E00070BD5348067059490A680C2A0ED0A4B212
:1042F0000FF26C1232F8242090F908008018C8617F
:10430000FFF7C4FE012D08BF00F0AEFB002070BD1A
:1043100010B5044602F079FE2046BDE81040C9E71A
:104320004348007870473E4890F9000070472DE9F7
:10433000F04186B006466FF02A00864246DB142321
:104340007F224348FFF79AFEBDF810004FF6FF7139
:10435000884203D0400448BF012506D43F220021F3
:104360001020FFF7E7FD044600252D48394906F1E6
:104370002B02D2B22F2A1AD213220FF2241300E0FA
:10438000521ED2B213F91270BE42F9DB03EB4206A1
:1043900076780E6013F81210017000200026804617
:1043A0000327ADB14FF6BF72BDF8101029E0092EFA
:1043B0000CDA325C0A60067014237F222648FFF76D
:1043C0005DFE03200126B0462827EAE78B201DE08A
:1043D0004FF46052C10200F041F84FF4E062310244
:1043E00000F03CF880224FEAC81100F037F884F062
:1043F00020003C18A4B2402C28BF3F243F2284F068
:10440000200100F02BF8FFF7B6FD002006B0BDE854
:10441000F0810000A02B0020E81000406410004054
:10442000E0250020FCE301080EE401081C10004018
:10443000D42500207D2600208020004000E100E0FF
:1044400080E100E0D010004060200040AC1000404F
:10445000F8E30108C0100040FAE301080B2070E502
:10446000AA2129005523290000252800AA26270073
:1044700055282700002A2600AA2B2600552D2500A6
:10448000002F2400AA3024005532230000342200DB
:10449000AA3522005537210000392000AA3A200011
:1044A000D500E601EC02EF03F204F405F506F70788
:1044B000F808F909FA0AFB0BFC0DFD0FFE11FF13BA
:1044C00000160119021C031F10001100200030000B
:1044D0004000410050006000700080009000A0008B
:1044E000B000C000D000E000F000000000000103B8
:1044F000DFF88C08417A39B1017A012904BFC07A0A
:10450000042801D10120704700207047DFF87408AB
:10451000016821F480510160DFF86408017881B1FD
:1045200000210170DFF860180A68520852000A6022
:104530000A6842F001020A6000228169402003F00B
:104540006DBD70470FF6DC01405C7047010603D576
:104550004FF67F710840C00070478001B0FBF1F05A
:1045600080B2FF2888BFFF20C0F1FF00C0B27047B3
:1045700038B5DFF80C08817A012901D1002032BD5D
:10458000DFF80C48617871B1E178807B4518ADB2F5
:104590002079854228BF0546FFF7BCFC0121A940D0
:1045A000491E084000E0002061790818C0B232BD01
:1045B000000000002DE9F0470446C00704D507B508
:1045C00040F2651100F04CFADFF8C857286DC007BB
:1045D00048BF8C2000F19180DFF8A4670020307381
:1045E0003070DFF8AC773878A0B12078122818BF87
:1045F0000C280BD1617801F00701032902BF0019D3
:1046000010F8020C042804BF01203073A86F40F09A
:10461000010002E0A86F40084000A867707BDFF847
:104620007887DFF87897797899B10021B173296D8F
:1046300041F004012965012807D14FF6FF70C9F840
:1046400000004FF40070C8F80000FFF791FF8246A9
:104650000CE0296D21F0040129654FF0000A0128C2
:1046600004D100F03EFA642002F0E7FFA86F20F0CA
:104670000800A8671420E864C5F848A0787830B12D
:10468000707B002801BFA86C00280120A864B879BD
:104690000028286D14BF40F0080020F008002865AD
:1046A000FFF726FF28B1D9F8400040F00800C9F80C
:1046B0004000202028626C602C6068687F30686051
:1046C000042028624FF4E064DFF8D406046006E0BA
:1046D00003F058FD18B103F05DFDFEF757FDDFF85C
:1046E000C406006800F003000328F1D0C8F80040B9
:1046F000286D40F0010028650020BDE8F08710B566
:10470000044602F051FC201A0003000B3338DFF896
:10471000981688421AD2DFF8940602210160DFF869
:104720009016A2B24A60220C02F00F020A60016CDD
:1047300041F002010164DFF87C460020207002E0B5
:10474000012003F02BFD20780028F9D010BD2DE9C1
:10475000F84FDFF864667068716C08401FFA80F8E3
:10476000C6F80480DFF82C76DFF814566878002845
:1047700040F0D180DFF84446DFF814965FEAC87055
:104780004CD5D7F800A0386C796C41EA0041A9619A
:1047900099F8000000283DD09AF80100800639D52C
:1047A000012028704FF480503060306C40F480500D
:1047B0003064FFF79DFE88B3192002F03EFFDFF85A
:1047C00000B64FF44040CBF82800DBF80000009022
:1047D000E06E40F40050E066E06E40F48050E06629
:1047E000A8699AF800104901B8310818FFF787FF47
:1047F000E06E80098001E066E06E00A90988084348
:10480000E0660020CBF8280048F26070E066A88AD5
:10481000206003E00022002003F000FC5FEA086053
:104820000CD5287830B1002028700022A9694020DA
:1048300003F0F4FB306C20F4805030645FEA486091
:1048400008D5687830B902F0AFFB00220146892014
:1048500003F0E4FB5FEAC8604FD5287ADFF838A59B
:10486000012804BF697B01291ED102F0C2FF386F05
:1048700040F0010038670020687302F0BBF90A209D
:1048800002F0DBFE4FF000084FF6FF7070604FF44F
:10489000E060CAF800000920B8660120B864B86F6B
:1048A00040F00800B86718E0A97B491CA97399F883
:1048B0000220C9B2914215D2012808BF00F0D4F8F5
:1048C000B86F20F00800B8671420B866FFF750FEF4
:1048D000B8644FF40070CAF80000386D40F0010071
:1048E00038650AE0012808BF00F0BEF802F05CFB62
:1048F000002201468D2003F091FB5FEA08700AD583
:10490000FFF7F6FD38B12068A88200202060706CA7
:1049100020F0080070645FEA88600AD520203862C1
:10492000687830B902F040FB00220146882003F08D
:1049300075FB687820B118F4407F04BF0120A8708F
:10494000BDE8F18F70B582B00446FFF7B1FCDFF827
:10495000740400210160DFF830541521E960092159
:1049600001651F21416001210166FFF78BFBFFF705
:104970002BFB02F065F903F039FF00F043F9DFF893
:104980000064308A00F06BF9708A00F070F9FEF76D
:10499000FDFB696841F040016960FEF7FDFB70793D
:1049A00000F005F9B07900F012F9307900F041F922
:1049B000DFF8140490F90000FFF7B9FCF07800F07C
:1049C000A7F996F9070000F0AFF902237F22DFF87C
:1049D000FC03018800A801F0E9FFBDF80000C00554
:1049E0004CBF0020BDF80000DFF8E4130870DFF8CA
:1049F000E4030078FFF75EFC20B107B540F27531A3
:104A000000F02EF8012C05D12868C00711D500F060
:104A10002BF80EE06CB92868C0070AD402F0E9FE52
:104A2000286840F001002860C82002F006FE00203F
:104A30007073DFF86843F120206440F2F910E063FE
:104A400002F0D8F82868C00707D54FF6FF7020603D
:104A5000DFF844034FF4E061016002F019FD73BD1B
:104A60000FF2B030FFF72EB970B5DFF86C532E6837
:104A7000DFF80C43607B012832D0FEF787FB48F259
:104A8000D00129606A68520509D548F222022A60DD
:104A90006A68D205F5D529606A685207F1D4B6B2C2
:104AA0002E60DFF8FC124FF4E0620A60DFF82C138E
:104AB0000A6A520852000A620A68520852000A60E2
:104AC0000A6842F002020A604A6A42F001024A623F
:104AD00001216173FEF760FBBDE8704002F058BE33
:104AE00070BD70B5A64C607B48B302F082FEFEF745
:104AF0004DFB0546DFF8E80201210160A34E306D51
:104B000040F0010030650020607302F073F820204F
:104B10003060306B40F002003063F06D40F0080010
:104B2000F0652846FEF738FB0A2002F086FD9B4818
:104B30004FF6FF71016098484FF4E061016070BD6D
:104B40008F48407B7047000010B58D4C607B20B1D2
:104B500007B540F26441FFF783FF207A18B1FFF7F1
:104B600083FF207A607310BD8548007A704780B556
:104B7000022801D3012002BD81490872487B012827
:104B800004D1087A20B9FFF7ACFF01E0FFF7DCFFA2
:104B9000002002BD93480068800200149A386FF02C
:104BA0007F0201B29142B8BF104640B2704710B5C3
:104BB0000446FEF7EBFA8C49002C0A6814BF42F059
:104BC000120222F012020A606D494C7140E038B5C1
:104BD0000446FEF7DBFA054602F063FE40B9824860
:104BE000002C016814BF41F0800121F080010160B8
:104BF000634884712846BDE83240FEF7CDBA60486C
:104C00008079704779487A494A780B7813EB022209
:104C10000260CA788B7813EB022242604A790B79E2
:104C200013EB02228260CA79897911EB0221C160FB
:104C3000704710B50446FEF7A9FA6B49002C0A68C4
:104C400014BF42F0200222F020020A604C490C718D
:104C5000BDE81040FEF7A0BA4948008A70474849AD
:104C600008826449086070474548408A7047444953
:104C7000488261490860704760480078704757482B
:104C8000816A41F00201816201210160704753484D
:104C900000210160816A21F002018162502002F04E
:104CA000CCBC38B5564C574821690180E169418038
:104CB000554DE96C818000202061FFF7E0FF012065
:104CC000E0610020606220624CF25D00E8642868C8
:104CD00040F4004028604FF40040206048F2020099
:104CE000206031BD80B5FFF7D2FF45484FF4004149
:104CF00001600021016044490A6822F400420A6010
:104D0000404A9388CB64118801615188C16101BD1B
:104D10001D4900280A6814BF42F0020222F0020274
:104D20000A601749C870704738B504467F2C0ED109
:104D300002237F223548018800A801F037FEBDF824
:104D40000000C00554BFBDF800406FF04A04FEF7F4
:104D50001DFA054602F0A5FD30B964B204F19A00CF
:104D60008005000C2A4908600548C4712846FEF7F2
:104D700013FA31BD024890F90700704700000000A7
:104D80007026002040A000408020004030200040DD
:104D9000D82600201020004000E100E004A00040E0
:104DA00080E100E0A8200040CDFF070008A00040FF
:104DB00040200040D22F002000A00040641000409E
:104DC000E41000405C100040E02500201CE40108D5
:104DD000DC250020D42500201C100040602000406D
:104DE000281000400C100040842000409820004013
:104DF000F02C002094200040902000408C260020C1
:104E000018100040902F0020C010004020E401083E
:104E1000541000407068792D636F6D6D6F6E2E6356
:104E200000000000FEFEF7F7C8C8010010B5DFF86B
:104E3000D003006898B9FEF7A9F90446DFF8C40367
:104E40000178002918BF052904D1032100F8041BAB
:104E500000F0FEF92046BDE81040FEF79DB910BDF8
:104E60002DE9F047DFF8A04394F80080DFF8945371
:104E70000020287129780FF2AC30DFF8847349B92B
:104E80003C681CB907B59621FEF71CFF002038606E
:104E9000A04792E0032903D007B59C21FEF712FF3B
:104EA000FF262670B8F1FF0F0CD0404603F0EAFC55
:104EB000FEF7FAFB404601F0A4F94046FDF72CFE50
:104EC000FEF722FC01F0A0F8002865D00127207829
:104ED00003F0D8FC8046FEF7E7FBDFF8309320783C
:104EE00003F0CBFC00F00C000C2816D1207803F066
:104EF000B5FC824603F0FDFC10F80A0099F800109A
:104F0000052902D1062808D106E001291CBF032982
:104F1000082902D1072800D10027207803F0ADFC32
:104F200000F00C00082804BF99F8000008281FD0E2
:104F3000F7B14046FEF7C6FCD0B14121207803F01E
:104F400075FE18B94121207804F0CCFE2078FDF7D9
:104F5000E3FD2670FEF71AF9044603202870281D89
:104F600000F076F92046FEF717F9FEF7CAFC0FE0CD
:104F7000207800F085F80646FEF708F9044601207F
:104F800028700121304603F031F82046FEF704F97D
:104F9000BDE8F047FEF7B8BBFEF7F8F8044600207E
:104FA0002870386810B1281D00F052F92046FEF72D
:104FB000F3F8BDE8F047FEF7A4BCBDE8F0870000B9
:104FC00080B590480178012904D0022906D004292F
:104FD0000BD010E0BDE8014003F09AB8FFF7B4FD34
:104FE0003120BDE8024001F0BFB805210170BDE8E5
:104FF000014005F044BB07B54FF4A2710FF2242025
:10500000BDE80440FEF75EBE38B5FEF7BFF80446C3
:105010007C4D2878052804D007B540F2531100F0E4
:105020002BF8002028707648006810B1281D00F089
:105030000FF92046BDE83240FEF7AEB870B5044621
:10504000FEF7A4F805466F4E3078002818BF0528F3
:1050500004D007B54FF4B07100F00EF804203070A2
:105060004FF6FF7084421CBF204605F0ADFB28467A
:10507000BDE87040FEF790B80FF2A810FEF722BE10
:105080002DE9FE4F804603F0DEFB8DF80500604FF2
:10509000386818F800009DF80510401A8DF80400D3
:1050A000404603F0EAFB00F00C0004280CBF012589
:1050B00000254046FDF767FD8346BBF1FF0F0EBF9D
:1050C000002738681BF80070524C661CDFF84891C6
:1050D000FF2089F800000DB3404603F0E1FB0646CF
:1050E00048F6410A4FF6FF70864218BF48F6610A3B
:1050F000FEF72BFC0146201DFDF769FF3146A01D80
:10510000FDF765FFFEF71DFC014604F10800FDF701
:105110005EFF04F20A0604F20A00029000200090EA
:105120009DF804309DF8052041463046FDF792FD7C
:105130009DF80400861947B1002000903B460022EC
:1051400059463046FDF786FDBE196DB1404603F065
:1051500085FB4078800726D542460298311AC9B2AD
:1051600004F025F986191EE0A078617801EB002093
:1051700080B2410B01F0010181F001054DF6FF7194
:1051800001EA000A0AF00700032805D1601C03F0B9
:10519000B0FB0019407804E01C480078082802D1D0
:1051A000072089F80000404603F018FD08B14AF0D6
:1051B000100A1FFA8AF1601CFDF709FF1AF0070FA9
:1051C00004D116480178491C017004E014480068B5
:1051D000017E491C0176E170301B401C2070301BA1
:1051E0007F2804DB07B540F2BF11FFF745FF2846D3
:1051F000BDE8FE8F03480178481E8041C00F70470C
:10520000CC260020002D0020BD2600209C27002059
:10521000D42400200C2D00207B260020BC2600205A
:10522000502600206D61632E6300000038B544787D
:105230004568FDF7ABFF0C2161438B4A8B585B1B24
:10524000B3F1004F98BF8D50BDE83240FDF7A4BFC9
:1052500010B5044605F0F1FA606004202070204685
:10526000BDE81040E2E738B500F011F8281860609A
:10527000012007E038B500F00AF805EB1020000225
:105280006060022020702046BDE83240CEE7044630
:105290000D4605F0D2BA38B5FFF7F9FF05EB10401F
:1052A000000460600320EDE710B50446207860B18B
:1052B000042806D005F0C1FA6168421AB2F1004F25
:1052C00001D8002010BD081A10BD4FF0FF3010BDEE
:1052D00070B5044605F0B1FA0546FDF757FF0646DE
:1052E0006FF00041606800F02CF8401920603046F3
:1052F000BDE87040FDF750BF70B504460D46164638
:1053000005F09BFA002156B1FF22327007E0121A15
:10531000AA4202D2154606B13170491C08342268EF
:105320000AB9284670BD1378002BF6D0042B04D0A0
:105330005268831AB3F1004FE9D806B131700020EA
:1053400070BD0022D8E738B5044605F076FA054668
:105350000BE0017841B1042904D04168691AB1F128
:10536000004F01D861688847083420680028F0D1D0
:1053700031BD10B50C213C4A01FB002405F05DFA5B
:105380002168401AB0F1004F06D86068FFF7DBFFD4
:105390002046BDE810409BE710BD000070B50446F4
:1053A000324D687832490978884206D307B54FF400
:1053B00084710FF2C000FEF785FC6E78701C687077
:1053C0000C20294900FB061044600121017200E015
:1053D0004E7054F8081B0029FAD1FFF779FF3046C8
:1053E00070BD0000F8B505464FF0FF3000901F4C2F
:1053F000207848B302F0C6FE30B907B540F2391143
:105400000FF27000FEF75EFC05F017FA0C21164A49
:1054100001FB052300251D72002305E0009EB54217
:1054200088BF354600955B1C6578DBB2AB420FD276
:1054300001FB03263568471BB7F1004F04D92D1A2D
:10544000367A0EB9002DE9D102F0A4FE0020F2BD9B
:1054500000A805F011FA0120F2BD0C21024A01FB5F
:105460000020012101727047BC280020D42F0020A9
:1054700038E001086576656E742D636F6E74726F27
:105480006C2E6300534800680088704751480068DC
:10549000801C70474F480068C07E70474D490968BE
:1054A000C876704738B54B4D2968C8724A4C4B498D
:1054B000022814D12868807A04283CBF0846FFF7E8
:1054C000C7FE2868807A03283CBF2046FFF7C0FE4D
:1054D00028684069C00054BF9024BC2405E0002027
:1054E0000870207000F08BFD9124204605F020FA12
:1054F00020B92046BDE83240FEF7B8BA31BD354884
:105500000068C07A00F00F00704732480068C07A27
:1055100000F00F00022801D10120704700207047E1
:1055200038B504462B4DFFF7F0FF28B92868C07A3C
:10553000032801D0932032BD05F09AFF208128680E
:10554000407BA0722868007BE072204607F000FADA
:105550000020207304F1140104F1100007F0A5FAF3
:10556000E081002032BD10B5002300E05B1CDBB2FF
:105570008B4205D210F8014B9442F7D0002010BDA9
:10558000012010BD80B5082101F011FD08B10020F7
:1055900002BDA52002BD0F480068C07A01281CBFCB
:1055A0003128332801D1012070470020704710B501
:1055B0000446FEF7BCFE10B9064909684C7310BDDD
:1055C0000448006890F90D00704702480068007BAD
:1055D0007047000050260020842E00207C2E0020E2
:1055E00070B582B0044600F0F0F9255CDFF83C6647
:1055F00030788DF800007088411E89B200A8FDF750
:1056000016FC9DF80010DFF8282612688C5405B9A6
:10561000202571881F31081A2818708073BD38B58D
:105620000446DFF80856688809B1A04206D222462F
:1056300001462878FDF78BFB08B16C80012032BD54
:1056400010B582B0DFF8E41509788DF80010014636
:1056500000A8FDF7ECFB04469DF80000FDF7E8F913
:10566000201816BD80B5FFF7EBFF007802BD10B51E
:105670000C46FFF7E5FF047010BD00002DE9F04770
:1056800084B08246884615460024DFF8A06530784D
:105690008DF80400FEF7AAF88146DFF89805007837
:1056A000814505D307B58B210FF2B070FEF70AFBD9
:1056B0004146504607F090FB00287AD0FF2D05D0D8
:1056C0002846FDF71BFA00F080F92C5CDFF86875BE
:1056D0003878FF2813D0FDF756FAFF2818BFFDF7DA
:1056E0001BFA3878DFF854150968425C02F07F0233
:1056F00042543878FDF702FA3878FFF771FF01213C
:10570000B0884044C01C80B2FFF789FF40B9012037
:105710007070FF2D1CBF2846FDF7FEF9002049E000
:10572000B088FFF78DFF04EB0801891C0170DFF8DA
:1057300010050778B088401C80B2FFF781FF077022
:10574000B088801C80B2FFF77BFF4FEA491141F01F
:1057500080010170B088C11C89B201A8FDF767FB08
:1057600002460120009043469DF804105046FDF784
:1057700092FAFF2D0CD02846FFF732FF0094002349
:105780002A46B0884044C11C89B23078FDF75EFCDF
:10579000B08804EB0801C91C0818B080012007F08C
:1057A00021FCDFF8A0040178012912BF02290021A1
:1057B0000170012004B0BDE8F08738B504460D0043
:1057C00008D02D1FA8B200E02846FFF739FF007867
:1057D000401C4519DFF854048088ADB2854209D2D7
:1057E000E81C80B2FFF72CFF0078A042ECD1281D06
:1057F00080B232BD4FF6FF7032BD10B582B00446A4
:10580000192000F06DF9FF22022100F0A4F9902C7C
:1058100003D1DFF834040221017013BD80B54822A2
:1058200000F024F838E210B586B004461B208DF84D
:105830000000A0788DF80100218800F0C2F808224D
:10584000211D01A8FCF7C3FE00A8E1780173217BAC
:105850004173607B8DF80E000DF10F0000F029FA06
:105860009EE280B51C2200F001F815E28DF80020C0
:105870008DF801008DF8021070472DE9F04F85B0CA
:1058800005460E46144607F0FAFB8046224631468E
:10589000284607F0A3FA00285FD10DF1010007F0B8
:1058A000F6FB30B962208DF80000FF22092100F0DC
:1058B00052F9FF2C0FBF4FF0000BDFF89003006888
:1058C00014F800B045208DF8000000AF7D700DF198
:1058D0000201304600F07CF80DF10D0000F0E9F90E
:1058E00041460DF10F00FDF772FB07F070FF8DF8D8
:1058F00011000025DFF858030668DFF85893DFF839
:1059000058A301E06D1C0C36EDB29AF8000099F82E
:105910000010401A85420BDA30884045F2D1FDF77D
:1059200065FFB17AC1F342018142EBD1BD7401E060
:10593000FF20B8748DF813B02246142100F00BF943
:1059400000281EBFDFF814030078212805D1DFF8F6
:105950001003017841F00401017005B0BDE8F08F3B
:105960002DE9F04385B00746884691461D4600F074
:105970002CF82E5C0C9C2146384608F054F83F2049
:105980008DF800008DF80170414600F01AF801A969
:10599000484600F01DF8B3480068285C8DF80F00F9
:1059A0008DF81040B0480078402804BF0026FF253D
:1059B0008DF811602A46122100F0CDF805B0BDE83F
:1059C000F0830DF10200FDF702BBA04800687047AC
:1059D00038B504460D4621882846FDF7F8FA618857
:1059E000A81CFDF7F4FA2079287160796871E188C4
:1059F000A81DFDF7ECFA218905F10800FDF7E7FA8B
:105A0000A07AA87231BDF0B585B00F4616461C4687
:105A1000012E07D101210022022552EA01030AD1F9
:105A2000032517E0052EF5D00021032E18BF072E01
:105A3000F1D10122F0E78D4B1B783BB1012B08D04F
:105A4000022B05D0042B08BF0D4603E0012501E021
:105A500002B10025242100F025F9082239460DF174
:105A60000300FCF7B4FD8DF80B608DF80C50214657
:105A70000DF10D00FDF7ABFAFF220F2100F06BF8DE
:105A8000284605B0F0BD80B56E2100F0F1F805E1C3
:105A900010B584B00C469B2100F090F88DF80940B9
:105AA000FF220A2118E070471FB50446232000F0AA
:105AB00017F88DF80210204608F060F901460DF144
:105AC0000300FDF784FA0DF10D020DF105012046EA
:105AD00008F064F9FF220E2100A8FFF7CFFD1FBDDB
:105AE0008DF800008DF80140704780B57C21D1E031
:105AF00070B586B004460D4616467D208DF8000030
:105B000021460DF10100FDF762FA082229460DF148
:105B10000300FCF75CFD8DF80B60FF220C2100F008
:105B20001AF803A807F0B3FA18B903A9204608F039
:105B300023FB06B070BD38B504460D4607F063FF81
:105B40008020FFF7CDFF2946FFF73BFFFF2200F043
:105B500001F831BD042100A890E5F8B50E461746BE
:105B600010F8014B2146FDF75AF80546FF2D03D1E9
:105B70002E4801214170F1BD8E208DF800008DF876
:105B800001608DF802708DF803402A46FFF7E2FFAE
:105B90002846FCF7C1FFF1BD10B584B00C46922138
:105BA00000F00CF80DF1090000F083F8FFF70DFF8D
:105BB000205C8DF80B0022460C218DE78DF800103B
:105BC000082201460DF10100FCF701BD80B51F4A16
:105BD0001268825C93238DF800308DF801108DF8E7
:105BE0000220024659E01CB5044646208DF800000C
:105BF00000A821784170617881700DF1030000F0F8
:105C000058F8A07811490968405C8DF80500A27821
:105C10000621FFF7A0FF13BD80B598208DF8000086
:105C20008DF80110FF22022138E000008E260020AE
:105C3000DC2400201C250020E0260020D8240020A1
:105C4000E2260020CE2F0020E3260020D4240020CE
:105C500038250020D82F002034250020E4260020FD
:105C6000702E0020682E0020EA260020E726002063
:105C70008DF800108DF80100FF220221704700000E
:105C800002490968C97A022902D0704750260020CB
:105C900080B50D2100F006F8FF22032100A8FFF7D0
:105CA000EDFC01BD8DF8001001460DF10100FDF77E
:105CB0008EB910B5044607F0DBF9601CBDE8104052
:105CC00007F0D8B930B58FB005460C463B2200210D
:105CD00000A8FCF7BFFCB6208DF800000DF1010113
:105CE000284600F072F800A8DCB1002180F82910E5
:105CF000082221460DF12A00FCF769FC0DF1290567
:105D0000207A687261890DF13300FDF760F9A1898D
:105D10000DF13500FDF75BF9A07BA873E07BE8731C
:105D200002E0012180F829100DF13900FFF7C1FFD1
:105D3000FF223B21FFF70FFF0FB030BD80B5B72129
:105D4000FFF796FFAAE710B586B00446B8208DF895
:105D5000000021880DF10100FDF739F961880DF18E
:105D60000300FDF734F9A1880DF10500FDF72FF9C7
:105D7000E1880DF10700FDF72AF921890DF10900ED
:105D8000FDF725F961890DF10B00FDF720F9A189D7
:105D90000DF10D00FDF71BF90DF10F00FFF789FF65
:105DA000FF221121FFF7D7FE06B010BD00B58BB062
:105DB000BB218DF800100DF1010100F006F8FF2263
:105DC0002921FFF7C8FE0BB000BDF8B504460D460B
:105DD000A07828702188681CFDF7F9F80822211D99
:105DE000E81CFCF7F4FBE078E872207B2873607B0A
:105DF000687305F20E0604F110073A683146012077
:105E000008F00AFA7A68311D012008F005FA39898C
:105E100006F10800FDF7DBF8082204F11C0105F18A
:105E20001800FCF7D4FBA18C05F12000FDF7CFF89A
:105E3000E18C05F12200FDF7CAF894F8280085F8F6
:105E4000240094F8290085F8250094F82A0085F8A4
:105E5000260094F82B0085F82700F1BD7374616368
:105E60006B2D63616C6C6261636B732E6300000069
:105E700038B50246344B33F812404FF6FF75AC424A
:105E80001CBF641C23F81240032818BF052803D147
:105E90001C890A191A810CE0092818BF0B2803D1A4
:105EA0009C8A0A199A8204E01D2802D15C8F0A1983
:105EB0005A87BDE834400DE080B53E2200212248DB
:105EC000FCF7C8FB222200212048BDE80840FCF76F
:105ED000C1BB0000F8B504460D4600260FF2800055
:105EE000315CA14204D0761CF6B2112EF8D3FF2605
:105EF000FDF77CFC074616480078874205DB07B5AE
:105F00006D210FF25000FDF7DDFEFF2E1BD0222089
:105F10000E4900FB071030F816104FF6FF72914241
:105F20001CBF491C20F81610032C18BF052C03D1E8
:105F3000018969180181F1BD092C18BF0B2C02D110
:105F4000818A69188182F1BD8C2D0020CC2D002022
:105F50001C250020636F756E746572732E630000DC
:105F6000000102030405060708090A0B1516181993
:105F70001A000000F8B504460D46DFF8000400786A
:105F8000002802BFDFF8F8633069002827D1DFF866
:105F9000F40300780A2818BF022D20D1FDF7F6F887
:105FA0000746F278082A18D2012D02D190190472FE
:105FB00006E006F1080106F10900FCF708FB34725F
:105FC000F078401CF0703846FDF7E6F82046FCF704
:105FD00095FDFEF72BFF0120F2BDFDF7DDF8002057
:105FE000F2BD80B5FDF794FDDFF89403017929B97E
:105FF00001210171BDE80140FEF718BF01BDDFF8C6
:10600000800300210171704738B5DFF87003007814
:10601000002839D1FDF7BAF80546DFF86443E07887
:1060200070B1217A6170421EE270D2B204F10901AE
:1060300004F10800FCF7CBFA2846FDF7ADF821E0A3
:106040002846FDF7A9F82069F0B92079022802D086
:1060500008F030F960706078FF2810D1207998B18D
:10606000FDF772FDFDF720FB08F0DBFA6070FF28FA
:1060700003D0FDF784FD00B92071FDF745FB607882
:10608000FF2801D0012032BD002032BD2DE9F041B2
:1060900004460D4602F043FEB94E00203071FDF774
:1060A00075F88046306920B14046FDF775F800204C
:1060B00013E0B5480078052808BFFEF7A5FF00F0FB
:1060C0000EF8070008BF34614046FDF765F81FB1C0
:1060D00005B1A047012000E00220BDE8F08110B525
:1060E000FDF754F8A649CA78A74B1B781A430979DB
:1060F000114305D1A54909784C1EA441E40F00E0E5
:106100000024FDF749F8204610BD10B59E48002137
:1061100001709B4CFF2060702161FDF7FBFE207039
:106120009A48002101709A48017014219948FFF79C
:10613000A1F8BDE8104002F08FBC38B5024600213E
:10614000082002F04FFC0446FF2C01D1012032BD93
:106150000121FFF70FFF05462046FCF7DDFC681E16
:106160008041C00F32BD00002DE9F0410446DFF848
:106170001C82854E884F824D6878FF2809D1387877
:10618000FE2818D007B54FF4B3710FF21820FDF7B1
:1061900099FD3878811F01290DD8052131702146DC
:1061A00004F0D8FA08B900F013F86878FCF7B4FCEA
:1061B000FF20687002E0AC7000F00AF8387804281C
:1061C00004D02879012804BF02202871BDE8F0819D
:1061D000032030704046FFF73BB810B5684C61783B
:1061E00081420DD10846FCF797FCFCF7CFFFFF2159
:1061F00061706949FE220A70BDE81040FCF7CCBF0F
:1062000010BD38B504465E4DA97802F00FFD28B9DF
:10621000A9782046BDE8344003F064BD31BD0000DC
:106220002DE9F8430446FF2C06D107B540F2B7111B
:106230000FF27010FDF746FD584D204602F01DFB91
:1062400000F00C002870FF206870204602F015FB5B
:1062500000F00C0008285FD028780C285CD120467C
:1062600002F0FCFA0746FCF7ACFE804608F44C4608
:10627000384602F03EFBC05D68704FF6FF794FF480
:10628000406018EA000F06D0F81CFCF79AFE48455B
:1062900008BF46F0400608F44060B0F5006F06D134
:1062A000781DFCF78EFE484508BF46F010064CF6F8
:1062B00050006978012918D0022919D0042908D082
:1062C000062927D0072927D008291AD07C2912D0DF
:1062D00051E0B0B2B0F5484F18BFB6F5084F4AD1FB
:1062E000204602F02CFC002812E0B6F5484F0FE0E3
:1062F000B6F54C4F0CE0B1B2B1F54C4F0CD0864224
:1063000006E04CF64040864235D11E48007805280C
:1063100031D101E086422ED1204602F0A9FA06468C
:10632000204602F0AAFA00F00C00082816D0B006A9
:1063300014D54FF6DF7000EA0601204602F09AFA03
:10634000204602F080FA0646204602F087FA02F064
:10635000D0FA8119C9B22046FCF72FFD2146281D2D
:10636000FCF7A6FE2046FCF7C9FB0D480078BDE807
:10637000F243FFF772B8BDE8F183000071260020F8
:10638000BC2600209C270020002D0020042D00208A
:10639000A4270020F82C00207B260020D0260020F7
:1063A000D62F00206D61632D617262697465722E53
:1063B000630000002048012181604EF6BE2141604B
:1063C00000E01E48012101607047A52805D11A4848
:1063D0004DF6AD61416002210160704716480068CA
:1063E00010F0010018BF0120704780B5144810213B
:1063F0000160144800781449144A58B103280CBFAE
:1064000000200120106040F651000860002001F0DB
:1064100035F906E0022010604FF40060086000F0DB
:1064200012FF0B4807210160002101640948102177
:106430000160002002BD00000060004008600040D4
:1064400080E100E0C62F00200C6000400800004002
:1064500014A0004000E100E070B5A048FCF73DFE4C
:106460000446FF2C15D09E480068205C851EE9B2CA
:106470002046FCF7B0FD0646E9B22046FCF79DFC3D
:106480002146304600F0DFF82046BDE87040FCF7BA
:1064900043BB70BD03460A468FA10420FFE70CB43E
:1064A00080B502AA00F02AF801BC5DF80CFB00B52B
:1064B00087B001F0D5F90021059104915021039195
:1064C00000210291019187490091002302460FF2B9
:1064D00024210120FFF7E3FF83488179039101889C
:1064E00002914179019101790091C37882780FF28C
:1064F00010214220FFF7D3FF07B000BD2DE9F04F78
:1065000085B005460C469046002608F0C8F9C0B193
:106510000120FCF798FA8246BAF1FF0F11D0002152
:10652000FCF78CFA294601A808F0BBF905467CB9AE
:1065300000F084F810B9504608F025FA5046FCF7F0
:10654000EBFA05B0BDE8F08F8DF804200125641C3E
:1065500020780028ECD0A0F13001C9B20A2905D278
:106560000A2101FB0600A0F13006F0E700F066F812
:106570000028E3D10025227801A8422A0ED0442A1F
:106580001AD0462A25D0572A0DD0622A3AD0662A38
:106590002AD06C2A25D0702A26D0D5E758F8040BCB
:1065A0008DF80400D2E758F8041B8DF80410090494
:1065B000090E41700225CAE758F8041B8DF8041033
:1065C0000A0A42700A0C8270080E8DF80700042532
:1065D000BDE758F8041B5046FCF7AFFB0028B6D0C7
:1065E000ACE758F8046BB2E7012358F8041B662A9D
:1065F00008BF0223F2B25046FCF77FFB002808BF19
:106600000026ECE7364800681AF8009058F8041B9A
:10661000CFB2FF2F9BD017F800B00BEB0901C9B226
:106620005046FCF7CAFB002888D1CDF800B0002303
:106630003A4649465046FCF709FD88E72A4601A933
:106640005046FCF778BBF0B585B00C46122806D052
:106650003A281AD04FF6FE71884235D03AE02048E9
:106660000068255C214E08E02046FCF7E1F9394638
:10667000FCF706FE203D3068245CFF2C2AD0EDB2EA
:10668000212D2CBF20272F46EEE7FEF738FF0446CA
:10669000FEF7EAFA0546FDF746FE0646FDF740FE20
:1066A0000746FEF7D9FA024604940E4803901048B4
:1066B000006800880290019500963B460FF2480161
:1066C0003B20FFF7ECFE05E0204605B0BDE8F040BA
:1066D000FFF7E9B905B0F0BD5746000020260020BD
:1066E000D4240020F02C002020E30108DC2400202A
:1066F00050260020424238704242424257424200F5
:106700004242424257420000574242575738704275
:106710000000000010B50446FCF738FD5248302157
:1067200001605248016052480160524810210160E6
:10673000200A08BF2402504804804FF20F01418014
:10674000BFF35F8F4D480021016041604C484D49C7
:10675000016010BD10B54C4C2068C0060BD54648F2
:106760004A490A68C0F894204968C0F8901040F679
:106770000620FFF7CFFF2068C00708D54448032153
:106780000170206C400840002064012020602068D7
:10679000000703D5206C20F00800206410BD000025
:1067A00080B5002000F00AF838B907B5F5210FF2DE
:1067B000F800BDE80440FDF785BA01BD2DE9FC44B1
:1067C000344C4142226889184A1C02F01F020028FA
:1067D0005ABF504245185518A5F11F062E48A84229
:1067E00024BF2E48864203D3EFF30880854201D3AD
:1067F00000202EE0FCF7CAFC82462948006810F011
:10680000010718BF08F06FF9206801468D4207D2D2
:106810002068CD2100F8011920608542F8D307E0F7
:106820001F38CD2201E000F8012B8142FBD2256008
:10683000304608F05DF9E22001E006F8010BB542B0
:10684000FBD20FB108F034F95046FCF7A5FC2068E4
:106850002038BDE8F6840F48006870470D4800688E
:10686000203870470F4870473020004030C8004043
:1068700030C0004010D00040000000201C4000400C
:106880000CED00E00400FA0518A000403050004074
:1068900026260020F0250020481D0020A80C0020FE
:1068A00094ED00E0000000206D6963726F2D696E49
:1068B0007465726E616C2E6300000000F0B589B0E3
:1068C0000446002000F050FE0A237F22264801885B
:1068D00000A800F06BF84FF6FF75BDF80200A84263
:1068E00006D107B54FF486710FF29400FDF7EAF96F
:1068F00000260FF2A40701E02A4616B94FF47C42A5
:1069000003E0022E08BF4EF23F0200A800F032F86A
:10691000761C052EF0D3012C03D114237F221348BB
:1069200002E014237F221248018803A800F03EF8F9
:1069300000260FF26C072A4608E02A46012E08BFFF
:106940004FF6C07202D0082E08BF002203A800F044
:1069500011F8761C0A2EF0D3012C04BF012000F0A0
:1069600003FE09B0F0BD0000FCE30108FAE30108F2
:10697000F8E3010830F81610F05DFDF7E2BA000008
:10698000616E616C6F6775652D63656C6C2D6269F6
:1069900061732E630000000000100C0D0E0000005B
:1069A000010203040708090A0B0F000030B583B089
:1069B000044610467F2808BF0020B1F5004F1AD1C9
:1069C00008237F2240F6120100A8FFF7EFFF0822FC
:1069D0000FF2CC0100A8FBF744FE30B908237F2258
:1069E00040F2A27100A8FFF7E1FF082200A92046AB
:1069F000FBF7EDFD37BD1A46214D294300FB03117E
:106A00002046FBF7E4FD37BD2DE9FC440C46154656
:106A10001B4941EA00060FF27C0AC00703D507B5FF
:106A2000622100F033F8E80703D507B5632100F0D1
:106A30002DF81448864204D3A819401E12498842F2
:106A400003D307B5642100F021F8002707E0B85D03
