S01D000073657269616C2D756172742D626F6F746C6F616465722E73333716
S31508000000000400206F00000885000008850000082D
S31508000010A70B09010000000001010050002000089C
S3150800002004050000D70800088D0B000870040008B6
S3150800003000000000000000000000000000000000B2
S315080000400000000000000000000000005F00000043
S31508000050FFFFFFFF09480068202100EA010028B1D8
S315080000600748016842685FEA010D10477047FFF7C5
S31508000070F1FF00F010F800F03FF800002C000040F7
S315080000800020000803E000005FEA000D70474FF407
S31508000090017000F095B838B54FF20F043C4D00F0EA
S315080000A0BBF820B140F2052028806C8031BD394864
S315080000B00068C00613D56888A0421CD1288840F27B
S315080000C0022188421CBF40F20621884213D040F222
S315080000D0011188421CBF40F2111188420BD02E4CE8
S315080000E0208A40F6A721884205D12068FFF7CCFF71
S315080000F06068804700BF31BD10B572B627480168F1
S3150800010049084900016000F0CDF822480068000956
S31508000110C10754BF2249234902E0CD2201F8012B29
S31508000120214A9142F9D32149214A224B03E011F889
S31508000130014B02F8014B9A42F9D31F491F4A002383
S3150800014001E001F8013B9142FBD311494A884FF27D
S315080001500F039A420BD10A8840F205239A4207D028
S31508000160C00704D5100A012818BF022800D00022AB
S31508000170064802804CF23C30488000F05FF94FF4A4
S315080001800170BDE8104000F01BB80000280C0020E4
S31508000190000000202C00004000200008FCED00E0D4
S315080001A00000002098000020000400203C100008F1
S315080001B00004002008040020080400202D0C00205C
S315080001C00D4930220A600D490A600D490A600D4939
S315080001D010220A60010A08BF00020B4908804FF284
S315080001E00F004880BFF35F8F084800210160416017
S315080001F007480849016070473020004030C8004071
S3150800020030C0004010D00040000000201C400040D4
S315080002100CED00E00400FA050020704780B500F0F8
S315080002202BF90121062000F032F9062000F05FF9CB
S315080002300121072000F02BF9072000F04BF9174899
S31508000240016821F01001016001BD0000052800D9F0
S31508000250704710B5DFE800F01721030F1C17104C84
S315080002602088411E2180C0B9072000F04DF942F2CE
S315080002701070208010BD072000F039F90620BDE86F
S31508000280104000F041B90620BDE8104000F022B940
S315080002900620BDE8104000F02AB910BD00BC004099
S315080002A02A0C002006E04B48016841F00101016074
S315080002B0012141604C48512101607047F8B5494C0D
S315080002C0454D4FF6FF77464EB088B84227D10223F0
S315080002D07F2246480188301D00F02CF9B088B842C4
S315080002E004BF0220B080A069800703D4A06940F04B
S315080002F00200A06101207070B08820600720286085
S3150800030000206860A86035484FF000710160A06958
S31508000310C00732D5E06980B348F69F403CE0A06943
S315080003208007E3D52868C00348BF00F043F8707813
S3150800033098BBA06810F00100A168B28803D10F2A03
S3150800034008D2521C06E0890704D5F17811B1032AB0
S3150800035028BF521EF07092B2022A38BF0222B2801B
S315080003602068B1888842C5D1A06900F00300032837
S3150800037018BFFFF798FF0120F2BDA069C00701D595
S31508000380E06920B1A069C00704D4E06910B144F25D
S315080003904F6001E042F2273068600020F2BD80B568
S315080003A003E040F2DC5000F0F9F8FFF787FF002879
S315080003B0F7D001BD0848002141608160016821F03D
S315080003C00201016005484FF00071016004480021F0
S315080003D0417070471C40004010E000E004ED00E06A
S315080003E00004002004400040008000403810000847
S315080003F00078704730B5DBB00446214636A800F0D1
S31508000400E7F8002000904FF402630B4A36A901A8CA
S3150800041000F061FA0FF24C0201A90FF2540000F045
S31508000420B5FB054600F02FF81DB12146284600F019
S315080004301BF928465BB030BD0804002080B5FFF7DD
S31508000440AEFFFFF7EBFE00F0C1FB00F047FC40F201
S315080004500120FFF7B5FE002002BD012A08BF00F003
S31508000460C9BB7047AD0F0008E90F0008F103000883
S31508000470230800085B0800080E48012181604EF633
S31508000480BE21416000E00C4801210160704710B5AB
S3150800049082080FF2280353F82220136800F003009D
S315080004A080000F248440A34301FA00F0184310602B
S315080004B010BD0000006000400860004000B0004029
S315080004C004B0004000B4004004B4004000B8004046
S315080004D004B80040C108032908D2C1108902124A8B
S315080004E0012300F0070003FA00F050507047C108D6
S315080004F0032908D2C11089020C4A012300F007001B
S3150800050003FA00F050507047C10803290BD2C110F6
S31508000510074A02EB81210A68012300F0070003FA63
S3150800052000F050400860704714B0004010B000401A
S315080005300CB0004030B583B0044610467F2808BF8B
S315080005400020B1F5004F1AD108237F2240F6120188
S3150800055000A8FFF7EFFF08220FF2380100A800F005
S31508000560E0FC30B908237F2240F2A27100A8FFF709
S31508000570E1FF082200A9204600F0BAFC37BD1A465A
S31508000580034D294300FB0311204600F0B1FC37BD9B
S3150800059000000408FFFFFFFFFFFFFFFF0A490A6884
S315080005A00A4B1B68DB0758BF4008032809D34B6D65
S315080005B043F001034B650B689B1A1B031B0B834215
S315080005C0F9D3704700000000382000401C40004066
S315080005D0017001224270827001290CBF80214021DE
S315080005E081800021C18001811D4801600E21816240
S315080005F0016821F0100101600021416341627047E2
S31508000600F8B504460D46164616484FF0FF31016008
S31508000610134FFE6200207862386840F001003860A7
S31508000620FFF731FF012C19D16DB900F032FB78B90B
S31508000630786AB042F4D3002EF2D0386840084000F9
S3150800064038601620F2BD284600F02AFB0028EFD1B4
S3150800065038684008400038600020F2BD0120F2BD2D
S3150800066000E0004000A8004038B504460D4600F0FA
S3150800067009F800F007F82A4621461820BDE8384050
S31508000680FFF7EBBE2A4621461820FFF7E6BE30B52F
S3150800069083B00446002020814AF6B43200A92078A7
S315080006A0FFF7AEFF08B11C203EBD9DF800000328E9
S315080006B018BF182801D118203EBD042801D11720DB
S315080006C03EBD012801D021203EBD002500E06D1C5D
S315080006D0EDB2A188091D8D420BDA40F2DD222819F8
S315080006E000F10A012078FFF78BFF0028EFD02620BB
S315080006F03EBD0025002006E00146EDB22819007B24
S3150800070000F020FC6D1CA188EAB28A42F4D3A27AD2
S31508000710E37A9B18FF2B01D022203EBD0B191D7BC7
S31508000720B5EB102F01D023203EBD5B7BC0B28342C0
S3150800073001D024203EBDA078824207D0401EC0B218
S31508000740824201D127203EBD25203EBD881C20813E
S315080007500220E08000203EBD38B5044660780128B6
S3150800076004D023D3032855D018D31FE020780128B6
S3150800077011D13B25432000F03DFA40F2DD2200214D
S315080007802078FFF73DFF30B12846451EC0B2002845
S31508000790F0D11B2032BD0220607010E000F092FA02
S315080007A000F03AF8A078401CA07008E0182032BD86
S315080007B02278A078411EC9B20620FFF74EFE2046D1
S315080007C0FFF765FF050018BF00F07CFA272DEFD06C
S315080007D0A8060BD52278A1781520FFF73EFE002D36
S315080007E0EDD10320FFF732FD002032BD680603D4A1
S315080007F0182D18BF1C2D07D121782846FFF734FF7E
S3150800080004206070284632BD172DE8D100F004F8A0
S3150800081003206070172032BD2278A1780620FFF7E2
S315080008201CBEF8B504460D461646002706E0E088C5
S31508000830411CE1800019807A78557F1CBFB2B74207
S3150800084009D2E08821898842F1D32046FFF784FF40
S315080008500028ECD0F2BD0020F2BD10B504462046B3
S31508000860FFF77AFF0028FAD010BD0000F8B5044655
S315080008700D4616461F4607E03046A047294600F0B3
S3150800088073FB05467F1E761CBFB2002FF4D128469F
S31508000890F2BD38B50C46154605E0014614F8010BBD
S315080008A000F062FB6D1EADB2002DF6D132BDF8B573
S315080008B004460D4616461F463A46314628682368BA
S315080008C09847040005D13A463146E868FFF7E1FF44
S315080008D0E8602046F2BD10B5029C8472038142602E
S315080008E001604FF0FF31C1600021017410BD2DE990
S315080008F0F84F04468B461E469BF81B70802F28BF70
S315080009008027D0689D49884250D1002E4CD0B068C7
S3150800091000904FF0FF384FF000090BEB490A9AF8A0
S3150800092048500FE0FF2D16D0FFF7ADFD4FF40063DA
S31508000930E80240F0006241460098FFF797FF8046BC
S31508000940681CC5B29AF84900A842EBDA09F1010910
S31508000950B9F1060FE1DBDBF844006FEA08018842CB
S3150800096024D1A06800BA7A08594673689847C8B966
S31508000970E06805BAA06802BA3B464FF0FF31B06896
S31508000980FFF774FFC04385420CD140F6A720ABF8A9
S315080009901000A06800BA01220BF11001103073682C
S315080009A0984708B1422002E0172000E04320BDE83E
S315080009B0F28F2DE9F84F80460D469146D5F804A0EA
S315080009C02889ADF8000005F1140606F1100704237E
S315080009D052464046FFF76BFF002870D1BAF8000070
S315080009E040BA1FFA80FBBAF8020040BA84B2E007A0
S315080009F048BF462063D4B4F5026FC8BF4E205EDCFC
S31508000A00002C5BD05FEA0B000AD04FF60441BBEB23
S31508000A10010000F09B80FF3853D0FE3851D0ABE080
S31508000A20287C08B151204AE08D2C28BF4F2046D299
S31508000A302346321D00F0A7F8002840D1FA7E802A06
S31508000A4028BF802202F10C00844201BFB08840BA58
S31508000A5000F47F40B0F5007F2CD1F08840BA4EF202
S31508000A605031884202BF388A40F6A721884202BF21
S31508000A70788A00F47F40B0F5807F1BD1B06800BA51
S31508000A803F49C969884215D14FF6FF70388206F189
S31508000A9010014FF0FF30FFF7FCFEF16809BAC943B1
S31508000AA0884204BF387E042804D1787E052818BFFA
S31508000AB0062801D0452002E0012028740020BDE860
S31508000AC0F28F287C002843D0042300F05BF8002826
S31508000AD0F5D1DAF8000006BA201F84B22848C069A2
S31508000AE0864238BF4820EAD3A019796D884228BFC4
S31508000AF04920E4D24FF6035083450DD1B9F1000FD2
S31508000B000AD031460220D9F80020904720B14A2061
S31508000B10D5E7E01B84B2BE19002CCFD0BDF8000083
S31508000B208442B4BF274607463B4600F02BF8002808
S31508000B30C5D1B9F1000FECD07A0851463046D9F83C
S31508000B40043098470028E4D04B20B8E7287C08B939
S31508000B504120B4E7042C18BF4C20B0D104236A689E
S31508000B6000F011F80028AAD14B462A4639463046E5
S31508000B7001B0BDE8F04FBAE64420A0E7E320BBDEAB
S31508000B800000000852462946404690E670B50446DD
S31508000B900D4616462889C10701D4802803DA4F2056
S31508000BA070BDA87A78B9324629462046FFF701FF74
S31508000BB00028F6D0172807D12868616888471728BB
S31508000BC002D1002070BD502070BD000080B53A48A3
S31508000BD06821416100218161022181600121016052
S31508000BE009210920FFF753FC04210A20BDE8044027
S31508000BF0FFF74DBC3249CA685207FCD508607047F2
S31508000C0010B5044603E014F8010BFFF7F3FF20784C
S31508000C100028F8D110BD7CB500A90FF2B80218CA91
S31508000C2018C1052104220A230CE080B290FBF3F4D4
S31508000C3003FB1405EDB2204600AC05F130060E554F
S31508000C4005B10A46491E49B20029EED5D2B200A816
S31508000C501018FFF7D5FF73BD10B5044620090A28FA
S31508000C602CBF37303030C0B2FFF7C4FF04F00F0096
S31508000C700A282CBF37303030C0B2BDE81040B9E77B
S31508000C8010B50446200AFFF7E7FFE0B2BDE81040BA
S31508000C90E2E70A48006810F0020018BF0120704712
S31508000CA010B50446FFF7F5FF20B105480068207027
S31508000CB0002010BD012010BD54C8004048C800409F
S31508000CC03CC8004080B500A8FFF7EAFF0028FAD024
S31508000CD001BD000030303030300000002DE9F84FFB
S31508000CE0FFF7D1FBFFF7EEFF0020FFF7AFFA0FF291
S31508000CF07018474D44A60FF23C1B44A4DFF8149124
S31508000D000FF2141A1DE05046FFF77AFF0C27B9F8C0
S31508000D101A00384100F00F00FFF77DFF012FA4BF2E
S31508000D202E20FFF767FF3F1FF1D52046FFF768FF24
S31508000D30B9F84C00FFF76FFF5846FFF761FFFFF75A
S31508000D40C1FFFFF7A0FB0220FFF780FA00A8FFF714
S31508000D50A7FF0028F5D19DF80000FFF74BFF9DF887
S31508000D6000000A2818BF0D28CDD0312804D0322813
S31508000D702FD0332832D0E2E70FF2F400FFF740FF16
S31508000D800120FFF737FB07460FF2F800FFF738FF99
S31508000D90380005D10520FFF759FA0FF2FC00CCE719
S31508000DA00420FFF753FA0FF2FC00FFF729FFB806F5
S31508000DB048BF0FF2FC0005D478064CBF0FF20810A6
S31508000DC00FF22010FFF71CFF3846FFF759FF304691
S31508000DD0B3E70120FFF73AFABDE8F18F002730465E
S31508000DE0FFF70EFF288A40F6A721884218BF40461B
S31508000DF0A3D1781990F824007F1C20B1FFF7FAFEDA
S31508000E00FFB2202FF5D3E2E70D0A000020620000AA
S31508000E1000200008000000080D0A454D3335312032
S31508000E2053657269616C20426F6F746C6F6164659B
S31508000E30722076000D0A312E2075706C6F61642061
S31508000E4065626C0D0A322E2072756E0D0A332E20DD
S31508000E5065626C20696E666F0D0A424C203E200062
S31508000E602A2A206E6F20617070202A2A0D0A000037
S31508000E700D0A626567696E2075706C6F61640D0A8C
S31508000E80000000000D0A53657269616C2075706C6C
S31508000E906F61642000000000636F6D706C65746597
S31508000EA00D0A000061626F727465640D0A00000025
S31508000EB00D0A584D6F64656D20626C6F636B206513
S31508000EC072726F72203078000D0A646F776E6C6FDD
S31508000ED061642066696C65206572726F722030786D
S31508000EE0000000000D0A6572726F722030780000EB
S31508000EF0814212D21018401E5118491E92B2002A79
S31508000F001EBF11F8013900F80139521EF6D1704793
S31508000F1011F8013B00F8013B521E92B2002AF7D1A4
S31508000F20704710B500E0521E92B232B110F8013B7C
S31508000F3011F8014BA342F6D001E0002010BD181BA2
S31508000F4040B210BD0A0242EA11214840C0F303111B
S31508000F50484080EA00304101C9B20206D20E41EA91
S31508000F600221484080B270470A0A4840C0B20821A8
S31508000F704308C00746BF034858401846491EF7D1DC
S31508000F80504070472083B8ED2848018A40F6A7727A
S31508000F90914202BF418A4FF47F40014204D102299F
S31508000FA08041C043C00F704700207047F8B504461B
S31508000FB00D461D4E01203070FFF7E6FF18B94FF4B5
S31508000FC00170FFF7FDF81948876A294644F48070CE
S31508000FD0B847002131700FF2580618B9294644F46B
S31508000FE00070B847805DF2BD2DE9F0410446884699
S31508000FF05600FFF7C9FF18B94FF40170FFF7E0F87C
S315080010000A48476A0023324641462046B8470FF247
S31508001010200520B93346002241462046B847405DA0
S31508001020BDE8F081000000002C0C00200000040838
S31508001030000202024B4B4647EE0800000000000182
S30908001040FFFF0000A0
S7050800006F83
