S00D000073656E736F722E7333374D
S31508002000902600202DAF0108A9AE0108ABAE010845
S31508002010A70A080100210008040303AC00505F006A
S3150800202000000000000000000000000000000000A2
S315080020300000000000000000000000000000000092
S315080020400000000000000000FFFFFFFFFFFFFFFF8A
S31508002050FFFFFFFF00E0020800000000000000008C
S31508002060FFFFFFFFFFFFFFFFFFFFFFFFFFFFFFFF72
S31508002070FFFFFFFFFFFFFFFFFFFFFFFFFFFFFFFF62
S31508002080F02F002000000000EE2F0020EE2F002089
S315080020909026002034C10108A0B10108381F00208D
S311080020A070050020000003080030002036
S31508002100902600202DAF0108A9AE0108ABAE010844
S31508002110AFAE0108ADAE0108B1AE010828AF01089F
S3150800212028AF010828AF010828AF010828AF010821
S31508002130B3AE010828AF010851B1010835410008BE
S3150800214011AE010828AF01081954000828AF010884
S3150800215073890008DF78000828AF010828AF01084E
S31508002160E96E00083B380008C532000891210008CE
S3150800217028AF0108F3790008517A00085B44000883
S315080021807B83000828AF010828AF010829AF01089A
S3150800219070B59F4842789F490B685B0723D5032A89
S315080021A021DA00EB420384889C810123847803FAB0
S315080021B002F2224382700278974C8AB1002503FA0C
S315080021C005F6164207D045707240027000EB4500CE
S315080021D0808A206007E06D1CEDB2032DEFD302E084
S315080021E02260032242704FF6FF700860BFF35F8FCC
S315080021F070BD38B500F01CF985490A78EAB1864BF6
S315080022001C68E40719D400240125A54015420FD0FF
S315080022104C706A400A7001EB4401898A19607D494D
S315080022204FF6FF720A607D494FF400620A6005E0C6
S31508002230641CE4B2032CE7D300E0032400F0FEF8A4
S31508002240204632BD724800210170032141700021E9
S31508002250C17005210181002181706F4900220A6041
S315080022604A604FF400428A601022CA60001D486125
S31508002270012088610320C8606648042101644FF67E
S31508002280FF71016065484FF40061016000F019B9FB
S3150800229070B504462A2901D0012070BD5C4DD000D6
S315080022A040EA43302989084305EB44018882012026
S315080022B000FA04F6287830420FD100F0B9F82978E8
S315080022C031432970A978B143A97000F0B7F8FFF730
S315080022D090FFA04201D1812070BD822070BD2DE9FA
S315080022E0F843044688464E4F4C4D00F08DFB48B9DE
S315080022F02868000506D53868800800F0010080F0D7
S31508002300010600E0012600F093F881463EB12868F0
S31508002310000504D53868400748BFFFF739FF3C4831
S3150800232081780122A2400A4208D000EB44039B8927
S31508002330A8F8003051408170802409E001781142E4
S3150800234018BF822404D14078A0420CBF812484247B
S31508002350484600F073F82046BDE8F28338B50446CF
S315080023600D4629462046FFF7BAFF842818BF80285D
S31508002370F7D132BD38B50446072389222A21FFF74B
S3150800238087FF234D05F11C012046FFF7E7FF80284C
S3150800239009D10723B9222A212046FFF779FFA91D6B
S315080023A02046FFF7DBFF802805D1E988AA8B891A22
S315080023B0E980012101E000210120E97032BD000019
S315080023C038B50446124DE87808B9FFF7D3FFE87820
S315080023D0D8B1B5F9060028B907B5FE210FF24800AD
S315080023E000F01CFBB5F90600B5F91C10611A00EBE4
S315080023F0D072521002EB014191FBF0F400F06BFC35
S31508002400604300EB8000001432BD064832BD000070
S31508002410582A002010A8004004D0004000E100E03F
S3150800242050A800400080FFFF6164632E630000002F
S31508002430EFF31180602181F31188704780F31188CA
S3150800244070470268531C036011707047DFF8DC346C
S3150800245033F810001040C840704730B5DFF8D03464
S315080024600FF27C5434F810409C60DFF8C04434F80E
S315080024701050954311402943D96002221A60002260
S315080024801A6024F8101058680028FCD130BDDFF80F
S31508002490A404DFF8A4148A780AB149780FE08956AB
S315080024A06FF008029142B8BF302108DBC16D39B11F
S315080024B040F24A31C26DB1FBF2F189B2C91E016020
S315080024C07047E0B50A237F22DFF8700400F062F84F
S315080024D04FF6FF72BDF806100D20FFF7BEFF07BDC9
S315080024E0F8B50546DFF85044B5F5004F19D1022373
S315080024F07F22DFF84C0400F04DF8BDF80000000A12
S31508002500FF2814BF002818206070BDF800000006D8
S31508002510C00E10281CBF001D00F095F9BDF800007C
S31508002520C543E07808B1002005E0A089ADB268404F
S31508002530C00701D50120E070A58105F00106C5F3A5
S315080025404007DFF80004016841F4004101604FF4D8
S3150800255040520FF2B04000EB46004078010389B2C2
S315080025600220FFF77AFF304600F028FC4022B90126
S3150800257000F000FA2D06A80E00F001003843A070FE
S31508002580FFF785FFE07818B1FFF79BFF0020E070A2
S315080025900020F2BD018800A800F088BCDFF8980387
S315080025A0808970472DE9F04F87B0DFF89C5328786B
S315080025B004900B38C0B203900423039A0B2100A899
S315080025C000F0F7FC9DF800008DF80A009DF8010060
S315080025D08DF809009DF802008DF808009DF80300A3
S315080025E08DF80500D94E3078012804D16878471E41
S315080025F0BF41FF0F00E0012700F033FF80469DF939
S315080026000200A8F10A0408F10A0A5045B6BF844236
S315080026104FF0010B4FF0000B012003998840ADF8ED
S3150800262006009DF80100000604D4A888BDF8061027
S31508002630084201D04FF0010B00F0A8FF9DF80300F7
S3150800264000060AD4E888BDF80610084205D19DF9A7
S3150800265000005045B8BF844202DB4FF0010901E093
S315080026604FF000094BEA070059EA000000F09B808A
S31508002670B748006800F002008DF80400DFF8D4A21D
S31508002680DAF8000000F4E0600590B3484FF4E06122
S315080026900160002001F069FB01F070FDAF4CA7B1A5
S315080026A0687850B1AA48006840084000A849086000
S315080026B00120307000F051FB07E0206840F400501C
S315080026C02060206820F480502060307801280CD1E2
S315080026D001F05DFE9E48006840F001009C490860D4
S315080026E000203070642000F038FB2FB1687818B9E4
S315080026F00498C0B201F008FF687838B1206820F461
S3150800270080502060206840F400502060BDF8060024
S31508002710C643BBF1000F08D001F0E4FF8DF80100B5
S315080027208DF80280A8883040A880B9F1000F08D03B
S3150800273002F07FF88DF803008DF80080E8883040B5
S31508002740E8809DF900009DF90A10884202BF9DF8AD
S3150800275001009DF8091088420BD19DF902009DF9E8
S315080027600810884202BF9DF803009DF805108842AC
S3150800277006D0042300AA0399C9B20B2000F02AFC4C
S315080027800598CAF8000000F05DFC9DF8040001F009
S31508002790ECFA02F072F9687828B148F260702060A5
S315080027A0642000F0DAFA9DF8010001F005FF9DF8B3
S315080027B0030002F039F807B0BDE8F08F80B500F0E5
S315080027C04CFEBDE80140EDE600F047BE70B5064692
S315080027D0A6F10B0401F02AFA0546A6F10B00C0B2D1
S315080027E0102801D38A2070BD5D488168090702D484
S315080027F00068C00701D58C2070BD5348067059493A
S315080028000A680C2A0ED0A4B20FF26C1232F82420F1
S3150800281090F908008018C861FFF7C4FE012D08BFAB
S3150800282001F098F9002070BD10B5044600F015FEB9
S315080028302046BDE81040C9E74348007870473E483F
S3150800284090F9000070472DE9F04186B006466FF012
S315080028502A00864246DB14237F224348FFF79AFE66
S31508002860BDF810004FF6FF71884203D0400448BFF8
S31508002870012506D43F2200211020FFF7E7FD044674
S3150800288000252D48394906F12B02D2B22F2A1AD231
S3150800289013220FF2241300E0521ED2B213F912705B
S315080028A0BE42F9DB03EB420676780E6013F8121087
S315080028B001700020002680460327ADB14FF6BF728F
S315080028C0BDF8101029E0092E0CDA325C0A60067091
S315080028D014237F222648FFF75DFE03200126B04613
S315080028E02827EAE78B201DE04FF46052C10200F06A
S315080028F041F84FF4E062310200F03CF880224FEADA
S31508002900C81100F037F884F020003C18A4B2402C17
S3150800291028BF3F243F2284F0200100F02BF8FFF760
S31508002920B6FD002006B0BDE8F08100008C2C002022
S31508002930E810004064100040D828002064BD010853
S3150800294072BD01081C100040CC2800209D290020DB
S315080029508020004000E100E080E100E0D010004067
S3150800296060200040AC10004060BD0108C010004067
S3150800297062BD01080B2070E5AA212900552329000C
S3150800298000252800AA26270055282700002A260001
S31508002990AA2B2600552D2500002F2400AA30240036
S315080029A05532230000342200AA352200553721006B
S315080029B000392000AA3A2000D500E601EC02EF0310
S315080029C0F204F405F506F707F808F909FA0AFB0B05
S315080029D0FC0DFD0FFE11FF1300160119021C031F43
S315080029E01000110020003000400041005000600037
S315080029F0700080009000A000B000C000D000E00089
S31508002A00F000000000000103EFF311806028804108
S31508002A10C043C00F7047000042DE704738B5044611
S31508002A200D4602F068F8FFF703FD2946204602F036
S31508002A30CDF82B4622460FF21C21012002F075FC28
S31508002A4029462046BDE83440E6E72DE9F0414FF433
S31508002A502065DFF8E461371DDFF8E0010168796574
S31508002A60016AB965DFF8D8110968F965416A3966F6
S31508002A70816A7966C16AB966016BF966806B3867DF
S31508002A8097F8340040074CBFFC6BBC6B02F045FD61
S31508002A903865DFF8B011DFF8B021DFF8B031A042B1
S31508002AA038D2A34236D3183454F804EBC7F840E0BA
S31508002AB054F804EBC7F844E0D7F854E04FEACE5E82
S31508002AC04FEADE5EBEF1060F2AD1D7F840E09645FA
S31508002AD026D38E4524D2BEF800E04DF64268C64598
S31508002AE01ED106F18C05D6F804E0C5F804E0D7F83F
S31508002AF004E0C5F808E054F8045B756054F8045B14
S31508002B007D6054F8045BBD6054F8045B7D6340F255
S31508002B10017505E04FF0000EC7F840E0C7F844E03D
S31508002B20001D984204D2D0F80080B8F1CD3FF7D006
S31508002B30181AB8640020F86406EB800C4FF0000EF3
S31508002B40CCF878E0401C0628F6D3386C00283AD032
S31508002B50002004E0C0B206EB800ECEF878C0A3428F
S31508002B602CD353F804CDE6469645F8D38E45F6D2CF
S31508002B705FEACC7EF3D54FF0000E06EB8E08D8F848
S31508002B807880E04504D00EF1010EBEF1060FF4DBA5
S31508002B90BEF1060FE3D1002814BF401E0520D9E771
S31508002BA07B6F4FF0000E06EB8E01CA6F8A670EF137
S31508002BB0010EBEF1050FF6DBC6F88C300146481E3D
S31508002BC0C9B20029ECD1786DC005C00D02280AD01B
S31508002BD0032816D0042817D0052818D0062819D097
S31508002BE00C281DD01FE0DFF868000168890748BF78
S31508002BF040F602151CD40068C00719D540F20255E4
S31508002C0016E040F6012513E040F6022510E040F6EE
S31508002C1003250DE0B5F5206F0AD140F6042507E037
S31508002C2040F6052504E018B1242838BF40F60725E4
S31508002C302846BDE8F08100000000002004ED00E011
S31508002C4000E300E0A0B101089021000890260020CA
S31508002C501CA000400D0A5B4153534552543A257057
S31508002C603A25645D0D0A000010B5464C002001F0B7
S31508002C700AFF40F68C218842206834BF40F00800DD
S31508002C8020F00800206010BD10B582B0044600F0A0
S31508002C905FF800A800F00AF99DF801009DF80010F9
S31508002CA0FF2902BFFF280420002104B1801CC0B2FE
S31508002CB0082828BF0720082928BF0721324A136891
S31508002CC023F4607343EAC01010601068C00851EA24
S31508002CD0C000106013BD00B583B002237F222B48C5
S31508002CE0018800A800F0E2F8BDF800004FF6FF7171
S31508002CF088420EBF4FF4E1600A2190FBF1F0ADF86F
S31508002D000000FFF74BFCC0071FD500F021F801A80B
S31508002D1000F0CCF89DF80500FF2808BF0420811CA8
S31508002D20C9B20829A8BF0721C1F12F02BDF8003092
S31508002D30C0F12F0002EBD272521000FB0320C1F142
S31508002D402F01B0FBF1F0ADF80000BDF800000EBD94
S31508002D5002237F220E48018870470E490A680E4BE7
S31508002D601B68DB0758BF4008032809D34B6D43F09F
S31508002D7001034B650B689B1A1B031B0B8342F9D394
S31508002D807047000000BC00401800004068BD0108FC
S31508002D9066BD0108382000401C40004010B50400FC
S31508002DA004D110BD4FF47A70FFF7D7FF2046441EB2
S31508002DB080B20028F6D110BD70470000F0B589B082
S31508002DC004460020FFF760FF0A237F222648018871
S31508002DD000A800F06BF84FF6FF75BDF80200A84290
S31508002DE006D107B54FF486710FF29400FFF716FE69
S31508002DF000260FF2A40701E02A4616B94FF47C42D2
S31508002E0003E0022E08BF4EF23F0200A800F032F897
S31508002E10761C052EF0D3012C03D114237F221348E8
S31508002E2002E014237F221248018803A800F03EF826
S31508002E3000260FF26C072A4608E02A46012E08BF2C
S31508002E404FF6C07202D0082E08BF002203A800F071
S31508002E5011F8761C0A2EF0D3012C04BF0120FFF7C7
S31508002E6013FF09B0F0BD000064BD010862BD01088A
S31508002E7060BD010830F81610F05DFFF7EEBA0000E5
S31508002E80616E616C6F6775652D63656C6C2D626923
S31508002E9061732E630000000000100C0D0E00000088
S31508002EA0010203040708090A0B0F000030B583B0B6
S31508002EB0044610467F2808BF0020B1F5004F1AD1F6
S31508002EC008237F2240F6120100A8FFF7EFFF082229
S31508002ED00FF2380100A802F095FB30B908237F22CB
S31508002EE040F2A27100A8FFF7E1FF082200A92046D8
S31508002EF002F03EFB37BD1A46034D294300FB03117A
S31508002F00204602F035FB37BD00000408FFFFFFFF2F
S31508002F10FFFFFFFF30B583B0002401A80FF2181198
S31508002F200A680260DFF8085101202870002002F0C4
S31508002F3089FB30B1002002F085FB10B12C704920C6
S31508002F403EBD02237F22DFF8EC0001880DF1020066
S31508002F5000F02FF802237F22002100A800F029F8AC
S31508002F60204601A931F81010BDF80220914208BF89
S31508002F700124401C0228F4D3002CBDF8000004D01C
S31508002F80B0F57F7F09D100203EBDB0F57F7F14BF25
S31508002F9004200620002129703EBD012002F052FBC4
S31508002FA0002002F04FFB0028EDD0002028704A20B0
S31508002FB03EBD10B5B1F5807F07D21D4C247844B1CB
S31508002FC0C9B2BDE8104002F065BEBDE81040FFF783
S31508002FD06DBF10BD2DE9F04105460E4617469846C9
S31508002FE00FF25800B5F5807F13D2114C2178B1B194
S31508002FF0617819B107B5C221FFF710FD012060708D
S31508003000434632463946E8B202F0A4FF0020607013
S3150800301005E007B5CD21BDE8F041FFF7FFBCBDE8E7
S31508003020F08103490978002918BF03F0A3B870474F
S31508003030D32F00206CBD0108FE01FD02746F6B657D
S315080030406E2E630010B5DFF8E04410202063FFF70A
S31508003050EFF9DFF8D8140A6842F001020A60FFF7B0
S31508003060EDF9DFF8CC046060206061688931616041
S31508003070012121638A30E060A060E0688930E06061
S3150800308002202063DFF8AC044FF6FF71016010BD23
S31508003090DFF8A40445F26401C1601E214162502193
S315080030A00162C821C1618165F021C16545F69001BB
S315080030B04166882181660621C16644F2066101607F
S315080030C04FF6FF714160DFF87404007838B1DFF815
S315080030D0700448F2607101604FF4C1514160DFF835
S315080030E06404016841F004010160DFF85C04002112
S315080030F0417070472DE9F0470446DFF850148A20DE
S3150800310000FB041000F2050568782A7802EB002017
S315080031101FFA80FA0AF44040DFF8342412784A701D
S3150800312066180021B1705FEA8A6157D5DFF8247402
S31508003130796E090652D54FF480684FF40069B0F5E8
S31508003140404F0BD1E81D03F01BF980BBF86DC00694
S3150800315044D5B86C002C3AD0C84638E0B0F5004FD4
S31508003160F4D1287AE97901EB002080B203F092FBCA
S31508003170FF2809D0DFF8E013096831F810004FF48A
S31508003180FE61084213D1E1E70AF007000328DDD102
S31508003190002C14BF786838680528D7D3002C14BFCC
S315080031A0786838680628F9D3687A0428CED1F86D85
S315080031B0C00609D4B86C04B1C84610EA080F03D093
S315080031C0786C40F0010078640120B07006E010EADF
S315080031D0080F03D0786C400840007864BDE8F08793
S315080031E02DE9FC4E0446DFF864B38A2000FB04B0E0
S315080031F0071DDFF86053002C0CBF28686868460076
S31508003200C0B2052806D207B54FF4ED710FF2743037
S31508003210FFF704FC5FFA86F909EB0700A0F1080638
S315080032203078717801EB00201FFA80FA9BF80100CC
S31508003230307003F0CCFB7070C84EF06B20F48050F1
S31508003240F063686ED4B9306840051CD41AF4E45F9C
S315080032500FD100F087FD10B15FEA4A4009D53878EA
S31508003260802806D204EB0B0082784946384603F0DC
S315080032702DFC002C0CBF0120022020E0012CE5D1FA
S3150800328030680005E2D5B648017881B100210170A1
S31508003290B44801681AF4E45F02D00022402004E032
S315080032A07878000900F001028F2003F08DFD002CCC
S315080032B00CBF4FF480604FF400603060D9E7286196
S315080032C0BDE8F38E2DE9F84F9A4C2068216C01EA87
S315080032D00005A04EDFF890A2DFF88482DFF86C9232
S315080032E0A24F1AE040B14878C00605D400229D488E
S315080032F001688F2003F068FD280605D503F0B3FDA5
S3150800330025F0800580202060E80506D503F0ABFD92
S3150800331025F480754FF480702060002D68D028074A
S3150800332006D50020FFF7E6FE25F0080508202060F0
S31508003330E80606D50120FFF7DDFE25F0100510206A
S31508003340206005F06000602803D1B06CC0050AD47F
S3150800335001E0A80605D525F02005202020600020DC
S3150800336006E0680606D525F04005402020600120C5
S31508003370FFF736FFE80410D525F480554FF4805042
S315080033802060D7F800B0082038607868000548BF84
S3150800339000F032F91FFA8BF03860E807ACD56D08F3
S315080033A06D000120206099F800000028A4D000F0E4
S315080033B051FC0128A0D198F8000000289CD09AF862
S315080033C00000042898D1F068400800F001008A211E
S315080033D001FB0091091D002814BF7268326812B9F2
S315080033E02268D204F7D5002814BF7068306879E7D8
S315080033F000202060BDE8F18F5D4800687047F0B591
S3150800340089B004460D460021032001F0DFFA04AE18
S315080034101BE0002701F0F5FA26F8170001F0F1FA8B
S3150800342000A921F817007F1C082FF3DB04A803F076
S31508003430D5FD00202080218836F8102051402180B3
S31508003440401C0828F7DB6D1EA41CEDB2002DE0D148
S3150800345001F013FB012009B0F0BD0321022001F0A1
S31508003460B5BAF8B529244FF6FF7501F0CAFA281A35
S3150800347090FBF4F000F13A063E4F3878B8B90321CC
S31508003480032001F0A3FA02237F223B48018800A803
S31508003490FFF70CFD01F0B5FABDF80010401880B230
S315080034A0281A90FBF4F0253078700120387001F066
S315080034B0E4FA7878301A40B2F2BD80B503210220CA
S315080034C001F084FABDE80140CBE770B500242B482B
S315080034D0007890B9FFF7F1FF05461B4E707848B1A2
S315080034E03078401B40B203F08AFD0B2805DB3570A7
S315080034F0012402E0357001207070204670BD80B549
S3150800350040B11F48002101600848016821F0800188
S31508003510016001BD00F05BFC00F033FC00F0E5FB48
S31508003520BDE8024000F0C9BB0020004084200040EE
S31508003530F02C002000A000404C100040CD280020B0
S31508003540D010004080200040E02F0020EC2C002006
S31508003550CC28002020200040F826002004A00040A7
S3150800356090290020A82900209B290020B820004087
S3150800357038200040DE2F00206ABD01089D29002062
S31508003580541000407068792E6300000010B584B0AE
S315080035900A237F220B48018800A8FFF787FC4FF60D
S315080035A0FF74BDF80000A04205D107B54E210FF201
S315080035B01800FFF733FA2246BDF800100020FEF780
S315080035C04CFF1FBD64BD0108616E616C6F67756550
S315080035D02D66696C7465722E63000000DFF8F807C3
S315080035E0417A39B1017A012904BFC07A042801D188
S315080035F00120704700207047DFF8E007016821F4D2
S3150800360080510160DFF8D007017881B1002101708F
S31508003610DFF8CC170A68520852000A600A6842F0B6
S3150800362001020A6000228169402003F0CDBB704781
S315080036300FF63C01405C7047010603D54FF67F71D3
S315080036400840C00070478001B0FBF1F080B2FF2847
S3150800365088BFFF20C0F1FF00C0B2704738B5DFF859
S315080036607807817A012901D1002032BDDFF8784731
S31508003670617871B1E178807B4518ADB220798542D1
S3150800368028BF054603F0D4FC0121A940491E08407D
S3150800369000E0002061790818C0B232BD00000000C1
S315080036A02DE9F0470446C00704D507B540F2651171
S315080036B000F04CFADFF83457286DC00748BF8C2055
S315080036C000F19180DFF81067002030733070DFF862
S315080036D018773878A0B12078122818BF0C280BD193
S315080036E0617801F00701032902BF001910F8020CDE
S315080036F0042804BF01203073A86F40F0010002E0DF
S31508003700A86F40084000A867707BDFF8E486DFF8FA
S31508003710E496797899B10021B173296D41F00401D5
S315080037202965012807D14FF6FF70C9F800004FF444
S315080037300070C8F80000FFF791FF82460CE0296D7B
S3150800374021F0040129654FF0000A012804D100F090
S315080037503EFA6420FFF701FBA86F20F00800A8676F
S315080037601420E864C5F848A0787830B1707B002842
S3150800377001BFA86C00280120A864B8790028286D24
S3150800378014BF40F0080020F008002865FFF726FF60
S3150800379028B1D9F8400040F00800C9F840002020B8
S315080037A028626C602C6068687F3068600420286234
S315080037B04FF4E064DFF84006046006E0FFF724F9FA
S315080037C018B103F045FCFEF733FEDFF83006006853
S315080037D000F003000328F1D0C8F80040286D40F037
S315080037E0010028650020BDE8F08710B50446FFF7FC
S315080037F003FE201A0003000B3338DFF8041688424C
S315080038001AD2DFF8000602210160DFF8FC15A2B221
S315080038104A60220C02F00F020A60016C41F00201B4
S315080038200164DFF8E8450020207002E0012003F07B
S3150800383013FC20780028F9D010BD2DE9F84FDFF8E1
S31508003840D0657068716C08401FFA80F8C6F8048065
S31508003850DFF89875DFF880556878002840F0D18041
S31508003860DFF8B045DFF880955FEAC8704CD5D7F821
S3150800387000A0386C796C41EA0041A96199F800000A
S3150800388000283DD09AF80100800639D50120287015
S315080038904FF480503060306C40F480503064FFF74D
S315080038A09DFE88B31920FFF758FADFF86CB54FF478
S315080038B04040CBF82800DBF800000090E06E40F4AA
S315080038C00050E066E06E40F48050E066A8699AF819
S315080038D000104901B8310818FFF787FFE06E800924
S315080038E08001E066E06E00A909880843E0660020CA
S315080038F0CBF8280048F26070E066A88A206003E0EA
S315080039000022002003F060FA5FEA08600CD52878E8
S3150800391030B1002028700022A969402003F054FA2B
S31508003920306C20F4805030645FEA486008D56878C7
S3150800393030B9FFF761FD00220146892003F044FAF9
S315080039405FEAC8604FD5287ADFF8A4A4012804BF27
S31508003950697B01291ED100F01AFD386F40F001007D
S31508003960386700206873FFF76DFB0A20FFF7F5F943
S315080039704FF000084FF6FF7070604FF4E060CAF829
S3150800398000000920B8660120B864B86F40F0080046
S31508003990B86718E0A97B491CA97399F80220C9B22F
S315080039A0914215D2012808BF00F0D4F8B86F20F06C
S315080039B00800B8671420B866FFF750FEB8644FF4DD
S315080039C00070CAF80000386D40F0010038650AE05A
S315080039D0012808BF00F0BEF8FFF70EFD00220146D9
S315080039E08D2003F0F1F95FEA08700AD5FFF7F6FDB6
S315080039F038B12068A88200202060706C20F008008A
S31508003A0070645FEA88600AD520203862687830B921
S31508003A10FFF7F2FC00220146882003F0D5F9687802
S31508003A2020B118F4407F04BF0120A870BDE8F18FCB
S31508003A3070B582B00446FEF7C7FEDFF8E003002142
S31508003A400160DFF89C531521E960092101651F21F2
S31508003A50416001210166FEF7A1FDFEF741FDFFF772
S31508003A6017FB03F021FE00F043F9DFF86C63308A98
S31508003A7000F06BF9708A00F070F9FEF7D9FC6968F6
S31508003A8041F040016960FEF7D9FC707900F005F94C
S31508003A90B07900F012F9307900F041F9DFF88003C7
S31508003AA090F90000FEF7CFFEF07800F05EF996F97F
S31508003AB0070000F066F902237F22DFF86803018811
S31508003AC000A8FFF7F3F9BDF80000C0054CBF0020B9
S31508003AD0BDF80000DFF850130870DFF850030078CF
S31508003AE0FEF774FE20B107B540F2753100F02EF8E6
S31508003AF0012C05D12868C00711D500F02BF80EE077
S31508003B006CB92868C0070AD400F041FC286840F060
S31508003B1001002860C820FFF720F900207073DFF83D
S31508003B20D442F120206440F2F910E063FFF78AFAE4
S31508003B302868C00707D54FF6FF702060DFF8B00287
S31508003B404FF4E061016000F019FB73BD0FF210300D
S31508003B50FEF764BF70B5DFF8D8522E68DFF87842F2
S31508003B60607B012832D0FEF763FC48F2D001296059
S31508003B706A68520509D548F222022A606A68D2059F
S31508003B80F5D529606A685207F1D4B6B22E60DFF817
S31508003B9068124FF4E0620A60DFF898120A6A52085F
S31508003BA052000A620A68520852000A600A6842F01D
S31508003BB002020A604A6A42F001024A6201216173FE
S31508003BC0FEF73CFCBDE8704000F0B0BB70BD70B5B8
S31508003BD0814C607B48B300F0DAFBFEF729FC05460A
S31508003BE0DFF85402012101607E4E306D40F001007D
S31508003BF0306500206073FFF725FA20203060306BAF
S31508003C0040F002003063F06D40F00800F065284689
S31508003C10FEF714FC0A20FFF7A0F876484FF6FF7166
S31508003C20016073484FF4E061016070BD6A48407BEB
S31508003C307047000010B5684C607B20B107B540F2AC
S31508003C406441FFF783FF207A18B1FFF783FF207AD4
S31508003C50607310BD6048007A704780B5022801D3AA
S31508003C60012002BD5C490872487B012804D1087A04
S31508003C7020B9FFF7ACFF01E0FFF7DCFF002002BD2B
S31508003C806E480068800200149A386FF07F0201B20D
S31508003C909142B8BF104640B2704710B50446FEF7C9
S31508003CA0C7FB6749002C0A6814BF42F0120222F0CB
S31508003CB012020A6048494C7140E038B50446FEF7DE
S31508003CC0B7FB054600F0C3FB40B95D48002C016808
S31508003CD014BF41F0800121F0800101603E488471E3
S31508003CE02846BDE83240FEF7A9BB3B4880797047B5
S31508003CF0544855494A780B7813EB02220260CA7871
S31508003D008B7813EB022242604A790B7913EB022275
S31508003D108260CA79897911EB0221C160704710B5B2
S31508003D200446FEF785FB4649002C0A6814BF42F094
S31508003D30200222F020020A6027490C71BDE81040D3
S31508003D40FEF77CBB2448008A7047234908823F490E
S31508003D50086070472048408A70471F4948823C4996
S31508003D60086070473B48007870471D4900280A6874
S31508003D7014BF42F0020222F002020A601649C87015
S31508003D80704738B504467F2C0ED102237F2232486D
S31508003D90018800A8FFF78AF8BDF80000C00554BFDF
S31508003DA0BDF800406FF04A04FEF742FB054600F0F6
S31508003DB04EFB30B964B204F19A008005000C27491D
S31508003DC008600548C4712846FEF738FB31BD02482D
S31508003DD090F90700704700009029002040A0004095
S31508003DE08020004030200040F028002010200040AD
S31508003DF000E100E004A0004080E100E0A8200040C7
S31508003E00CDFF070008A0004040200040E52F002015
S31508003E1000A0004064100040E41000405C10004020
S31508003E20D828002078BD0108D4280020CC280020F6
S31508003E301C10004060200040281000400C10004074
S31508003E408420004098200040B02C00209420004098
S31508003E5090200040AC2900207CBD01085410004089
S31508003E607068792D636F6D6D6F6E2E6300000000AC
S31508003E70FEFEF7F7C8C80100DFF8640351210160A8
S31508003E8070472DE9F04104461E2C3CBFBDE8F041C1
S31508003E90FEF763BFDFF84C030168C90704D541681C
S31508003EA011B11826641F11E00168C90704D54168D5
S31508003EB011B90C260A3C09E00168C90704D4406810
S31508003EC010B10C260F3C01E00626143CFEF7B0FAAA
S31508003ED0804603F0F5FBDFF8100307210160002197
S31508003EE041608160DFF804134FF000720A60A4B2E3
S31508003EF004FB06F1491E4160DFF8F4422668206893
S31508003F0040084000206003F0DDFBDFF8D4723D680E
S31508003F10386820F04000386003F0DCFB3D6026601E
S31508003F2003F0D0FB03F0DAFB4046BDE8F041FEF7AC
S31508003F3085BA2DE9F0410024DFF8B8522C60DFF885
S31508003F40B86234604FF4A040706041F29A08404667
S31508003F50FFF797FF686844F69041081A00B24FF4D5
S31508003F60487190FBF1F000F3030030604046FFF71C
S31508003F7088FF08274046FFF784FF686804197F1EF4
S31508003F80F8D1DFF87802211DC908B0FBF1F080B23C
S31508003F907060BDE8F08138B56FF00F04DFF8605245
S31508003FA00120A8602C608020FFF76BFFE868FF28D7
S31508003FB002D8641C102CF5DB31BD9248016841F02B
S31508003FC00101016090480421016090480160704732
S31508003FD070B58448016841F0010101600121416022
S31508003FE0FEF726FA0446824D00F09DF87C485121DA
S31508003FF001602E6003F066FB2046BDE87040FEF7C0
S315080040001DBA70B5824D2889824C4FF6FF76B042AC
S3150800401029D102237F228048018805F10800FEF78E
S3150800402045FF2889B04204BF02202881A06980077D
S3150800403003D4A06940F00200A061012068702889B5
S315080040402060694807210160002141608160674955
S315080040504FF000720A60A169C9072DD5E16959B305
S3150800406048F69F4137E0A1698907E2D5697899BB87
S31508004070A16811F00101A26803D10F2809D2401CDA
S3150800408006E0920705D52A791AB1032801D3401EFE
S3150800409028812971288902283CBF022028812068A6
S315080040A029898842C9D1A06900F00300032818BFEE
S315080040B0FFF78EFF012070BDA169C90701D5E16927
S315080040C021B1A169C90704D4E16911B144F24F616C
S315080040D001E042F227314160002070BD2DE9F84326
S315080040E03F4C434DFEF7A4F9804603F0E9FAFFF783
S315080040F088FF5FEA00090CD100F015F827682068E8
S3150800410020F04000206003F0E5FA27602E6003F0F7
S31508004110D9FA03F0E3FA4046FEF790F9B9F1000F31
S31508004120E0D0BDE8F1832E68286840084000286082
S3150800413003F0C8BA2C48002141608160016821F06B
S315080041400201016029484FF00071016030480021E2
S315080041504170817801290BD1304901220A60304922
S315080041600968C90748BF032106D40221817024E7DC
S315080041708178042901D10521817070472DE9F8431A
S31508004180234C207838B3E078F0B124E0FEF750F9F4
S31508004190804603F095FAA078052810D0144E00F052
S315080041A041F80F4DD5F80090286820F040002860A7
S315080041B003F090FAC5F80090376003F083FA03F02D
S315080041C08DFA4046FEF73AF9A0780528DED1002098
S315080041D06070FFF783FF00202070BDE8F1830000C0
S315080041E0008000401C40004010E000E004ED00E0C4
S315080041F094ED00E0104000400C0000400060E3161B
S315080042000840004058A0004080E200E000E100E0DD
S315080042106C2900200440004076BD010818A0004023
S315080042200C4000403768306840084000306003F0B2
S3150800423049BA000038B5FFF7E4FE0020FEF724FD72
S31508004240DFF84042206840F00800206000F04CFC8F
S31508004250FEF70AFD00F027F88D78DD608D89056088
S31508004260CD89456000F016F8206820F0100020601F
S31508004270FDF7E8FF03F032FB03F076FBFFF72EFFAE
S31508004280FFF789FEBDE8314000F049BC40F2016005
S3150800429001F0A2B8088A1060488A5060888A1860B7
S315080042A0C88A586042E0784878490A78C260784AED
S315080042B04B78D360774B7047F0B50B68734C646ADC
S315080042C00F25960005FA06F6344212D0002606EBAC
S315080042D0820724FA07F7FF0708D5B70005FA07F794
S315080042E0BB4330F812C007EA0C073B43761C042E82
S315080042F0EDDB0B60F0BDF0B50B68644C646AFF2516
S31508004300D600B5402C420FD0002505EBC20624FA8C
S3150800431006F6F60705D50126AE40B343175C3E40C0
S3150800432033436D1C082DF0DB0B60F0BD10B5574C00
S31508004330606A002827D000225749201DFFF7DBFFB7
S3150800434001225649201DFFF7D6FF02225449201D97
S31508004350FFF7D1FF00224C4900F016F80122514917
S3150800436000F012F802224A4900F00EF803224E49DC
S3150800437000F00AF80422474900F006F805224B49DE
S3150800438004F1180034E010BD04F1180094E710B5E4
S315080043903E4C606A002827D000223F492046FFF796
S315080043A0AAFF01223D492046FFF7A5FF02223C4904
S315080043B02046FFF7A0FF0022334900F016F8012235
S315080043C0384900F012F80222314900F00EF80322AB
S315080043D0354900F00AF804222E4900F006F80522AD
S315080043E0324904F10C0003E010BD04F10C0063E748
S315080043F0BDE8104060E70320FEF713BE80B503F062
S3150800440084FB0FF2B40101EB800002BD10B503F086
S315080044107CFB044603F07DFBC0B208B9012C07D12A
S31508004420072C11D8DFE804F004100608080A0C0E59
S31508004430002010BD092010BD022010BD032010BDAC
S315080044400B2010BD062010BD44F0800010BD0F489B
S31508004450007A70470D48807A704716484FF4004135
S31508004460C160082101600949887A50B1104800687E
S31508004470800900F001000B7A83421CBF0872FFF71F
S315080044803EB8704700BC004000B000406C270020D2
S3150800449000B4004000B800400CB000400CB4004026
S315080044A00CB8004004B0004004B4004004B8004012
S315080044B008B0004014A80040554E4B00464942003B
S315080044C042544C0045585400505752005744470030
S315080044D02053570043525300465348004241440074
S315080044E0464C54002B490A68920992010A600A68E8
S315080044F01043086028484FF400410160002101601C
S315080045006420FEF72ABC00002DE9F0478046234DBB
S31508004510D5F80090286840F4004028601D4F386898
S3150800452020F4805038601E4C207868B11D48A17868
S31508004530627800EB820212F82A2C891A00EB8800AE
S3150800454010F82A0C461802E0202601202070B0B286
S31508004550FFF7C8FF0FF2500A02E0B0B2FFF7C2FF3A
S31508004560386B042805D0386B400754BF761E761C76
S31508004570F3E7F86A38B184F80180A6701FFA89F063
S315080045802860BDE8F08707B540F221115046FEF7CE
S3150800459045FAE5E7D0100040181000401C1000400E
S315080045A0E22F002078290008616E616C6F677565D7
S315080045B02D76636F2E6300004FF4FE52810189B297
S315080045C00C20FDF74ABF2DE9F84F8A4CA568ADB215
S315080045D000264FF00A080127B94620681FFA80FA14
S315080045E000F04BFAB0202063DFF80CB2DBF80000CD
S315080045F00120FEF7B2FBB9F1000F11D0AAF10300B2
S31508004600874202DAF81C87B213E057460AF50040DB
S3150800461020600621092000F0D9F94FF000090BE0C7
S31508004620DBF80000000707D5042FA6BFF81E87B2DF
S31508004630002707F5004020601A2EA8BF6FF009086A
S3150800464004DA16F1190FB8BF4FF00A08464436B215
S315080046507019A060DBF800000007C9D5012FC7DA7A
S31508004660B9F1000FC4D1A560C4F800A00820CBF8A2
S3150800467000006248006880B2BDE8F28F10B5604954
S315080046804FF0FF325A4B1C7864B1002819BF4A60B4
S315080046905C48486041F211100860D9889888BDE8DE
S315080046A0104090E7002819BF4A600A604860086011
S315080046B000F0E3F906210920BDE8104000F0D7B95B
S315080046C038B50120FFF7DAFF04460020FFF7D6FFCA
S315080046D005460120FFF7D2FF4042001B00EB4500CC
S315080046E000B232BD2DE9F04F83B0474CA06AADF851
S315080046F004002068ADF80200444D2868ADF80000B3
S315080047003B4E307858B14FF6FF7200210820FDF76E
S315080047109DFE8046C022C0210820FDF79EFE3C4F24
S315080047203C48007810B148F260703860708840F4F0
S31508004730404040F04C00F8630220A062012020604F
S3150800474040F24C40FEF709FB0120E8602860002093
S31508004750B0804020F080307800B12020FFF72CFF91
S31508004760FFF7AEFF83464020B0807F20F080FFF73A
S3150800477023FFFFF7A5FF00F04FF8FE2101FB00FA23
S31508004780ABEB090B307850B1484602F038FC00F024
S3150800479043F880B20AEB8911B1FBF0F004E000F0AF
S315080047A03CF880B2BAFBF0F080B2401C4FEAC03940
S315080047B0BDF8000028600020E86002202060BDF8EF
S315080047C002002060BDF80400A0620020F86330787B
S315080047D030B14FF6FF721FFA88F10820FDF73DFE4B
S315080047E040F24C40FEF7B9FA4FEA1940BDE8FE8F91
S315080047F086290020C010004018A000400070004024
S3150800480038100040EEEEFFFF602000402810004000
S31508004810D0100040CD2800208146584602F0EFBB54
S315080048203F22410089B201E03F2201460220FDF7FE
S3150800483014BE2DE9F04F93B0564CE06CADF8080065
S315080048402068ADF80600544DE86AADF804004FF646
S31508004850FF7200210120FDF7F9FDADF802004FF6C1
S31508004860FF7200210B20FDF7F1FDADF800004FF4B3
S315080048700040206000202861686148F2020000F0CC
S315080048808DF84CF68C30E06448F2F000E8624FF49C
S31508004890805211460120FDF7E0FD4FF6FF72002118
S315080048A00B20FDF7DAFD0621062000F0E0F8804629
S315080048B000F087F883464CF69C30E0640020FFF74A
S315080048C0AFFF0621084600F081F80026B0B2FFF7D0
S315080048D0A7FF0621062000F079F800F092F803A950
S315080048E021F81600761C202EF0DB00F08AF810203E
S315080048F0FFF796FF00F065F8A0EB0B00BDF82C104B
S31508004900A1EB0801404301FB01094FF0100A1127EA
S3150800491000F050F800F055F800F045F805DB814640
S315080049201FFA87FA7F1C202FF2DB504610280ED17B
S315080049300F2700F03FF800F044F800F034F806DBE3
S3150800494081461FFA87FA781E07B2002FF1D5BDF8FF
S315080049500800E064BDF806002060BDF80400E862BF
S315080049604FF6FF72BDF802100120FDF776FD4FF6EF
S31508004970FF72BDF800100B20FDF76FFD01202861BE
S31508004980002000F00BF84FEA4A00C0B213B0BDE8A9
S31508004990F08F0000C010004018100040286040F258
S315080049A04C40FEF7DAB9A0EB0B00404306FB0600C5
S315080049B04845704703A830F81700A0EB0806B8B2B8
S315080049C02EE70621072000F052B8000070B505460C
S315080049D00E4602F075FE3D4C206C20F0080020645F
S315080049E002F07CFEFDF724FD310341EAC51141F0D2
S315080049F00101374A116008212160BDE87040FDF7C2
S31508004A001DBD2DE9F041334C334D304E25E002F003
S31508004A1057FE324804210160306C40F008003064CB
S31508004A202F68286840084000286002F04BFED4F83A
S31508004A300080206820F04000206002F04BFEC4F899
S31508004A4000802F6002F03EFE306C20F008003064D3
S31508004A5023480421016002F041FE30680007D6D5DC
S31508004A60082030601F48006880B2BDE8F08180B534
S31508004A70FFF7ACFFBDE80140C3E7154801684908E0
S31508004A80490001607047F8B50746FEF724F9044661
S31508004A9039460320FFF7EBFF054639460120FFF7A5
S31508004AA0E6FF064639460020FFF7E1FF08490A688F
S31508004AB0520852000A60401B0004711BB0FBF1F05B
S31508004AC060434000000CF2BD0000000018A0004042
S31508004AD0047000400080004094ED00E000E100E032
S31508004AE080E200E0007000402048012181604EF617
S31508004AF0BE21416000E01E48012101607047A528DB
S31508004B0005D11A484DF6AD61416002210160704732
S31508004B101648006810F0010018BF0120704780B5DC
S31508004B20144810210160144800781449144A58B1F1
S31508004B3003280CBF00200120106040F651000860D1
S31508004B400020FEF72BF906E0022010604FF4006003
S31508004B500860FFF7EEF90B480721016000210164A0
S31508004B60094810210160002002BD000000600040D5
S31508004B700860004080E100E0D22F00200C60004071
S31508004B800800004014A0004000E100E070B5DFF81E
S31508004B909C0303F0E9FA0446FF2C16D0DFF89003CD
S31508004BA00068205C851EE9B2204603F083FA0646B3
S31508004BB0E9B2204603F085F92146304600F055F95A
S31508004BC02046BDE8704003F02CB870BD03460A467F
S31508004BD0A2A10420FFE70CB480B502AA00F083F86E
S31508004BE001BC5DF80CFB00B587B0FFF70FFC002190
S31508004BF00591049150210391002102910191DFF85A
S31508004C0034130091002302460FF244310120FFF7C6
S31508004C10E2FFC9488179039101880291417901919E
S31508004C2001790091C37882780FF230314220FFF77C
S31508004C30D2FF07B000BD2DE9F041044615468E099E
S31508004C40B6010FF228370FF21C3802E0FFF7C3FF50
S31508004C504036B54208D3312C3346324607BF414663
S31508004C60312039462046F1E7BDE8F081B34908709E
S31508004C7070470EB430B50446B048007820B303F048
S31508004C80FFFA08B300F086FB012002F05EFF054636
S31508004C90FF2D19D002F04EFF022103F0F3FA014668
S31508004CA0284602F04DFF03AB22462946A44800F0E9
S31508004CB07CF930B1284603F057FB10B1042000F008
S31508004CC00BF8284602F0ADFF30BC5DF810FB0C224D
S31508004CD000219C4800F08FBC9A4931F81020521CDC
S31508004CE021F8102070472DE9F04F85B005460C468F
S31508004CF0904600269148007890B9002D18BF012DDE
S31508004D000ED0042D18BF052D0AD0312D18BF332D0E
S31508004D1006D0372D1EBF3B2D4FF6FF7085421FD19B
S31508004D2003F0AEFAE0B1012002F00FFF8246BAF1B5
S31508004D30FF0F15D0002102F003FF294601A803F052
S31508004D40A1FA05469CB900F08BF830B9504603F035
S31508004D500BFB10B10420FFF7BFFF504602F061FFBE
S31508004D6005B0BDE8F08F8DF804200125641C207875
S31508004D700028E8D0A0F13001C9B20A2905D20A21D3
S31508004D8001FB0600A0F13006F0E700F069F80028FC
S31508004D90E3D10025227801A8422A0ED0442A1AD047
S31508004DA0462A25D0572A0DD0622A3AD0662A2AD012
S31508004DB06C2A25D0702A26D0D5E758F8040B8DF82A
S31508004DC00400D2E758F8041B8DF804100904090EEC
S31508004DD041700225CAE758F8041B8DF804100A0A20
S31508004DE042700A0C8270080E8DF807000425BDE78C
S31508004DF058F8041B504603F024F80028B6D0ACE750
S31508004E0058F8046BB2E7012358F8041B662A08BF52
S31508004E100223F2B2504602F0F4FF002808BF00262B
S31508004E20ECE7434800681AF8009058F8041BCFB21C
S31508004E30FF2F9BD017F800B00BEB0901C9B25046FB
S31508004E4003F03FF8002888D1CDF800B000233A4691
S31508004E504946504603F041F988E7000057460000E6
S31508004E602A4601A9504602F0EABFF0B585B00546C4
S31508004E700C4612280AD0302818BF362841D03A28BE
S31508004E801AD04FF6FE71884235D04DE028480068A2
S31508004E90255C2D4E08E0204602F04CFE394602F00D
S31508004EA0A4FC203D3068245CFF2C3DD0EDB2212DBA
S31508004EB02CBF20272F46EEE703F021FB0446FEF71A
S31508004EC049FF0546FDF7BBFC0646FDF7B5FC074658
S31508004ED0FEF738FF02460494164803901B480068FC
S31508004EE000880290019500963B460FF288013B2008
S31508004EF0FFF771FE18E0204605B0BDE8F04003F064
S31508004F0080BB0221204603F0D5F80646002120463C
S31508004F1003F0D0F80146302D0CBF31203720324639
S31508004F2005B0BDE8F04086E605B0F0BD442900208E
S31508004F30DC260020B02C002058BD0108DA2F0020FE
S31508004F403F7E0008E02C0020E42600201C2E0020CE
S31508004F50424238704242424257424200424242422C
S31508004F605742000057363466000000005736347042
S31508004F7000000000574242575738704200000000B0
S31508004F8070B51346101802E0A4192C705B1EDBB22C
S31508004F904BB101F00F060909451E28460A2E34BFF3
S31508004FA030243724F0E7101870BD2DE9F04F87B08C
S31508004FB08046894614469B4601AD002701A88DF810
S31508004FC000001BE05BF804AB04224FEA1A412846AE
S31508004FD0FFF7D6FF04221FFA8AF1FFF7D1FF05462D
S31508004FE005A8854209D39DF800002E1A00F096F808
S31508004FF0002831D1F719FFB201AD641C9DF80000F5
S315080050002E1A2078002807D0252802D005F8010B8B
S31508005010E6E714F8010F002876D02528F6D03228BE
S3150800502018BF34285FD0582857D063280CD0642876
S3150800503018BF6C2825D0702818BF732807D0752884
S315080050401FD0782849D0CBE75BF8040BDEE75BF87E
S3150800505004AB00F063F800285CD1F719FFB201AD84
S31508005060002600E0761CF6B216F80A000028F9D1E8
S31508005070324651464846C04700284BD1F719FFB279
S31508005080AEE75BF8040B0021002803D52D21297013
S3150800509001214042002300224FF0000C02E0801B51
S315080050A00CF1010C0FF20C3656F82260B042F6D21B
S315080050B043EA0C06F6B2002E05D0C9B20CF130034D
S315080050C04B55491C0123521C092AE5DBC9B230306D
S315080050D04855481CC0B2451982E75BF8041B0222F2
S315080050E0C9B2284679E714F8010F78281CBF582852
S315080050F0641EF1D114F8010C32287FF463AF5BF813
S31508005100041B042289B2ECE700F008F810B9F0197C
S31508005110C0B200E0002007B0BDE8F08FF2B201A9E6
S31508005120484640472DE9FC4E0400894692469B4670
S3150800513018BF022C2BD0032C18BF042C27D026D23C
S315080051400FF25C20205C012821D1DFF8405205EBE4
S315080051508406F768FDF76CF90021B98039807980F3
S31508005160FDF76CF9F669FDF763F90021B180318026
S3150800517071806155FDF762F902F0B0FB5B46524655
S315080051804946204602B0BDE8F04E02F0A9BA2120F1
S31508005190BDE8F68E10B5044602F084FBDFF8EC0194
S315080051A000EB8400C069808810BD2DE9F04188466F
S315080051B00446DFF8D85105EB8401CE690FF2E011F9
S315080051C0615C09B9012035E005EB4407615D61B111
S315080051D0B9887288914208D1FDF72AF9665D0021DF
S315080051E06155FDF72BF9304624E002F05BFBB088E9
S315080051F0F8B1FDF71DF971888919897988F80010C1
S315080052007188491C0FF2A41232F8142000F01AF81B
S315080052107180B188491EB180FDF710F9605D30B123
S31508005220B8884FF6FF71884204BF3088B8800020DE
S3150800523000E02620BDE8F08102B5012200A900F0B1
S3150800524021F802BD91FBF2F302FB1311704710B56A
S3150800525000240FF24C13C35C012B08D113460A46EF
S3150800526001460FF22100FFF7A0FE00B901242046EF
S3150800527010BD0CB480B502AAFFF7E9FF02BC5DF8C1
S315080052800CFB00002DE9F84F80468B46164647462C
S315080052900FF20C10385C012833D13C4800EB87002C
S315080052A0C46800250FF2FC090FF2EC0A15E0FDF7B9
S315080052B0BFF8A18801B90125218809191BF8012B16
S315080052C08A712188491C39F81720FFF7BBFF21800E
S315080052D0A188491CA180FDF7B1F83046461EC0B228
S315080052E050B1A0883AF817108842E0D315B1404665
S315080052F002F038FA222005E0404602F033FA002090
S3150800530000E00120BDE8F28F80B50FF29402825CBE
S31508005310012A06D11D4A02EB8001C9688A88002A3B
S31508005320FCD102F057FA002002BD0CB438B5044689
S315080053300D4602F02FFA04AB2A4621461448FFF719
S3150800534034FE0FF25C01615C012908D10F4901EBBB
S315080053508400C068808810B1204602F003FA002055
S3150800536032BC5DF80CFB10B5084901EB8000C46936
S31508005370FDF75EF80021A18021806180FDF75EF8C7
S31508005380BDE8104002F0AABA00000000A0280020DC
S31508005390A5770008704700000000800000000000A4
S315080053A0000100000000800000000000000010005E
S315080053B00000000000CA9A3B00E1F50580969800B7
S315080053C040420F00A086010010270000E8030000F5
S315080053D0640000000A00000010B50446FDF728F82E
S315080053E04F48302101604F4801604F4801604F48DF
S315080053F010210160200A08BF24024D4804804FF29C
S315080054000F014180BFF35F8F4A4800210160416068
S3150800541049484A49016010BD10B5494C2068C00684
S315080054200BD5434847490A68C0F894204968C0F82C
S31508005430901040F60620FFF7CFFF2068C00708D572
S31508005440414803210170206C400840002064012077
S3150800545020602068000703D5206C20F0080020642F
S3150800546010BD000080B5002000F00AF838B907B56D
S31508005470F5210FF2E800BDE80440FDF7CFBA01BDFB
S315080054802DE9FC44314C4142226889184A1C02F035
S315080054901F0200285ABF504245185518A5F11F0685
S315080054A02B48A84224BF2B48864203D3EFF3088033
S315080054B0854201D300202EE0FCF7BAFF8246264833
S315080054C0006810F0010718BF03F04DF9206801467F
S315080054D08D4207D22068CD2100F801192060854247
S315080054E0F8D307E01F38CD2201E000F8012B8142EE
S315080054F0FBD22560304603F03BF9E22001E006F8CE
S31508005500010BB542FBD20FB103F012F95046FCF776
S3150800551095FF20682038BDE8F6840C480068704777
S315080055203020004030C8004030C0004010D0004055
S31508005530000000201C4000400CED00E00400FA05C5
S3150800554018A00040305000406E290020FC2800209A
S31508005550381F00207005002094ED00E06D69637225
S315080055606F2D696E7465726E616C2E6300000000A3
S31508005570814233D21018401E5118491E10E0121FDE
S3150800558011F8013900F8013911F8013900F8013923
S3150800559011F8013900F8013911F8013900F8013913
S315080055A092B2042AEBD292B2002A1EBF11F8013930
S315080055B000F80139521EF6D17047121F11F8013B47
S315080055C000F8013B11F8013B00F8013B11F8013BDB
S315080055D000F8013B11F8013B00F8013B92B2042A9E
S315080055E0EBD292B2002A1EBF11F8013B00F8013B2C
S315080055F0521EF6D17047130003D00A46194603F027
S31508005600CDB8704710B500E0521E92B232B110F80C
S31508005610013B11F8014BA342F6D00FE0002010BD64
S3150800562010B500E0521E92B232B110F8013B11F8E3
S31508005630014BA342F6D001E0002010BD181B40B272
S3150800564010BD00002DE9F94788B01722FF2101A8EF
S31508005650FFF7D1FFDFF8C8905A22FF214846FFF727
S31508005660CAFF2E254FF0170A00270FF2C8082D4843
S31508005670385C411C01EBD1714C102B497E5CFF282C
S3150800568004D107B56F214046FDF7C8F97F2E04D32C
S3150800569007B570214046FDF7C1F92448385C00B1CA
S315080056A01934601C00FB06F4A2B2214830F8171022
S315080056B00FF29000FFF7DDFA6519012E1CBF29F8D5
S315080056C017A0B2447F1C172FD1DB40F21C44A54219
S315080056D034BF12A30FF2C003172000902246A9B2C6
S315080056E00FF27C00FFF7C5FAA5420FD3FFF703FABE
S315080056F0FCF79EFE23462A460FF2A8010120FFF773
S3150800570014FE07B59B214046FDF788F901A99DF8C7
S31508005710200000F024F90AB0BDE8F0876F6B00009E
S31508005720242C00204CBB010864BB010834BB0108CB
S3150800573004BB010873696D2D656570726F6D2E6304
S315080057400000000043726561746F723A2030782554
S3150800575032582C20576F7264733A2025640A000069
S3150800576053696D454520646174613A202564207744
S315080057706F726473206F66202564206D6178202817
S315080057802570292C20746F6B656E436F756E743A9D
S315080057902025640A00000000544F4F204C41524710
S315080057A0450000000D0A4552524F523A2053696D82
S315080057B04545206461746120746F6F206C6172675F
S315080057C0652E2020436F6D70696C696E6720776956
S315080057D0746820256420776F72647320636F6E7314
S315080057E0756D65642E20204D617820616C6C6F772D
S315080057F065642069732025642E0D0A0010B5DFF84C
S315080058006C3ADFF86C4A2488001B03EB400000233F
S3150800581004E030F8134021F813405B1C9342F8DB90
S31508005820002010BD2DE9F04182B004460D4616460B
S315080058300027DFF8388A01E0B81CC7B2B7421ADA7F
S3150800584078194078795D01EB0020ADF80000012257
S3150800585000A907EBD77004EB6000DFF8143A1B8841
S31508005860C01A08EB400003F01BF80028E4D002F049
S3150800587015FF002000E00120BDE8F681F8B50446D2
S315080058800E46154600270DE000F019F8761C04EBC5
S315080058904700BDF80010090A4170BDF8000004F879
S315080058A017007F1CB7EB550FEEDBE80706D500F0AF
S315080058B006F82819BDF8001000F8011CF1BD0122F0
S315080058C000A9B0B29AE7DFF8A419DFF8A42912886C
S315080058D0801A01EB4001022002F0A8BFDFF89419F4
S315080058E0415CDFF89429825CDFF89039C05C10B11E
S315080058F002F5997292B241EAC21080B2704710B5A9
S31508005900DFF87C3903EB4002DFF86849005D0128BF
S3150800591001D1104610BD1088081803EB400010BDD1
S3150800592038B50C46DFF85C190D782A462146FFF78C
S3150800593065FF208800281CBF4FF6FF7188420AD0F1
S31508005940012000E0401CC0B2A84206D234F810106C
S3150800595022889142F6D0002032BD012032BD2DE9C1
S31508005960F04F9DB089460446DFF81C790020387050
S315080059707880DFF818090088ADF8000008A9FFF755
S31508005980CFFF824601207870DFF804090588DFF822
S315080059900409B0F80080BDF80060DFF8D408008874
S315080059A0ADF8040083460AA9FFF7BAFFD0B1BAF1E9
S315080059B0000F43D04FF6FE70BDF82010814204D187
S315080059C0BDF82800012806D10FE0012904BFBDF85B
S315080059D02810814232D0BDF82000BDF82810884230
S315080059E02CD202E0BAF1000F27D00020787030469A
S315080059F0CDF808B00795CDF81480DFF8881809782F
S31508005A008DF806100818ADF8100000F05EFABDF81B
S31508005A101000FFF7F3FEDFF8800800880690BDF84F
S31508005A200200000B4FF6FF789DF80610884218BF53
S31508005A300F2800D114B3002515E001247878012831
S31508005A40D5D158460296CDF81C800595D5E7069817
S31508005A5005FB00F4BDF8040000F02CFCBDF80000BE
S31508005A6000F028FC6D1C9DF806008542EFDB01203E
S31508005A7038704D2002F012FE0025FBE0BDF81050EC
S31508005A8000F023FA2846FFF7B9FE6E1CBDF802009F
S31508005A90C043C0B2ADF80200DFF800080588BDF8BB
S31508005AA00200A84218BF01244FF0000A1FE0401C5C
S31508005AB0C1B2A94217D2C0B28346DFF8E41731F85B
S31508005AC01B10BDF80E209142F1D1FFF707FF4FF6E4
S31508005AD080710840BDF80C104FF68072114088425C
S31508005AE008BF0BF809A00AF101001FFA80FABDF8F1
S31508005AF00200824507DA022203A9B0B2FFF77EFE4A
S31508005B00B61C0020D4E7002100E0491CA94219DA96
S31508005B1011F809008842F8D0012413E02AF8116028
S31508005B20012201A9BDF8103003EB4000401C00F02B
S31508005B30D4FABDF80400C0F3C710401C00EBD070BF
S31508005B4006EB6006DFF838A7B6B20598864213DA80
S31508005B50012200A93046FFF751FEBDF80000404576
S31508005B600AD0761C000ABDF8001001F07F02BDF8C5
S31508005B700210884202DB012400252BE0002100E008
S31508005B80491CA942CCDA11F809308342F8D1C9B2C6
S31508005B90FF29C5D07F2A0CBF4FF0000C9446DFF8CA
S31508005BA0D436CB5C9C4509DABDF800C0CCF3C01CE2
S31508005BB0DFF8C8E611F80EE0F44501D00124AFE796
S31508005BC0012BABD07F2A08BF00223AF811105118D2
S31508005BD0A4E76D1CDFF8CC060088854204DA3AF89B
S31508005BE015004045F5D101247E80B5B20598854259
S31508005BF00ADA012200A92846FFF700FE6E1CBDF846
S31508005C0000004045F1D034E7002CFCD101220CA954
S31508005C10029800F062FABDF8300040450DD105E063
S31508005C20401C80B2202813D32034A4B20799029AC4
S31508005C30891A8C4205DB0120387000201DB0BDE8AA
S31508005C40F08FA51820220CA9A8B2FFF7D7FD0020CF
S31508005C500CA931F810104145E2D0A8B2FFF733FE7F
S31508005C60203CA4B2E0E70298069905FB010000F083
S31508005C7022FB6D1C9DF806008542F4DB0120387076
S31508005C80414600F044F818B100F023F90028D4D1B1
S31508005C900120D3E72DE9F84504460D4616469A46EF
S31508005CA031462846FFF72BFEB0F80080DFF8C875A6
S31508005CB0DFF8E81509888D420AD27F2E08BF00262C
S31508005CC0DFF8B005285C864202DAE85D824504D032
S31508005CD007B540F2834100F0FCF9DFF8A005285C1F
S31508005CE068B14146284600F02BFAE95D012908BF4C
S31508005CF020700AD0022914BF2060208005E0524691
S31508005D0041462046BDE8F845B8E5BDE8F1852DE9E8
S31508005D10F34F83B0DFF858050488DFF86C05407840
S31508005D2000281ABFDFF8640500882046DFF85415F6
S31508005D3009780D18ADB2DFF864050088ADF80800DB
S31508005D40C043C0B200EB013000F55060ADF8020068
S31508005D5000F0CDF92B1B00F0C6F96E1CB6B2002870
S31508005D6032D10025DFF8387510E0E8B2FFF7B6FD46
S31508005D70ADF8040037F81500ADF80600022200F069
S31508005D80AFF9002820D1B61CB6B26D1CBDF80800C4
S31508005D908542EADB002500E06D1CBDF80800854257
S31508005DA080F28E804FF0000A1AE000F08EF81FFA93
S31508005DB089F0FFF723FD09F1010900F098F9BB19ED
S31508005DC01B1B00F090F9002874D17F1CFFB25F45B9
S31508005DD0EBDBDFF8D404285C8619B6B20AF1010AAF
S31508005DE0DFF8900415F800B05FFA8AFADA45D3D2DC
S31508005DF05146E8B2FFF783FD8046B8F80090DFF811
S31508005E007C042F5CF80140EA0520ADF80000BBF1E0
S31508005E10010FBDF800000CBF40F07F004AEA000001
S31508005E20ADF80000DFF84404311B00EB4100711C9B
S31508005E3089B201914FF6FF7189451EBFBDF8001062
S31508005E40BDF81020914218D19DF80C100029C5D034
S31508005E50012200A902F024FD019E58BBA8F80060A3
S31508005E60DFF814042A5CDFF8440450F82510B0B2B1
S31508005E70FFF7D8FC0028ACD11FE0DFF8FC13695CFB
S31508005E80491C01EBD171C9054FEA116B012200A922
S31508005E9002F006FD019E68B9A8F80060002F95D0AB
S31508005EA04946E8B200F04CF901905A4600F018F954
S31508005EB000288ED002F0F2FB002005B0BDE8F08F76
S31508005EC0DFF8C40346800120F7E701220DF102013D
S31508005ED070472DE9F04182B0DFF8B0030688DFF895
S31508005EE090030488DFF8A0536878002812BF20467C
S31508005EF030462646012200A9FFF780FCBDF80000BF
S31508005F0001280CBF4FF6FE70401EADF80000DFF802
S31508005F1074030778DFF854833846471E70B10122A8
S31508005F2000A9BFB2B819001B08EB400002F0B8FC84
S31508005F300028F1D002F0B2FB002007E06978481E7D
S31508005F408041C00F6870002028700120BDE8F681E6
S31508005F50000000002DE9FE4F83460C4617469A4678
S31508005F6000208DF80400012539465846FFF7C7FC7E
S31508005F7081465E46C94909888B450AD27F2F08BFE4
S31508005F800027BC48305C874203DABB48305C824550
S31508005F9004D007B540F2A65100F09BF8BA4F7878BE
S31508005FA020B1BB48B0F80080B14803E0B948B0F862
S31508005FB00080B6480088397849B97988081ABC49F2
S31508005FC009888842B4BF4320442002F067FBB9F829
S31508005FD00010AA48305C78B1584600F0B1F8BAF11A
S31508005FE0010F08BF217804D0BAF1020F0CBF21882F
S31508005FF0216881426BD02BE002914FF0000B23E021
S31508006000012200A902980BEBDB7300EB630000F09A
S3150800601064F80BEB040040781BF8041001EB002031
S3150800602080B2AAF101018B4505D1C0B2BDF80010B6
S31508006030C9B2ADF80010BDF80010884218BF002597
S315080060400BF102005FFA80FBD345D9DB002D3ED168
S31508006050FFF73BFFB9F80000401E00F03EF89248F3
S31508006060355C7888A8F10101491B814200DB60B9DB
S31508006070387808B945201CE0BDF802100020FFF763
S3150800608046FE20B301208DF804007888401C7880ED
S315080060907949725C214680B2FFF7C4FBB8B100F0BB
S315080060A026F87B885B1E724C24881B1B00F01BF8A5
S315080060B010B102F0F3FA0AE09DF8040010B1FFF7F8
S315080060C008FF20B17888A9F8000028187880BDE86C
S315080060D0F78F0FF2E810FCF7A1BC80B2FFF78EBB72
S315080060E001A96248331B00EB430002F0D9BB012229
S315080060F00DF102015D48704770B582B0044600256F
S315080061001926012200A9A0B2FFF778FB641CBDF886
S31508006110000048B14FF47F41401A02D0FF3806D03C
S3150800612007E0681C40B276BDAD1C761EE9D168B2A0
S3150800613076BDBDF80000C0B200B96D1CE843F1E7B2
S3150800614038B50C46002100914B49455C2A46214644
S3150800615000A8FFF793FB681C00EBD07004EB600007
S3150800616080B2FFF7C9FF002848BFC043009940B274
S31508006170401832BDF0B583B004462546404830F88D
S315080061801560464909888C4202D23C48285C20B9E9
S3150800619007B540F2A661FFF79CFF37482D5C681CDF
S315080061A000EBD07006EB6007B8B2FFF7A5FF322800
S315080061B014D2C1074CBF00214FF47F41ADF804103B
S315080061C0012201A9294BBFB207EB6000284F3F887F
S315080061D0C01B03EB400002F063FB60B1314620466A
S315080061E0FFF7AEFF0090401C00902B467F2200A9C7
S315080061F02046FFF7AFFEF7BDF8B5234C20780028F8
S3150800620032D11B480588607800281ABF1F480688BF
S315080062102E461C4807783846471E02281DD30122F9
S3150800622000A9FFB2B819FFF758FFBDF8000000280B
S31508006230F1D01948008807FB006000F03CF8002000
S31508006240ADF80000012200A90848BB195B1BFFF73F
S315080062504AFF48B102F022FAF1BD3046FFF733FB98
S31508006260FFB20FB901202070F1BD000000E002085E
S31508006270DCBA010864BB01084CBB010834BB010841
S31508006280242C0020D8BA0108BC2F0020E0BA010847
S31508006290DEBA0108E2BA0108DABA0108E6BA010864
S315080062A004BB0108E8BA0108ECBA0108FCBC0108FD
S315080062B0E4BA0108201880B2FFF705BB73696D2D93
S315080062C0656570726F6D2D696E7465726E616C2E80
S315080062D063000000DFF89C0500210170FF210172B0
S315080062E001737047F8B5044602F020FB0546DFF84F
S315080062F088050688DFF87C75204602F029FCB0F58B
S31508006300006F1CD1204602F045FC00F0C3FAFF28B6
S3150800631013D0DFF86815096831F8102042F020021A
S3150800632021F81020214607F10C0001F008FF387803
S3150800633090B1A819398A461A13E09320F2BDFF21B5
S3150800634007F1080001F026FF052803D2214607F1C8
S315080063500800EAE73920F2BD3D823146384602F0A8
S31508006360ACFCB2B20321204602F069FB03220521E8
S31508006370204602F06FFB204601F045FC0020F2BDE6
S31508006380F8B50446DFF8EC04007AFF2813D0DFF8E6
S31508006390F0542968465C3746384602F0EBFB08227B
S315080063A001462046FFF72EF908B90120F2BD2868F4
S315080063B03F5CB742F0D10020F2BDF8B5044602F0C2
S315080063C06BFB050B204602F0FBFB0646204602F057
S315080063D0E5FBB0F5404F15D1E8073BD5314600201F
S315080063E000F088F90446FF2C34D0002102F074FD31
S315080063F080B300F0A8F940F080020521204602F09B
S3150800640029FB27E0304601F04BFE00F043FA04462C
S31508006410FF2C01D10020F2BD01200021224602F006
S3150800642067FFDFF86024D2E9006706430F43C2E935
S315080064300067EB070ED5DFF844341B6833F81430D1
S315080064404FF4FE64234205D0D2E90245204329438E
S31508006450C2E902010120F2BD38B5044602F078FB14
S31508006460B0F5006F0CBF01250025204602F082FB1F
S3150800647004462146284600F03DF9FF2810D18DB183
S31508006480204601F00DFE00F005FAFF280AD0DFF8D5
S31508006490EC13096831F810004FF4FA61084201D08C
S315080064A0012032BD002032BD2DE9FC4107460C46CD
S315080064B0DFF8C05302F04CFBB0F5006F0CBF05F1D6
S315080064C00C0005F108000078FF2848D0DFF8B01363
S315080064D00968405C0646B7423ED1FBF7A9FF8046ED
S315080064E00521304602F0BDFA00F07F00471EFAB2D9
S315080064F00521304602F0AEFA002C18BF312C01D027
S31508006500F8B210BBFBF794FF0746F0B202F020FB87
S31508006510B0F5006FF1B206D105F10C0001F03AFEB4
S3150800652000F015F903E005F1080001F033FE3846DE
S31508006530FBF784FF4046FBF781FF2146304603F010
S3150800654027FD304601F06DFB04E000F000F94046F7
S31508006550FBF774FF012003E0765C8642BBD100207E
S31508006560BDE8F68138B502F0E1F9C24C218A421A33
S315080065704FF6FF75ADF80050208200A990B200F0E2
S3150800658007F9BDF80000A84202D10020207031BDED
S315080065900146204602F091FB31BD00214FF6FF70FF
S315080065A0F6E02DE9F84FDFF8DC92D9E90001002979
S315080065B008BF002800F0978000260124B24600276D
S315080065C0B846FBF735FF8446D9E9000104EA00021C
S315080065D01AEA010308BF002A18D00127E5436FEA23
S315080065E00A0B284001EA0B01C9E90001D9E902238F
S315080065F004EA02001AEA030108BF002806D0B846D2
S3150800660002EA050003EA0B01C9E902016046FBF745
S3150800661015FF002F58D09948006830F816008107F2
S3150800662052D59949096831F81670B8F1000F05D0A6
S3150800663000F49871102908BF012500D00025934958
S31508006640096800227254B8F1000F25D0800623D5B8
S315080066508DF8007038128DF8010000A9012000F0AD
S3150800666049F88046B8F1FF0F07D100F03EF84FF61B
S31508006670DF72114020F816101BE0002102F02CFCF6
S31508006680B8B10521404602F0ECF940F08002052138
S31508006690404602F0DFF90CE085F001004146014270
S315080066A007D000F022F841F4006120F8161003F034
S315080066B0F7FF00953B461A226DA10320FEF78BFAD9
S315080066C02946384604F084FC761C4FEA4A0040EA1C
S315080066D0D47A6400402E06DAD9E90001002908BFF9
S315080066E000287FF46CAFBDE8F18F6448006830F885
S315080066F0161070472DE9F04188465E49002819BFF3
S3150800670001F10C00022501F1080008250078FF2890
S3150800671016D05B4E3168475C3C4600F014F800061C
S315080067200AD4204602F026FA01462A464046FEF7D3
S3150800673069FF08B9204604E03068245CBC42ECD105
S31508006740FF20BDE8F0810521204602F08AB970B520
S315080067500021202005F0A5F84648007BFF2816D022
S31508006760474C2168455C2E46304602F013FA00F085
S3150800677091F8FF2807D04149096831F8102042F0FE
S31508006780200221F810202068365CAE42ECD170BD9C
S315080067902DE9F84F80460D460FF2F4000068009088
S315080067A0DFF8D0B00BF10804354F01E00BF10C040B
S315080067B0FBF73EFE064606E0204601F0D5FC5146AC
S315080067C000A801F0BCFC204601F018FD48B9207865
S315080067D0396810F801A00321504602F027F98045D0
S315080067E0EAD20BF10C00844208BFFFF7B0FF30462F
S315080067F0FBF724FE2078FF2819D0396810F8019095
S31508006800CA460321504602F011F9A0EB0806B2B2B7
S315080068100321504602F013F92888B6B2864288BF8B
S3150800682006462E8038681AF800A0CA45E9D10BF149
S315080068300C008442BAD100A801F0E0FCA8B900A86F
S3150800684001F092FC044602F031F900F0C2F8FFF7B5
S315080068507AFF000603D44221204603F099FB20461E
S3150800686001F0DFF900F0B6F8E5E7BDE8F18F0000C2
S3150800687042574200D429002058270020F826002035
S31508006880E8260020482A0020F0260020FC260020C2
S31508006890FF000000F8B506000C4C276814D0FBF77B
S315080068A0C7FD0B4D2978226822F8116037F8021BBC
S315080068B0B142FBD1FBF7C2FDB81E2168401AC005DC
S315080068C02978000E884200D1FF20F2BDF02600206C
S315080068D0F426002010B567480068674C20606060A1
S315080068E048220021FEF787FE206800218172206871
S315080068F0C17220680B210173206803214173206847
S315080069004FF6FE71C1814FF6FF71018200F090FBD0
S315080069102168087600F08CFB2168487600F088FB31
S3150800692021688876206855490978C17620685449CF
S31508006930096881625349097880F82C102068524901
S315080069400968016310BD10B5FBF776FF4A4C61680C
S31508006950097B884203D00846FBF766FF50B9FBF768
S315080069606EFF0146606890F90D00814204D0FBF77E
S315080069706AFF08B1012010BD6068C089FDF7E5F916
S315080069806068008AFDF7E9F96068807A012818BF0F
S315080069900020FDF7C4F9002010BD10B53B4C0020BF
S315080069A0207004F061F800281CBFBDE81040FFF70E
S315080069B0CABF2046BDE8104002F074B97047704758
S315080069C0002070470120704770470020704700205C
S315080069D0704770477047002070470020704780B5A1
S315080069E0002000F023F828B1002000F013F808B1C1
S315080069F0002002BDFF2002BD80B5002000F00AF885
S31508006A0030B11D480068807A032801D2002002BDF3
S31508006A10FF2002BD18480068C07A02281CBF11284A
S31508006A20432801D1012070470020704712480068AA
S31508006A30817A04298041C00F7047000010B5040010
S31508006A4005D007B5D3210FF26800FBF7E7FF48200A
S31508006A500849096800FB041007494860BDE810406A
S31508006A6071E705484068C089704703484068008A4E
S31508006A7070470000202700201C2E002055270020E4
S31508006A80282700202C270020302700200C2E002045
S31508006A907047002070470020704702F054BA7047CC
S31508006AA0704701F0AABD05F0FABC01F0F0BD000080
S31508006AB0656D6265722D6D756C74692D6E6574777A
S31508006AC06F726B2D737475622E63000070B5044681
S31508006AD00D461646FDF709F938B16078002E14BF41
S31508006AE040F0200000F0DF0060702946204601F0E3
S31508006AF01BF9FF2822D09D4C014604F10C0001F039
S31508006B001EFB2088401C2080618880B281420BD2FF
S31508006B10A088401CA08004F10C0001F025FB01F0C0
S31508006B2080F82088401E2080608821888842F2D319
S31508006B308F480078BDE8704002F0B9B970BD000012
S31508006B402DE9F04E86B0044600208DF80500FBF7C7
S31508006B506FFC864D2988491E2980FBF76FFC204665
S31508006B6000F0E8FF90F8009090F801A0002000904F
S31508006B70082380480068205CA0F10802D2B22146AA
S31508006B8002A801F0EBF802AE7078FFF722FF7A4808
S31508006B90007898B1A86800280FD0F078FCF74CFD6B
S31508006BA04946FCF750FD024696F9020000F16603D5
S31508006BB05BB24946204600F0BDF895E00AF00700AA
S31508006BC002282DD0FF208DF80400204600F0B2FFE1
S31508006BD000F1010B584601F0A0FF0546A9EB050098
S31508006BE0801E47B2002F06D5204601F01AF8FFF797
S31508006BF0F1FE002082E001A9584607F069F800284E
S31508006C0075D10AF0070001280BD105EB0B019DF899
S31508006C10040003F0C7FC20B99DF8040001F001F850
S31508006C2065E09DF804005349096810F801A0534926
S31508006C30096844544F480068205C00F12001C9B235
S31508006C409DF8040000F07CFF9DF8040001F029FF80
S31508006C5000F00C0004281CBFEF19002578B280B29A
S31508006C6000906B1C9BB2224651469DF8040001F029
S31508006C7034FA07EB0A01C9B29DF8040001F021F9BC
S31508006C8070783F490978884205D307B5BD210FF2C8
S31508006C90F800FBF7C3FE9DF8040001F0FDFE800432
S31508006CA0800C717840EA813189B29DF8040001F0C0
S31508006CB0F5FEF078FCF7C0FC4946FCF7C4FC024632
S31508006CC0032100F01EF8B07800F16602D2B2042162
S31508006CD000F017F89DF80820052100F012F89DF835
S31508006CE00440204602F038FA01208DF805002046B7
S31508006CF000F097FFFFF76EFE9DF8050006B0BDE8A9
S31508006D00F08E9DF8040001F0A5BE10B5174CA188B9
S31508006D1029B1C9B21D20FFF7C8FE0020A08004F1E2
S31508006D200C0001F021FAFF2803D0FFF709FF00281D
S31508006D30F5D010BD30B5A1B014461D46002200920C
S31508006D404B1CDBB2014601A801F008F8FFF73CFE30
S31508006D502A46214601A8054B9B689847FFF73AFE45
S31508006D6021B030BD074801F049BA0000002A0020CA
S31508006D70D72F0020DC26002091290020E4260020B9
S31508006D80242700200C2A00206D61632D7265636537
S31508006D906976652E6300000038B504460D46012065
S31508006DA007F092F85D48002D12BF00210178491CB2
S31508006DB001705B4844705B48FCF772FC0020BDE834
S31508006DC0324007F081B8000010B51446002835D0C7
S31508006DD0402822D088281CBF89288D2833D08F28A0
S31508006DE039D15148007804280DD144B14F480221C1
S31508006DF0017040F60620BDE8104007F06DB8FCF7B4
S31508006E0019FF312023E00120FDF766FFFCF712FF8A
S31508006E10002C0CBF3120002019E04048017840784A
S31508006E20814204D200210120BDE81040B4E70020C9
S31508006E30FDF752FFFCF7FEFE402008E00120FDF7B3
S31508006E404BFF002003E00020FDF746FF8D20BDE83C
S31508006E50104002F025B907B59D210FF2E800BDE8FC
S31508006E601040FBF7DBBD31480078022800D0704798
S31508006E7080B52F480078042807D00C280ED12D4855
S31508006E800078022818BF7C2808D107F040F8FCF7DC
S31508006E90D1FE0020BDE8024002F002B901BD38B5B6
S31508006EA00024FBF7C5FA05462048007810B9FCF718
S31508006EB00CFB04462846FBF7C1FA002C1CBFBDE8AC
S31508006EC0314001F0E9BB31BD80B5FFF7E8FF142179
S31508006ED01948BDE8044001F0F7BE000007B5D62101
S31508006EE00FF26000FBF79ABD38B5144C2068216C88
S31508006EF001EA0005ADB2A80706D5206C20F002000D
S31508006F0020640F4801210170680705D5206C20F020
S31508006F100400206403F08EFC256031BDFC290020A6
S31508006F20F0280020BC2E00209B290020B02E00202F
S31508006F30CC290020CD290020982E002008A000404A
S31508006F40E52F00206D61632D656D3235302E6300A7
S31508006F5038B504461B4D214600F03DF8E860211D72
S31508006F6000F039F8A86004F1080100F034F8686008
S31508006F7004F10C0100F02FF8286031BD7047F8B510
S31508006F800446114D80202860104E062030600720E8
S31508006F90286030688007FCD5002704EB870100F0DD
S31508006FA01AF8A8627F1C042FF7D330684007FCD56F
S31508006FB000262A6B04EB860100F00AF8761C042EDC
S31508006FC0F7D3F1BD383000400030004010A0004033
S31508006FD0002006F0B1BF002006F0BCBF70B504461D
S31508006FE00D46FBF725FA06462846FFF7B1FF204669
S31508006FF0FFF7C5FF3046BDE87040FBF71FBA00280B
S3150800700048BF40427047000081B209B94BF6EF61AC
S315080070100E4A1180000C08BF4FF6CE2050807047EC
S315080070200288130448BF4A40510001801046704741
S3150800703038B5064C62212046FFF7F2FF054641F2B5
S315080070400B01A01CFFF7ECFF684032BDD4270020D7
S31508007050002181F3118870472DE9F14F9AB0DFF8C6
S31508007060EC45606818909DF86800072808BF03205B
S3150800707002D0082802D102208DF86800DFF8D05522
S315080070802868696840EA0120A96840EA014000903A
S315080070906868400703D5E06940F00200E0612868A7
S315080070A0400703D5E06940F00400E0614FF0010AAB
S315080070B0009829690AFA01F1084203D0E06940F00C
S315080070C00800E061DFF8807500207860DFF88485C5
S315080070D09DF86800012800F05282C0F078820328E3
S315080070E01ED005D3042840F072820020606017E0A5
S315080070F0D8F84000C00703D5E06940F04000E061D9
S31508007100D8F84000400703D5E06940F02000E06168
S31508007110D8F84000800703D5E06940F01000E06128
S31508007120FBF786F9FDF7F4FC8DF85C004FF0000BD1
S31508007130D8F840001690D8F844001590DFF818954E
S31508007140D9F84C001490D9F850001390D9F8540087
S315080071501290D9F858001190DFF8000500681090D1
S31508007160DFF8F80440680F90DFF8F00440690E90E5
S31508007170DFF8E804406A0D90DFF8E46430680C90A4
S3150800718070680B90B0680A90F068099030690890AA
S3150800719070690790B0690690F0690590B06B049025
S315080071A0DFF8C0040068DFF8C014496803910221BB
S315080071B02160DFF8B8140968DFF8B424126841EAD8
S315080071C00221DFF8B024126841EA024102914FF029
S315080071D0FF316162DFF8A0140A687968D20408D51D
S315080071E06A68D20705D5E269D20744BFD34641F497
S315080071F0807100F0FCF9920408D56A68520605D534
S31508007200E269D20744BFD34641F4804100F0EFF962
S3150800721052040AD500F0E5F907D0E269D20704D589
S31508007220D346EA680AFA02F2114300F0E0F91204BA
S3150800723010D5009A2B690AFA03F31A420AD0E269B2
S31508007240D20702D4E269120704D5D3462A690AFA94
S3150800725002F2114300F0CBF9D20305D5E269120612
S3150800726044BFD34641F00061796000216A68D207BD
S3150800727048BF4FF480516A68520648BF41F400512E
S3150800728000F0AFF918BF41F480412B690AFA03F3FD
S315080072901A4218BF41F40041E269D20605D4E269F0
S315080072A0920602D4E269520601D541F01001E2695C
S315080072B0120648BF41F4803108400190A520FDF729
S315080072C01EFCC4F83CA0E069A16B11B1616A0142D9
S315080072D0FAD0616A014200F0EF800020E063D346ED
S315080072E0786840F08040786000F0EAF90720C8F82E
S315080072F000000F20C9F8000001F01AFA189860601B
S315080073001698C8F840001598C8F844001498C9F8A3
S315080073104C001398C9F850001298C9F854001198EF
S31508007320C9F85800CD48109901600F9941600E9927
S3150800733041610D9941620C9830600B9870600A980B
S31508007340B0600998F06008983061079870610698EF
S31508007350B0610598F0610498B063C248019901606C
S31508007360C14803994160C5484FF0FF310160BF48E5
S315080073700268BF480068BF490968636AE66933401E
S31508007380D5F810C07E68DDF808E042EA002040EA39
S31508007390014080EA0E0000990840590801F00101F1
S315080073A040EA8120990801F0010140EA8100D908E4
S315080073B001F0010101FA0CF1084303F47C7140EA7B
S315080073C0015030437860FBF733F800F087F9002066
S315080073D020609DF85C0008B1FDF786FB7868A14936
S315080073E00968C90303D5010144BF20212162D8F8E1
S315080073F04010890704D5C10144BF0221C8F80C1002
S31508007400D8F84010490704D5810144BF0421C8F8BB
S315080074100C10D8F84010C90703D5410148BFC8F871
S315080074200CA0D9F84C1011F0E00F05D0C10503D512
S3150800743091494FF480520A60D9F8501011F0E00FC4
S3150800744005D0410403D58C494FF400520A60D9F897
S31508007450541011F0E00F1EBFE9680AFA01F108425C
S3150800746003D085494FF480420A60D9F8581011F0C4
S31508007470E00F1EBF29690AFA01F1084203D07E49C6
S315080074804FF400420A60BBF1000F70D17C490968CD
S3150800749009056CD56168890769D59DF868100429BE
S315080074A065D070490968C90642D573490968C9068D
S315080074B03ED587F800A05AE0BBF1000F7FF410AF65
S315080074C06648806940084000644988616648C06823
S315080074D040F004006449C8606A4880F800A04FF28A
S315080074E00F01694A138840F2072C634504BF538885
S315080074F08B4203D14CF23C335380D3465A4B1B681C
S3150800750043F08053DFF860C1CCF800300378002BD5
S31508007510FCD1BBF1000F1CBF51804FF0000B58483F
S3150800752040680004B860564989680843B860DDE6D3
S315080075304FF47A7100223A70544A536D43F00103AE
S315080075405365464B9B69DB0758BF4FF4FA711368BE
S315080075504B4C64684A4DAD6845EA0444BD68AC4284
