S02100007365637572652D657A73702D7370692D626F6F746C6F616465722E7333378C
S31508000000000400206F00000885000008850000082D
S31508000010A70B090100000000040100500020000899
S31508000020040300009D0A0008350F0008D8050008DB
S3150800003000000000000000000000000000000000B2
S315080000400000000000000000000000005F00000043
S31508000050FFFFFFFF09480068202100EA010028B1D8
S315080000600748016842685FEA010D10477047FFF7C5
S31508000070F1FF00F010F800F03FF800002C000040F7
S315080000800020000803E000005FEA000D70474FF407
S31508000090017000F095B838B54FF20F043C4D00F0EA
S315080000A0BBF820B140F2052028806C8031BD394864
S315080000B00068C00613D56888A0421CD1288840F27B
S315080000C0022188421CBF40F20621884213D040F222
S315080000D0011188421CBF40F2111188420BD02E4CE8
S315080000E0208A40F6A721884205D12068FFF7CCFF71
S315080000F06068804700BF31BD10B572B627480168F1
S3150800010049084900016000F0E7F82248006800093C
S31508000110C10754BF2249234902E0CD2201F8012B29
S31508000120214A9142F9D32149214A224B03E011F889
S31508000130014B02F8014B9A42F9D31F491F4A002383
S3150800014001E001F8013B9142FBD311494A884FF27D
S315080001500F039A420BD10A8840F205239A4207D028
S31508000160C00704D5100A012818BF022800D00022AB
S31508000170064802804CF23C30488000F077F94FF48C
S315080001800170BDE8104000F01BB80000880D002083
S31508000190000000202C00004000200008FCED00E0D4
S315080001A000000020980000200004002074180008B1
S315080001B0000400200804002008040020970D0020F1
S315080001C00D4930220A600D490A600D490A600D4939
S315080001D010220A60010A08BF00020B4908804FF284
S315080001E00F004880BFF35F8F084800210160416017
S315080001F007480849016070473020004030C8004071
S3150800020030C0004010D00040000000201C400040D4
S315080002100CED00E00400FA0510B5002408210E20B4
S3150800022000F0E9F92948402181600A2100BF491EEA
S31508000230FCD1C8210268520601D4012401E0491EF6
S31508000240F8D104210E2000F0D6F9204610BD80B55D
S3150800025000F0C6F90121062000F0CDF9062000F0CD
S31508000260FAF90121072000F0C6F9072000F0E6F99F
S315080002701748016821F01001016001BD052800D961
S31508000280704710B5DFE800F01721030F1C17114C53
S315080002902088411E2180C0B9072000F0E9F942F202
S315080002A01070208010BD072000F0D5F90620BDE8A3
S315080002B0104000F0DDB90620BDE8104000F0BEB9D8
S315080002C00620BDE8104000F0C6B910BD08B40040CD
S315080002D000BC0040940D002006E04B48016841F040
S315080002E001010160012141604C48512101607047BC
S315080002F0F8B5494C454D4FF6FF77464EB088B8429B
S3150800030027D102237F2246480188301D00F0C6F90E
S31508000310B088B84204BF0220B080A069800703D421
S31508000320A06940F00200A06101207070B0882060CA
S315080003300720286000206860A86035484FF00071E3
S315080003400160A069C00732D5E06980B348F69F40CE
S315080003503CE0A0698007E3D52868C00348BF00F0E1
S3150800036043F8707898BBA06810F00100A168B288BD
S3150800037003D10F2A08D2521C06E0890704D5F17862
S3150800038011B1032A28BF521EF07092B2022A38BF52
S315080003900222B2802068B1888842C5D1A06900F0DF
S315080003A00300032818BFFFF798FF0120F2BDA069D4
S315080003B0C00701D5E06920B1A069C00704D4E06987
S315080003C010B144F24F6001E042F227306860002025
S315080003D0F2BD80B503E040F2DC5000F093F9FFF778
S315080003E087FF0028F7D001BD0848002141608160D9
S315080003F0016821F00201016005484FF000710160B3
S3150800040004480021417070471C40004010E000E09D
S3150800041004ED00E000040020044000400080004095
S31508000420701800080078704730B5DBB004462146DE
S3150800043036A800F081F9002000904FF40263514A73
S3150800044036A901A800F02AFB0FF2801201A90FF2C3
S31508000450881000F06FFD054600F0C9F81DB1214669
S31508000460284600F0B1F928465BB030BD80B5FFF7E5
S31508000470B0FFFFF7ECFE00F08BFD00F0B8F800F0D7
S31508000480B7FD0020FFF7FAFE07E01A2000F097FAFA
S3150800049001220021522000F023F800F0A8F80220DB
S315080004A0FFF7ECFE00A800F075FD0028F5D19DF8D1
S315080004B000005128E9D03448002101700120FFF7D7
S315080004C0B3FF20B90520FFF7D9FE012000E004207C
S315080004D0FFF7D4FE40F20120FFF772FE002002BDAE
S315080004E0F8B506460F461546284C1D220FF2B401EC
S315080004F0204600F07EFD0A2204F13401201D00F09A
S3150800050078FD08237F222248018804F10E0000F0B6
S31508000510C5F8A676522E1BD13520207006220FF27A
S31508000520A40104F12E0000F064FD0120E076022308
S315080005307F221848018804F11C0000F0AFF8102348
S315080005407F221548018804F11E0000F0A7F802E092
S315080005501D202070E776012D12D12078A0F11B0509
S31508000560012000F0F2FD0D48FD2101704570EAB248
S3150800057004F11A01801C00F03CFD094801210170B4
S31508000580F1BD000068050020930D00202805002015
S31508000590721800086E1800086C18000898040020E5
S315080005A0920D00200063CC00FFFF00000000000051
S315080005B00000FFFFFFFFFFFFFFFF7C656D010000E6
S315080005C0000000000004030050000000E1170008C6
S315080005D01D180008250400084D09000885090008AB
S315080005E00E48012181604EF6BE21416000E00C48AC
S315080005F001210160704710B582080FF2280353F8ED
S315080006002220136800F0030080000F248440A343CF
S3150800061001FA00F01843106010BD000000600040A9
S315080006200860004000B0004004B0004000B400403C
S3150800063004B4004000B8004004B80040C1080329CB
S3150800064008D2C1108902124A012300F0070003FAF2
S3150800065000F050507047C108032908D2C11089021A
S315080006600C4A012300F0070003FA00F050507047C7
S31508000670C10803290BD2C110074A02EB81210A6877
S31508000680012300F0070003FA00F0504008607047A5
S3150800069014B0004010B000400CB0004030B583B034
S315080006A0044610467F2808BF0020B1F5004F1AD12E
S315080006B008237F2240F6120100A8FFF7EFFF082261
S315080006C00FF2380100A800F0B4FC30B908237F22E5
S315080006D040F2A27100A8FFF7E1FF082200A9204610
S315080006E000F087FC37BD1A46034D294300FB03116A
S315080006F0204600F07EFC37BD00000408FFFFFFFF20
S31508000700FFFFFFFF0A490A680A4B1B68DB0758BF49
S315080007104008032809D34B6D43F001034B650B686A
S315080007209B1A1B031B0B8342F9D37047000000007A
S31508000730382000401C40004001700122427082703F
S3150800074001290CBF8021402181800021C1800181BF
S31508000750A94801600E218162016821F0100101603B
S315080007600021416341627047F8B504460D461646B6
S31508000770A2484FF0FF3101609F4FFE620020786269
S31508000780386840F001003860FFF731FF012C19D1B5
S315080007906DB900F011FC78B9786AB042F4D3002E2E
S315080007A0F2D038684008400038601620F2BD284666
S315080007B000F0F0FB0028EFD13868400840003860A8
S315080007C00020F2BD0120F2BD80B50A460146182078
S315080007D0FFF786FE012000F0B8FCBDE80140F1E015
S315080007E030B583B00446002020814AF6B43200A909
S315080007F02078FFF7B9FF08B11C203EBD9DF8000020
S31508000800032818BF182801D118203EBD042801D195
S3150800081017203EBD012801D021203EBD002500E05D
S315080008206D1CEDB2A188091D8D420BDA40F2DD225E
S31508000830281900F10A012078FFF796FF0028EFD063
S3150800084026203EBD0025002006E00146EDB2281907
S31508000850007B00F0DDFD6D1CA188EAB28A42F4D364
S31508000860A27AE37A9B18FF2B01D022203EBD0B19F2
S315080008701D7BB5EB102F01D023203EBD5B7BC0B29C
S31508000880834201D024203EBDA078824207D0401E74
S31508000890C0B2824201D127203EBD25203EBD881C1C
S315080008A020810220E08000203EBD38B504466078ED
S315080008B0012804D00ED3032846D003D30AE0022029
S315080008C0607010E000F094FB00F066F8A078401C19
S315080008D0A07008E0182032BD2278A078411EC9B25F
S315080008E00620FFF7FDFD2046FFF77AFF054620782C
S315080008F0012804BF284600F062F80DB100F078FB25
S31508000900272DE9D0A8060BD52278A1781520FFF760
S31508000910E7FD002DE7D10320FFF7B0FC002032BD2C
S31508000920680603D4182D18BF1C2D07D12178284630
S31508000930FFF74AFF04206070284632BD172DE8D11C
S3150800094000F02AF803206070172032BDF8B5044677
S315080009500D461646002706E0E088411CE18000198E
S31508000960807A78557F1CBFB2B74209D2E0882189C0
S315080009708842F1D32046FFF798FF0028ECD0F2BD55
S315080009800020F2BD10B50446FFF78FFF00F004F80B
S3150800099000F018F8172010BD2278A1780620FFF776
S315080009A09FBD80B51649FD220A7001224A708870DB
S315080009B0012000F0DFFC13480021017001BD00B9D9
S315080009C01920EEE710B582B00F4C207860B10020F0
S315080009D000F0D0FC0028F8D0002000F0B6FB01207B
S315080009E000F0C8FC0020207040F2DD2200A901209A
S315080009F0FFF7BAFE13BD000000E0004000A8004063
S31508000A0098040020910D0020920D0020F8B50446A8
S31508000A100D4616461F4607E03046A047294600F011
S31508000A2009FD05467F1E761CBFB2002FF4D1284665
S31508000A30F2BD38B50C46154605E0014614F8010B1B
S31508000A4000F0F8FC6D1EADB2002DF6D132BDF8B53A
S31508000A5007460E4614461D462A46214630683B6818
S31508000A609847070005D12A462146F068FFF7E1FFB7
S31508000A70F060D6F8A8002818C6F8A80096F8A700C7
S31508000A8050B1AC362A462146304600F0A7FD2A4624
S31508000A902146304600F022FD3846F2BD10B5029CCC
S31508000AA084720381426001604FF0FF31C16000210A
S31508000AB00174A0F8A410802180F8A610002180F8FF
S31508000AC0A710C0F8A8102822AC30BDE8104000F0E6
S31508000AD0A9BA2DE9F84F04468B461E469BF81B70AB
S31508000AE0802F28BF8027D0689249884250D1002E8F
S31508000AF04CD0B06800904FF0FF384FF000090BEB70
S31508000B00490A9AF848500FE0FF2D16D0FFF76FFDF7
S31508000B104FF40063E80240F0006241460098FFF790
S31508000B2075FF8046681CC5B29AF84900A842EBDAF8
S31508000B3009F10109B9F1060FE1DBDBF844006FEAB8
S31508000B400801884224D1A06800BA7A085946736811
S31508000B509847C8B9E06805BAA06802BA3B464FF09C
S31508000B60FF31B068FFF752FFC04385420CD140F60B
S31508000B70A720ABF81000A06800BA01220BF11001FB
S31508000B8010307368984708B1422002E0172000E049
S31508000B904320BDE8F28F2DE9F44F82B081460D4619
S31508000BA0D5F804B02889ADF8000005F1140606F159
S31508000BB0100704235A4600F0BBF9002871D1BBF888
S31508000BC0000040BA1FFA80F8BBF8020040BA84B2A7
S31508000BD0E00748BF462064D4B4F5026FC8BF4E206C
S31508000BE05FDC002C5CD0DFF850A15FEA080009D072
S31508000BF04FF60441B8EB010052D0FF3853D0FE3807
S31508000C0051D095E0287C08B151204AE08D2C28BFA8
S31508000C104F2046D22346321D00F089F9002840D1DC
S31508000C20FA7E802A28BF802202F10C00844201BF86
S31508000C30B08840BA00F47F40B0F5007F2CD1F08828
S31508000C4040BA4EF25031884202BF388A40F6A72190
S31508000C50884221D1788A00F47F40B0F5807F01BFB1
S31508000C60B06800BADAF81C10884215D14FF6FF7042
S31508000C70388206F110014FF0FF30FFF7DAFEF1680F
S31508000C8009BAC943884204BF387E042804D1787E4D
S31508000C90032818BF062801D0452002E00120287441
S31508000CA00020BDE8FE8F287C08B94120F9E7042317
S31508000CB000F03CF90028F4D1DBF8000006BA201F42
S31508000CC084B2DAF81C00864238BF4820E9D3A01956
S31508000CD0796D884228BF4920E3D24FF603508045F4
S31508000CE00CD1029850B131460220029A12689047F8
S31508000CF020B14A20D5E7E01B84B2BE19002CCFD01C
S31508000D00BDF800008442B4BF274607463B4600F0BC
S31508000D100DF90028C5D102980028ECD07A08594662
S31508000D203046029B5B6898470028E4D04B20B8E71A
S31508000D304420B6E7E320BBDE000000082DE9F843AF
S31508000D4004468846154605F1AC062F89102C38BF8F
S31508000D504E202CD30423324600F02BF838BB0C2344
S31508000D60321D00F026F810BBA4F11001306800BA55
S31508000D7030608CB22146304600F078FB06E04A46E1
S31508000D806968304600F0AAFBA4EB0904A4B254B182
S31508000D90A146BC4288BFB9464B466A6800F009F8C6
S31508000DA00028ECD003E0304600F0BBFB0020BDE88D
S31508000DB0F283294640464AE62DE9FE4F81460C460F
S31508000DC09046666804F1140A0AF1100B04F1A405AA
S31508000DD0A878832805D14FF60710AF888221A97015
S31508000DE00AE00423324600F0A3F8002866D13088CA
S31508000DF040BA718849BA8FB2F90748BF46205DD410
S31508000E00A97880B24FF20972801A58D04FF4FF724F
S31508000E10801A3AD0FF382FD0FF3802D0FF386BD06F
S31508000E2081E080296AD1062F23D3062301AA214609
S31508000E304846FFF70CFEE8B9BDF8040040BA00F4CE
S31508000E407F40B0F5007F01BFBDF8080040BA4EF2FA
S31508000E50503188420DD1BDF8060040BA012818BFA6
S31508000E60522007D1BDF8060040BAA4F8A400002015
S31508000E7000E04520812154E081293FD12246494698
S31508000E803846FFF75BFF82214BE0822936D1042FD3
S31508000E902DD30120E8700020686042462146484666
S31508000EA0FFF779FE18BB0021E97069688F421ED3E7
S31508000EB0B94239D28322AA70791A696034E0822944
S31508000EC01CD104F1AC08404600F02BFB2089B8423F
S31508000ED0B8BF4F2028DB3B463246214600F028F8AB
S31508000EE010BBFAB23146404600F041FB08B954201F
S31508000EF01AE00020842114E0842901D0512013E04F
S31508000F00042F18BF4C200FD104233246214600F087
S31508000F100FF848B94346224659465046FFF7D9FDC9
S31508000F208521A97000E04420BDE8FE8F5A4629466F
S31508000F3048468CE570B505460C4616462089C10715
S31508000F4001D4802801DA4F2070BD00F083FA08B971
S31508000F50532070BD324621462846FFF72DFF00284C
S31508000F6018BF172803D08F2184F8A61070BD94F8EF
S31508000F70A600852806D1206869688847172805D1FC
S31508000F80002070BDA07A0028E4D0502070BD000073
S31508000F9000F096B810B5044600F00EF850B11248A5
S31508000FA08178124A8918897821708178491C81705C
S31508000FB0002010BD012010BD10B50B4C207888B953
S31508000FC000F0D8F978B1607840B1002000F0BDF89B
S31508000FD0012000F0CFF90020607010BD01202070BC
S31508000FE00020A070012010BD910D002008040020EB
S31508000FF07047814212D21018401E5118491E92B2EB
S31508001000002A1EBF11F8013900F80139521EF6D11F
S31508001010704711F8013B00F8013B521E92B2002AB4
S31508001020F7D17047130003D00A46194600F002BBF1
S31508001030704710B500E0521E92B232B110F8013B6B
S3150800104011F8014BA342F6D001E0002010BD181B91
S3150800105040B210BDDFF87403002141718171DFF8D9
S315080010607003016C490849000164016C21F40071A0
S315080010700164DFF8601310220A6320220A63002243
S315080010804A650A664A668A6502224A65D24A0A603B
S315080010908D324A60D14A0A618D324A61D04A126855
S315080010A0120709D5026C42F001020264026C42F48E
S315080010B00072026401220A634FF6FF7101607047ED
S315080010C038B5C248002181700121C1700171002123
S315080010D0017009214170FFF7BDFFC24848F29441EB
S315080010E0016008210161C0484FF400530360BF49FD
S315080010F000220A65BE4A546824F4706444F4006405
S3150800110054604024146102240C60BA4C23604023C6
S315080011100B65136823F4704343F4804313604FF45C
S315080011208043036000204865B34803250560042012
S31508001130086023602020486504201061106820F4A8
S31508001140706040F48070106031BD58B1AB480168DA
S31508001150490605D5A2490968090744BF0421C160A3
S31508001160002000E001209949C870704797490A791C
S3150800117022B901220A71087000204870704710B51C
S3150800118004460620FFF75AFA9D48102101600620FA
S31508001190FFF761FA90484078A72807BF8F48047080
S315080011A00320FFF7E3FF0120BDE81040E2E02DE948
S315080011B0F843924C8A49854D2A7922B10A68120762
S315080011C044BF0422E260AA7892B10420E060206855
S315080011D04006FCD50420A0600020A870E87820B955
S315080011E03220FFF78FFA0420E0600020BDE8F28382
S315080011F0774E844FDFF8E48100281CBF6879002801
S315080012003CD00620FFF71AFA287930B10020287159
S31508001210022229464046FFF7ECFEE87808B104208A
S31508001220A06098F80000052804D2A72088F80200D4
S31508001230032010E0FE2818BFFD2808D198F8010001
S315080012404044A721817098F80100C01C03E0A7203C
S3150800125088F801000220A871A8794044401E386029
S31508001260012030600420F861306C40F001003064E1
S315080012700420E0600620FFF7EEF9B6E74FF40079A0
S31508001280B869C0071CD40868000719D5B86A8DF86C
S315080012900000B86A8DF80000B86A8DF80000B86AD0
S315080012A08DF8000001203060C6F80090306C40F0E0
S315080012B001003064306C40F4007030640120F8613D
S315080012C0F86810B9306880058FD501206871042048
S315080012D0A060414C306880051FD4F868022884D382
S315080012E020780A2806D00B2808D0FD2818BFFE2823
S315080012F006D07AE78220FFF742FF76E7C120FAE7B1
S315080013006078862805D3FFF7A5FE0120FFF72EFF94
S315080013106BE7F968C01C8142FAD30620FFF78EF9FD
S31508001320306C400840003064306C20F40070306443
S315080013301020F861C6F800900620FFF78CF9287986
S3150800134018B1012000F016F84FE760780019807888
S31508001350A72803D00320FFF709FFF2E72078FE2825
S3150800136003D10420FFF702FFEBE7FD2088F8000011
S3150800137001203BE770B50446144D234E1448016816
S31508001380C90703D50421316001216971816889077C
S3150800139003D5022181600121A9708168490710D50A
S315080013A004218160316019480068A97988421CBF08
S315080013B00220FFF7DBFEFFF74DFEE87808B90420A8
S315080013C070602046BDE87040F1E600008A0D0020F6
S315080013D00CA8004000C00040080400209804002023
S315080013E008B0004000B0004080E100E014A80040CA
S315080013F000B4004080E200E014BC004008B400409D
S3150800140030C0004014C0004010B4004028C000405E
S315080014100A0242EA11214840C0F30311484080EA13
S3150800142000304101C9B20206D20E41EA0221484003
S3150800143080B270470A0A4840C0B208214308C0076C
S3150800144046BF034858401846491EF7D150407047D2
S315080014502083B8ED00206049415CFF2901D00120B6
S315080014607047401C1028F6DB0020704712B583B081
S315080014700446206800BA00903A20039901B17A2000
S3150800148020740C22211D04F11100FFF7B2FD03227E
S315080014900DF1010104F11D00FFF7ABFD00F03CF86A
S315080014A00398D0B1B0F57F4F05D200BA0390022257
S315080014B00DF10E010EE00FF278100088ADF8040069
S315080014C0039800BA0390022201A9204600F006F804
S315080014D0042203A9204600F001F81FBDF8B504460A
S315080014E00D461646002714E094F825000019017CDD
S315080014F07A5D5140017494F82500401C84F8250053
S31508001500C0B2102804D300F007F8002084F825009C
S315080015107F1CB742E8D3F1BD2F4904F1100000F053
S3150800152003B91FB5044600A8102100F007F994F87E
S315080015302500C0F11000C11000EB11710911A0EBD4
S31508001540011200A92046FFF7C9FF1FBD1FB50C46AB
S3150800155000AA011D002000F027F80020015D00AA5E
S31508001560825C51400155401C1028F7DB1FBD38B579
S3150800157004460D46102A07D12068216A94F82420CB
S3150800158002EB0111884201D0002032BD29462046CF
S31508001590FFF7DCFF102204F110012846FFF749FD8A
S315080015A0401E8041C00F32BD11B581B0144600BA45
S315080015B00190022020700C22601CFFF71AFD0322FE
S315080015C00DF1050104F10D00FFF713FD0249204650
S315080015D000F0AAF813BD0000F8080408F0B585B0B5
S315080015E004460D461646002100271DE031B900AA1B
S315080015F0211D206A401CFFF7D7FF012104F12000B6
S315080016007A5D03790DF1000C13F80C305A407A55BF
S315080016100279521CD2B2102A04D30022216A491C2C
S315080016202162002102717F1CB742DFD305B0F0BDED
S31508001630FFFE000062F30F2262F31F42401810F00B
S31508001640030308D0C91A1FD3DB0748BF00F8012DCA
S3150800165028BF20F8022D130030B414461546103959
S3150800166028BF20E93C00FAD8490728BF20E90C0022
S3150800167048BF40F8042D890028BF20F8022D48BF2E
S3150800168000F8012D30BC7047C91818BF00F8012DA5
S31508001690CB0728BF00F8012D7047000038B504466F
S315080016A01B4D214600F03DF8E860211D00F039F891
S315080016B0A86004F1080100F034F8686004F10C0130
S315080016C000F02FF8286031BDF8B50446114D80208A
S315080016D02860114E06203060072028603068800791
S315080016E0FCD5002704EB870100F01BF8A8627F1CD5
S315080016F0042FF7D330684007FCD500262A6B04EB85
S31508001700860100F00BF8761C042EF7D3F1BD000015
S31508001710383000400030004010A00040002000F0A3
S3150800172010B8002000F01BB810B504460846FFF7AD
S31508001730B5FF2046BDE81040C6E70000002200F0CD
S3150800174023B810B50023002814BF1C46C3F10304B0
S31508001750E4B26254120A5B1C042BF4D310BD30B5F4
S315080017604A788B78CC78097818B120461D460C46FD
S3150800177002E0084615461A4655EA002054EA0221B0
S3150800178041EA004030BD000000B500BF1300964690
S315080017909446103928BFA0E80C50FAD85FEA417C75
S315080017A028BF0CC048BF40F8042BC90728BF20F83B
S315080017B0022B48BF00F8012B00BD00002848018A0B
S315080017C040F6A772914202BF418A4FF47F40014218
S315080017D004D102298041C043C00F704700207047DA
S315080017E0F8B504460D461D4E01203070FFF7E6FF9A
S315080017F018B94FF40170FEF7E3FC1948876A2946C1
S3150800180044F48070B847002131700FF2580618B9B1
S31508001810294644F40070B847805DF2BD2DE9F041D1
S31508001820044688465600FFF7C9FF18B94FF40170F9
S31508001830FEF7C6FC0A48476A002332464146204658
S31508001840B8470FF2200520B9334600224146204604
S31508001850B847405DBDE8F08100000000960D002005
S3150800186000000408000202024B4B46472A083A08C1
S31108001870EE08008000000001FFFF0000E9
S7050800006F83
