:020000040800F2
:10000000000400206F00000885000008850000083B
:10001000A70B0901000000000202005000200008A8
:10002000040300001F0D0008FD0F0008F005000884
:10003000510700084B0800089D08000881070008C8
:100040007B07000885090008830700085F0000009F
:10005000FFFFFFFF09480068202100EA010028B1E6
:100060000748016842685FEA010D10477047FFF7D3
:10007000F1FF00F013F800F043F800002C000040FE
:100080000020000806E000005FEA000D70474148CC
:10009000008870474FF4017000F096B838B54FF201
:1000A0000F043D4D00F0BCF820B140F2052028803F
:1000B0006C8031BD39480068C00613D56888A042FD
:1000C0001CD1288840F2022188421CBF40F2062140
:1000D000884213D040F2011188421CBF40F2111136
:1000E00088420BD02E4C208A40F6A721884205D1A9
:1000F0002068FFF7C9FF6068804700BF31BD00007E
:1001000010B572B62748016849084900016000F03F
:10011000CDF8224800680009C10754BF224923498D
:1001200002E0CD2201F8012B214A9142F9D3214965
:10013000214A224B03E011F8014B02F8014B9A428D
:10014000F9D31F491F4A002301E001F8013B914206
:10015000FBD311494A884FF20F039A420BD10A8808
:1001600040F205239A4207D0C00704D5100A01289F
:1001700018BF022800D00022064802804CF23C3012
:10018000488000F007FA4FF40170BDE8104000F01D
:100190001BB80000B80C0020000000202C0000401C
:1001A00000200008FCED00E0000000209800002086
:1001B000000400201C120008000400200804002095
:1001C00008040020BD0C00200D4930220A600D49B2
:1001D0000A600D490A600D4910220A60010A08BF31
:1001E00000020B4908804FF20F004880BFF35F8F79
:1001F00008480021016041600748084901607047D4
:100200003020004030C8004030C0004010D00040D6
:10021000000000201C4000400CED00E00400FA0546
:100220000020704780B500F0E7F90121062000F0BA
:10023000EEF9062000F01BFA0121072000F0E7F993
:10024000072000F007FA1748016821F0100101604B
:1002500001BD0000052800D9704710B5DFE800F0A7
:100260001721030F1C17104C2088411E2180C0B994
:10027000072000F009FA42F21070208010BD07201C
:1002800000F0F5F90620BDE8104000F0FDB90620A9
:10029000BDE8104000F0DEB90620BDE8104000F0D7
:1002A000E6B910BD00BC0040BA0C002006E04B4887
:1002B000016841F001010160012141604C48512178
:1002C00001607047F8B5494C454D4FF6FF77464EF3
:1002D000B088B84227D102237F2246480188301DCA
:1002E00000F0E8F9B088B84204BF0220B080A069ED
:1002F000800703D4A06940F00200A0610120707063
:10030000B08820600720286000206860A860354819
:100310004FF000710160A069C00732D5E06980B379
:1003200048F69F403CE0A0698007E3D52868C003F9
:1003300048BF00F043F8707898BBA06810F0010047
:10034000A168B28803D10F2A08D2521C06E089079F
:1003500004D5F17811B1032A28BF521EF07092B271
:10036000022A38BF0222B2802068B1888842C5D1F3
:10037000A06900F00300032818BFFFF798FF0120D1
:10038000F2BDA069C00701D5E06920B1A069C0072E
:1003900004D4E06910B144F24F6001E042F227302A
:1003A00068600020F2BD80B503E040F2DC5000F050
:1003B000B5F9FFF787FF0028F7D001BD08480021F5
:1003C00041608160016821F00201016005484FF041
:1003D0000071016004480021417070471C400040DA
:1003E00010E000E004ED00E00004002004400040C4
:1003F000008000401812000800787047002101605A
:100400008180C18001817047F8B504460D461646CB
:10041000002710E02068803020600020E0808020ED
:100420002081A088401CA080E088411CE180001948
:10043000807A78557F1CBFB2B7420CD2E088218900
:100440008842F1D3802204F10A01206800F0FDF90E
:100450000028DFD0F2BD0020F2BD0020704710B5AB
:10046000044600F0D0F82046BDE8104000F0B1BAD4
:100470002DE9F043A5B000F093FA00F0C4F800F0C5
:10048000E7FA012100A800F0EBFA404C04F18005E6
:1004900000206860A86000F070F900280FBFE860D5
:1004A0008168E9604088A4F8800000A800F09CFB07
:1004B000070046D1BDF80420BDF8060000A9401889
:1004C00000F20A065FFA82F894F8800080070FD5E0
:1004D000E96869B1686808EB00024B1E22EA03076D
:1004E00010B1A868B84203D2384600F04BFAAF60AA
:1004F00042463146686800F0D1F907000FD1424604
:100500002146686800F0A1F9002000E0401C404549
:1005100005DA015D825D9142F8D0832706E06868C4
:1005200040446860002FC0D01B2FBED00420FFF7CE
:1005300091FE0121384600F0DFFA384625B0BDE8CB
:10054000F083172FF0D10020F8E770B5DAB0044639
:1005500036A8FFF753FF012000904FF402630C4AC6
:1005600036A901A800F0DBFB0FF284050FF2740638
:1005700000F049F8002C14BF3246002201A9284699
:1005800000F03CFD5028F3D05AB070BD280C00207C
:100590000804002080B5FFF706FFFFF743FE00F0D8
:1005A000D7F818B14FF40170FFF70EFE00F02BF8EA
:1005B000FFF76DFD40F2011188421CBF40F211119E
:1005C000884207D040F2052188421CBF40F2032137
:1005D000884201D1012000E0002000F02FFD002022
:1005E00002BD000081110008BD110008F9030008D8
:1005F000090400085B0400080E48012181604EF6E2
:10060000BE21416000E00C4801210160704710B537
:1006100082080FF2280353F82220136800F0030029
:1006200080000F248440A34301FA00F018431060B7
:1006300010BD0000006000400860004000B00040B5
:1006400004B0004000B4004004B4004000B80040D2
:1006500004B80040C108032908D2C1108902124A17
:10066000012300F0070003FA00F050507047C10862
:10067000032908D2C11089020C4A012300F00700A7
:1006800003FA00F050507047C10803290BD2C11083
:10069000074A02EB81210A68012300F0070003FAF0
:1006A00000F050400860704714B0004010B00040A7
:1006B0000CB0004030B583B0044610467F2808BF18
:1006C0000020B1F5004F1AD108237F2240F6120115
:1006D00000A8FFF7EFFF08220FF2380100A800F092
:1006E0000AFD30B908237F2240F2A27100A8FFF76B
:1006F000E1FF082200A9204600F0E4FC37BD1A46BD
:10070000034D294300FB0311204600F0DBFC37BDFD
:1007100000000408FFFFFFFFFFFFFFFF0A490A6810
:100720000A4B1B68DB0758BF4008032809D34B6DF1
:1007300043F001034B650B689B1A1B031B0B8342A1
:10074000F9D3704700000000382000401C400040F2
:1007500080B50D210120FFF75AFF0D210220FFF780
:1007600056FF85480E214161012181610021016010
:10077000416003218160002002BD0FF20C20704710
:10078000704700207047F8B50C461546010CC900AB
:1007900041F0A001C9B2794E326942F004023261DF
:1007A000B2681207FCD53160326942F00202326150
:1007B000B2689207FCD5B268D207EDD40204120EDB
:1007C0003260326942F002023261B2689207FCD5AF
:1007D000C0B23060306940F002003061B06880071C
:1007E000FCD5306940F004003061B0680007FCD5EA
:1007F00041F001003060306940F002003061B068C3
:100800008007FCD500270AE07061306940F00100E4
:100810003061B0684007FCD5306838557F1CAF4266
:100820000ADAFFF7F0FE681E87427069B2BF40F037
:10083000010040084000E7E7306940F008003061FF
:10084000B0680007FCD50020F2BDF8B504460D469F
:1008500016464B4884423EBF37463919814201D380
:100860008520F2BD20040ED0200C000400F580305D
:10087000814208D320464742BFB204E0F61B3C1930
:100880007D19B6B237463EB13A4629462046FFF7B3
:100890007AFF0028F2D0F2BD0020F2BD2DE9F84326
:1008A000044688461646364884423ABF311981428A
:1008B00085200ED214F07F0F06D0E009C0018030F1
:1008C000814203D3071B02E0812E04D237461EB9B2
:1008D0000020BDE8F2838027200CC00040F0A0007B
:1008E000C0B2264D296941F004012961A9680907B0
:1008F000FCD52860296941F002012961A9688907AE
:10090000FCD5A968C907EDD42004000E2860286929
:1009100040F002002861A8688007FCD5E0B228609A
:10092000286940F002002861A8688007FCD54FF0D4
:1009300000090DE0FFF767FE19F808002860286934
:1009400040F002002861A8688007FCD509F1010980
:100950001FFA89F9BFB2B945ECD3286940F0080005
:100960002861A8680007FCD5F61B3C19B844B6B24C
:10097000812EB0D2AAE700004CC000403CC000402D
:100980000100020088207047020100000000000002
:1009900080000000000002000C12000801000000AE
:1009A00080B5284868214161002181610221816070
:1009B0000121016009210920FFF729FE04210A20F5
:1009C000BDE80440FFF723BE1F4800684006FBD582
:1009D00070471E49CA685207FCD50860704710B5B9
:1009E000044603E014F8010BFFF7F3FF207800281A
:1009F000F8D110BD10B5044620090A282CBF3730A5
:100A00003030C0B2FFF7E5FF04F00F000A282CBF1A
:100A100037303030C0B2BDE81040DAE70A4800682D
:100A200010F0020018BF0120704710B50446FFF710
:100A3000F5FF20B1054800682070002010BD01209E
:100A400010BD000054C8004048C800403CC80040E9
:100A500080B500A8FFF7E9FF0028FAD001BD00002B
:100A6000017001224270827001290CBF8021402157
:100A700081800021C18001811D4801600E218162B9
:100A8000016821F01001016000214163416270475B
:100A9000F8B504460D46164616484FF0FF31016082
:100AA000134FFE6200207862386840F00100386021
:100AB000FFF7A9FD012C19D16DB9FFF7AFFF78B988
:100AC000786AB042F4D3002EF2D038684008400073
:100AD00038601620F2BD2846FFF7A7FF0028EFD1A7
:100AE00038684008400038600020F2BD0120F2BDA7
:100AF00000E0004000A8004038B504460D4600F074
:100B000009F800F007F82A4621461820BDE83840C9
:100B1000FFF7A5BC2A4621461820FFF7A0BC30B538
:100B200083B00446002020814AF6B43200A9207820
:100B3000FFF7AEFF08B11C203EBD9DF80000032862
:100B400018BF182801D118203EBD042801D1172054
:100B50003EBD012801D021203EBD002500E06D1CD6
:100B6000EDB2A188091D8D420BDA40F2DD22281971
:100B700000F10A012078FFF78BFF0028EFD0262034
:100B80003EBD0025002006E00146EDB22819007B9D
:100B900000F0C2FA6D1CA188EAB28A42F4D3A27AAC
:100BA000E37A9B18FF2B01D022203EBD0B191D7B41
:100BB000B5EB102F01D023203EBD5B7BC0B283423A
:100BC00001D024203EBDA078824207D0401EC0B292
:100BD000824201D127203EBD25203EBD881C2081B8
:100BE0000220E08000203EBD38B504466078012830
:100BF00004D023D3032855D018D31FE02078012830
:100C000011D13B254320FFF7E4FE40F2DD22002115
:100C10002078FFF73DFF30B12846451EC0B20028BE
:100C2000F0D11B2032BD0220607010E0FFF710FFF2
:100C300000F03AF8A078401CA07008E0182032BDFF
:100C40002278A078411EC9B20620FFF708FC204692
:100C5000FFF765FF050018BFFFF7FAFE272DEFD05D
:100C6000A8060BD52278A1781520FFF7F8FB002DF8
:100C7000EDD10320FFF7EEFA002032BD680603D461
:100C8000182D18BF1C2D07D121782846FFF734FFF7
:100C900004206070284632BD172DE8D100F004F81A
:100CA00003206070172032BD2278A1780620FFF75C
:100CB000D6BB0000F8B504460D4616461F4607E0B1
:100CC0003046A047294600F039FA05467F1E761CBB
:100CD000BFB2002FF4D12846F2BD38B50C461546F8
:100CE00005E0014614F8010B00F028FA6D1EADB2C4
:100CF000002DF6D132BDF8B504460D4616461F4606
:100D00003A463146286823689847040005D13A4698
:100D10003146E868FFF7E1FFE8602046F2BD10B514
:100D2000029C84720381426001604FF0FF31C16018
:100D30000021017410BD2DE9F84F04468B461E4674
:100D40009BF81B70802F28BF8027D068A649884257
:100D500050D1002E4CD0B06800904FF0FF384FF0CB
:100D600000090BEB490A9AF848500FE0FF2D16D006
:100D7000FFF749FC4FF40063E80240F0006241468F
:100D80000098FFF797FF8046681CC5B29AF84900A3
:100D9000A842EBDA09F10109B9F1060FE1DBDBF852
:100DA00044006FEA0801884224D1A06800BA7A089A
:100DB000594673689847C8B9E06805BAA06802BA8E
:100DC0003B464FF0FF31B068FFF774FFC0438542E8
:100DD0000CD140F6A720ABF81000A06800BA0122A1
:100DE0000BF1100110307368984708B1422002E0FF
:100DF000172000E04320BDE8F28F2DE9F84F804630
:100E00000D469146D5F804A02889ADF8000005F1FB
:100E1000140606F11007042352464046FFF76BFF05
:100E2000002824D1BAF8000040BA1FFA80FBBAF8B3
:100E3000020040BA84B2E00748BF462075D4B4F53A
:100E4000026FC8BF4E2070DC002C6DD05FEA0B0033
:100E50000AD04FF60441BBEB010000F0AD80FF3833
:100E600065D0FE3863D0BDE0287C08B151205CE03D
:100E70008D2C28BF4F2058D22346321D00F0BBF8DE
:100E8000002852D1FA7E802A28BF802202F10C006D
:100E9000844201BFB08840BA00F47F40B0F5007FC3
:100EA0003ED1F08840BA4EF25031884202BF388AB3
:100EB00040F6A721884202BF788A00F47F40B0F54F
:100EC000807F2DD1B06800BA4849C969884227D1CE
:100ED0004648008B40F2032188420BD1788AB0F556
:100EE000847F1DD3F86D41051AD14149081AB0F528
:100EF000283F15D84FF6FF70388206F110014FF0E9
:100F0000FF30FFF7EAFEF16809BAC943884204BF1F
:100F1000387E042804D1787E032818BF062801D023
:100F2000452002E0012028740020BDE8F28F287CD3
:100F3000002843D0042300F05DF80028F5D1DAF84A
:100F4000000006BA201F84B22848C069864238BF14
:100F50004820EAD3A019796D884228BF4920E4D2FD
:100F60004FF6035083450DD1B9F1000F0AD0314639
:100F70000220D9F80020904720B14A20D5E7E01B95
:100F800084B2BE19002CCFD0BDF800008442B4BF9B
:100F9000274607463B4600F02DF80028C5D1B9F199
:100FA000000FECD07A0851463046D9F80430984703
:100FB0000028E4D04B20B8E7287C08B94120B4E7EA
:100FC000042C18BF4C20B0D104236A6800F013F839
:100FD0000028AAD14B462A463946304601B0BDE822
:100FE000F04FA8E64420A0E7E320BBDE00000008A5
:100FF00000E002085246294640467CE670B50446A9
:101000000D4616462889C10701D4802803DA4F20EF
:1010100070BDA87A78B9324629462046FFF7EDFE22
:101020000028F6D0172807D1286861688847172854
:1010300002D1002070BD502070BD000010B50446E4
:101040000020FFF707F924BB0020FFF77EFA50B914
:101050000120FFF77AFA30B90520FFF7FBF840F2DC
:101060000120FFF7B1F80420FFF7F4F80120FFF7A3
:10107000F1F840F20320BDE81040FFF7A5B80FF2E9
:101080003400FFF7ACFCFFF79FFC40F20220FFF7B3
:101090009BF8FFF7EDF90400F1D00FF22000FFF705
:1010A0009EFC2046FFF7A6FC01A0FFF798FCF0E7A6
:1010B0000D0A00000D0A4F6B0D0A00000D0A455283
:1010C00052200000814212D21018401E5118491EB1
:1010D00092B2002A1EBF11F8013900F80139521EE0
:1010E000F6D1704711F8013B00F8013B521E92B255
:1010F000002AF7D1704710B500E0521E92B232B10B
:1011000010F8013B11F8014BA342F6D001E000209A
:1011100010BD181B40B210BD0A0242EA112148401E
:10112000C0F30311484080EA00304101C9B2020611
:10113000D20E41EA0221484080B270470A0A484074
:10114000C0B208214308C00746BF034858401846AC
:10115000491EF7D1504070472083B8ED2848018AD6
:1011600040F6A772914202BF418A4FF47F4001428C
:1011700004D102298041C043C00F7047002070474E
:10118000F8B504460D461D4E01203070FFF7E6FF0E
:1011900018B94FF40170FFF717F81948876A294604
:1011A00044F48070B847002131700FF2580618B926
:1011B000294644F40070B847805DF2BD2DE9F04146
:1011C000044688465600FFF7C9FF18B94FF401706E
:1011D000FEF7FAFF0A48476A002332464146204696
:1011E000B8470FF2200520B9334600224146204679
:1011F000B847405DBDE8F08100000000BC0C002055
:1012000000000408000202024B4B46474D433234B3
:101210004141313032350000EE080000000000018D
:10122000FFFF0000FFFFFFFFFFFFFFFFFFFFFFFFCC
:10123000FFFFFFFFFFFFFFFFFFFFFFFFFFFFFFFFBE
:10124000FFFFFFFFFFFFFFFFFFFFFFFFFFFFFFFFAE
:10125000FFFFFFFFFFFFFFFFFFFFFFFFFFFFFFFF9E
:10126000FFFFFFFFFFFFFFFFFFFFFFFFFFFFFFFF8E
:020000040801F1
:020000040802F0
:020000040804EE
:020000040804EE
:00000001FF
