:020000040800F2
:10000000000400206F00000885000008850000083B
:10001000A70B0901000000000202005000200008A8
:1000200004050000450D000805120008F005000851
:10003000510700084B0800089D08000881070008C8
:100040007B07000885090008830700085F0000009F
:10005000FFFFFFFF09480068202100EA010028B1E6
:100060000748016842685FEA010D10477047FFF7D3
:10007000F1FF00F013F800F043F800002C000040FE
:100080000020000806E000005FEA000D70474148CC
:10009000008870474FF4017000F096B838B54FF201
:1000A0000F043D4D00F0BCF820B140F2052028803F
:1000B0006C8031BD39480068C00613D56888A042FD
:1000C0001CD1288840F2022188421CBF40F2062140
:1000D000884213D040F2011188421CBF40F2111136
:1000E00088420BD02E4C208A40F6A721884205D1A9
:1000F0002068FFF7C9FF6068804700BF31BD00007E
:1001000010B572B62748016849084900016000F03F
:10011000CDF8224800680009C10754BF224923498D
:1001200002E0CD2201F8012B214A9142F9D3214965
:10013000214A224B03E011F8014B02F8014B9A428D
:10014000F9D31F491F4A002301E001F8013B914206
:10015000FBD311494A884FF20F039A420BD10A8808
:1001600040F205239A4207D0C00704D5100A01289F
:1001700018BF022800D00022064802804CF23C3012
:10018000488000F007FA4FF40170BDE8104000F01D
:100190001BB80000B80C0020000000202C0000401C
:1001A00000200008FCED00E0000000209800002086
:1001B00000040020B81700080004002008040020F4
:1001C00008040020BD0C00200D4930220A600D49B2
:1001D0000A600D490A600D4910220A60010A08BF31
:1001E00000020B4908804FF20F004880BFF35F8F79
:1001F00008480021016041600748084901607047D4
:100200003020004030C8004030C0004010D00040D6
:10021000000000201C4000400CED00E00400FA0546
:100220000020704780B500F0E7F90121062000F0BA
:10023000EEF9062000F01BFA0121072000F0E7F993
:10024000072000F007FA1748016821F0100101604B
:1002500001BD0000052800D9704710B5DFE800F0A7
:100260001721030F1C17104C2088411E2180C0B994
:10027000072000F009FA42F21070208010BD07201C
:1002800000F0F5F90620BDE8104000F0FDB90620A9
:10029000BDE8104000F0DEB90620BDE8104000F0D7
:1002A000E6B910BD00BC0040BA0C002006E04B4887
:1002B000016841F001010160012141604C48512178
:1002C00001607047F8B5494C454D4FF6FF77464EF3
:1002D000B088B84227D102237F2246480188301DCA
:1002E00000F0E8F9B088B84204BF0220B080A069ED
:1002F000800703D4A06940F00200A0610120707063
:10030000B08820600720286000206860A860354819
:100310004FF000710160A069C00732D5E06980B379
:1003200048F69F403CE0A0698007E3D52868C003F9
:1003300048BF00F043F8707898BBA06810F0010047
:10034000A168B28803D10F2A08D2521C06E089079F
:1003500004D5F17811B1032A28BF521EF07092B271
:10036000022A38BF0222B2802068B1888842C5D1F3
:10037000A06900F00300032818BFFFF798FF0120D1
:10038000F2BDA069C00701D5E06920B1A069C0072E
:1003900004D4E06910B144F24F6001E042F227302A
:1003A00068600020F2BD80B503E040F2DC5000F050
:1003B000B5F9FFF787FF0028F7D001BD08480021F5
:1003C00041608160016821F00201016005484FF041
:1003D0000071016004480021417070471C400040DA
:1003E00010E000E004ED00E00004002004400040C4
:1003F00000800040B41700080078704700210160B9
:100400008180C18001817047F8B504460D461646CB
:10041000002710E02068803020600020E0808020ED
:100420002081A088401CA080E088411CE180001948
:10043000807A78557F1CBFB2B7420CD2E088218900
:100440008842F1D3802204F10A01206800F0FDF90E
:100450000028DFD0F2BD0020F2BD0020704710B5AB
:10046000044600F0D0F82046BDE8104000F0B1BAD4
:100470002DE9F043A5B000F093FA00F0C4F800F0C5
:10048000E7FA012100A800F0EBFA404C04F18005E6
:1004900000206860A86000F070F900280FBFE860D5
:1004A0008168E9604088A4F8800000A800F09CFB07
:1004B000070046D1BDF80420BDF8060000A9401889
:1004C00000F20A065FFA82F894F8800080070FD5E0
:1004D000E96869B1686808EB00024B1E22EA03076D
:1004E00010B1A868B84203D2384600F04BFAAF60AA
:1004F00042463146686800F0D1F907000FD1424604
:100500002146686800F0A1F9002000E0401C404549
:1005100005DA015D825D9142F8D0832706E06868C4
:1005200040446860002FC0D01B2FBED00420FFF7CE
:1005300091FE0121384600F0DFFA384625B0BDE8CB
:10054000F083172FF0D10020F8E770B5DAB0044639
:1005500036A8FFF753FF012000904FF402630C4AC6
:1005600036A901A800F0EEFB0FF284050FF2740625
:1005700000F049F8002C14BF3246002201A9284699
:1005800000F040FE5028F3D05AB070BD280C002077
:100590000804002080B5FFF706FFFFF743FE00F0D8
:1005A000D7F818B14FF40170FFF70EFE00F02BF8EA
:1005B000FFF76DFD40F2011188421CBF40F211119E
:1005C000884207D040F2052188421CBF40F2032137
:1005D000884201D1012000E0002000F041FE00200F
:1005E00002BD00001D17000859170008F903000894
:1005F000090400085B0400080E48012181604EF6E2
:10060000BE21416000E00C4801210160704710B537
:1006100082080FF2280353F82220136800F0030029
:1006200080000F248440A34301FA00F018431060B7
:1006300010BD0000006000400860004000B00040B5
:1006400004B0004000B4004004B4004000B80040D2
:1006500004B80040C108032908D2C1108902124A17
:10066000012300F0070003FA00F050507047C10862
:10067000032908D2C11089020C4A012300F00700A7
:1006800003FA00F050507047C10803290BD2C11083
:10069000074A02EB81210A68012300F0070003FAF0
:1006A00000F050400860704714B0004010B00040A7
:1006B0000CB0004030B583B0044610467F2808BF18
:1006C0000020B1F5004F1AD108237F2240F6120115
:1006D00000A8FFF7EFFF08220FF2380100A800F092
:1006E00023FE30B908237F2240F2A27100A8FFF751
:1006F000E1FF082200A9204600F0F6FD37BD1A46AA
:10070000034D294300FB0311204600F0EDFD37BDEA
:1007100000000408FFFFFFFFFFFFFFFF0A490A6810
:100720000A4B1B68DB0758BF4008032809D34B6DF1
:1007300043F001034B650B689B1A1B031B0B8342A1
:10074000F9D3704700000000382000401C400040F2
:1007500080B50D210120FFF75AFF0D210220FFF780
:1007600056FF85480E214161012181610021016010
:10077000416003218160002002BD0FF20C20704710
:10078000704700207047F8B50C461546010CC900AB
:1007900041F0A001C9B2794E326942F004023261DF
:1007A000B2681207FCD53160326942F00202326150
:1007B000B2689207FCD5B268D207EDD40204120EDB
:1007C0003260326942F002023261B2689207FCD5AF
:1007D000C0B23060306940F002003061B06880071C
:1007E000FCD5306940F004003061B0680007FCD5EA
:1007F00041F001003060306940F002003061B068C3
:100800008007FCD500270AE07061306940F00100E4
:100810003061B0684007FCD5306838557F1CAF4266
:100820000ADAFFF7F0FE681E87427069B2BF40F037
:10083000010040084000E7E7306940F008003061FF
:10084000B0680007FCD50020F2BDF8B504460D469F
:1008500016464B4884423EBF37463919814201D380
:100860008520F2BD20040ED0200C000400F580305D
:10087000814208D320464742BFB204E0F61B3C1930
:100880007D19B6B237463EB13A4629462046FFF7B3
:100890007AFF0028F2D0F2BD0020F2BD2DE9F84326
:1008A000044688461646364884423ABF311981428A
:1008B00085200ED214F07F0F06D0E009C0018030F1
:1008C000814203D3071B02E0812E04D237461EB9B2
:1008D0000020BDE8F2838027200CC00040F0A0007B
:1008E000C0B2264D296941F004012961A9680907B0
:1008F000FCD52860296941F002012961A9688907AE
:10090000FCD5A968C907EDD42004000E2860286929
:1009100040F002002861A8688007FCD5E0B228609A
:10092000286940F002002861A8688007FCD54FF0D4
:1009300000090DE0FFF767FE19F808002860286934
:1009400040F002002861A8688007FCD509F1010980
:100950001FFA89F9BFB2B945ECD3286940F0080005
:100960002861A8680007FCD5F61B3C19B844B6B24C
:10097000812EB0D2AAE700004CC000403CC000402D
:100980000100020088207047020100000000000002
:100990008000000000000200A8170008010000000D
:1009A00080B5284868214161002181610221816070
:1009B0000121016009210920FFF729FE04210A20F5
:1009C000BDE80440FFF723BE1F4800684006FBD582
:1009D00070471E49CA685207FCD50860704710B5B9
:1009E000044603E014F8010BFFF7F3FF207800281A
:1009F000F8D110BD10B5044620090A282CBF3730A5
:100A00003030C0B2FFF7E5FF04F00F000A282CBF1A
:100A100037303030C0B2BDE81040DAE70A4800682D
:100A200010F0020018BF0120704710B50446FFF710
:100A3000F5FF20B1054800682070002010BD01209E
:100A400010BD000054C8004048C800403CC80040E9
:100A500080B500A8FFF7E9FF0028FAD001BD00002B
:100A6000017001224270827001290CBF8021402157
:100A700081800021C18001811D4801600E218162B9
:100A8000016821F01001016000214163416270475B
:100A9000F8B504460D46164616484FF0FF31016082
:100AA000134FFE6200207862386840F00100386021
:100AB000FFF7A9FD012C19D16DB9FFF7AFFF78B988
:100AC000786AB042F4D3002EF2D038684008400073
:100AD00038601620F2BD2846FFF7A7FF0028EFD1A7
:100AE00038684008400038600020F2BD0120F2BDA7
:100AF00000E0004000A8004038B504460D4600F074
:100B000009F800F007F82A4621461820BDE83840C9
:100B1000FFF7A5BC2A4621461820FFF7A0BC30B538
:100B200083B00446002020814AF6B43200A9207820
:100B3000FFF7AEFF08B11C203EBD9DF80000032862
:100B400018BF182801D118203EBD042801D1172054
:100B50003EBD012801D021203EBD002500E06D1CD6
:100B6000EDB2A188091D8D420BDA40F2DD22281971
:100B700000F10A012078FFF78BFF0028EFD0262034
:100B80003EBD0025002006E00146EDB22819007B9D
:100B900000F0DCFB6D1CA188EAB28A42F4D3A27A91
:100BA000E37A9B18FF2B01D022203EBD0B191D7B41
:100BB000B5EB102F01D023203EBD5B7BC0B283423A
:100BC00001D024203EBDA078824207D0401EC0B292
:100BD000824201D127203EBD25203EBD881C2081B8
:100BE0000220E08000203EBD38B504466078012830
:100BF00004D023D3032855D018D31FE02078012830
:100C000011D13B254320FFF7E4FE40F2DD22002115
:100C10002078FFF73DFF30B12846451EC0B20028BE
:100C2000F0D11B2032BD0220607010E0FFF710FFF2
:100C300000F03AF8A078401CA07008E0182032BDFF
:100C40002278A078411EC9B20620FFF708FC204692
:100C5000FFF765FF050018BFFFF7FAFE272DEFD05D
:100C6000A8060BD52278A1781520FFF7F8FB002DF8
:100C7000EDD10320FFF7EEFA002032BD680603D461
:100C8000182D18BF1C2D07D121782846FFF734FFF7
:100C900004206070284632BD172DE8D100F004F81A
:100CA00003206070172032BD2278A1780620FFF75C
:100CB000D6BB0000F8B504460D4616461F4607E0B1
:100CC0003046A047294600F053FB05467F1E761CA0
:100CD000BFB2002FF4D12846F2BD38B50C461546F8
:100CE00005E0014614F8010B00F042FB6D1EADB2A9
:100CF000002DF6D132BDF8B507460E4614461D4606
:100D00002A46214630683B689847070005D12A46A5
:100D10002146F068FFF7E1FFF060D6F8A800281838
:100D2000C6F8A80096F8A70050B1AC362A4621466E
:100D3000304600F0F1FB2A462146304600F06CFBBD
:100D40003846F2BD10B5029C847203814260016096
:100D50004FF0FF31C16000210174A0F8A410802180
:100D600080F8A610002180F8A710C0F8A81028224B
:100D7000AC30BDE8104000F0D0BA2DE9F84F044681
:100D80008B461E469BF81B70802F28BF8027D0689B
:100D90009B49884250D1002E4CD0B06800904FF053
:100DA000FF384FF000090BEB490A9AF848500FE062
:100DB000FF2D16D0FFF727FC4FF40063E80240F048
:100DC000006241460098FFF775FF8046681CC5B277
:100DD0009AF84900A842EBDA09F10109B9F1060FC6
:100DE000E1DBDBF844006FEA0801884224D1A06807
:100DF00000BA7A08594673689847C8B9E06805BAD6
:100E0000A06802BA3B464FF0FF31B068FFF752FFCF
:100E1000C04385420CD140F6A720ABF81000A06873
:100E200000BA01220BF1100110307368984708B125
:100E3000422002E0172000E04320BDE8F28F2DE9B8
:100E4000F44F82B081460D46D5F804B02889ADF83C
:100E5000000005F1140606F1100704235A4600F0BD
:100E6000CFF9002825D1BBF8000040BA1FFA80F85E
:100E7000BBF8020040BA84B2E00748BF462076D4EF
:100E8000B4F5026FC8BF4E2071DC002C6ED0DFF8C5
:100E900074A15FEA080009D04FF60441B8EB0100E5
:100EA00064D0FF3865D0FE3863D0A7E0287C08B155
:100EB00051205CE08D2C28BF4F2058D22346321D94
:100EC00000F09DF9002852D1FA7E802A28BF8022A6
:100ED00002F10C00844201BFB08840BA00F47F40A8
:100EE000B0F5007F3ED1F08840BA4EF250318842D2
:100EF00002BF388A40F6A721884233D1788A00F4AD
:100F00007F40B0F5807F01BFB06800BADAF81C10EE
:100F1000884227D1BAF8180040F2032188420BD149
:100F2000788AB0F5847F1DD3F86D41051AD1364912
:100F3000081AB0F5D03F15D84FF6FF70388206F189
:100F400010014FF0FF30FFF7C8FEF16809BAC9433E
:100F5000884204BF387E042804D1787E052818BF53
:100F6000062801D0452002E0012028740020BDE8B9
:100F7000FE8F287C08B94120F9E7042300F03EF9F0
:100F80000028F4D1DBF8000006BA201F84B2DAF89A
:100F90001C00864238BF4820E9D3A019796D8842E9
:100FA00028BF4920E3D24FF6035080450CD1029868
:100FB00050B131460220029A1268904720B14A206F
:100FC000D5E7E01B84B2BE19002CCFD0BDF80000DD
:100FD0008442B4BF274607463B4600F00FF900287D
:100FE000C5D102980028ECD07A0859463046029BB9
:100FF0005B6898470028E4D04B20B8E74420B6E768
:10100000E320BBDE0000000800E001082DE9F84302
:1010100004468846154605F1AC062F89102C38BFCA
:101020004E202CD30423324600F02BF838BB0C237F
:10103000321D00F026F810BBA4F11001306800BA90
:1010400030608CB22146304600F0AEF906E04A46E8
:101050006968304600F0E0F9A4EB0904A4B254B189
:10106000A146BC4288BFB9464B466A6800F009F801
:101070000028ECD003E0304600F0F1F90020BDE894
:10108000F2832946404636E62DE9FE4F81460C465E
:101090009046666804F1140A0AF1100B04F1A405E5
:1010A000A878832805D14FF60710AF888221A97050
:1010B0000AE00423324600F0A3F8002866D1308805
:1010C00040BA718849BA8FB2F90748BF46205DD44B
:1010D000A97880B24FF20972801A58D04FF4FF728B
:1010E000801A3AD0FF382FD0FF3802D0FF386BD0AB
:1010F00081E080296AD1062F23D3062301AA214645
:101100004846FFF7F8FDE8B9BDF8040040BA00F41E
:101110007F40B0F5007F01BFBDF8080040BA4EF235
:10112000503188420DD1BDF8060040BA012818BFE1
:10113000522007D1BDF8060040BAA4F8A400002050
:1011400000E04520812154E081293FD122464946D3
:101150003846FFF75BFF82214BE0822936D1042F0E
:101160002DD30120E87000206860424621464846A1
:10117000FFF765FE18BB0021E97069688F421ED336
:10118000B94239D28322AA70791A696034E082297F
:101190001CD104F1AC08404600F061F92089B84246
:1011A000B8BF4F2028DB3B463246214600F028F8E6
:1011B00010BBFAB23146404600F077F908B9542026
:1011C0001AE00020842114E0842901D0512013E08A
:1011D000042F18BF4C200FD104233246214600F0C3
:1011E0000FF848B94346224659465046FFF7C5FD19
:1011F0008521A97000E04420BDE8FE8F5A462946AB
:10120000484678E570B505460C4616462089C10764
:1012100001D4802801DA4F2070BD00F0B9F808B978
:10122000532070BD324621462846FFF72DFF002887
:1012300018BF172803D08F2184F8A61070BD94F82A
:10124000A600852806D1206869688847172805D137
:10125000002070BDA07A0028E4D0502070BD0000AE
:1012600010B504460020FEF7F5FF24BB0020FFF771
:101270006CF950B90120FFF768F930B90520FEF785
:10128000E9FF40F20120FEF79FFF0420FEF7E2FF96
:101290000120FEF7DFFF40F20320BDE81040FEF71B
:1012A00093BF0FF23400FFF79AFBFFF78DFB40F27C
:1012B0000220FEF789FFFFF7DBF80400F1D00FF200
:1012C0002000FFF78CFB2046FFF794FB01A0FFF7FF
:1012D00086FBF0E70D0A00000D0A4F6B0D0A0000B7
:1012E0000D0A455252200000814212D21018401EB1
:1012F0005118491E92B2002A1EBF11F8013900F898
:101300000139521EF6D1704711F8013B00F8013B3C
:10131000521E92B2002AF7D17047130003D00A463A
:10132000194600F025B9704710B500E0521E92B280
:1013300032B110F8013B11F8014BA342F6D001E0A5
:10134000002010BD181B40B210BD00000A0242EA86
:1013500011214840C0F30311484080EA00304101A8
:10136000C9B20206D20E41EA0221484080B270475B
:101370000A0A4840C0B208214308C00746BF0348D4
:1013800058401846491EF7D1504070472083B8EDA9
:1013900000206049415CFF2901D001207047401CBA
:1013A0001028F6DB0020704712B583B00446206891
:1013B00000BA00903A20039901B17A2020740C22DF
:1013C000211D04F11100FFF78FFF03220DF1010130
:1013D00004F11D00FFF788FF00F03CF80398D0B13E
:1013E000B0F57F4F05D200BA039002220DF10E0135
:1013F0000EE00FF278100088ADF80400039800BAF0
:101400000390022201A9204600F006F8042203A955
:10141000204600F001F81FBDF8B504460D461646FB
:10142000002714E094F825000019017C7A5D5140F2
:10143000017494F82500401C84F82500C0B21028DF
:1014400004D300F007F8002084F825007F1CB74281
:10145000E8D3F1BD2F4904F1100000F003B91FB526
:10146000044600A8102100F007F994F82500C0F107
:101470001000C11000EB11710911A0EB011200A9BD
:101480002046FFF7C9FF1FBD1FB50C4600AA011D6E
:10149000002000F027F80020015D00AA825C514086
:1014A0000155401C1028F7DB1FBD38B504460D461A
:1014B000102A07D12068216A94F8242002EB011138
:1014C000884201D0002032BD29462046FFF7DCFFCC
:1014D000102204F110012846FFF726FF401E80412C
:1014E000C00F32BD11B581B0144600BA0190022080
:1014F00020700C22601CFFF7F7FE03220DF105019E
:1015000004F10D00FFF7F0FE0249204600F0AAF8B2
:1015100013BD0000F8080408F0B585B004460D4678
:101520001646002100271DE031B900AA211D206ABE
:10153000401CFFF7D7FF012104F120007A5D0379F9
:101540000DF1000C13F80C305A407A550279521CF8
:10155000D2B2102A04D30022216A491C2162002140
:1015600002717F1CB742DFD305B0F0BDFFFE000063
:1015700062F30F2262F31F42401810F0030308D0F9
:10158000C91A1FD3DB0748BF00F8012D28BF20F878
:10159000022D130030B414461546103928BF20E937
:1015A0003C00FAD8490728BF20E90C0048BF40F8A2
:1015B000042D890028BF20F8022D48BF00F8012D16
:1015C00030BC7047C91818BF00F8012DCB0728BFE1
:1015D00000F8012D7047000038B504461B4D214628
:1015E00000F03DF8E860211D00F039F8A86004F132
:1015F000080100F034F8686004F10C0100F02FF8E5
:10160000286031BDF8B50446114D80202860114E88
:10161000062030600720286030688007FCD500274E
:1016200004EB870100F01BF8A8627F1C042FF7D39E
:1016300030684007FCD500262A6B04EB860100F0D9
:101640000BF8761C042EF7D3F1BD000038300040B3
:101650000030004010A00040002000F010B8002032
:1016600000F01BB810B504460846FFF7B5FF20464A
:10167000BDE81040C6E70000002200F023B810B516
:101680000023002814BF1C46C3F10304E4B26254D3
:10169000120A5B1C042BF4D310BD30B54A788B784A
:1016A000CC78097818B120461D460C4602E0084661
:1016B00015461A4655EA002054EA022141EA004044
:1016C00030BD000000B500BF1300964694461039A7
:1016D00028BFA0E80C50FAD85FEA417C28BF0CC0B4
:1016E00048BF40F8042BC90728BF20F8022B48BF89
:1016F00000F8012B00BD00002848018A40F6A772BF
:10170000914202BF418A4FF47F40014204D1022935
:101710008041C043C00F704700207047F8B50446B1
:101720000D461D4E01203070FFF7E6FF18B94FF44B
:101730000170FEF749FD1948876A294644F4807014
:10174000B847002131700FF2580618B9294644F401
:101750000070B847805DF2BD2DE9F041044688462F
:101760005600FFF7C9FF18B94FF40170FEF72CFDC2
:101770000A48476A0023324641462046B8470FF2DE
:10178000200520B93346002241462046B847405D37
:10179000BDE8F08100000000BC0C0020000004083F
:1017A000000202024B4B46474D4332344141313037
:1017B00032350000EE08000000000001FFFF0000CD
:1017C000FFFFFFFFFFFFFFFFFFFFFFFFFFFFFFFF29
:1017D000FFFFFFFFFFFFFFFFFFFFFFFFFFFFFFFF19
:1017E000FFFFFFFFFFFFFFFFFFFFFFFFFFFFFFFF09
:1017F000FFFFFFFFFFFFFFFFFFFFFFFFFFFFFFFFF9
:020000040801F1
:020000040804EE
:020000040804EE
:00000001FF
