S02500007365637572652D6170702D626F6F746C6F616465722D737069666C6173682E733337FB
S31508000000000400206F00000885000008850000082D
S31508000010A70B09010000000001020050002000089B
S3150800002004050000C510000885150008F00500083D
S315080000307D0800080D0A0008570A0008EF0800089E
S31508000040190900087D0B00087B0900085F000000FD
S31508000050FFFFFFFF09480068202100EA010028B1D8
S315080000600748016842685FEA010D10477047FFF7C5
S31508000070F1FF00F013F800F043F800002C000040F0
S315080000800020000806E000005FEA000D70474148BE
S31508000090008870474FF4017000F096B838B54FF2F3
S315080000A00F043D4D00F0BCF820B140F20520288031
S315080000B06C8031BD39480068C00613D56888A042EF
S315080000C01CD1288840F2022188421CBF40F2062132
S315080000D0884213D040F2011188421CBF40F2111128
S315080000E088420BD02E4C208A40F6A721884205D19B
S315080000F02068FFF7C9FF6068804700BF31BD000070
S3150800010010B572B62748016849084900016000F031
S31508000110CDF8224800680009C10754BF224923497F
S3150800012002E0CD2201F8012B214A9142F9D3214957
S31508000130214A224B03E011F8014B02F8014B9A427F
S31508000140F9D31F491F4A002301E001F8013B9142F8
S31508000150FBD311494A884FF20F039A420BD10A88FA
S3150800016040F205239A4207D0C00704D5100A012891
S3150800017018BF022800D00022064802804CF23C3004
S31508000180488000F007FA4FF40170BDE8104000F00F
S315080001901BB80000B80C0020000000202C0000400E
S315080001A000200008FCED00E0000000209800002078
S315080001B000040020941B0008000400200804002006
S315080001C008040020BD0C00200D4930220A600D49A4
S315080001D00A600D490A600D4910220A60010A08BF23
S315080001E000020B4908804FF20F004880BFF35F8F6B
S315080001F008480021016041600748084901607047C6
S315080002003020004030C8004030C0004010D00040C8
S31508000210000000201C4000400CED00E00400FA0538
S315080002200020704780B500F0E7F90121062000F0AC
S31508000230EEF9062000F01BFA0121072000F0E7F985
S31508000240072000F007FA1748016821F0100101603D
S3150800025001BD0000052800D9704710B5DFE800F099
S315080002601721030F1C17104C2088411E2180C0B986
S31508000270072000F009FA42F21070208010BD07200E
S3150800028000F0F5F90620BDE8104000F0FDB906209B
S31508000290BDE8104000F0DEB90620BDE8104000F0C9
S315080002A0E6B910BD00BC0040BA0C002006E04B4879
S315080002B0016841F001010160012141604C4851216A
S315080002C001607047F8B5494C454D4FF6FF77464EE5
S315080002D0B088B84227D102237F2246480188301DBC
S315080002E000F0E8F9B088B84204BF0220B080A069DF
S315080002F0800703D4A06940F00200A0610120707055
S31508000300B08820600720286000206860A86035480B
S315080003104FF000710160A069C00732D5E06980B36B
S3150800032048F69F403CE0A0698007E3D52868C003EB
S3150800033048BF00F043F8707898BBA06810F0010039
S31508000340A168B28803D10F2A08D2521C06E0890791
S3150800035004D5F17811B1032A28BF521EF07092B263
S31508000360022A38BF0222B2802068B1888842C5D1E5
S31508000370A06900F00300032818BFFFF798FF0120C3
S31508000380F2BDA069C00701D5E06920B1A069C00720
S3150800039004D4E06910B144F24F6001E042F227301C
S315080003A068600020F2BD80B503E040F2DC5000F042
S315080003B0B5F9FFF787FF0028F7D001BD08480021E7
S315080003C041608160016821F00201016005484FF033
S315080003D00071016004480021417070471C400040CC
S315080003E010E000E004ED00E00004002004400040B6
S315080003F000800040901B00080078704700210160CB
S315080004008180C18001817047F8B504460D461646BD
S31508000410002710E02068803020600020E0808020DF
S315080004202081A088401CA080E088411CE18000193A
S31508000430807A78557F1CBFB2B7420CD2E0882189F2
S315080004408842F1D3802204F10A01206800F0DEFA1E
S315080004500028DFD0F2BD0020F2BD0020704710B59D
S31508000460044600F0D0F82046BDE8104000F071BC04
S315080004702DE9F043A5B000F053FC00F0C4F800F0F5
S31508000480A7FC012100A800F0ABFC404C04F1800554
S3150800049000206860A86000F03FFA00280FBFE860F7
S315080004A08168E9604088A4F8800000A800F05CFD37
S315080004B0070046D1BDF80420BDF8060000A940187B
S315080004C000F20A065FFA82F894F8800080070FD5D2
S315080004D0E96869B1686808EB00024B1E22EA03075F
S315080004E010B1A868B84203D2384600F047FBAF609F
S315080004F042463146686800F0AEFA07000FD1424618
S315080005002146686800F082FA002000E0401C404559
S3150800051005DA015D825D9142F8D0832706E06868B6
S3150800052040446860002FC0D01B2FBED00420FFF7C0
S3150800053091FE0121384600F09FFC384625B0BDE8FB
S31508000540F083172FF0D10020F8E770B5DAB004462B
S3150800055036A8FFF753FF012000904FF402630C4AB8
S3150800056036A901A800F0AEFD0FF284050FF2740655
S3150800057000F049F8002C14BF3246002201A928468B
S3150800058001F000F85028F3D05AB070BD280C0020AE
S315080005900804002080B5FFF706FFFFF743FE00F0CA
S315080005A06DF918B14FF40170FFF70EFE00F02BF845
S315080005B0FFF76DFD40F2011188421CBF40F2111190
S315080005C0884207D040F2052188421CBF40F2032129
S315080005D0884201D1012000E0002001F001F8002046
S315080005E002BD00009D1A0008D91A0008F903000880
S315080005F0090400085B0400080E48012181604EF6D4
S31508000600BE21416000E00C4801210160704710B529
S3150800061082080FF2280353F82220136800F003001B
S3150800062080000F248440A34301FA00F018431060A9
S3150800063010BD0000006000400860004000B00040A7
S3150800064004B0004000B4004004B4004000B80040C4
S3150800065004B80040C108032908D2C1108902124A09
S31508000660012300F0070003FA00F050507047C10854
S31508000670032908D2C11089020C4A012300F0070099
S3150800068003FA00F050507047C10803290BD2C11075
S31508000690074A02EB81210A68012300F0070003FAE2
S315080006A000F050400860704714B0004010B0004099
S315080006B00CB0004030B583B0044610467F2808BF0A
S315080006C00020B1F5004F1AD108237F2240F6120107
S315080006D000A8FFF7EFFF08220FF2380100A800F084
S315080006E0E3FF30B908237F2240F2A27100A8FFF782
S315080006F0E1FF082200A9204600F0B6FF37BD1A46DA
S31508000700034D294300FB0311204600F0ADFF37BD1A
S3150800071000000408FFFFFFFFFFFFFFFF0A490A6802
S315080007200A4B1B68DB0758BF4008032809D34B6DE3
S3150800073043F001034B650B689B1A1B031B0B834293
S31508000740F9D3704700000000382000401C400040E4
S31508000750DFF810144A685207FCD508607047DFF8BE
S31508000760040441688907FCD50068C0B2704710B513
S31508000770044601E0FFF7F3FF2046441EC0B20028F6
S31508000780F8D110BD10B504462002000EFFF7E0FFB1
S315080007902004000EFFF7DCFFE0B2BDE81040D7E703
S315080007A080B5FFF7D5FFBDE80140D8E770B500F082
S315080007B0AEF89F20FFF7CCFF032501E000F049F9CA
S315080007C02846451EC0B20028F8D1FFF7C8FFFFF734
S315080007D0C6FF0546FFF7C3FF0646FFF7C0FF40EA18
S315080007E00620082121601F2D1DD0202D28D0C22DBE
S315080007F00ED0EF2D37D143F21201884204D044F2CD
S315080008001401884202D02EE0012070BD022070BD7E
S3150800081042F21201401A02D0801E02D023E00320C1
S3150800082070BD042070BD44F20141884204D044F2F0
S315080008300151884202D016E0052070BD062070BD21
S3150800084042F21201401A06D0401E06D0401E06D0BB
S31508000850401E06D007E0072070BD082070BD09209D
S3150800086070BD0A2070BD002070BD10B500F04FF8AD
S315080008700620FFF795FF0820206010BD10B5BA4C7A
S3150800088041F649102060B9480021C1600161416004
S31508000890102141600221016001210F20FFF7B7FEF8
S315080008A0B3488021016042F21070FFF737FF082035
S315080008B06061AB20FFF774FF082020611E20FFF758
S315080008C02DFFFFF773FF08B9862010BD401F0228C9
S315080008D00BD2FFF7CAFF082060610120FFF760FF0F
S315080008E00020FFF75DFF08202061002010BD10B52D
S315080008F000F043F80028FBD100F009F8B920FFF70B
S315080009004FFF082020609B488021016010BD9A4C4B
S31508000910082060607047000080B500F02EF80028B7
S31508000920FBD1FFF743FF401E092824D8DFE800F073
S3150800093005080B0E1114171A1D200FF2F42002BD1C
S315080009400FF2043002BD0FF2183002BD0FF2283044
S3150800095002BD0FF23C3002BD0FF24C3002BD0FF261
S31508000960603002BD0FF2703002BD0FF2843002BD56
S315080009700FF2943002BD002002BD10B5FFF7C7FF85
S315080009800520FFF7E5FE00F064F8FFF7E8FEFFF73D
S31508000990E6FE0821216010F0010018BF012010BDF5
S315080009A010B50446FFF7E9FF0028FBD114B9FFF795
S315080009B0FDFE04E0207810B9FFF7F8FE2070401E0F
S315080009C0092812D8DFE800F0050B050B080B050807
S315080009D00B0E4FF4802010BD4FF4002010BD4FF4CD
S315080009E0801010BD4FF4001010BD002010BD10B5CA
S315080009F00C18B4F5802F01D8012010BD1046FFF75A
S31508000A00CFFFA0428041C043C00F10BDF8B50446D1
S31508000A100D4600F086F808B98520F2BDFFF7ADFF50
S31508000A200028FBD100F081F82046FFF7ABFE00F066
S31508000A3076F805E000F00DF8FFF791FE05F8010BD2
S31508000A403046461E80B20028F4D1082038600020BF
S31508000A50F2BDFF207CE62DE9F84F0446894600F0F2
S31508000A6060F808B985202EE0B046FFF786FF002813
S31508000A70FBD100F05AF82046FFF784FE00F04FF845
S31508000A804046A0F1010880B238B1FFF7E2FFFFF750
S31508000A9066FEFF28F4D0872015E0082038604FF45A
S31508000AA08078200608D0200A000200F580703119E7
S31508000AB0814205D3051B04E040F20110864204D2A8
S31508000AC035461EB90020BDE8F28F4546AB46CA46F4
S31508000AD0FFF753FF0028FBD1FFF7C7FE0820786011
S31508000AE00220FFF735FE2046FFF74CFE00F017F808
S31508000AF003E01AF8010BFFF753FE5846A0F1010B65
S31508000B0080B20028F5D108203860761BA8B20444C4
S31508000B10814440F20110B6B28642D6D2D0E704200C
S31508000B2025E616460022314661E7134F082078600D
S31508000B3003200DE670B504460D46FFF71EFF002894
S31508000B40FBD1FFF792FE0C4E082070602046FFF797
S31508000B50FFFD2846FFF716FEFFF7E1FF0820306085
S31508000B6070BD00003CC0004000B0004054C00040CA
S31508000B7010B4004014B4004010B00040F8B5044664
S31508000B800D4600208DF8000040F6FF7600A8FFF716
S31508000B9007FF07469DF80000C01FC0B2042838BFEB
S31508000BA04FF6FF76354201D08220F2BD344201D09D
S31508000BB08120F2BD00AAA9B22046FFF718FF08B99E
S31508000BC08520F2BDBCB9BD4215D1FFF7D6FE002877
S31508000BD0FBD1FFF74AFEFFF79AFEC720FFF7E0FDB5
S31508000BE00820206022E021462020FFF7A3FF04F515
S31508000BF08054A5F58055CDB12004F4D1B5F5803FD4
S31508000C0012D32146D820FFF795FF04F5803405F165
S31508000C107F4505F57F05F1E721462020FFF78AFF86
S31508000C2004F58054A5F58055002DF5D10020F2BDB8
S31508000C30020103009A0100080010000000000400E9
S31508000C40281B000801000000020103009A01001891
S31508000C500010000000001000341B0008010000000E
S31508000C60020103009A01340F00100000000004007E
S31508000C70401B000801000000020103009A01003C25
S31508000C8000100000000010004C1B000801000000C6
S31508000C90020103009A01001C001000000000080071
S31508000CA0581B000801000000020103009A010070A9
S31508000CB00010000000001000641B0008010000007E
S31508000CC002010300000C00180000010000000400E7
S31508000CD0701B00080100000002010300000C002838
S31508000CE00000010000000800781B00080100000051
S31508000CF002010300000C0050000001000000100073
S31508000D00801B00080100000002010300000C00A07F
S31508000D100000010000002000881B000801000000F8
S31508000D2080B52848682141610021816102218160DE
S31508000D300121016009210920FFF769FC04210A2025
S31508000D40BDE80440FFF763BC1F4800684006FBD5B2
S31508000D5070471E49CA685207FCD50860704710B527
S31508000D60044603E014F8010BFFF7F3FF2078002888
S31508000D70F8D110BD10B5044620090A282CBF373013
S31508000D803030C0B2FFF7E5FF04F00F000A282CBF89
S31508000D9037303030C0B2BDE81040DAE70A4800689C
S31508000DA010F0020018BF0120704710B50446FFF77F
S31508000DB0F5FF20B1054800682070002010BD01200D
S31508000DC010BD000054C8004048C800403CC8004058
S31508000DD080B500A8FFF7E9FF0028FAD001BD00009A
S31508000DE0017001224270827001290CBF80214021C6
S31508000DF081800021C18001811D4801600E21816228
S31508000E00016821F0100101600021416341627047C9
S31508000E10F8B504460D46164616484FF0FF310160F0
S31508000E20134FFE6200207862386840F0010038608F
S31508000E30FFF7E9FB012C19D16DB9FFF7AFFF78B9B8
S31508000E40786AB042F4D3002EF2D0386840084000E1
S31508000E5038601620F2BD2846FFF7A7FF0028EFD115
S31508000E6038684008400038600020F2BD0120F2BD15
S31508000E7000E0004000A8004038B504460D4600F0E2
S31508000E8009F800F007F82A4621461820BDE8384038
S31508000E90FFF7E5BA2A4621461820FFF7E0BA30B52B
S31508000EA083B00446002020814AF6B43200A920788F
S31508000EB0FFF7AEFF08B11C203EBD9DF800000328D1
S31508000EC018BF182801D118203EBD042801D11720C3
S31508000ED03EBD012801D021203EBD002500E06D1C45
S31508000EE0EDB2A188091D8D420BDA40F2DD222819E0
S31508000EF000F10A012078FFF78BFF0028EFD02620A3
S31508000F003EBD0025002006E00146EDB22819007B0B
S31508000F1000F0DCFB6D1CA188EAB28A42F4D3A27AFF
S31508000F20E37A9B18FF2B01D022203EBD0B191D7BAF
S31508000F30B5EB102F01D023203EBD5B7BC0B28342A8
S31508000F4001D024203EBDA078824207D0401EC0B200
S31508000F50824201D127203EBD25203EBD881C208126
S31508000F600220E08000203EBD38B50446607801289E
S31508000F7004D023D3032855D018D31FE0207801289E
S31508000F8011D13B254320FFF7E4FE40F2DD22002184
S31508000F902078FFF73DFF30B12846451EC0B200282D
S31508000FA0F0D11B2032BD0220607010E0FFF710FF61
S31508000FB000F03AF8A078401CA07008E0182032BD6E
S31508000FC02278A078411EC9B20620FFF748FA2046C3
S31508000FD0FFF765FF050018BFFFF7FAFE272DEFD0CC
S31508000FE0A8060BD52278A1781520FFF738FA002D28
S31508000FF0EDD10320FFF72EF9002032BD680603D491
S31508001000182D18BF1C2D07D121782846FFF734FF65
S3150800101004206070284632BD172DE8D100F004F888
S3150800102003206070172032BD2278A1780620FFF7CA
S3150800103016BA0000F8B504460D4616461F4607E0E0
S315080010403046A047294600F053FB05467F1E761C0E
S31508001050BFB2002FF4D12846F2BD38B50C46154666
S3150800106005E0014614F8010B00F042FB6D1EADB217
S31508001070002DF6D132BDF8B507460E4614461D4674
S315080010802A46214630683B689847070005D12A4614
S315080010902146F068FFF7E1FFF060D6F8A8002818A7
S315080010A0C6F8A80096F8A70050B1AC362A462146DD
S315080010B0304600F0F1FB2A462146304600F06CFB2C
S315080010C03846F2BD10B5029C847203814260016005
S315080010D04FF0FF31C16000210174A0F8A4108021EF
S315080010E080F8A610002180F8A710C0F8A8102822BA
S315080010F0AC30BDE8104000F0D0BA2DE9F84F0446F0
S315080011008B461E469BF81B70802F28BF8027D06809
S315080011109B49884250D1002E4CD0B06800904FF0C1
S31508001120FF384FF000090BEB490A9AF848500FE0D0
S31508001130FF2D16D0FFF767FA4FF40063E80240F078
S31508001140006241460098FFF775FF8046681CC5B2E5
S315080011509AF84900A842EBDA09F10109B9F1060F34
S31508001160E1DBDBF844006FEA0801884224D1A06875
S3150800117000BA7A08594673689847C8B9E06805BA44
S31508001180A06802BA3B464FF0FF31B068FFF752FF3E
S31508001190C04385420CD140F6A720ABF81000A068E2
S315080011A000BA01220BF1100110307368984708B194
S315080011B0422002E0172000E04320BDE8F28F2DE927
S315080011C0F44F82B081460D46D5F804B02889ADF8AB
S315080011D0000005F1140606F1100704235A4600F02C
S315080011E0CFF9002825D1BBF8000040BA1FFA80F8CD
S315080011F0BBF8020040BA84B2E00748BF462076D45E
S31508001200B4F5026FC8BF4E2071DC002C6ED0DFF833
S3150800121074A15FEA080009D04FF60441B8EB010053
S3150800122064D0FF3865D0FE3863D0A7E0287C08B1C3
S3150800123051205CE08D2C28BF4F2058D22346321D02
S3150800124000F09DF9002852D1FA7E802A28BF802214
S3150800125002F10C00844201BFB08840BA00F47F4016
S31508001260B0F5007F3ED1F08840BA4EF25031884240
S3150800127002BF388A40F6A721884233D1788A00F41B
S315080012807F40B0F5807F01BFB06800BADAF81C105D
S31508001290884227D1BAF8180040F2032188420BD1B8
S315080012A0788AB0F5847F1DD3F86D41051AD1364981
S315080012B0081AB0F5D03F15D84FF6FF70388206F1F8
S315080012C010014FF0FF30FFF7C8FEF16809BAC943AD
S315080012D0884204BF387E042804D1787E052818BFC2
S315080012E0062801D0452002E0012028740020BDE828
S315080012F0FE8F287C08B94120F9E7042300F03EF95F
S315080013000028F4D1DBF8000006BA201F84B2DAF808
S315080013101C00864238BF4820E9D3A019796D884257
S3150800132028BF4920E3D24FF6035080450CD10298D6
S3150800133050B131460220029A1268904720B14A20DD
S31508001340D5E7E01B84B2BE19002CCFD0BDF800004B
S315080013508442B4BF274607463B4600F00FF90028EB
S31508001360C5D102980028ECD07A0859463046029B27
S315080013705B6898470028E4D04B20B8E74420B6E7D6
S31508001380E320BBDE0000000800E001082DE9F84371
S3150800139004468846154605F1AC062F89102C38BF39
S315080013A04E202CD30423324600F02BF838BB0C23EE
S315080013B0321D00F026F810BBA4F11001306800BAFF
S315080013C030608CB22146304600F0AEF906E04A4657
S315080013D06968304600F0E0F9A4EB0904A4B254B1F8
S315080013E0A146BC4288BFB9464B466A6800F009F870
S315080013F00028ECD003E0304600F0F1F90020BDE803
S31508001400F2832946404636E62DE9FE4F81460C46CC
S315080014109046666804F1140A0AF1100B04F1A40553
S31508001420A878832805D14FF60710AF888221A970BE
S315080014300AE00423324600F0A3F8002866D1308873
S3150800144040BA718849BA8FB2F90748BF46205DD4B9
S31508001450A97880B24FF20972801A58D04FF4FF72F9
S31508001460801A3AD0FF382FD0FF3802D0FF386BD019
S3150800147081E080296AD1062F23D3062301AA2146B3
S315080014804846FFF7F8FDE8B9BDF8040040BA00F48D
S315080014907F40B0F5007F01BFBDF8080040BA4EF2A4
S315080014A0503188420DD1BDF8060040BA012818BF50
S315080014B0522007D1BDF8060040BAA4F8A4000020BF
S315080014C000E04520812154E081293FD12246494642
S315080014D03846FFF75BFF82214BE0822936D1042F7D
S315080014E02DD30120E8700020686042462146484610
S315080014F0FFF765FE18BB0021E97069688F421ED3A5
S31508001500B94239D28322AA70791A696034E08229ED
S315080015101CD104F1AC08404600F061F92089B842B4
S31508001520B8BF4F2028DB3B463246214600F028F854
S3150800153010BBFAB23146404600F077F908B9542094
S315080015401AE00020842114E0842901D0512013E0F8
S31508001550042F18BF4C200FD104233246214600F031
S315080015600FF848B94346224659465046FFF7C5FD87
S315080015708521A97000E04420BDE8FE8F5A46294619
S31508001580484678E570B505460C4616462089C107D3
S3150800159001D4802801DA4F2070BD00F0B9F808B9E7
S315080015A0532070BD324621462846FFF72DFF0028F6
S315080015B018BF172803D08F2184F8A61070BD94F899
S315080015C0A600852806D1206869688847172805D1A6
S315080015D0002070BDA07A0028E4D0502070BD00001D
S315080015E010B504460020FEF735FE24BB0020FEF7A2
S315080015F0ACFF50B90120FEF7A8FF30B90520FEF769
S3150800160029FE40F20120FEF7DFFD0420FEF722FE48
S315080016100120FEF71FFE40F20320BDE81040FEF74A
S31508001620D3BD0FF23400FFF79AFBFFF78DFB40F2AC
S315080016300220FEF7C9FDFEF71BFF0400F1D00FF2EA
S315080016402000FFF78CFB2046FFF794FB01A0FFF76D
S3150800165086FBF0E70D0A00000D0A4F6B0D0A000025
S315080016600D0A455252200000814212D21018401E1F
S315080016705118491E92B2002A1EBF11F8013900F806
S315080016800139521EF6D1704711F8013B00F8013BAB
S31508001690521E92B2002AF7D17047130003D00A46A9
S315080016A0194600F025B9704710B500E0521E92B2EF
S315080016B032B110F8013B11F8014BA342F6D001E014
S315080016C0002010BD181B40B210BD00000A0242EAF5
S315080016D011214840C0F30311484080EA0030410117
S315080016E0C9B20206D20E41EA0221484080B27047CA
S315080016F00A0A4840C0B208214308C00746BF034843
S3150800170058401846491EF7D1504070472083B8ED17
S3150800171000206049415CFF2901D001207047401C28
S315080017201028F6DB0020704712B583B004462068FF
S3150800173000BA00903A20039901B17A2020740C224D
S31508001740211D04F11100FFF78FFF03220DF101019E
S3150800175004F11D00FFF788FF00F03CF80398D0B1AC
S31508001760B0F57F4F05D200BA039002220DF10E01A3
S315080017700EE00FF278100088ADF80400039800BA5E
S315080017800390022201A9204600F006F8042203A9C4
S31508001790204600F001F81FBDF8B504460D4616466A
S315080017A0002714E094F825000019017C7A5D514061
S315080017B0017494F82500401C84F82500C0B210284E
S315080017C004D300F007F8002084F825007F1CB742F0
S315080017D0E8D3F1BD2F4904F1100000F003B91FB595
S315080017E0044600A8102100F007F994F82500C0F176
S315080017F01000C11000EB11710911A0EB011200A92C
S315080018002046FFF7C9FF1FBD1FB50C4600AA011DDC
S31508001810002000F027F80020015D00AA825C5140F4
S315080018200155401C1028F7DB1FBD38B504460D4688
S31508001830102A07D12068216A94F8242002EB0111A6
S31508001840884201D0002032BD29462046FFF7DCFF3A
S31508001850102204F110012846FFF726FF401E80419A
S31508001860C00F32BD11B581B0144600BA01900220EE
S3150800187020700C22601CFFF7F7FE03220DF105010C
S3150800188004F10D00FFF7F0FE0249204600F0AAF821
S3150800189013BD0000F8080408F0B585B004460D46E7
S315080018A01646002100271DE031B900AA211D206A2D
S315080018B0401CFFF7D7FF012104F120007A5D037968
S315080018C00DF1000C13F80C305A407A550279521C67
S315080018D0D2B2102A04D30022216A491C21620021AF
S315080018E002717F1CB742DFD305B0F0BDFFFE0000D2
S315080018F062F30F2262F31F42401810F0030308D068
S31508001900C91A1FD3DB0748BF00F8012D28BF20F8E6
S31508001910022D130030B414461546103928BF20E9A5
S315080019203C00FAD8490728BF20E90C0048BF40F810
S31508001930042D890028BF20F8022D48BF00F8012D84
S3150800194030BC7047C91818BF00F8012DCB0728BF4F
S3150800195000F8012D7047000038B504461B4D214696
S3150800196000F03DF8E860211D00F039F8A86004F1A0
S31508001970080100F034F8686004F10C0100F02FF853
S31508001980286031BDF8B50446114D80202860114EF7
S31508001990062030600720286030688007FCD50027BD
S315080019A004EB870100F01BF8A8627F1C042FF7D30D
S315080019B030684007FCD500262A6B04EB860100F048
S315080019C00BF8761C042EF7D3F1BD00003830004022
S315080019D00030004010A00040002000F010B80020A1
S315080019E000F01BB810B504460846FFF7B5FF2046B9
S315080019F0BDE81040C6E70000002200F023B810B585
S31508001A000023002814BF1C46C3F10304E4B2625441
S31508001A10120A5B1C042BF4D310BD30B54A788B78B8
S31508001A20CC78097818B120461D460C4602E00846CF
S31508001A3015461A4655EA002054EA022141EA0040B2
S31508001A4030BD000000B500BF130096469446103915
S31508001A5028BFA0E80C50FAD85FEA417C28BF0CC022
S31508001A6048BF40F8042BC90728BF20F8022B48BFF7
S31508001A7000F8012B00BD00002848018A40F6A7722D
S31508001A80914202BF418A4FF47F40014204D10229A4
S31508001A908041C043C00F704700207047F8B5044620
S31508001AA00D461D4E01203070FFF7E6FF18B94FF4BA
S31508001AB00170FEF789FB1948876A294644F4807045
S31508001AC0B847002131700FF2580618B9294644F470
S31508001AD00070B847805DF2BD2DE9F041044688469E
S31508001AE05600FFF7C9FF18B94FF40170FEF76CFBF3
S31508001AF00A48476A0023324641462046B8470FF24D
S31508001B00200520B93346002241462046B847405DA5
S31508001B10BDE8F08100000000BC0C002000000408AD
S31508001B20000202024B4B464757323558323042566E
S31508001B300000000057323551383042560000000088
S31508001B404D5832354C323030364500004D58323516
S31508001B504C3830303645000041543235444630342E
S31508001B603141000041543235444630383141000095
S31508001B704D323550323000004D3235503430000089
S31508001B804D323550383000004D3235503136000070
S31108001B90EE08000000000001FFFF000046
S7050800006F83
