S00D000073656E736F722E7333374D
S31508002000782700200D710108897001088B70010876
S31508002010A70A080100210008040303AC00505F006A
S3150800202000000000000000000000000000000000A2
S315080020300000000000000000000000000000000092
S315080020400000000000000000FFFFFFFFFFFFFFFF8A
S31508002050FFFFFFFF00E0020800000000000000008C
S31508002060FFFFFFFFFFFFFFFFFFFFFFFFFFFFFFFF72
S31508002070FFFFFFFFFFFFFFFFFFFFFFFFFFFFFFFF62
S31508002080F02F002000000000EF2F0020EF2F002087
S3150800209078270020747E0108E073010820200020BC
S311080020A070050020000003080030002036
S31508002100782700200D710108897001088B70010875
S315080021108F7001088D700108917001080871010817
S315080021200871010808710108087101080871010899
S31508002130937001080871010891730108DD280008E9
S3150800214091210008A3210008599200080871010886
S31508002150A78A0008C32F000808710108087101083A
S31508002160D56600087B5C00087D370008392C000816
S31508002170087101086F310008DB3100088325000863
S31508002180FBD00008087101080871010809710108E7
S3150800219080B5072000F04EF806485FF0FF31016071
S315080021A001BD80B5062000F045F803485FF0FF3111
S315080021B0016001BD00A8004004A8004010B5040055
S315080021C0E4B2062C03D100F0D2F9002813D1E4B208
S315080021D0082094FBF0F003280DDAE4B2082094FBFB
S315080021E0F0F04FF480612B4A01FB0020012114F026
S315080021F007029140016010BD10B50400E4B2062C38
S3150800220003D100F0B4F9002813D1E4B2082094FBF6
S31508002210F0F003280DDAE4B2082094FBF0F04FF44E
S3150800222080611D4A01FB0020012114F0070291403C
S31508002230016010BD38B50400E4B2062C03D100F0E5
S3150800224096F9002825D100F0E1F90500E4B2082046
S3150800225094FBF0F0032818DAE4B2082094FBF0F0B7
S315080022604FF480610D4A01FB0020E4B2082194FB7B
S31508002270F1F14FF48062094B02FB01310968012232
S3150800228014F007039A40514001602800C0B200F0DC
S31508002290C3F931BD14B0004010B000400CB0004086
S315080022A010B50400E4B2002C03D00620FFF786FF21
S315080022B002E00620FFF7A0FF10BD000080B500F081
S315080022C074FA002000F09AFBDFF8EC02006850F080
S315080022D00800DFF8E412086000F02AFC00F07EFB34
S315080022E0DFF8D802DFF8D81209780160DFF8D002E3
S315080022F04078DFF8D0120860DFF8C4028078DFF88B
S31508002300C8120860DFF8C402DFF8C4120988016041
S31508002310DFF8BC024088DFF8BC120860DFF8B002BC
S315080023208088DFF8B4120860DFF8A402C088DFF8F6
S31508002330AC120860DFF898020089DFF8A41208607A
S31508002340DFF88C024089DFF89C12086000F06AF812
S31508002350DFF86402006830F01000DFF85C120860ED
S3150800236000F0BCFC00F02CFE00F09EFE00F08AFA9D
S3150800237000F0E5F900F01AFC01BDF0B40B68DFF8CF
S3150800238070522D680F26D2B29700BE4035421ED035
S3150800239000252C00E4B2042C19D2DFF854522D681B
S315080023A0D2B2E4B214EB8206F540ED070DD50F253F
S315080023B0E4B2A600B540AB43D2B230F812500F26AD
S315080023C0E4B2A700BE4035402B43641CE2E70B602D
S315080023D0F0BC7047F0B40B68DFF814522D68FF267E
S315080023E0D2B2D700BE40354219D000252C00E4B23F
S315080023F0082C14D2DFF8F8512D68D2B2E4B214EBE7
S31508002400C206F540ED0708D50125A540AB43D2B273
S31508002410155C0126A64035402B43641CE7E70B6094
S31508002420F0BC704780B5DFF8C801006800282CD0DA
S31508002430002262496C48FFF7CDFF012261496A48CC
S31508002440FFF7C8FF022260496748FFF7C3FF00226B
S315080024505E496648FFF791FF01225E496348FFF728
S315080024608CFF02225C496148FFF787FF03225B491C
S315080024705E48FFF782FF042259495C48FFF77DFF53
S31508002480052258495948FFF778FF01BD80B55848D5
S31508002490006800282CD0002248494948FFF79AFFCF
S315080024A0012248494648FFF795FF02224649444813
S315080024B0FFF790FF002245494548FFF75EFF0122D6
S315080024C044494348FFF759FF022243494048FFF76A
S315080024D054FF032241493E48FFF74FFF0422404973
S315080024E03B48FFF74AFF05223E493948FFF745FFB3
S315080024F001BD80B5032000F088FF01BD80B500F05E
S31508002500EBFF3C4911EB800002BD10B500F0E4FF7B
S31508002510040000F0E7FFC0B2002804D1E4B2012CA1
S3150800252001D000201FE0E4B2200000280CD00228C9
S315080025300CD003280CD004280AD005280AD006286F
S315080025400AD007280AD00BE000200CE009200AE090
S31508002550022008E0032006E00B2004E0062002E043
S3150800256054F08000C0B210BD234800787047234855
S315080025700078704722480068C0F3801010F0010008
S31508002580704710B51F484FF4004101601E480821E6
S3150800259001601A48007800280DD0FFF7EBFF040009
S315080025A015480078E4B2A04205D0134804701248D2
S315080025B0007801F000FA10BD00BC00400CB00040E5
S315080025C02C2800200CB400400CB8004000B0004095
S315080025D02028002004B0004000B4004004B40040A5
S315080025E000B8004004B800403C28002030280020ED
S315080025F0602B0020B0770108D02F0020D22F0020B2
S3150800260008B0004020A8004014A80040EFF311804D
S31508002610602181F31188704780F3118870470000A4
S31508002620DFF864035121016070472DE9F041044643
S315080026301E2C3CBFBDE8F04100F049BADFF84C0358
S315080026400168C90704D5416811B11826641F11E04D
S315080026500168C90704D5416811B90C260A3C09E086
S315080026600168C90704D4406810B10C260F3C01E084
S315080026700626143CFFF7CAFF804601F0E3F9DFF8A7
S31508002680100307210160002141608160DFF804130F
S315080026904FF000720A60A4B204FB06F1491E4160BD
S315080026A0DFF8F4422668206840084000206001F000
S315080026B0CBF9DFF8D4723D68386820F040003860FE
S315080026C001F0CAF93D60266001F0BEF901F0C8F9CB
S315080026D04046BDE8F041FFF79FBF2DE9F0410024D1
S315080026E0DFF8B8522C60DFF8B86234604FF4A040C7
S315080026F0706041F29A084046FFF797FF686844F60B
S315080027009041081A00B24FF4487190FBF1F000F3BB
S31508002710030030604046FFF788FF08274046FFF76A
S3150800272084FF686804197F1EF8D1DFF87802211D36
S31508002730C908B0FBF1F080B27060BDE8F08138B529
S315080027406FF00F04DFF860520120A8602C6080202B
S31508002750FFF76BFFE868FF2802D8641C102CF5DB2E
S3150800276031BD9248016841F0010101609048042199
S31508002770016090480160704770B58448016841F06F
S315080027800101016001214160FFF740FF0446824DC7
S3150800279000F09DF87C48512101602E6001F054F943
S315080027A02046BDE87040FFF737BF70B5824D2889CF
S315080027B0824C4FF6FF76B04229D102237F22804809
S315080027C0018805F1080001F04DF92889B04204BFD7
S315080027D002202881A069800703D4A06940F002007E
S315080027E0A061012068702889206069480721016076
S315080027F000214160816067494FF000720A60A16953
S31508002800C9072DD5E16959B348F69F4137E0A16953
S315080028108907E2D5697899BBA16811F00101A26818
S3150800282003D10F2809D2401C06E0920705D52A795C
S315080028301AB1032801D3401E288129712889022844
S315080028403CBF02202881206829898842C9D1A0690D
S3150800285000F00300032818BFFFF78EFF012070BDA4
S31508002860A169C90701D5E16921B1A169C90704D4DC
S31508002870E16911B144F24F6101E042F2273141604A
S31508002880002070BD2DE9F8433F4C434DFFF7BEFECF
S31508002890804601F0D7F8FFF788FF5FEA00090CD1F8
S315080028A000F015F82768206820F04000206001F045
S315080028B0D3F827602E6001F0C7F801F0D1F840463A
S315080028C0FFF7AAFEB9F1000FE0D0BDE8F1832E6844
S315080028D0286840084000286001F0B6B82C48002156
S315080028E041608160016821F00201016029484FF0CA
S315080028F000710160304800214170817801290BD1AF
S31508002900304901220A6030490968C90748BF0321CE
S3150800291006D40221817024E78178042901D1052192
S31508002920817070472DE9F843234C207838B3E07856
S31508002930F0B124E0FFF76AFE804601F083F8A0783C
S31508002940052810D0144E00F041F80F4DD5F8009028
S31508002950286820F04000286001F07EF8C5F800904D
S31508002960376001F071F801F07BF84046FFF754FE36
S31508002970A0780528DED100206070FFF783FF0020CD
S315080029802070BDE8F1830000008000401C40004034
S3150800299010E000E004ED00E094ED00E01040004097
S315080029A00C0000400060E3160840004058A00040B4
S315080029B080E200E000E100E0002900200440004039
S315080029C0AA7B010818A000400C4000403768306810
S315080029D040084000306001F037B8000010B5464C9A
S315080029E0002001F0E4F840F68C218842206834BFC4
S315080029F040F0080020F00800206010BD10B582B035
S31508002A00044600F05FF800A801F02CF89DF80100D4
S31508002A109DF80010FF2902BFFF280420002104B1F9
S31508002A20801CC0B2082828BF0720082928BF07210C
S31508002A30324A136823F4607343EAC01010601068C2
S31508002A40C00851EAC000106013BD00B583B0022368
S31508002A507F222B48018800A801F004F8BDF8000081
S31508002A604FF6FF7188420EBF4FF4E1600A2190FBD2
S31508002A70F1F0ADF8000001F073F9C0071FD500F0BA
S31508002A8021F801A800F0EEFF9DF80500FF2808BF11
S31508002A900420811CC9B20829A8BF0721C1F12F0249
S31508002AA0BDF80030C0F12F0002EBD272521000FBC5
S31508002AB00320C1F12F01B0FBF1F0ADF80000BDF81D
S31508002AC000000EBD02237F220E48018870470E497A
S31508002AD00A680E4B1B68DB0758BF4008032809D352
S31508002AE04B6D43F001034B650B689B1A1B031B0BCD
S31508002AF08342F9D37047000000BC0040180000402C
S31508002B009A7B0108987B0108382000401C40004049
S31508002B1010B5040004D110BD4FF47A70FFF7D7FF43
S31508002B202046441E80B20028F6D110BD704700002A
S31508002B3036480121016036484EF6BE210160354807
S31508002B400121016070473148012101607047C0B218
S31508002B50A52806D12E494DF6AD620A602D490222F6
S31508002B600A6070472B480068C00701D5012000E0BD
S31508002B700020704730B48308274C54F823301B686C
S31508002B801A000F2310F00304E4B2A400A3409A43EA
S31508002B9010F00303DBB29B0011FA03F31343840816
S31508002BA01D4D55F82440236030BC704780B51B483E
S31508002BB0102101601A480078012812D318480078B5
S31508002BC0032803D117480021016002E015480121B6
S31508002BD00160154840F6510101600020FFF798FF93
S31508002BE008E01048022101600F484FF400610160B7
S31508002BF0FFF773FD0D48072101600D4800210160AC
S31508002C000C4810210160002002BD00000860004049
S31508002C1004600040006000409877010880E100E009
S31508002C20CF2F0020080000400C60004014A0004090
S31508002C3054A0004000E100E0DFF80C110978DFF845
S31508002C400C211268520742D5C9B203293FD2C9B22C
S31508002C50DFF8FC20DFF8FC301B8822F81130DFF89B
S31508002C60F820127801238B401A43DFF8EC301A70EB
S31508002C70DFF8E8201278002A22D000221000C0B21D
S31508002C80032824D201228240DFF8D0301B781A426A
S31508002C9014D0DFF8B4201070DFF8C02012780123B2
S31508002CA083405A40DFF8B4301A70C0B2DFF8B0205B
S31508002CB032F81020DFF8AC301A6008E0401CDEE776
S31508002CC0DFF8A020002313601F4A032313701F4A4E
S31508002CD04FF6FF731360BFF35F8F704780B51F48C9
S31508002CE00021017018480321017020480021017055
S31508002CF0144805210180184800210170194800214F
S31508002D0001601B48002101601A484FF40041016028
S31508002D1019481021016019480E4901601848012117
S31508002D20016015480321016016480421016007481F
S31508002D304FF6FF7101600C484FF40061016000F026
S31508002D40A2FF01BDA62F0020B52F002010A8004025
S31508002D50342A0020A42F0020B62F0020B42F0020EC
S31508002D603C2A002004D0004000E100E0B72F0020F4
S31508002D7008D000400CD0004010D0004018D00040C9
S31508002D801CD0004050A8004070B40400E4B2012CE6
S31508002D9062D1C9B2132908D2C9B2DFF8C80230F91C
S31508002DA011005FF0FF36B04201D1202055E0C9B2CC
S31508002DB0DFF8B00230F91100002810D5C9B2002991
S31508002DC00DD0C9B2DFF89C0230F911004042DFF895
S31508002DD098623060DFF89402012606600BE0C9B2FB
S31508002DE0DFF8800230F91100DFF87C623060DFF826
S31508002DF07C0200260660DBB21809072802D10020EB
S31508002E00050001E002200500D2B2012A02D155F0E0
S31508002E10180504E0D2B2022A01D155F00805DBB242
S31508002E2013F00F00022801DB55F0040590480560F1
S31508002E309048012606609048006840F4C04050F06B
S31508002E4009008D4E30608D484FF6FF7606608C4837
S31508002E5020260660002000E0212070BC704738B5A7
S31508002E600400E4B2012C13D18248006801280FD16E
S31508002E70FFF7CCFB05008048006850F006007E4945
S31508002E80086000F081F82800C0B2FFF7C5FBFFE72D
S31508002E9031BDC0B2012805D17749096831F006016C
S31508002EA0754A1160704710B40300DBB2012B17D1C5
S31508002EB070480068012813D11000421EC0B20028CD
S31508002EC008D0704800684007FBD508786E4C20602B
S31508002ED0491CF1E76B4800684006FBD5002000E076
S31508002EE0212010BC704710B50400FFF72CFEE4B291
S31508002EF0012C04D1634800684006FBD5FFE710BDE6
S31508002F007047F8B50400614845685E480068800760
S31508002F1038D55C48006810F038065B480768F6B292
S31508002F20002E12D1A8880F280FD228884019877139
S31508002F302888401C5649498890FBF1F201FB12008B
S31508002F402880A888401CA880DFE7F6B2002E02D1A8
S31508002F502320060010E0300702D5272006000BE0E4
S31508002F60F00602D52420060006E0B00602D5252084
S31508002F70060001E0012006003100C9B2012000F078
S31508002F8041F8C2E7F1BD7047424840688188012987
S31508002F9015D33C490968490711D541880918897923
S31508002FA0394A11604188491C3B4A528891FBF2F321
S31508002FB002FB131141808188491E8180E6E770472C
S31508002FC0704710B52D48006804002B480068044077
S31508002FD0002C16D02948046046F22970044203D012
S31508002FE0200080B2FFF78DFF41F6D600044201D0DB
S31508002FF0FFF7CAFF2148006804001F48006804401C
S31508003000E6E710BD10B4C0B2204A52F82020C0B27C
S31508003010224BC35C002B08D1C0B2214B148823F87D
S315080030201040C0B21D4BC15419E0C0B21C4B33F856
S3150800303010301380C0B2194BC15413885488A34268
S3150800304009D2C0B2174B33F8103054881B1B1488AA
S31508003050E318938003E0138854881B1B938010BCE5
S3150800306070470000607B010868C800406CC80040D3
S315080030705CC8004054C8004048A8004008A8004062
S3150800308000E100E048C800403CC800409428002001
S31508003090F877010884280020F0770108042C00201E
S315080030A0082C0020E477010880B5674800210160F4
S315080030B066484FF400510160654802210160654881
S315080030C04FF4005101606048002101605E480068C5
S315080030D050F060005C4908600E2000F02AF85E494E
S315080030E008705E480021016058484FF4804101602D
S315080030F057480421016057484FF4804101605848F9
S31508003100162101605548002101605448006850F0B6
S31508003110600052490860162000F00BF85149087003
S3150800312051484FF4005101604F484FF48041016007
S3150800313001BD0100C9B208000E2802D016280AD01F
S3150800314013E04A480068C0F3801010F0010090F0C0
S315080031500100C0B20AE046480068C0F3801010F0CB
S31508003160010090F00100C0B200E00020704710B5E1
S3150800317038484FF4005101603548022101600E209D
S31508003180FFF7D7FF040034480078E4B2A04207D01E
S3150800319031480470304801780E2001F0BAF81BE077
S315080031A02D480078002801D1012000E000202A4996
S315080031B00870294801780E2001F0ABF826480078F7
S315080031C0002801D1012000E0002023490870224888
S315080031D001780E2001F09DF810BD10B51D484FF47A
S315080031E0804101601A48042101601620FFF7A1FFFB
S315080031F004001C480078E4B2A04207D019480470BD
S3150800320018480178162001F084F81BE01548007864
S31508003210002801D1012000E0002012490870114859
S315080032200178162001F075F80E480078002801D1BB
S31508003230012000E000200B4908700A480178162092
S3150800324001F067F810BD000064A8004080E100E0C6
S3150800325014A8004020A80040BE2F002068A80040FF
S3150800326014BC0040BF2F002000E100E008B4004075
S3150800327008B8004030B583B00124002501A8DFF85E
S31508003280A0110A680260DFF89C0101210170002084
S3150800329001F040F800280AD0002001F03BF8002889
S315080032A005D0DFF880010021017049205BE0022388
S315080032B07F22DFF8740101880DF1020000F054F84E
S315080032C002237F22002100A800F04EF80021080002
S315080032D002280AD201A931F81010BDF8022091423D
S315080032E001D101210D00401CF2E7EDB2002D04D0FA
S315080032F0BDF80000B0F57F7F34D0EDB2002D07D1C0
S31508003300BDF80000B0F57F7F02D0042004000CE071
S31508003310EDB2002D02D10620040006E0BDF800003B
S31508003320B0F57F7F01D007200400EDB2002D06D14D
S31508003330DFF8F000002101702000C0B213E0BDF8EC
S315080033400000B0F57F7F0DD0012000F0E3FF0020DC
S3150800335000F0E0FF002805D0DFF8C8000021017062
S315080033604A2000E000203EBDF8B504000D00160016
S315080033701F00ADB2B5F5807F0ED2DFF8A800007841
S31508003380002812D03B00DBB23200D2B22900C9B203
S31508003390200001F0ADFA08E03B00DBB23200D2B201
S315080033A0290089B2200000F05DFBF1BDF8B50400E4
S315080033B00D0016001F00A4B2B4F5807F1FD2DFF8F7
S315080033C06400007800281FD0DFF860000078002825
S315080033D005D007B5C221DFF8580001F0ABFD134848
S315080033E0012101703B00DBB22A00D2B23100200075
S315080033F0C0B201F0DDFB0D480021017004E007B5FD
S31508003400CD210B4801F096FDF1BD10B50400054825
S315080034100078002803D02000C0B201F0D9FC10BD06
S31508003420547B0108D42F00209E7B0108D52F00204D
S31508003430587B010810B42D480068C0B2002100234B
S315080034401A00082A0CD2012393400400A4B21C4295
S3150800345004D0274B33F81230190001E0521CF0E76C
S3150800346089B206291AD1234B5B884FF20F04A3426F
S315080034700BD1204B1B889BB21B0ADBB20B2B04D249
S315080034801D4B1C4C24881C8003E01B4B4FF4C06466
S315080034901C80184B4CF23C345C801BE040F207233E
S315080034A089B2994214D1134B5B884FF20F04A34299
S315080034B00ED1104B1B8840F20724A34208D10D4BAE
S315080034C04CF23C345C800C4B0A4C24881C8001E08E
S315080034D0094B198010BC70470748008880B2000A5B
S315080034E0C0B2704704480088704700002C000040AE
S315080034F0C075010800000020AA2F002010B5DFF8CB
S31508003500E04410202063FFF781F8DFF8D8140A6832
S3150800351042F001020A60FFF77FF8DFF8CC0460602A
S315080035202060616889316160012121638A30E06029
S31508003530A060E0688930E06002202063DFF8AC0410
S315080035404FF6FF71016010BDDFF8A40445F264016F
S31508003550C1601E21416250210162C821C161816595
S31508003560F021C16545F690014166882181660621EC
S31508003570C16644F2066101604FF6FF714160DFF8EB
S315080035807404007838B1DFF8700448F2607101609D
S315080035904FF4C1514160DFF86404016841F0040149
S315080035A00160DFF85C040021417070472DE9F0479F
S315080035B00446DFF850148A2000FB041000F20505C3
S315080035C068782A7802EB00201FFA80FA0AF440404D
S315080035D0DFF8342412784A7066180021B1705FEA61
S315080035E08A6157D5DFF82474796E090652D54FF4E7
S315080035F080684FF40069B0F5404F0BD1E81D01F023
S315080036006BFE80BBF86DC00644D5B86C002C3AD06A
S31508003610C84638E0B0F5004FF4D1287AE97901EBCD
S31508003620002080B202F0E2F8FF2809D0DFF8E013A4
S31508003630096831F810004FF4FE61084213D1E1E73A
S315080036400AF007000328DDD1002C14BF7868386813
S315080036500528D7D3002C14BF786838680628F9D30C
S31508003660687A0428CED1F86DC00609D4B86C04B1BE
S31508003670C84610EA080F03D0786C40F00100786459
S315080036800120B07006E010EA080F03D0786C4008F5
S3150800369040007864BDE8F0872DE9FC4E0446DFF863
S315080036A064B38A2000FB04B0071DDFF86053002CC2
S315080036B00CBF286868684600C0B2052806D207B558
S315080036C04FF4ED710FF2743001F034FC5FFA86F9AD
S315080036D009EB0700A0F108063078717801EB0020A5
S315080036E01FFA80FA9BF80100307002F01CF970701E
S315080036F0C84EF06B20F48050F063686ED4B9306819
S3150800370040051CD41AF4E45F0FD102F04BFD10B14A
S315080037105FEA4A4009D53878802806D204EB0B00C0
S3150800372082784946384602F0C7FD002C0CBF0120B6
S31508003730022020E0012CE5D130680005E2D5B64824
S31508003740017881B100210170B44801681AF4E45F78
S3150800375002D00022402004E07878000900F0010237
S315080037608F2002F027FF002C0CBF4FF480604FF427
S3150800377000603060D9E72861BDE8F38E2DE9F84F7F
S315080037809A4C2068216C01EA0005A04EDFF890A249
S31508003790DFF88482DFF86C92A24F1AE040B14878CD
S315080037A0C00605D400229D4801688F2002F002FF5A
S315080037B0280605D502F04DFF25F0800580202060FB
S315080037C0E80506D502F045FF25F480754FF48070AC
S315080037D02060002D68D0280706D50020FFF7E6FEF2
S315080037E025F0080508202060E80606D50120FFF721
S315080037F0DDFE25F010051020206005F06000602829
S3150800380003D1B06CC0050AD401E0A80605D525F099
S31508003810200520202060002006E0680606D525F051
S315080038204005402020600120FFF736FFE80410D548
S3150800383025F480554FF480502060D7F800B0082052
S3150800384038607868000548BF02F0F6F81FFA8BF072
S315080038503860E807ACD56D086D000120206099F83E
S3150800386000000028A4D002F015FC0128A0D198F881
S31508003870000000289CD09AF80000042898D1F06827
S31508003880400800F001008A2101FB0091091D00286B
S3150800389014BF7268326812B92268D204F7D50028B4
S315080038A014BF7068306879E700202060BDE8F18FA2
S315080038B05D4800687047F0B589B004460D4600219A
S315080038C0032000F017F904AE1BE0002700F02DF9DD
S315080038D026F8170000F029F900A921F817007F1C1F
S315080038E0082FF3DB04A802F06FFF00202080218850
S315080038F036F8102051402180401C0828F7DB6D1E41
S31508003900A41CEDB2002DE0D100F04BF9012009B05E
S31508003910F0BD0321022000F0EDB8F8B529244FF6D2
S31508003920FF7500F002F9281A90FBF4F000F13A0648
S315080039303E4F3878B8B90321032000F0DBF802239C
S315080039407F223B48018800A800F08CF800F0EDF8CB
S31508003950BDF80010401880B2281A90FBF4F0253004
S3150800396078700120387000F01CF97878301A40B267
S31508003970F2BD80B50321022000F0BCF8BDE8014085
S31508003980CBE770B500242B48007890B9FFF7F1FF14
S3150800399005461B4E707848B13078401B40B202F09D
S315080039A024FF0B2805DB3570012402E03570012061
S315080039B07070204670BD80B540B11F480021016077
S315080039C00848016821F08001016001BD02F01FFC72
S315080039D002F0F7FB02F0A9FBBDE8024002F08DBB3E
S315080039E00020004084200040C42C002000A0004095
S315080039F04C100040A5280020D01000408020004030
S31508003A00DF2F0020C02C0020A42800202020004002
S31508003A10A827002004A00040142900202C290020F3
S31508003A201F290020B820004038200040DD2F002044
S31508003A309C7B010821290020541000407068792ECB
S31508003A406300000072B67047BFF35F8FBFF34F8FF6
S31508003A50BFF36F8F7047000000BF30BF00BF7047CD
S31508003A6062B670472DE9F04383B004000D00904616
S31508003A701E0027005FFA88F8B8F17F0F02D15FF0C1
S31508003A800008FFE7ADB2B5F5004F1AD108237F222B
S31508003A901448018800A8FFF7E5FF0822124900A884
S31508003AA002F0F9FE002806D108237F220F48018874
S31508003AB000A8FFF7D7FF082200A9380002F099FEF0
S31508003AC00EE0ADB20A482843F6B25FFA88F808FB5A
S31508003AD00609F6B2320092B24946380002F089FE6B
S31508003AE0BDE8F783A07B010890770108907B010861
S31508003AF00000040870B505460E46FFF7A3FF3D4CC7
S31508003B00206C20F008002064FFF7AAFFFEF77EFD70
S31508003B10310341EAC51141F00101374A1160082114
S31508003B202160BDE87040FEF777BD2DE9F041334CC2
S31508003B30334D304E25E0FFF785FF324804210160FA
S31508003B40306C40F0080030642F6828684008400050
S31508003B502860FFF779FFD4F80080206820F040003D
S31508003B602060FFF779FFC4F800802F60FFF76CFF2D
S31508003B70306C20F008003064234804210160FFF708
S31508003B806FFF30680007D6D5082030601F480068E8
S31508003B9080B2BDE8F08180B5FFF7ACFFBDE8014013
S31508003BA0C3E7154801684908490001607047F8B538
S31508003BB00746FEF74AFF044639460320FFF7EBFFA0
S31508003BC0054639460120FFF7E6FF06463946002036
S31508003BD0FFF7E1FF08490A68520852000A60401BCD
S31508003BE00004711BB0FBF1F060434000000CF2BD0D
S31508003BF00000000018A0004004700040008000404B
S31508003C0094ED00E000E100E080E200E00070004092
S31508003C10DFF8DC3433F810001040C840704730B580
S31508003C20DFF8D0340FF27C5434F810409C60DFF88B
S31508003C30C04434F81050954311402943D9600222F4
S31508003C401A6000221A6024F8101058680028FCD15F
S31508003C5030BDDFF8A404DFF8A4148A780AB14978DD
S31508003C600FE089566FF008029142B8BF302108DB91
S31508003C70C16D39B140F24A31C26DB1FBF2F189B278
S31508003C80C91E01607047E0B50A237F22DFF8700479
S31508003C9000F062F84FF6FF72BDF806100D20FFF728
S31508003CA0BEFF07BDF8B50546DFF85044B5F5004F29
S31508003CB019D102237F22DFF84C0400F04DF8BDF835
S31508003CC00000000AFF2814BF002818206070BDF8FD
S31508003CD000000006C00E10281CBF001D00F095F954
S31508003CE0BDF80000C543E07808B1002005E0A089CA
S31508003CF0ADB26840C00701D50120E070A58105F086
S31508003D000106C5F34007DFF80004016841F40041E5
S31508003D1001604FF440520FF2B04000EB4600407885
S31508003D20010389B20220FFF77AFF304602F0E2FD6E
S31508003D304022B90100F000FA2D06A80E00F0010095
S31508003D403843A070FFF785FFE07818B1FFF79BFFAF
S31508003D500020E0700020F2BD018800A8FFF782BEAF
S31508003D60DFF89803808970472DE9F04F87B0DFF8B0
S31508003D709C53287804900B38C0B203900423039A06
S31508003D800B2100A8FFF7F0FA9DF800008DF80A004D
S31508003D909DF801008DF809009DF802008DF80800CD
S31508003DA09DF803008DF80500D94E3078012804D116
S31508003DB06878471EBF41FF0F00E00127FFF7ADFDFA
S31508003DC080469DF90200A8F10A0408F10A0A50453E
S31508003DD0B6BF84424FF0010B4FF0000B0120039948
S31508003DE08840ADF806009DF80100000604D4A888AE
S31508003DF0BDF80610084201D04FF0010B02F0F2FDA3
S31508003E009DF8030000060AD4E888BDF806100842A3
S31508003E1005D19DF900005045B8BF844202DB4FF03A
S31508003E20010901E04FF000094BEA070059EA0000D2
S31508003E3000F09B80B748006800F002008DF8040087
S31508003E40DFF8D4A2DAF8000000F4E0600590B34881
S31508003E504FF4E0610160002002F0A7F9FEF762FD69
S31508003E60AF4CA7B1687850B1AA480068400840002E
S31508003E70A849086001203070FEF729FE07E020688F
S31508003E8040F400502060206820F48050206030788C
S31508003E9001280CD1FEF7FAFA9E48006840F00100A6
S31508003EA09C490860002030706420FEF710FE2FB190
S31508003EB0687818B90498C0B202F0CEFD687838B1AF
S31508003EC0206820F480502060206840F4005020606C
S31508003ED0BDF80600C643BBF1000F08D002F0AAFEE3
S31508003EE08DF801008DF80280A8883040A880B9F1C5
S31508003EF0000F08D002F045FF8DF803008DF800800A
S31508003F00E8883040E8809DF900009DF90A1088424B
S31508003F1002BF9DF801009DF8091088420BD19DF952
S31508003F2002009DF90810884202BF9DF803009DF81B
S31508003F300510884206D0042300AA0399C9B20B20AB
S31508003F40FFF734FA0598CAF80000FFF7D7FA9DF884
S31508003F50040002F02AF9FFF724FE687828B148F22F
S31508003F60607020606420FEF7B2FD9DF8010002F043
S31508003F70CBFD9DF8030002F0FFFE07B0BDE8F08F09
S31508003F8080B5FFF7C6FCBDE80140EDE6FFF7C1BC0A
S31508003F9070B50646A6F10B0402F068F80546A6F1C8
S31508003FA00B00C0B2102801D38A2070BD5D48816815
S31508003FB0090702D40068C00701D58C2070BD534894
S31508003FC0067059490A680C2A0ED0A4B20FF26C1270
S31508003FD032F8242090F908008018C861FFF7C4FE5B
S31508003FE0012D08BF01F0D6FF002070BD10B50446AC
S31508003FF0FFF78FFC2046BDE81040C9E74348007824
S3150800400070473E4890F9000070472DE9F04186B0A8
S3150800401006466FF02A00864246DB14237F22434871
S31508004020FFF79AFEBDF810004FF6FF71884203D0DD
S31508004030400448BF012506D43F2200211020FFF77F
S31508004040E7FD044600252D48394906F12B02D2B270
S315080040502F2A1AD213220FF2241300E0521ED2B2CC
S3150800406013F91270BE42F9DB03EB420676780E604E
S3150800407013F8121001700020002680460327ADB100
S315080040804FF6BF72BDF8101029E0092E0CDA325C23
S315080040900A60067014237F222648FFF75DFE032078
S315080040A00126B0462827EAE78B201DE04FF4605228
S315080040B0C10200F041F84FF4E062310200F03CF82A
S315080040C080224FEAC81100F037F884F020003C1827
S315080040D0A4B2402C28BF3F243F2284F0200100F0E0
S315080040E02BF8FFF7B6FD002006B0BDE8F08100000A
S315080040F0742C0020E810004064100040B02800200E
S31508004100967B0108A67B01081C100040A428002005
S31508004110212900208020004000E100E080E100E045
S31508004120D010004060200040AC100040927B01088F
S31508004130C0100040947B01080B2070E5AA212900D5
S315080041405523290000252800AA26270055282700D8
S31508004150002A2600AA2B2600552D2500002F24000C
S31508004160AA3024005532230000342200AA35220042
S315080041705537210000392000AA3A2000D500E6016B
S31508004180EC02EF03F204F405F506F707F808F90957
S31508004190FA0AFB0BFC0DFD0FFE11FF1300160119A1
S315080041A0021C031F100011002000300040004100CF
S315080041B050006000700080009000A000B000C000B1
S315080041C0D000E000F00000000000010386B0FEF712
S315080041D075F802F0A3FE012300220F21012002F048
S315080041E0D7FF002805D0012300220821012002F06C
S315080041F0CFFF03F0A7F9FEF781F902003E49012037
S3150800420003F04EF93D49012003F04AF90121012046
S3150800421003F05CFB01A83A49142204F011FB394863
S3150800422004F057FBFEF78FFC03F0C8F904F023FCF3
S3150800423004003220B4FBF0F100FB114000283BD10A
S3150800424000208DF8000000AB012249212D4804F01A
S315080042505CFB00AB022249212A4804F085FB0720B3
S315080042608DF8000000AB01224921264804F04DFBD9
S3150800427000AB02224921234804F076FB43208DF83F
S31508004280000000AB012239211E4804F03EFB00ABBA
S31508004290012239211B4804F067FB83208DF80000B2
S315080042A000AB01223921174804F02FFB00AB01228D
S315080042B03921144804F058FB03F042F9B2E710B468
S315080042C0019C10BC7047F0B4DDF810C0059F069E2F
S315080042D0079D089CF0BC7047030001207047704793
S315080042E070477047704710B50400E4B222000649CB
S315080042F0012003F05DF810BD047701081077010866
S315080043004877010800C000405C770108704770478D
S31508004310704770472DE9F04387B004004248028889
S31508004320FF2101A802F0AEFA4048008880B2420098
S3150800433092B2FF213E4802F0A5FA2E261727002042
S315080043400500EDB2172D40D2EDB23A48285C401C64
S31508004350022190FBF1F8EDB2374815F80090EDB25E
S315080043603448285CFF2804D307B56F21334800F08A
S31508004370E1FDEDB23048285C7F2804D307B57021EB
S315080043802E4800F0D7FDEDB22D48285C002801D054
S3150800439018F1190818F1010000FB09F292B2EDB202
S315080043A0284830F81510284804F04DFC18F101008B
S315080043B000FB0966B9F1010F05D0EDB21C4820F8DB
S315080043C0157019EB07076D1CBBE740F21C408642C7
S315080043D001D214A300E01D4B1720009040F21C42A6
S315080043E0310089B21A4804F02EFC40F21C4086427D
S315080043F010D3FEF7A8FBFEF709F9804640F21C43E6
S3150800440032001449012003F04BF807B59B210B48ED
S3150800441000F090FD01A92000C0B200F0CEF807B068
S31508004420BDE8F0836F6B0000BE7B0108C07B010806
S31508004430102C0020547901086C79010824780108A9
S315080044403C7901080C790108347801088878010854
S31508004450507801089478010810B5DFF86C3ADFF84F
S315080044606C4A2488001B03EB4000002304E030F864
S31508004470134021F813405B1C9342F8DB002010BD63
S315080044802DE9F04182B004460D4616460027DFF8AE
S31508004490388A01E0B81CC7B2B7421ADA78194078E8
S315080044A0795D01EB0020ADF80000012200A907EBB9
S315080044B0D77004EB6000DFF8143A1B88C01A08EBC3
S315080044C0400004F095FD0028E4D004F05BFE0020CF
S315080044D000E00120BDE8F681F8B504460E4615460B
S315080044E000270DE000F019F8761C04EB4700BDF82C
S315080044F00010090A4170BDF8000004F817007F1C77
S31508004500B7EB550FEEDBE80706D500F006F82819D5
S31508004510BDF8001000F8011CF1BD012200A9B0B2D7
S315080045209AE7DFF8A419DFF8A4291288801A01EBA4
S315080045304001022004F022BDDFF89419415CDFF83F
S315080045409429825CDFF89039C05C10B102F5997243
S3150800455092B241EAC21080B2704710B5DFF87C39D2
S3150800456003EB4002DFF86849005D012801D11046D7
S3150800457010BD1088081803EB400010BD38B50C466E
S31508004580DFF85C190D782A462146FFF765FF208873
S3150800459000281CBF4FF6FF7188420AD0012000E0B0
S315080045A0401CC0B2A84206D234F8101022889142A4
S315080045B0F6D0002032BD012032BD2DE9F04F9DB066
S315080045C089460446DFF81C79002038707880DFF8C1
S315080045D018090088ADF8000008A9FFF7CFFF824642
S315080045E001207870DFF804090588DFF80409B0F8B7
S315080045F00080BDF80060DFF8D4080088ADF8040034
S3150800460083460AA9FFF7BAFFD0B1BAF1000F43D023
S315080046104FF6FE70BDF82010814204D1BDF828007F
S31508004620012806D10FE0012904BFBDF828108142F0
S3150800463032D0BDF82000BDF8281088422CD202E0FE
S31508004640BAF1000F27D0002078703046CDF808B0B0
S315080046500795CDF81480DFF8881809788DF80610C4
S315080046600818ADF8100000F05EFABDF81000FFF764
S31508004670F3FEDFF8800800880690BDF80200000BFC
S315080046804FF6FF789DF80610884218BF0F2800D10C
S3150800469014B3002515E0012478780128D5D15846A9
S315080046A00296CDF81C800595D5E7069805FB00F41B
S315080046B0BDF8040000F02CFCBDF8000000F028FC52
S315080046C06D1C9DF806008542EFDB012038704D20F1
S315080046D004F058FD0025FBE0BDF8105000F023FA61
S315080046E02846FFF7B9FE6E1CBDF80200C043C0B2EB
S315080046F0ADF80200DFF800080588BDF80200A842F8
S3150800470018BF01244FF0000A1FE0401CC1B2A9429D
S3150800471017D2C0B28346DFF8E41731F81B10BDF88C
S315080047200E209142F1D1FFF707FF4FF6807108403E
S31508004730BDF80C104FF680721140884208BF0BF87E
S3150800474009A00AF101001FFA80FABDF802008245A5
S3150800475007DA022203A9B0B2FFF77EFEB61C0020D4
S31508004760D4E7002100E0491CA94219DA11F809002A
S315080047708842F8D0012413E02AF81160012201A921
S31508004780BDF8103003EB4000401C00F0D4FABDF829
S315080047900400C0F3C710401C00EBD07006EB60069F
S315080047A0DFF838A7B6B20598864213DA012200A9BF
S315080047B03046FFF751FEBDF8000040450AD0761C8A
S315080047C0000ABDF8001001F07F02BDF80210884209
S315080047D002DB012400252BE0002100E0491CA94248
S315080047E0CCDA11F809308342F8D1C9B2FF29C5D00D
S315080047F07F2A0CBF4FF0000C9446DFF8D436CB5C0A
S315080048009C4509DABDF800C0CCF3C01CDFF8C8E641
S3150800481011F80EE0F44501D00124AFE7012BABD027
S315080048207F2A08BF00223AF811105118A4E76D1C18
S31508004830DFF8CC060088854204DA3AF815004045C8
S31508004840F5D101247E80B5B2059885420ADA01229F
S3150800485000A92846FFF700FE6E1CBDF8000040457B
S31508004860F1D034E7002CFCD101220CA9029800F003
S3150800487062FABDF8300040450DD105E0401C80B213
S31508004880202813D32034A4B20799029A891A8C4295
S3150800489005DB0120387000201DB0BDE8F08FA51893
S315080048A020220CA9A8B2FFF7D7FD00200CA931F8E1
S315080048B010104145E2D0A8B2FFF733FE203CA4B25F
S315080048C0E0E70298069905FB010000F022FB6D1C43
S315080048D09DF806008542F4DB01203870414600F059
S315080048E044F818B100F023F90028D4D10120D3E701
S315080048F02DE9F84504460D4616469A463146284699
S31508004900FFF72BFEB0F80080DFF8C875DFF8E8156A
S3150800491009888D420AD27F2E08BF0026DFF8B00527
S31508004920285C864202DAE85D824504D007B540F283
S31508004930834100F0FCF9DFF8A005285C68B1414620
S31508004940284600F02BFAE95D012908BF20700AD035
S31508004950022914BF2060208005E0524641462046C1
S31508004960BDE8F845B8E5BDE8F1852DE9F34F83B014
S31508004970DFF858050488DFF86C05407800281ABF68
S31508004980DFF8640500882046DFF8541509780D1805
S31508004990ADB2DFF864050088ADF80800C043C0B2C0
S315080049A000EB013000F55060ADF8020000F0CDF9DB
S315080049B02B1B00F0C6F96E1CB6B2002832D10025B2
S315080049C0DFF8387510E0E8B2FFF7B6FDADF8040079
S315080049D037F81500ADF80600022200F0AFF90028F6
S315080049E020D1B61CB6B26D1CBDF808008542EADBBC
S315080049F0002500E06D1CBDF80800854280F28E8017
S31508004A004FF0000A1AE000F08EF81FFA89F0FFF757
S31508004A1023FD09F1010900F098F9BB191B1B00F0E9
S31508004A2090F9002874D17F1CFFB25F45EBDBDFF8F5
S31508004A30D404285C8619B6B20AF1010ADFF8900494
S31508004A4015F800B05FFA8AFADA45D3D25146E8B2C9
S31508004A50FFF783FD8046B8F80090DFF87C042F5CEA
S31508004A60F80140EA0520ADF80000BBF1010FBDF8DA
S31508004A7000000CBF40F07F004AEA0000ADF80000D5
S31508004A80DFF84404311B00EB4100711C89B2019127
S31508004A904FF6FF7189451EBFBDF80010BDF81020FE
S31508004AA0914218D19DF80C100029C5D0012200A901
S31508004AB004F09EFA019E58BBA8F80060DFF81404BB
S31508004AC02A5CDFF8440450F82510B0B2FFF7D8FC8A
S31508004AD00028ACD11FE0DFF8FC13695C491C01EB28
S31508004AE0D171C9054FEA116B012200A904F080FAB9
S31508004AF0019E68B9A8F80060002F95D04946E8B22B
S31508004B0000F04CF901905A4600F018F900288ED0AA
S31508004B1004F038FB002005B0BDE8F08FDFF8C403C9
S31508004B2046800120F7E701220DF1020170472DE9C1
S31508004B30F04182B0DFF8B0030688DFF890030488F6
S31508004B40DFF8A0536878002812BF2046304626466C
S31508004B50012200A9FFF780FCBDF8000001280CBF60
S31508004B604FF6FE70401EADF80000DFF874030778B4
S31508004B70DFF854833846471E70B1012200A9BFB238
S31508004B80B819001B08EB400004F032FA0028F1D0EF
S31508004B9004F0F8FA002007E06978481E8041C00F43
S31508004BA06870002028700120BDE8F681000000002A
S31508004BB02DE9FE4F83460C4617469A4600208DF887
S31508004BC00400012539465846FFF7C7FC81465E466C
S31508004BD0C94909888B450AD27F2F08BF0027BC48D8
S31508004BE0305C874203DABB48305C824504D007B59F
S31508004BF040F2A65100F09BF8BA4F787820B1BB482E
S31508004C00B0F80080B14803E0B948B0F80080B6486B
S31508004C100088397849B97988081ABC4909888842C8
S31508004C20B4BF4320442004F0ADFAB9F80010AA48EE
S31508004C30305C78B1584600F0B1F8BAF1010F08BFF8
S31508004C40217804D0BAF1020F0CBF2188216881426D
S31508004C506BD02BE002914FF0000B23E0012200A954
S31508004C6002980BEBDB7300EB630000F064F80BEBC8
S31508004C70040040781BF8041001EB002080B2AAF16A
S31508004C8001018B4505D1C0B2BDF80010C9B2ADF817
S31508004C900010BDF80010884218BF00250BF102006D
S31508004CA05FFA80FBD345D9DB002D3ED1FFF73BFFEA
S31508004CB0B9F80000401E00F03EF89248355C788846
S31508004CC0A8F10101491B814200DB60B9387808B9AF
S31508004CD045201CE0BDF802100020FFF746FE20B371
S31508004CE001208DF804007888401C78807949725C28
S31508004CF0214680B2FFF7C4FBB8B100F026F87B88DE
S31508004D005B1E724C24881B1B00F01BF810B104F0C4
S31508004D1039FA0AE09DF8040010B1FFF708FF20B140
S31508004D207888A9F8000028187880BDE8F78F0FF270
S31508004D30E81000F0FFB880B2FFF78EBB01A9624801
S31508004D40331B00EB430004F053B901220DF10201B5
S31508004D505D48704770B582B00446002519260122C1
S31508004D6000A9A0B2FFF778FB641CBDF8000048B1A3
S31508004D704FF47F41401A02D0FF3806D007E0681C7E
S31508004D8040B276BDAD1C761EE9D168B276BDBDF8D7
S31508004D900000C0B200B96D1CE843F1E738B50C460F
S31508004DA0002100914B49455C2A46214600A8FFF799
S31508004DB093FB681C00EBD07004EB600080B2FFF731
S31508004DC0C9FF002848BFC043009940B2401832BD09
S31508004DD0F0B583B004462546404830F81560464984
S31508004DE009888C4202D23C48285C20B907B540F2B3
S31508004DF0A661FFF79CFF37482D5C681C00EBD07056
S31508004E0006EB6007B8B2FFF7A5FF322814D2C10730
S31508004E104CBF00214FF47F41ADF80410012201A9CF
S31508004E20294BBFB207EB6000284F3F88C01B03EB36
S31508004E30400004F0DDF860B131462046FFF7AEFFCA
S31508004E400090401C00902B467F2200A92046FFF7C1
S31508004E50AFFEF7BDF8B5234C2078002832D11B48A1
S31508004E600588607800281ABF1F4806882E461C4801
S31508004E7007783846471E02281DD3012200A9FFB22B
S31508004E80B819FFF758FFBDF800000028F1D01948F7
S31508004E90008807FB006000F03CF80020ADF8000031
S31508004EA0012200A90848BB195B1BFFF74AFF48B156
S31508004EB004F068F9F1BD3046FFF733FBFFB20FB9CE
S31508004EC001202070F1BD000000E00208B47B010853
S31508004ED06C790108547901083C790108102C0020E6
S31508004EE0C97B0108AC2F0020B87B0108B67B0108F6
S31508004EF0BA7B0108B27B0108BE7B01080C79010860
S31508004F00C07B0108EC780108F87A0108BC7B010827
S31508004F10201880B2FFF705BB73696D2D6565707241
S31508004F206F6D2D696E7465726E616C2E630000007C
S31508004F3042DE704770B504000D00FDF704FEFDF76C
S31508004F4065FB06002900200003F02AFE2B0022003C
S31508004F50DFF8A012012002F0A3FA29002000FFF7CB
S31508004F60E7FF70BDDFF89012884205D20168B1F1FB
S31508004F70CD3F01D1001DF5E7DFF87C12081A70470E
S31508004F802DE9F84F4FF42065DFF87062DFF87002FC
S31508004F900068B065DFF86C020068F065DFF8680243
S31508004FA000683066DFF8640200687066DFF8600241
S31508004FB00068B066DFF85C020068F066DFF8580241
S31508004FC000683067DFF854020068706796F83800A2
S31508004FD0400702D5D6F8408001E0D6F83C8004F0B8
S31508004FE0BCF97065706D404543D2DFF80C02404548
S31508004FF03FD318F11808D8F80000706418F10408AF
S31508005000D8F80000B06418F10408B06DC005C00DEA
S3150800501080B2062831D1706CDFF8041288422CD38E
S31508005020706CDFF80012884227D2706C00884DF643
S315080050304261884221D17068C6F89000B068C6F807
S315080050409400D8F80000706018F10408D8F8000039
S31508005050B06018F10408D8F80000F06018F10408E8
S31508005060D8F80000B06318F1040840F20170050092
S3150800507003E0002070640020B064706D001DFFF727
S3150800508071FFF06400203065002083465FFA8BFBD1
S31508005090BBF1060F08D25FFA8BFB16EB8B000021DB
S315080050A081671BF1010BF1E7706C00285AD00020CC
S315080050B08346DFF844018146C14534D3B9F1040972
S315080050C0D9F800000700DFF858018742F4D3DFF863
S315080050D054018742F0D2F807EED5002082465FFADF
S315080050E08AFABAF1060F09D25FFA8AFA16EB8A002B
S315080050F0806FB84202D01AF1010AF0E75FFA8AFA1D
S31508005100BAF1060FD8D15FFA8BFBBBF1000F02D0BC
S31508005110BBF1010B01E05FF0050B5FFA8BFB16EBA9
S315080051208B008767C8E75846B0F1010BC0B2002864
S3150800513018D0B06F0700002082465FFA8AFABAF1E3
S31508005140050F0CD25FFA8AFA16EB8A005FFA8AFA1A
S3150800515016EB8A01C96F81671AF1010AEDE7C6F8ED
S315080051608C70E0E7B06DC005C00D04002000022871
S315080051700AD003281AD004281CD005281ED00628D1
S3150800518020D00C2826D029E0DFF89C00006880078C
S3150800519003D540F60210050007E0DFF88C0000682A
S315080051A0C00702D540F2025005001EE040F6012075
S315080051B005001AE040F60220050016E040F6032036
S315080051C0050012E0ADB2B5F5206F02D140F6042015
S315080051D005000AE040F60520050006E0002C04D08C
S315080051E0242C02D240F607200500280080B2BDE82C
S315080051F0F28F0000D07501087827002000000020F3
S3150800520004ED00E024ED00E000E300E028ED00E016
S315080052102CED00E030ED00E034ED00E03CED00E080
S3150800522090210008E07301081CA00040DFF89C05E7
S3150800523000210170FF21017201737047F8B5044619
S3150800524003F00EFC0546DFF888050688DFF87C754E
S31508005250204604F03FF9B0F5006F1CD1204604F053
S315080052605BF900F0C3FAFF2813D0DFF86815096860
S3150800527031F8102042F0200221F81020214607F1CB
S315080052800C0004F0C4FC387890B1A819398A461A7B
S3150800529013E09320F2BDFF2107F1080004F0E2FCB9
S315080052A0052803D2214607F10800EAE73920F2BDAE
S315080052B03D823146384604F036FDB2B20321204617
S315080052C004F07FF803220521204604F085F82046DD
S315080052D004F001FA0020F2BDF8B50446DFF8EC0444
S315080052E0007AFF2813D0DFF8F0542968465C374661
S315080052F0384604F001F908220146204601F0CBFAA7
S3150800530008B90120F2BD28683F5CB742F0D10020F9
S31508005310F2BDF8B5044604F081F8050B204604F002
S3150800532011F90646204604F0FBF8B0F5404F15D1B2
S31508005330E8073BD53146002000F088F90446FF2CE3
S3150800534034D0002104F0FEFD80B300F0A8F940F047
S3150800535080020521204604F03FF827E0304604F095
S3150800536007FC00F043FA0446FF2C01D10020F2BDE9
S3150800537001200021224604F0F1FFDFF86024D2E97B
S31508005380006706430F43C2E90067EB070ED5DFF84F
S3150800539044341B6833F814304FF4FE64234205D0B6
S315080053A0D2E9024520432943C2E902010120F2BDA0
S315080053B038B5044604F08EF8B0F5006F0CBF012529
S315080053C00025204604F098F804462146284600F0B1
S315080053D03DF9FF2810D18DB1204604F0C9FB00F035
S315080053E005FAFF280AD0DFF8EC13096831F810002F
S315080053F04FF4FA61084201D0012032BD002032BDC7
S315080054002DE9FC4107460C46DFF8C05304F062F864
S31508005410B0F5006F0CBF05F10C0005F10800007827
S31508005420FF2848D0DFF8B0130968405C0646B74243
S315080054303ED1FDF7EBF880460521304603F0D3FF51
S3150800544000F07F00471EFAB20521304603F0C4FF7C
S31508005450002C18BF312C01D0F8B210BBFDF7D6F8D6
S315080054600746F0B204F036F8B0F5006FF1B206D18F
S3150800547005F10C0004F0F6FB00F015F903E005F160
S31508005480080004F0EFFB3846FDF7C6F84046FDF77E
S31508005490C3F82146304605F0B1FD304604F029F937
S315080054A004E000F000F94046FDF7B6F8012003E0F5
S315080054B0765C8642BBD10020BDE8F68138B503F09C
S315080054C0CFFAC24C218A421A4FF6FF75ADF8005042
S315080054D0208200A990B200F007F9BDF80000A842A2
S315080054E002D10020207031BD0146204604F01BFC85
S315080054F031BD00214FF6FF70F6E02DE9F84FDFF8D1
S31508005500DC92D9E90001002908BF002800F097803D
S3150800551000260124B2460027B846FDF777F88446E8
S31508005520D9E9000104EA00021AEA010308BF002AC1
S3150800553018D00127E5436FEA0A0B284001EA0B0158
S31508005540C9E90001D9E9022304EA02001AEA0301BB
S3150800555008BF002806D0B84602EA050003EA0B0190
S31508005560C9E902016046FDF757F8002F58D0994857
S31508005570006830F81600810752D59949096831F84C
S315080055801670B8F1000F05D000F49871102908BFFD
S31508005590012500D000259349096800227254B8F104
S315080055A0000F25D0800623D58DF8007038128DF8A7
S315080055B0010000A9012000F049F88046B8F1FF0F64
S315080055C007D100F03EF84FF6DF72114020F81610AA
S315080055D01BE0002104F0B6FCB8B10521404603F0F3
S315080055E002FF40F080020521404603F0F5FE0CE07C
S315080055F085F001004146014207D000F022F841F447
S31508005600006120F8161006F081F800953B461A222C
S315080056106DA1032003F0C9FA29463846FEF760FE55
S31508005620761C4FEA4A0040EAD47A6400402E06DA2D
S31508005630D9E90001002908BF00287FF46CAFBDE84E
S31508005640F18F6448006830F8161070472DE9F0416C
S3150800565088465E49002819BF01F10C00022501F1B0
S31508005660080008250078FF2816D05B4E3168475C8D
S315080056703C4600F014F800060AD4204603F03CFF26
S3150800568001462A46404601F006F908B9204604E0D4
S315080056903068245CBC42ECD1FF20BDE8F0810521CE
S315080056A0204603F0A0BE70B50021202006F083FA3C
S315080056B04648007BFF2816D0474C2168455C2E4695
S315080056C0304603F029FF00F091F8FF2807D041493A
S315080056D0096831F8102042F0200221F810202068CD
S315080056E0365CAE42ECD170BD2DE9F84F80460D46CA
S315080056F00FF2F40000680090DFF8D0B00BF1080450
S31508005700354F01E00BF10C04FCF780FF064606E076
S31508005710204604F091FA514600A804F078FA20468B
S3150800572004F0D4FA48B92078396810F801A00321A2
S31508005730504603F03DFE8045EAD20BF10C00844248
S3150800574008BFFFF7B0FF3046FCF766FF2078FF2852
S3150800575019D0396810F80190CA460321504603F05B
S3150800576027FEA0EB0806B2B20321504603F029FE35
S315080057702888B6B2864288BF06462E8038681AF848
S3150800578000A0CA45E9D10BF10C008442BAD100A8A1
S3150800579004F09CFAA8B900A804F04EFA044603F0EF
S315080057A047FE00F0C2F8FFF77AFF000603D442214D
S315080057B0204605F023FC204603F09BFF00F0B6F8D0
S315080057C0E5E7BDE8F18F0000425742009029002026
S315080057D008280020A827002098270020202A002033
S315080057E0A0270020AC270020FF000000F8B506001F
S315080057F00C4C276814D0FCF709FF0B4D2978226852
S3150800580022F8116037F8021BB142FBD1FCF704FFFE
S31508005810B81E2168401AC0052978000E884200D1B2
S31508005820FF20F2BDA0270020A427002010B5654858
S315080058300068654C206060604822002101F022F86B
S315080058402068002181722068C17220680B210173CB
S3150800585020680321417320684FF6FE71C1814FF617
S31508005860FF71018206F0EBFC2168087606F0E7FC7A
S315080058702168487606F0E3FC216888762068534953
S315080058800978C176206852490968816251490978C0
S3150800589080F82C10206850490968016310BD10B5BE
S315080058A0FEF7ACFB484C6168097B884203D0084682
S315080058B0FEF79CFB50B9FEF7A4FB0146606890F919
S315080058C00D00814204D0FEF7A0FB08B1012010BDEF
S315080058D06068C08900F059FC6068008A00F05DFCC9
S315080058E06068807A012818BF002000F038FC002084
S315080058F010BD10B5394C0020207006F0EBF80028D2
S315080059001CBFBDE81040FFF7CABF2046BDE81040DF
S3150800591004F0FEB9704770470020704701207047B1
S31508005920704700207047002070477047704780B561
S31508005930002000F023F828B1002000F013F808B181
S31508005940002002BDFF2002BD80B5002000F00AF845
S3150800595030B11D480068807A032801D2002002BDB4
S31508005960FF2002BD18480068C07A02281CBF11280B
S31508005970432801D10120704700207047124800686B
S31508005980817A04298041C00F7047000010B50400D1
S3150800599005D007B5D3210FF26800FFF7CBFA4820E8
S315080059A00849096800FB041007494860BDE810402B
S315080059B075E705484068C089704703484068008A0B
S315080059C070470000D0270020F02D00200528002071
S315080059D0D8270020DC270020E0270020E02D002023
S315080059E07047002070470020704704F0E2BA7047FD
S315080059F0704703F055BBFEF775BC03F0B7BB000054
S31508005A00656D6265722D6D756C74692D6E6574773A
S31508005A106F726B2D737475622E630000DFF8F807DA
S31508005A20417A39B1017A012904BFC07A042801D123
S31508005A300120704700207047DFF8E007016821F46D
S31508005A4080510160DFF8D007017881B1002101702B
S31508005A50DFF8CC170A68520852000A600A6842F052
S31508005A6001020A6000228169402000F0A3BD704748
S31508005A700FF63C01405C7047010603D54FF67F716F
S31508005A800840C00070478001B0FBF1F080B2FF28E3
S31508005A9088BFFF20C0F1FF00C0B2704738B5DFF8F5
S31508005AA07807817A012901D1002032BDDFF87847CD
S31508005AB0617871B1E178807B4518ADB2207985426D
S31508005AC028BF054606F0BBFB0121A940491E084030
S31508005AD000E0002061790818C0B232BD000000005D
S31508005AE02DE9F0470446C00704D507B540F265110D
S31508005AF000F04CFADFF83457286DC00748BF8C20F1
S31508005B0000F19180DFF81067002030733070DFF8FD
S31508005B1018773878A0B12078122818BF0C280BD12E
S31508005B20617801F00701032902BF001910F8020C79
S31508005B30042804BF01203073A86F40F0010002E07A
S31508005B40A86F40084000A867707BDFF8E486DFF896
S31508005B50E496797899B10021B173296D41F0040171
S31508005B602965012807D14FF6FF70C9F800004FF4E0
S31508005B700070C8F80000FFF791FF82460CE0296D17
S31508005B8021F0040129654FF0000A012804D100F02C
S31508005B903EFA6420FCF79BFFA86F20F00800A86770
S31508005BA01420E864C5F848A0787830B1707B0028DE
S31508005BB001BFA86C00280120A864B8790028286DC0
S31508005BC014BF40F0080020F008002865FFF726FFFC
S31508005BD028B1D9F8400040F00800C9F84000202054
S31508005BE028626C602C6068687F30686004202862D0
S31508005BF04FF4E064DFF84006046006E006F032FB86
S31508005C0018B101F08BF9FCF701FDDFF830060068E2
S31508005C1000F003000328F1D0C8F80040286D40F0D2
S31508005C20010028650020BDE8F08710B50446FDF799
S31508005C303FFE201A0003000B3338DFF804168842AB
S31508005C401AD2DFF8000602210160DFF8FC15A2B2BD
S31508005C504A60220C02F00F020A60016C41F0020150
S31508005C600164DFF8E8450020207002E0012006F014
S31508005C7003FB20780028F9D010BD2DE9F84FDFF88E
S31508005C80D0657068716C08401FFA80F8C6F8048001
S31508005C90DFF89875DFF880556878002840F0D180DD
S31508005CA0DFF8B045DFF880955FEAC8704CD5D7F8BD
S31508005CB000A0386C796C41EA0041A96199F80000A6
S31508005CC000283DD09AF80100800639D501202870B1
S31508005CD04FF480503060306C40F480503064FFF7E9
S31508005CE09DFE88B31920FCF7F2FEDFF86CB54FF479
S31508005CF04040CBF82800DBF800000090E06E40F446
S31508005D000050E066E06E40F48050E066A8699AF8B4
S31508005D1000104901B8310818FFF787FFE06E8009BF
S31508005D208001E066E06E00A909880843E066002065
S31508005D30CBF8280048F26070E066A88A206003E085
S31508005D400022002000F036FC5FEA08600CD52878AF
S31508005D5030B1002028700022A969402000F02AFCF2
S31508005D60306C20F4805030645FEA486008D5687863
S31508005D7030B9FDF79DFD00220146892000F01AFC86
S31508005D805FEAC8604FD5287ADFF8A4A4012804BFC3
S31508005D90697B01291ED1FCF779FB386F40F00100B9
S31508005DA0386700206873FDF7A9FB0A20FCF78FFE09
S31508005DB04FF000084FF6FF7070604FF4E060CAF8C5
S31508005DC000000920B8660120B864B86F40F00800E2
S31508005DD0B86718E0A97B491CA97399F80220C9B2CB
S31508005DE0914215D2012808BF00F0D4F8B86F20F008
S31508005DF00800B8671420B866FFF750FEB8644FF479
S31508005E000070CAF80000386D40F0010038650AE0F5
S31508005E10012808BF00F0BEF8FDF74AFD002201463A
S31508005E208D2000F0C7FB5FEA08700AD5FFF7F6FD7C
S31508005E3038B12068A88200202060706C20F0080025
S31508005E4070645FEA88600AD520203862687830B9BD
S31508005E50FDF72EFD00220146882000F0ABFB68788E
S31508005E6020B118F4407F04BF0120A870BDE8F18F67
S31508005E7070B582B00446FEF789F8DFF8E003002122
S31508005E800160DFF89C531521E960092101651F218E
S31508005E90416001210166FDF763FFFDF703FFFDF78A
S31508005EA053FB06F087FE00F043F9DFF86C63308A8F
S31508005EB000F06BF9708A00F070F9FCF7A7FB6968C7
S31508005EC041F040016960FCF7A7FB707900F005F91D
S31508005ED0B07900F012F9307900F041F9DFF8800363
S31508005EE090F90000FEF791F8F07800F05EF996F95F
S31508005EF0070000F066F902237F22DFF868030188AD
S31508005F0000A8FDF7AFFDBDF80000C0054CBF002096
S31508005F10BDF80000DFF850130870DFF8500300786A
S31508005F20FEF736F820B107B540F2753100F02EF8C5
S31508005F30012C05D12868C00711D500F02BF80EE012
S31508005F406CB92868C0070AD4FCF7A0FA286840F09C
S31508005F5001002860C820FCF7BAFD00207073DFF83E
S31508005F60D442F120206440F2F910E063FDF7C6FA46
S31508005F702868C00707D54FF6FF702060DFF8B00223
S31508005F804FF4E0610160FCF7CDFC73BD0FF21030F1
S31508005F90FEF7D0BF70B5DFF8D8522E68DFF8784222
S31508005FA0607B012832D0FCF731FB48F2D00129602A
S31508005FB06A68520509D548F222022A606A68D2053B
S31508005FC0F5D529606A685207F1D4B6B22E60DFF8B3
S31508005FD068124FF4E0620A60DFF898120A6A5208FB
S31508005FE052000A620A68520852000A600A6842F0B9
S31508005FF002020A604A6A42F001024A62012161739A
S31508006000FCF70AFBBDE87040FCF70CBA70BD70B52A
S31508006010814C607B48B3FCF739FAFCF7F7FA05467A
S31508006020DFF85402012101607E4E306D40F0010018
S31508006030306500206073FDF761FA20203060306B10
S3150800604040F002003063F06D40F00800F065284625
S31508006050FCF7E2FA0A20FCF73AFD76484FF6FF719C
S31508006060016073484FF4E061016070BD6A48407B87
S315080060707047000010B5684C607B20B107B540F248
S315080060806441FFF783FF207A18B1FFF783FF207A70
S31508006090607310BD6048007A704780B5022801D346
S315080060A0012002BD5C490872487B012804D1087AA0
S315080060B020B9FFF7ACFF01E0FFF7DCFF002002BDC7
S315080060C06E480068800200149A386FF07F0201B2A9
S315080060D09142B8BF104640B2704710B50446FCF767
S315080060E095FA6749002C0A6814BF42F0120222F09A
S315080060F012020A6048494C7140E038B50446FCF77C
S3150800610085FA0546FCF730FA40B95D48002C016867
S3150800611014BF41F0800121F0800101603E4884717E
S315080061202846BDE83240FCF777BA3B488079704785
S31508006130544855494A780B7813EB02220260CA780C
S315080061408B7813EB022242604A790B7913EB022211
S315080061508260CA79897911EB0221C160704710B54E
S315080061600446FCF753FA4649002C0A6814BF42F065
S31508006170200222F020020A6027490C71BDE810406F
S31508006180FCF74ABA2448008A7047234908823F49DF
S31508006190086070472048408A70471F4948823C4932
S315080061A0086070473B48007870471D4900280A6810
S315080061B014BF42F0020222F002020A601649C870B1
S315080061C0704738B504467F2C0ED102237F22324809
S315080061D0018800A8FDF746FCBDF80000C00554BFBD
S315080061E0BDF800406FF04A04FCF710FA0546FCF7C4
S315080061F0BBF930B964B204F19A008005000C27494E
S3150800620008600548C4712846FCF706FA31BD0248FD
S3150800621090F90700704700001429002040A00040AC
S315080062208020004030200040C82800201020004070
S3150800623000E100E004A0004080E100E0A820004062
S31508006240CDFF070008A0004040200040E42F0020B2
S3150800625000A0004064100040E41000405C100040BC
S31508006260B0280020AC7B0108AC280020A428002018
S315080062701C10004060200040281000400C10004010
S315080062808420004098200040982C0020942000404C
S315080062909020004030290020AE7B010854100040B1
S315080062A07068792D636F6D6D6F6E2E630000000048
S315080062B0FEFEF7F7C8C8010070B504460D46164637
S315080062C0FFF733FF38B16078002E14BF40F0200086
S315080062D000F0DF0060702946204603F08DFAFF289B
S315080062E022D09D4C014604F10C0003F090FC208856
S315080062F0401C2080618880B281420BD2A088401C55
S31508006300A08004F10C0003F097FC03F0F2F9208852
S31508006310401E2080608821888842F2D38F48007802
S31508006320BDE8704003F0F9BD70BD00002DE9F04EE0
S3150800633086B0044600208DF80500FCF767F9864DFF
S315080063402988491E2980FCF767F9204603F05AF97F
S3150800635090F8009090F801A000200090082380484B
S315080063600068205CA0F10802D2B2214602A803F018
S315080063705DFA02AE7078FFF7D8FA7A48007898B1D5
S31508006380A86800280FD0F078FFF776FB4946FFF794
S315080063907AFB024696F9020000F166035BB24946AB
S315080063A0204600F0BDF895E00AF0070002282DD037
S315080063B0FF208DF80400204603F024F900F1010BB4
S315080063C0584603F06CF80546A9EB0500801E47B24F
S315080063D0002F06D5204603F08CF9FFF7A7FA002010
S315080063E082E001A9584606F0D3FC002875D10AF0C8
S315080063F0070001280BD105EB0B019DF8040005F0F9
S3150800640007F920B99DF8040003F073F965E09DF8D3
S3150800641004005349096810F801A05349096844540F
S315080064204F480068205C00F12001C9B29DF80400BD
S3150800643003F0EEF89DF8040002F0F5FF00F00C00FA
S3150800644004281CBFEF19002578B280B200906B1C97
S315080064509BB2224651469DF8040003F0A6FB07EBC3
S315080064600A01C9B29DF8040003F093FA70783F490F
S315080064700978884205D307B5BD210FF2F800FEF763
S3150800648059FD9DF8040002F0C9FF8004800C71785C
S3150800649040EA813189B29DF8040002F0C1FFF07824
S315080064A0FFF7EAFA4946FFF7EEFA0246032100F03B
S315080064B01EF8B07800F16602D2B2042100F017F88F
S315080064C09DF80820052100F012F89DF804402046A2
S315080064D003F078FE01208DF80500204603F009F93F
S315080064E0FFF724FA9DF8050006B0BDE8F08E9DF882
S315080064F0040002F071BF10B5174CA18829B1C9B2C2
S315080065001D20FFF77AFA0020A08004F10C0003F0A2
S3150800651093FBFF2803D0FFF709FF0028F5D010BD2D
S3150800652030B5A1B014461D46002200924B1CDBB2C2
S31508006530014601A803F07AF9FFF7F2F92A4621463F
S3150800654001A8054B9B689847FFF7F0F921B030BDC5
S31508006550074803F0BBBB0000BC290020D82F002049
S315080065608C2700201529002094270020D4270020F6
S31508006570C82900206D61632D726563656976652E8D
S315080065806300000038B504460D460120FBF788FE77
S315080065905D48002D12BF00210178491C01705B4837
S315080065A044705B48FFF79CFA0020BDE83240FBF7D1
S315080065B077BE000010B51446002835D0402822D0F2
S315080065C088281CBF89288D2833D08F2839D151486F
S315080065D0007804280DD144B14F480221017040F6D5
S315080065E00620BDE8104006F087BCFFF743FD3120C2
S315080065F023E0012002F05AFBFFF73CFD002C0CBFFC
S315080066003120002019E0404801784078814204D2C0
S3150800661000210120BDE81040B4E7002002F046FB47
S31508006620FFF728FD402008E0012002F03FFB00208C
S3150800663003E0002002F03AFB8D20BDE8104003F08D
S3150800664065BD07B59D210FF2E800BDE81040FEF7CD
S3150800665071BC31480078022800D0704780B52F48B1
S315080066600078042807D00C280ED12D480078022877
S3150800667018BF7C2808D106F05AFCFFF7FBFC00205F
S31508006680BDE8024003F042BD01BD38B50024FBF762
S31508006690BDFF05462048007810B9FDF772F9044693
S315080066A02846FBF7B9FF002C1CBFBDE8314002F0B5
S315080066B063BD31BD80B5FFF7E8FF14211948BDE871
S315080066C0044003F037BB000007B5D6210FF260007F
S315080066D0FEF730BC38B5144C2068216C01EA000579
S315080066E0ADB2A80706D5206C20F0020020640F483A
S315080066F001210170680705D5206C20F0040020648C
S3150800670005F0CEF8256031BDB8290020C82800203C
S31508006710A42E00201F290020982E0020882900205A
S3150800672089290020782E002008A00040E42F0020A8
S315080067306D61632D656D3235302E630038B50446BC
S315080067401B4D214600F03DF8E860211D00F039F8A0
S31508006750A86004F1080100F034F8686004F10C013F
S3150800676000F02FF8286031BD7047F8B50446114D82
S3150800677080202860104E0620306007202860306888
S315080067808007FCD5002704EB870100F01AF8A862F9
S315080067907F1C042FF7D330684007FCD500262A6BE8
S315080067A004EB860100F00AF8761C042EF7D3F1BD37
S315080067B0383000400030004010A00040002006F0AD
S315080067C0CBBB002006F0D6BB70B504460D46FBF7DA
S315080067D01DFF06462846FFF7B1FF2046FFF7C5FF0F
S315080067E03046BDE87040FBF717BF002848BF404257
S315080067F0704730B404000B00A34223D292B2141996
S31508006800641E92B2D3185B1E92B2042A11D3121FC9
S315080068101D7825705B1E641E1D7825705B1E641E20
S315080068201D7825705B1E641E1D7825705B1E641E10
S31508006830EAE792B2002A23D01D7825705B1E641EF3
S31508006840521EF6E792B2042A11D3121F1D7825703C
S315080068505B1C641C1D7825705B1C641C1D782570E8
S315080068605B1C641C1D7825705B1C641CEAE792B2ED
S31508006870002A05D01D7825705B1C641C521EF6E79D
S3150800688030BC7047030092B2002A03D019705B1C13
S31508006890521EF8E7704770B403001C000D0092B250
S315080068A0012A0CD320782E78C0B2F6B2B04202D0B4
S315080068B0801B40B204E0521E641C6D1CEFE70020EA
S315080068C070BC704770B403001C000D0092B2012A18
S315080068D00CD320782E78C0B2F6B2B04202D0801B14
S315080068E040B204E0521E641C6D1CEFE7002070BC29
S315080068F070470000F0B589B004460020FCF77EF822
S315080069000A237F222648018800A8FDF7ABF84FF630
S31508006910FF75BDF80200A84206D107B54FF4867187
S315080069200FF29400FEF706FB00260FF2A40701E01B
S315080069302A4616B94FF47C4203E0022E08BF4EF2EF
S315080069403F0200A800F032F8761C052EF0D3012C81
S3150800695003D114237F22134802E014237F2212480E
S31508006960018803A8FDF77EF800260FF26C072A4671
S3150800697008E02A46012E08BF4FF6C07202D0082E3C
S3150800698008BF002203A800F011F8761C0A2EF0D3DF
S31508006990012C04BF0120FCF731F809B0F0BD000056
S315080069A0967B0108947B0108927B010830F8161043
S315080069B0F05DFDF734B90000616E616C6F6775654F
S315080069C02D63656C6C2D626961732E63000000008F
S315080069D000100C0D0E000000010203040708090A46
S315080069E00B0F000010B584B00A237F220B480188DC
S315080069F000A8FDF737F84FF6FF74BDF80000A0426F
S31508006A0005D107B54E210FF21800FEF793FA224674
S31508006A10BDF800100020FDF702F91FBD967B01089E
S31508006A20616E616C6F6775652D66696C7465722E2B
S31508006A30630000002B490A68920992010A600A68F5
S31508006A401043086028484FF40041016000210160A6
S31508006A506420FCF73CB800002DE9F0478046234D3A
S31508006A60D5F80090286840F4004028601D4F386823
S31508006A7020F4805038601E4C207868B11D48A178F3
S31508006A80627800EB820212F82A2C891A00EB880039
S31508006A9010F82A0C461802E0202601202070B0B211
S31508006AA0FFF7C8FF0FF2500A02E0B0B2FFF7C2FFC5
S31508006AB0386B042805D0386B400754BF761E761C01
S31508006AC0F3E7F86A38B184F80180A6701FFA89F0EE
S31508006AD02860BDE8F08707B540F221115046FEF759
S31508006AE029FAE5E7D0100040181000401C100040B5
S31508006AF0E12F00203C410008616E616C6F67756587
S31508006B002D76636F2E6300004FF4FE52810189B221
S31508006B100C20FDF784B82DE9F84F8A4CA568ADB26C
S31508006B2000264FF00A080127B94620681FFA80FA9E
S31508006B30FDF737F8B0202063DFF80CB2DBF8000069
S31508006B400120FBF7C4FFB9F1000F11D0AAF1030029
S31508006B50874202DAF81C87B213E057460AF5004066
S31508006B60206006210920FCF7C5FF4FF000090BE05D
S31508006B70DBF80000000707D5042FA6BFF81E87B26A
S31508006B80002707F5004020601A2EA8BF6FF00908F5
S31508006B9004DA16F1190FB8BF4FF00A08464436B2A0
S31508006BA07019A060DBF800000007C9D5012FC7DA05
S31508006BB0B9F1000FC4D1A560C4F800A00820CBF82D
S31508006BC000006248006880B2BDE8F28F10B56049DF
S31508006BD04FF0FF325A4B1C7864B1002819BF4A603F
S31508006BE05C48486041F211100860D9889888BDE869
S31508006BF0104090E7002819BF4A600A60486008609C
S31508006C00FCF7CFFF06210920BDE81040FCF7C3BFFB
S31508006C1038B50120FFF7DAFF04460020FFF7D6FF54
S31508006C2005460120FFF7D2FF4042001B00EB450056
S31508006C3000B232BD2DE9F04F83B0474CA06AADF8DB
S31508006C4004002068ADF80200444D2868ADF800003D
S31508006C503B4E307858B14FF6FF7200210820FCF7FA
S31508006C60D7FF8046C022C0210820FCF7D8FF3C4F3A
S31508006C703C48007810B148F260703860708840F47B
S31508006C80404040F04C00F8630220A06201202060DA
S31508006C9040F24C40FBF71BFF0120E860286000200B
S31508006CA0B0804020F080307800B12020FFF72CFF1C
S31508006CB0FFF7AEFF83464020B0807F20F080FFF7C5
S31508006CC023FFFFF7A5FF00F04FF8FE2101FB00FAAE
S31508006CD0ABEB090B307850B14846FFF786FD00F05C
S31508006CE043F880B20AEB8911B1FBF0F004E000F03A
S31508006CF03CF880B2BAFBF0F080B2401C4FEAC039CB
S31508006D00BDF8000028600020E86002202060BDF879
S31508006D1002002060BDF80400A0620020F863307805
S31508006D2030B14FF6FF721FFA88F10820FCF777FF9B
S31508006D3040F24C40FBF7CBFE4FEA1940BDE8FE8F08
S31508006D400A290020C010004018A00040007000402A
S31508006D5038100040EEEEFFFF60200040281000408B
S31508006D60D0100040A528002081465846FFF73DBDB3
S31508006D703F22410089B201E03F2201460220FCF78A
S31508006D804EBF2DE9F04F93B0564CE06CADF80800B5
S31508006D902068ADF80600544DE86AADF804004FF6D1
S31508006DA0FF7200210120FCF733FFADF802004FF611
S31508006DB0FF7200210B20FCF72BFFADF800004FF403
S31508006DC00040206000202861686148F2020000F057
S31508006DD08DF84CF68C30E06448F2F000E8624FF427
S31508006DE0805211460120FCF71AFF4FF6FF72002168
S31508006DF00B20FCF714FF06210620FCF7CCFE804684
S31508006E0000F087F883464CF69C30E0640020FFF7D4
S31508006E10AFFF06210846FCF76DFE0026B0B2FFF765
S31508006E20A7FF06210620FCF765FEFCF77EFE03A9F0
S31508006E3021F81600761C202EF0DBFCF776FE1020D3
S31508006E40FFF796FF00F065F8A0EB0B00BDF82C10D5
S31508006E50A1EB0801404301FB01094FF0100A112775
S31508006E6000F050F800F055F800F045F805DB8146CB
S31508006E701FFA87FA7F1C202FF2DB504610280ED106
S31508006E800F2700F03FF800F044F800F034F806DB6E
S31508006E9081461FFA87FA781E07B2002FF1D5BDF88A
S31508006EA00800E064BDF806002060BDF80400E8624A
S31508006EB04FF6FF72BDF802100120FCF7B0FE4FF640
S31508006EC0FF72BDF800100B20FCF7A9FE012028610F
S31508006ED0002000F00BF84FEA4A00C0B213B0BDE834
S31508006EE0F08F0000C010004018100040286040F2E3
S31508006EF04C40FBF7ECBDA0EB0B00404306FB06003D
S31508006F004845704703A830F81700A0EB0806B8B242
S31508006F102EE706210720FCF73EBE0000002181F37C
S31508006F201188704770B41300D2B21018DBB2002B68
S31508006F300FD011F00F0489B20909451E2800E4B2E2
S31508006F400A2C01D2302600E0372634192C705B1E35
S31508006F50ECE7D2B2101870BC7047F0B402000020FB
S31508006F601300002A05D5C0B22D244454401C5442AF
S31508006F702300002500263400E4B2092C1DD2002681
S31508006F80E4B2DFF8947557F82470BB4207D3E4B22D
S31508006F90DFF8847557F82470DB1B761CF0E755EA92
S31508006FA00607FFB2002F06D0C0B216F130074754C5
S31508006FB0401C01273D00641CDEE7C0B213F1300611
S31508006FC04654401CC0B2F0BC70472DE9F24F88B059
S31508006FD0040015001E0002AF06A801905FF0000924
S31508006FE02878002800F0BE8028788DF800009DF8E3
S31508006FF00000252804D09DF8000038707F1C9DE00D
S315080070006D1C2878002800F09880252814D032288E
S3150800701068D0342866D0582857D0632810D06428FA
S315080070203CD06C283AD070280FD073280DD075281C
S3150800703034D0782849D081E0252038707F1C7DE03F
S3150800704030683870361D7F1C78E0D6F800B0361DDB
S3150800705002A8381A80464246D2B202A99DF82000F4
S31508007060A047002840F0908018EB090902A80700FD
S31508007070002082465FFA8AFA1AF80B00002802D026
S315080070801AF1010AF6E75246D2B259469DF820008F
S31508007090A047002878D11AEB09094FE028786C2810
S315080070A003D130688246361D09E02878752803D151
S315080070B030688246361D02E030688246361D390041
S315080070C05046FFF74AFFC71938E0D6F800A0361D24
S315080070D002225FFA8AFA514689B23800FFF722FF80
S315080070E007002BE06D1C2878782804D028785828C3
S315080070F001D06D1E20E015F8010C32280AD1D6F809
S3150800710000A0361D0422514689B23800FFF70AFF4F
S31508007110070011E0D6F800A0361D04225FEA1A41DE
S3150800712089B23800FFF7FEFE07000422514689B2ED
S315080071303800FFF7F7FE070000E013E001988742E2
S315080071400ED302A8381A80464246D2B202A99DF842
S315080071502000A047002817D118EB090902A8070044
S315080071606D1C3DE702A8381A80464246D2B202A9EB
S315080071709DF82000A047002806D118EB090902A8A7
S3150800718007004846C0B200E0002009B0BDE8F08F0D
S315080071902DE9F84F04000D0016001F00E4B2002C7C
S315080071A001D1212057E0E4B2022C01D1212052E07E
S315080071B0E4B2032C01D121204DE0E4B2042C01D124
S315080071C0212048E0E4B2042C01D3212043E0E4B2B4
S315080071D0DFF84803205C01283CD1E4B2DFF840031D
S315080071E050F82490FBF712FA82460020A9F804000A
S315080071F00020A9F800000020A9F802005046C0B2F5
S31508007200FBF70AFAE4B2DFF81C0350F824008046BC
S31508007210FBF7FCF983460020A8F804000020A8F82C
S3150800722000000020A8F80200E4B2DFF8FC02002102
S3150800723021545846C0B2FBF7EFF9FBF7C1FE3B00F5
S31508007240DBB23200D2B22900C9B22000C0B2FBF7C5
S315080072509BFD00E02120BDE8F28F10B50400200058
S31508007260C0B2FBF790FEE4B2DFF8B80250F824008B
S31508007270808810BD2DE9F04104000D00E4B2DFF866
S31508007280A40250F82470E4B2DFF89002205C0028CB
S3150800729001D101205AE0E4B2DFF88C02205C002814
S315080072A01BD0E4B2DFF8840230F8140079888842EB
S315080072B013D1FBF7ABF98046E4B2DFF86C02205C29
S315080072C00600E4B2DFF86002002121544046C0B24D
S315080072D0FBF7A2F93000C0B238E02000C0B2FBF7D5
S315080072E052FEB888012830D3FBF790F98046788893
S315080072F0C019807928707888401CE4B2DFF830120B
S3150800730031F8141090FBF1F201FB12007880B8886E
S31508007310401EB8804046C0B2FBF77EF9E4B2DFF8FB
S315080073200802205C00280ED0E4B2DFF8000230F82C
S3150800733014004FF6FF71884205D1E4B2DFF8EC017C
S31508007340398820F81410002000E02620BDE8F081D6
S3150800735013B50400012201A92000C0B200F03AF8D2
S3150800736016BD8088C9B2734B33F8111092B2891AC8
S31508007370884201DA012000E00020C0B27047F8B563
S3150800738004000D0016000027E4B26448205C0128BA
S315080073900BD133002A002100C9B20FF23900FFF7DA
S315080073A014FE002801D1012007003800C0B2F2BD42
S315080073B00CB4F8B504000D0006A807003A00290029
S315080073C02000C0B2FFF7DBFF06003000C0B2F2BCF7
S315080073D05DF80CFB2DE9F84304000D009046E4B275
S315080073E04E48205C012843D1E4B24D4850F8246049
S315080073F000274046B0F10108C0B2002832D000226A
S315080074002100C9B23000FFF7ACFF00280AD1FFB24D
S31508007410002F05D02000C0B2FBF721FD0020070091
S31508007420222026E0FBF7F2F88146B088002801D131
S315080074300120070030888019297881713088401C1E
S31508007440E4B23D4931F8141090FBF1F201FB120049
S315080074503080B088401CB0804846C0B2FBF7DCF8E4
S315080074606D1CC6E72000C0B2FBF7F9FC002000E05F
S315080074700120BDE8F283000010B50400E4B22748F5
S31508007480205C012806D1E4B2254850F824008188FA
S315080074900029FCD12000C0B2FBF725FD002010BD55
S315080074A00CB4F8B504000D002000C0B2FBF7F1FCDF
S315080074B006A8060033002A002100C9B21F48FFF7B4
S315080074C084FDE4B21548205C01280AD1E4B21448C8
S315080074D050F82470B888002803D02000C0B2FBF703
S315080074E0BEFC0020F2BC5DF80CFB70B50400E4B2EB
S315080074F00C4850F82450FBF789F806000020A880AD
S3150800750000202880002068803000C0B2FBF784F88D
S31508007510FBF756FD70BD000000780108EC770108FE
S315080075208428002094280020042C0020082C002001
S31508007530F8770108DC770108F0770108A72E00081C
S315080075407047000080B5DFF884020178002904BF7F
S315080075504079802801D0B02002BD01F08FFD05F0EA
