:020000021000EC
:10E000000C94DBF00FB9779BFECF779A08950FEF52
:10E010000FB9779BFECF779A0FB108950FB9779B11
:10E02000FECFF9CF97988F9A08959A938A93FADF43
:10E030008DE491E0C598BD9A11C006E00000000093
:10E040000000000000000A95C9F7C59804E100002F
:10E0500000000000000000000A95C9F7FC010197CC
:10E06000EF2BC59A51F70CE41DE10E9451FAC09ABA
:10E07000C19AC29AB89AB99ABA9A00E50DB901E064
:10E080000EB9979A89919991089501B100720895F6
:10E0900001B10071089500B3F9CF0E94B3FAC9012C
:10E0A00017D0A02F092F66D0082F64D0C09A0A2F4E
:10E0B000E3E03CC09A938A9328D025D0802F23D0C8
:10E0C000C09A982F802F8C01DDCF02D0C09A08957E
:10E0D000C0980F731FC00E94B1FAC801022FB32F5E
:10E0E000C09818D0402EA0E007C010E0FC01EA0F55
:10E0F000F11F00813FD0A395AB17B8F3C09A042D50
:10E10000E5E00C94C1FA0C9407F0C0980F77006416
:10E1100001C000680C940EF011E01093C304F5CF19
:10E12000C09A00E00093C304089502D00C94C3FA8F
:10E130000E9402F00A2FE3E008950E94ADFA1CD07D
:10E1400019F01FD001C029D0882381F01FD02BD017
:10E150000F7D10D0882403C011960CD083948614B0
:10E1600090F70C919923C1F31197F7CF072DE9E0B0
:10E170000C94BDFA0C9402F0D8012901CA01552370
:10E18000089510E0A40FB11F11970895853018F07D
:10E1900004E0602E0895682E0895C09A861910E054
:10E1A000460C511E0895C098042DB3DF702E8201D5
:10E1B00016950795089500E803500DBF04E0004050
:10E1C0000EBFC0E0D4E00E94CDFA002311F00E94FF
:10E1D00001F100E00BBF0E949EF40E9491FA0C94A2
:10E1E00091FA20E008D0E9F708953BBF27913BB7AB
:10E1F00002D0D9F708952D9301501040202F212BE4
:10E2000008950E94AFFA0BB701600BBF0BEC402ED4
:10E210000BEF502E01E0602EF201362D6BBE079100
:10E220001691F201EE5FFF4F3F4F3BBFA791B691B2
:10E23000F201362DEC5FFF4F3F4F3BBF47915791A7
:10E240006691242F252B262B21F0FA01362FCDDFC6
:10E2500001C0C7DF07E0400E00E0501E601EA201B3
:10E26000662D493D5B4F6140B8F20BB70E7F0BBF87
:10E27000E7E00C94BFFA0DE001D00AE0B8C33FD448
:10E28000EEEF3ED036E005EC1AEF21E0F5D180E06C
:10E2900090E0FC01E451FF4E2FD08830C8F335E008
:10E2A0000BEC1AEF21E0E8D180E0FC01E05BFA4FD3
:10E2B00023D08031D0F335E000ED1AEF21E0DCD13E
:10E2C000A4EBB4E00D91D9D10C91D7D10CD31AD4D1
:10E2D00003E6D4DF0091E71014D400E7CFDF00910C
:10E2E000E6100FD409E6CADFEAEE0AD00BD40EE638
:10E2F000C5DFE8EE05D065C70081BFD183950895DD
:10E30000F0E1008111818EC710E008C02FEC37E0EA
:10E3100021503040E9F700C0000013951017B0F30A
:10E32000089520E0622F70E043E050E0420F571F55
:10E330000E949EFAFB01E451FF4E00832395283092
:10E3400088F302E00093E7100FEF0093E61002E07D
:10E350000093E5100FEE1EEBEAEEF0E1008311836F
:10E3600008E017E0E8EE008311837093E41008954D
:10E3700001E10093E21000E004BF08E101BD08E004
:10E3800001BDFFCF9A938A93EF97EF97EF9723976B
:10E3900000E00093B80410E0EEEFF0E11083118389
:10E3A00080E091E0FC0104900196FE01E00FF11F76
:10E3B000008203950C38B0F346E49E0100E072D071
:10E3C000EF96EF96EF9623968991999108956A9228
:10E3D0005A924A92BA937A2F0801D901042FA001C8
:10E3E00060E0440F551F661F552E662E44244030B2
:10E3F00010EE510711E0610758F4002E152E262E5D
:10E40000003010EE110611E0210610F4013810F072
:10E410000BE442C01091680010FDFCCFE199FECFE3
:10E4200013E0F2016BBF10936800E895002379F1C7
:10E43000122F132B61F1102F0091680000FDFCCF0B
:10E44000E199FECF01E02D903D90FA016BBF0101F3
:10E4500000936800E8954E5F5F4F6F4F1A9561F724
:10E460000091680000FDFCCFE199FECF05E0F201CC
:10E470006BBE00936800E8950AC00091680000FD3B
:10E48000FCCFE199FECF01E100936800E89500918F
:10E49000680006FDF2CF00E0A72FB991499059908E
:10E4A000699008956A925A924A92BA93AA939A935B
:10E4B0008A93C8011901042FA0E0B0E0880F991FCA
:10E4C000AA1F592FBD0140E0002309F45AC0403073
:10E4D00010EE510711E061077B0708F054C02A01D4
:10E4E000662E20E8481759076A077B0770F000235B
:10E4F00061F0122D132929F0F101019011901F01F3
:10E5000002C0002411240A9505C0FA016BBF0690D1
:10E51000319616901091680010FDFCCFE199FECF66
:10E5200011E0FA016BBF10936800E8954E5F5F4FF2
:10E530006F4F7F4F2A95B1F61091680010FDFCCF08
:10E54000E199FECF13E0F2016BBE10936800E895ED
:10E550001091680010FDFCCFE199FECF15E01093FB
:10E560006800E8951091680016FFAECF1091680022
:10E5700010FDFCCFE199FECF11E110936800E89502
:10E58000F1CF00E001C00BE489919991A99185CF69
:10E59000B801890140E84623572F60E0440F551F1A
:10E5A000661F20E8FA016BBF0690319636904E5FE9
:10E5B0005F4F6F4FF801019231928F012A9591F7C9
:10E5C000089503D3D90120E8422E4A22532E80E831
:10E5D0008023912F02C080589F4F84159B0748F4D9
:10E5E00040E07ED18C01F3DE102F0023A1F3012F38
:10E5F0000CC04A165B0640F44A2F441971D18201BF
:10E6000051DF102F002399F700E0D7C2BA93AA93E5
:10E6100020E0A4EAB5E00D911C9111970F3F3FEF68
:10E62000130711F018D4202F0FEF0D930C93022F26
:10E63000A991B991089557D156D132E100E81AEF66
:10E6400021E01AD033E00CEB1AEF21E015D000E204
:10E6500014D033E00FEB1AEF21E00ED007E00DD01D
:10E6600033E002EC1AEF21E007D003E315E33CD1DD
:10E670003AE202E91AEF21E0E6C1C0C50E94AAFA17
:10E680002197AA24BB2409E0902E01E1802E0DE5FC
:10E69000402E04E4502E05E7602E0CED702E8DD632
:10E6A000FE96A082A2D105AFA3AEA2AEA882288119
:10E6B00030E045E30FD1FD01E20FFA1D04AB088104
:10E6C00003950883023098F3A882288145E202D19D
:10E6D000F901E05BFA4F008308810395088300315C
:10E6E000A0F304B30C6304BB0AB3006A0ABB0BB308
:10E6F000006A0BBB0CE009B908E10AB90CE0009311
:10E70000990008E100939A00E4D048E050E0E8D096
:10E710008D010A5F1F4F0E94F5FA0E944CFAA895DE
:10E7200001E00E9458FB0E94FEFA05B3037C05BB82
:10E7300018C096ABA895ACD6A1F400E4FD0104AFD7
:10E7400096ABD8D4A895FD01FE969083FD0192AFBB
:10E7500093AF0731990749F490AF14DE04E6D4DD96
:10E7600007DEFD0106AD002339F401AD002311F4ED
:10E7700001E001C000E001AF0FE7A0160AE1B0061A
:10E7800010F124D501F1AA24BB24182D1078880C8F
:10E79000082D872C880C8824881C800E440C551C5E
:10E7A000661C771C012F000F9AD0001F040D151D49
:10E7B000261D371D2801390187FA05B316F4037C9D
:10E7C00001C00C6305BB3DD1802F90E09A9411F4F9
:10E7D00009E0902E01E0A00EB91E8823FD0109F08A
:10E7E000A8CF06AD0023088131F40D3009F0BDCF6C
:10E7F00001E006AF6BC0013309F04BC074D03DE0BF
:10E8000005ED1AEF21E038DF6ED000E8FD0104AF1E
:10E8100002E006AF6FD4802FE8D006AF92AF93AF7F
:10E82000A895082F007631F008E128DD08E126DD03
:10E8300008E124DD4ED008EC00000A95E9F749D044
:10E8400085FF06C050D036E102EE1AEF21E007C086
:10E8500086FF08C048D037E108EF1AEF21E00CDF4F
:10E860008C0142D040D03FE00FE01BEF21E004DFFD
:10E870008731904039F439E00EE11BEF21E0FCDEF6
:10E8800081DD05C038E007E21BEF21E0F5DE2BD08B
:10E8900068CF023349F402E3F1DC1BD03DE00FE224
:10E8A0001BEF21E0E9DE5CCF033321F403E3E6DC78
:10E8B00002D157CF073429F407E4E0DC14D0DFDCC1
:10E8C00050CF0D3019F00A3009F056CFB4DE01D028
:10E8D00048CFB1C050E0420F5A1D0C949EFA10E090
:10E8E00020E030E00895C7CC9DD4FDCF20E000E0CB
:10E8F00032B111E012B9199A12E41A95F1F700C079
:10E9000023B9099B21E032B911B3136011BB12B3D3
:10E91000136012BB18EC00001A95E9F711B31C7FC5
:10E9200011BB4FEC57E041505040E9F700C00000E8
:10E9300010B3137009F401E0022B0895E0D090E0C9
:10E9400004B70091E21081E0E0E0F0E004900FEF06
:10E95000001611F0002009F480E0EEEFF0E10081F4
:10E96000118107321A4F21F49083918391E001C005
:10E97000D8DCA0E8B4E004B700FF07C03AD400AF89
:10E980000093E41090E0CDDC0AC004B703FF07C099
:10E99000FD0100AD013019F400E00093E410A6DFA2
:10E9A000882321F0992311F4002331F01ED000AF09
:10E9B00000E00093E41004C0FD0100AD013061F4FB
:10E9C0005DDEFECF0091680000FDFCCFE199FECF37
:10E9D00001E100936800E8950091680006FDF2CF20
:10E9E0000C94000000E010E0EDC301E003C41091BE
:10E9F000B904112321F45D9BFECF0CB90895109149
:10EA00009B0015FFFCCF00939C00089520E03091FF
:10EA1000B904332331F45F9B02C03CB108C021E04C
:10EA200008C030919B0037FFFACF30919C00F8016D
:10EA30003083022F0895219704D00023E9F3219613
:10EA400008958E01E3CFC1D0D801922F832F4424A3
:10EA500055240AC00BB7FD01E40DF51D9BBF0690C0
:10EA60000BBF002D0BDCACD010E04816510690F324
:10EA7000A4C0EDD4D90100E00DBD0CBD04E00EBD75
:10EA8000A8950091BE04033021F49D018C01E3D4CC
:10EA900002C08C01BBDF002319F400E00EBD0AC0E8
:10EAA0002CB53DB52A173B0758F31A2F1B2B41F302
:10EAB00010E01EBD87C323D0A1EBB5E09D0100E8A7
:10EAC0001FEEF4D010DF0D911C911197012B19F45A
:10EAD000FD01F8D231F03AE00CE31BEF21E0CCDD90
:10EAE0000DC080E0FD017C9690E0E80FF91F0081E9
:10EAF000002321F0C3DB83958032A0F362C30C9422
:10EB0000B2FABBDD00E2BACB432F322F202F2427ED
:10EB1000022F02950F702027022F122F110F110FB5
:10EB2000110F110F31270295007F000F122F16953C
:10EB3000169516950227132708950E94B3FA002E02
:10EB4000042F812F922FA32F0025C9DE48E0080152
:10EB50001901369427941794079400FF09C000E226
:10EB600013E828EB3DEE002511252225332502C0B0
:10EB7000800191014A9559F7082719272A27E3E0D0
:10EB80000C94C3FA22D0D801C9014424552412C0E0
:10EB9000FD01E40DF51D4081E0EAF5E00081118101
:10EBA0002281338186D0E0EAF5E00083118322835D
:10EBB000338306D04816590658F3E6E00C94C0FAA1
:10EBC00001E0400E00E0501E08950C94B0FA0E943F
:10EBD000A7FA580162D0EE2404C0E39406E0E016E0
:10EBE000E0F502E0E09E6001F5017096E00DF11D98
:10EBF00050804424550C26C0A895042D0529F1F019
:10EC000000E840160FEE5006C8F422D182014ED023
:10EC1000662477248301000F111FF801EF54FA4F87
:10EC20004081818044D0482D3DD001E0600E00E05D
:10EC3000701E00E8601600E0700660F300E8400E09
:10EC400000E0501EF501EC0DFD1D1189110F1E5F36
:10EC5000511618F60EEF501678F28C019D01EFE078
:10EC60000C94B7FA0E94AFFA18D0F2D0F8010481E0
:10EC700015811CD0442402E0409EF001EF54FA4F6D
:10EC80004081618014D0462D0DD0439400E240169F
:10EC900090F38C01E7E00C94BFFA8FEF9FEFAFEF9A
:10ECA000BFEF089506D0C801D901089571CC8C0139
:10ECB0009D0143CF8ADF259780E090E00BE3402E53
:10ECC00040D306AD023071F402AD002359F403E4E1
:10ECD000D5DA28E734E87CD081F0042D4A9400236B
:10ECE000B1F70DC004E1402E04C0042D4A94002366
:10ECF00031F02FEF3FEF6CD0C1F7002311F006E1A8
:10ED000061C00881033011F408E15CC00831B9F337
:10ED1000043011F407E156C0013011F001E252C095
:10ED200053D00F5F57D011F006E24CC04DD00E5FAC
:10ED300051D0D1F7442407C001EB16E0040D181F91
:10ED40004AD091F74394FD0104AD401628E734E81A
:10ED500098F38E010D5F3ED039F736D00C5F3AD074
:10ED600019F7442409C09C015524F201EF54F94FCE
:10ED70000081CADEC8014394FD0104AD401698F33A
:10ED8000298130E00A8110E0020F131F0F3F10406D
:10ED900011F002E217C02B81291711F003E212C013
:10EDA0000C81081711F004E20DC0DD960C91198159
:10EDB000101739F00A95101711F407E203C005E2A5
:10EDC00001C009E12596F9CE28E734E88E010895BF
:10EDD0008E0101C01F4F4DDE002308950E94AAFA44
:10EDE000280159014A01A0E02AC080E88421952D1C
:10EDF000E0EAF5E0048115810817150569F00F3F79
:10EE00002FEF120711F027D0A02FE0EAF5E084835E
:10EE100055821ED08C014ADFF501219131915F01AD
:10EE20000FE710E00421000FF801EF54FA4F2083A0
:10EE3000318301E0400E511E0FEF800E901E01E065
:10EE4000801600E090068CF60A2FECE00C94BAFADB
:10EE500021EB35E0089540E8FBDFB9CA0E94ADFA26
:10EE6000C801822EA0EAB5E0FA010081013009F064
:10EE700061C0BFD1008B06870787FA0100835AC0A3
:10EE800030D10087118700FF02C006E407C116D108
:10EE90000085012B09F44CC002E04BC04084518432
:10EEA000082D10E00415150510F4380101C03201D9
:10EEB00093011ED1FD014685578506811781F80112
:10EEC000E450FC4F09F496C0EF5FF04009F44EC0E7
:10EED000EE5FF04009F44AC0EF5FF14009F0E3C093
:10EEE000FC0134970CE3401600E0500631F4EAD000
:10EEF00021F4EDD011F4452B11F005E4CFC040E42E
:10EF000050E09F0100E615E00E94E7FA00E615E0F8
:10EF1000FD0106871787CFD0060D171DC6D006192D
:10EF2000170900871187860D971D8618012B11F48C
:10EF300000E0008B882009F4B0C0A895FD0100898D
:10EF4000002351F00A9509F49BCF0A9509F4A6CF46
:10EF50000A9509F4A2C0EECFC4D006831783AED0C1
:10EF600001E0008B00E002870387E4CFA3D0012BF0
:10EF700041F5452B11F401E491C0B6D00487158703
:10EF8000103F10F008E48AC0A8950681178103306D
:10EF90001D4F59F4158500E01E7F980121503E4F0A
:10EFA00014D1002311F00AE479C084D00E5F1F4F02
:10EFB0007CD0025010400087118780D0600E0FEF88
:10EFC000701E062D072909F4A6CFA8952301569493
:10EFD0004794A2019C010485158500DF002311F0F0
:10EFE0000BE45CC0FD0104851585040D151D048727
:10EFF000158791CF0BDB002399F7FD012085318523
:10F000005AD0402F412B59F446855785452B09F49A
:10F01000B2CF243040E0340711F00CE43FC0A3012C
:10F02000400F511F4217530721F00217130709F031
:10F0300072CFA8954CD0A9F506851785C8DD1E9618
:10F04000ED91FC911F9744855585668577850095E0
:10F05000109520953095401751076207730709F501
:10F06000A895FD012685378540E250E0F90104812D
:10F070001581B4DE002309F4C9DA002331F4FD015F
:10F0800006851785EFDD28D011F002E407C005B32F
:10F09000037C05BB03E0FD01008B09E1E9E00C9472
:10F0A000BDFA03E4FBCF04E4F9CF028713870085A0
:10F0B00011850895FD0102851385089502960EEFCE
:10F0C000800E0895068117810035124E08950D9126
:10F0D0001D912D913C911397033E10422B4B3E4DB9
:10F0E000089522E030E004D0FC011081018182C04B
:10F0F0008C0148CD04DD219701E0088322D105AFC2
:10F10000E0EAF5E00FEF00830183028303830483C9
:10F11000058303C01A9506E065D0A895CBDD802F46
:10F12000FD0154D029F403AD002311F40DE447C0D0
:10F130008931F1F40881002351F028E730E000E044
:10F1400010E043D020EC3FEE00E81FEE3ED071D03F
:10F15000AE01FD0124AD01EB16E080DE802F093108
:10F1600039F437D005AD039505AF01E002AFD5CF37
:10F17000FD0115AD873271F285FB1EF405E132D039
:10F1800015C086FB16F431D014C0873169F41ED047
:10F1900009F432D01ED01AD029F42ED0DD961C915D
:10F1A00006E043D107E10BC0883119F0863109F040
:10F1B000B4CF182F13D012D008E137D1082F2196E1
:10F1C00001C091DBE4E00C94C2FAFBC906AD033048
:10F1D0000895FD0115AD06E028D10CC008E125D148
:10F1E000182F089522D105D006AB05B30C6305BBDB
:10F1F000089500E0FD0108950AE086C88A93802FF3
:10F2000002950F700A3010F0095C01C0005D36D81D
:10F210008F70082F8A3010F0095C01C0005D2ED875
:10F22000899108958A93802F012F27DA082F25DAF4
:10F23000F7CFDBDF00913107002311F4AA980BC050
:10F24000013011F4AB9807C0023011F4AC9803C040
:10F25000033009F4AD98E1E3F7E000810395008302
:10F26000043010F000E000830895F1D00E94E5FB27
:10F27000A89500FF26C0A0E8B4E08C010F5F1F4FE7
:10F280000E940BFBFD0107AB0023D9F012AD112347
:10F29000A9F0013119F48C01065F04C0053189F42D
:10F2A0008C01025F1F4F202F212B59F048E050E0C6
:10F2B00016969D010E94CFFA012B19F48C0103D000
:10F2C00001C001E07FCFBA93AA93980140E039D002
:10F2D00067A963950EE415E0F8016183F901E60F73
:10F2E000F41F50815C3751F55181553639F5528103
:10F2F0005D3621F553E0FD0156AF6C5FF801608388
:10F30000F901E60FF41F00810A9549F0025059F007
:10F310000A9549F0045139F0095339F00CC005E45D
:10F32000FD0106AB0CC001E0FBCFFD0146AB89013E
:10F3300047D0402F04C0FD0146AB01C041E0042F7F
:10F3400077C9A0E8B4E056CFBA93AA93A89535D070
:10F3500026AD223019F40E943EF12EC0028F0630F5
:10F3600021F0053111F0083121F40DE10C93138FD8
:10F370001FC005E30C9301E0038F42E050E09D01C4
:10F380002C5C3F4F8D01045E51D040E150E020E500
:10F3900035E08D01025E4AD02CDF06A701E007A709
:10F3A00002E000AB01E001AB00E202AB07E003AB1F
:10F3B000A8958D010E9435FC3BC9A0E8B4E01ACFA6
:10F3C00046D0FBDF07A90131B1F403AD002389F476
:10F3D00048E03AD0265F33D0285F2BD011850085D6
:10F3E0000E94ABFC0E947FFA169507950E9451FA85
:10F3F0000EC001E019C00531E1F748E025D0225FD9
:10F400001ED02C5F16D0158104810E94ABFC48E011
:10F4100050E02CEE30E18D01025F08D010E002E5F3
:10F4200004D0E3DA03AF00E0CDCE8ECF1F4F0C94B3
:10F43000E7FA3F4F8D010C5FF9DFFC0108953F4F64
:10F440008D010A5FF3DF42E050E09C0108950E94C5
:10F45000B2FAC8010895FBDF00E073DF16A911239B
:10F4600021F416D011F001E012C020914E0530E0D9
:10F47000F901EC53FB4F1081FC011083EEE4F5E041
:10F48000108113951083FD0116A91A9516AB9ACE1B
:10F4900004EC14E0EADEA0CC08E101BD0FE001BD00
:10F4A0000895202F212B11F40895229F0150104020
:10F4B000202F212BD1F70895EFEBF4E0402F0083AC
:10F4C0001183412B21F44FEE5EEB40835183022FD9
:10F4D00022833383032B21F40EEC1AEF0283138370
:10F4E0000895F8014081518157FB16F442275327B4
:10F4F0009A01220F331F208331838A0108959A9342
:10F500008A9322E630E00FEB14E0EBDFC8012BE03A
:10F5100030E101EC14E0E5DF082719278991999182
:10F52000089500008895FECFE199FECF08954F5FC2
:10F530005F4FFADF4EBB5FBBE09A0895FADF0DB371
:10F5400008954A951AF0000F111FFBCF0895EA9213
:10F55000DA92CA92BA92AA929A928A927A926A920B
:10F560005A924A92BA93AA939A938A930895EE84F0
:10F57000DD84CC84BB84AA84998488847F806E8057
:10F580005D804C80BB81AA8199818881F0E00FB6B3
:10F59000F894CE0FDF1F0FBE089501E00895BD015E
:10F5A000D80109C00D91F9011081011751F42F5FA5
:10F5B0003F4F41505040042F052BA1F700E010E0D1
:10F5C00004C010E02081021B1040DB0108950D01F2
:10F5D000D80104C0F90161919F016D93BA014150B6
:10F5E0005040672BB9F7D0010895F80101C021936D
:10F5F000BA0141505040672BD1F70895249722E07B
:10F600008E010E9410FD088119812A813B810E9490
:10F610005CFA24960895F80151812081022F077029
:10F62000033011F000E00895E0E0FCE0F523E05045
:10F63000F84021F0E050F44019F0F4CF07E001C0A9
:10F640000DE0F0ECF523E050F04821F0E050F044FC
:10F6500019F0E8CF0E5F01C0085F26FF0E5F089526
:10F660000A3308F488C10F3510F000EF08952BB766
:10F67000ECE6FBEF31E010E0E00FF11F3BBF06913D
:10F680002BBF08958A9380E001E05BD05CD00E77B9
:10F69000003411F401E00BC003EF11E00150104001
:10F6A000E9F700C0000083958A3070F300E079C16B
:10F6B0000E9415F0E7DF20E032E00CE18DD107E198
:10F6C00048D130E2202F312B07E186D10CE141D126
:10F6D0002FE7202B312F0CE17FD150E048E020E6CE
:10F6E00031E00CEE10E10E949DF050E042E02AE68D
:10F6F00031E008EE10E141D12ED102E12AD12FE311
:10F7000038EF20233123356002E166D103E04BD18D
:10F7100020E037EA04E160D10091E61060D1009169
:10F72000E710D8D009E00DD003D003E00AD023C100
:10F730003AD021F435D00E9407F030D008E001D053
:10F7400008E00C9465F000E0FCCF0E94AEFAD8010E
:10F75000422E80E197E224D066240BC00A2F0B2BA7
:10F7600039F00E9407F07724FD01E60DF71D0083B4
:10F770006394641428F012D000E00DC0019749F0A2
:10F7800067D061F710D0D1F763D0C1F7E4E3F7E0B9
:10F7900062D004D001E0E8E00C94BEFA0C9490F042
:10F7A0000FE30C948CF00E9448F000230895F901B7
:10F7B000003810F4023010F401E008950250019373
:10F7C000202F8F0150D0C1F7D6C082D02197C80119
:10F7D00000E0FC010083E7DF19F000E010E00AC060
:10F7E000A4E3B7E035D039F4FD0135D082E090E0F4
:10F7F0009FDF8C0141C121E08E0135D011F084E002
:10F80000F6CF9C010881D3DF0023C9F721E08D01E9
:10F81000095F28D0A1F721E08D010A5F23D079F795
:10F82000FD01068107FD07C0048115810F5F1F4F91
:10F8300004831583E4CF0F7706830D911C910F5F2E
:10F840001F4F1C930E9306810BDF81E090E0D1CF18
:10F850000E9445F0AACF028113810F5F1F4F0283E0
:10F86000138308951F4F71DFA0CF32D02197D801A5
:10F8700080E000913207FD010383E2E3F7E00081BD
:10F88000039500830D91088309E05BDF04E059DFF5
:10F8900031E02EE38E010E946BF038812EE38D0162
:10F8A0000E946BF0A0E0B0E04EDF03FB7EF4119607
:10F8B000A13107E2B00720F009E043DF89E806C084
:10F8C00042DF05FB8EF709E03CDF88E8082FD4C053
:10F8D0000C94B2FA9A938A9380E090E0003110F091
:10F8E0000AE82FC0009333072EDF03FB16F02CD05D
:10F8F000D8F308E12ED02BB7E7E4FBEF31E04091DD
:10F90000330752E0459FE00DF11D3BBF5691E6E401
:10F91000FBEF6091330772E0679FE00DF11D0690E9
:10F920002BBF3CEF3123202D352B08E155D003E0D0
:10F9300008DF80E090E007DF02FB16F005D0D8F387
:10F9400000E08991999108950196893E03E090071E
:10F9500008950C945AF0EAEEF0E139D050E042E01C
:10F9600028E631E08F0109D00F3F1F4F11F401E06D
:10F9700001C000E009D000E008950E949DF0EAEE89
:10F98000F0E10081118108951BD0882319F00F7ECA
:10F99000177F02C0006118601AD02081318101E117
:10F9A0001BD0899108950CD098012F73082F10E077
:10F9B00046E00E94A1FA022B132B09D09801EFCF49
:10F9C0008A93802F01E10E945AF0ECE3F7E0008374
:10F9D0001183089530E00DE110E00C944DF0003EED
:10F9E00014F40BE808950023E2F72BB7E7EAFBEFE6
:10F9F00031E0402F502F550F550B440F551FE40F8A
:10FA0000F51F3BBF1690E6EAFBEFE40FF51F0690EB
:10FA10002BBF20E230E22029312905E1DDDFABCF29
:10FA200057DFD801922F21E0D5DF15C000E010E0AC
:10FA3000482F0E94A1FAFD0120813181202B312B1A
:10FA40002083318308E210E00E9451FA83958031CF
:10FA500048F09A951296992359F000E00D930C9373
:10FA6000119780E00E944BF0002301F301E0DFCF0B
:10FA700020E0B0DF01E001C02196E4E00C94C2FA7E
:10FA800041565231323820426F6F746C6F61646539
:10FA90007200312E2075706C6F61642065626C0D90
:10FAA0000A322E2072756E0D0A332E2065626C208C
:10FAB000696E666F0D0A424C203E200020760020C1
:10FAC000620020730020457569200020424E20000E
:10FAD000204D492000626567696E2075706C6F610A
:10FAE0006400584D6F64656D20626C6F636B2065B8
:10FAF00072726F7220307800646F776E6C6F616421
:10FB00002066696C65206572726F722030780053D0
:10FB1000657269616C2075706C6F61642000636F41
:10FB20006D706C6574650061626F7274656400610C
:10FB300070702072657365742E2E2E004E6F7420C7
:10FB40007661696C640065016A016F017401790175
:10FB50007E01830188018D01920197019C01A10121
:10FB6000A601AB01B0014300C300C301834043C001
:10FB7000C3C083C18400440145404580C580C58120
:10FB800086C147C0C7C04A804B40C881CAC1CB812B
:10FB90004F804DC151C0D1C094805980D7C0D7C1CA
:10FBA000DAC15EC1DFC101020304070C10151B227C
:10FBB0002A30363D43494E5B758DA0B1BDC9D2D9BF
:10FBC000DDDFDFE3E7EBEDEEEFEFEF7B02C30400F9
:10FBD000000043008004D9FB010063CC00FFFFFF5D
:10FBE000FFFFFFFFFFFFFFFFFFFFFFFFFFFFFF7CA8
:10FBF000656D010000FF11FF112233FF556677FF8D
:10FC000099FFFFFFFFFF110000000000000000004F
:0CFC10000000010000000000EFBECEFA72
:04FFFC000720333572
:00000001FF
