S0110000656D3236302D756172742E73333790
S3150800200090260020ADA2010829A201082BA20108EA
S31508002010A70A080100210008040503AC00505F0068
S3150800202000000000000000000000000000000000A2
S315080020300000000000000000000000000000000092
S315080020400000000000000000FFFFFFFFFFFFFFFF8A
S31508002050FFFFFFFF00E0010800000000000000008D
S31508002060FFFFFFFFFFFFFFFFFFFFFFFFFFFFFFFF72
S31508002070FFFFFFFFFFFFFFFFFFFFFFFFFFFFFFFF62
S31508002080F02F002000000000EB2F0020EB2F00208F
S315080020909026002078C90108FCC20108381F0020D4
S311080020A0180C0020000002080030002088
S3150800210090260020ADA2010829A201082BA20108E9
S315080021102FA201082DA2010831A20108A8A20108D0
S31508002120A8A20108A8A20108A8A20108A8A2010855
S3150800213033A20108A8A2010811C20108B55E000869
S3150800214091A10108A8A20108C5510008A8A2010882
S315080021500796000893350008A8A20108A8A2010856
S31508002160896B00086B410008E158000899B300081C
S31508002170A8A20108EBA001083DA101081B630008FD
S3150800218015980008A8A20108A8A20108A9A2010892
S3150800219010B501F007010368012405E010B501F048
S315080021A00301890003680F248C40A34302FA01F156
S315080021B01943016010BD000038B500F0CBF804469D
S315080021C000F0C8F8054600F0C5F805F00F0500F060
S315080021D00102182C28BF362038D20120A04010F45E
S315080021E0F05F18BF382031D1E00803D0022807D0A5
S315080021F003D309E02146484804E02146474801E060
S3150800220021464748FFF7C4FFA00805281DD8DFE880
S3150800221000F003070B0F13172A462146414812E020
S315080022202A46214640480EE02A4621463F480AE00B
S315080022302A4621463E4806E02A4621463D4802E00F
S315080022402A4621463C48FFF7A9FF0020BDE8324050
S3150800225000F087B810B501F00301890003880F2440
S315080022608C40A34302FA01F11943018010BD2DE900
S31508002270F84300F06FF8044600F06CF8054600F0E5
S3150800228069F8064600F066F8074600F063F805F0B8
S315080022900F0206F0010507F00F0800F00109182CD7
S315080022A028BF36202BD2012707FA04F010F4F05F76
S315080022B018BF382023D1A6102146204800EB460037
S315080022C0FFF7C8FF424621461D4800EB4600FFF7C8
S315080022D0C1FFE0101B49421804F0070107FA01F391
S315080022E0DB4314781C408D402C431470164A801822
S315080022F002781A4009FA01F1114301700020BDE87D
S31508002300F24300F02EB880B500F04FF80F490840A8
S315080023100F49086001BD00000CB000400CB4004035
S315080023200CB8004000B0004004B0004000B40040C3
S3150800233004B4004000B8004004B800409C270020C0
S31508002340A82700209027002094270020FFE1FF00FF
S31508002350B427002028480168491C016011F8010DBE
S31508002360704726490A68264B1B68D31A852BB8BFBF
S3150800237010700868401C0860704710B50446C0B263
S31508002380FFF7EFFF200A67E010B5FFF7E3FF044603
S31508002390FFF7E0FF04EB002080B210BD10B504463D
S315080023A080B2FFF7EAFF200CC5E010B5FFF7ECFF97
S315080023B000F06CF804EB004010BD38B505460F4C2C
S315080023C023680F4A12689A1AAA18862A03DA024656
S315080023D0184600F0FCF820682818206031BD38B58A
S315080023E004460846044D2246296800F0F0F8286895
S315080023F02018286031BD0000942B0020982B00205F
S31508002400FC27002070B504460D46002604E0FFF7B9
S31508002410BBFF25F81600761CF6B2A642F7D370BDA8
S3150800242010B5044621460820FFF7D9FFFFF7ACFF91
S315080024302081FFF78FFFA072FFF78CFFE072FFF78E
S3150800244089FF2073FFF7A0FFE081FFF783FF207461
S31508002450FFF7ABFF606110BDBDE8104081E710B51E
S3150800246000F014F82080FFF78FFF6080FFF772FFF7
S315080024702071FFF76FFF6071FFF786FFE080FFF7B7
S3150800248083FF2081FFF766FFA07210BD04467BE735
S3150800249010B50446FFF75EFFA070FFF775FF2080B2
S315080024A0211D0820FFF79BFFFFF754FFE070FFF799
S315080024B051FF2073FFF74EFF607310BD10B5044639
S315080024C0214600F004F82069BDE8104066E71020B0
S315080024D073E710B5044621461020FFF780FFFFF783
S315080024E064FF206110BD10B5FFF7D0FF208010BD36
S315080024F0207936E710B50446FFF7CAFF04F1100045
S3150800250000F01CF804F11C010820FFF768FFFFF72C
S315080025103BFFA0842434FFF737FF6080FFF71AFFDC
S315080025202071FFF717FF6071FFF714FFA071FFF71F
S3150800253011FFE07110BDBDE810401EE710B5044656
S31508002540FFF733FF2060FFF730FF6060FFF71CFFDF
S31508002550208110BD10B500F011F8A088FFF70DFF17
S31508002560E088FFF70AFF2089FFF707FF6089FFF772
S3150800257004FFA089FFF701FFA07B6DE704462068EA
S315080025800CE710B50446FFF710FF2060FFF7FCFEC6
S31508002590A080FFF7F9FEE080FFF7F6FE2081FFF73F
S315080025A0F3FE6081FFF7F0FEA081FFF7D3FEA0736C
S315080025B010BD10B5FFF7E2FFFFF79AFF611DFFF7A1
S315080025C086FF04F115011020BDE81040F5E68142AA
S315080025D033D21018401E5118491E10E0121F11F868
S315080025E0013900F8013911F8013900F8013911F8F3
S315080025F0013900F8013911F8013900F8013992B2A8
S31508002600042AEBD292B2002A1EBF11F8013900F84B
S315080026100139521EF6D17047121F11F8013B00F816
S31508002620013B11F8013B00F8013B11F8013B00F8AA
S31508002630013B11F8013B00F8013B92B2042AEBD2A8
S3150800264092B2002A1EBF11F8013B00F8013B521E48
S31508002650F6D17047130003D00A46194600F020B891
S31508002660704710B500E0521E92B232B110F8013B25
S3150800267011F8014BA342F6D00FE0002010BD10B5AB
S3150800268000E0521E92B232B110F8013B11F8014B2C
S31508002690A342F6D001E0002010BD181B40B210BDC1
S315080026A062F30F2262F31F42401810F0030308D0AA
S315080026B0C91A1FD3DB0748BF00F8012D28BF20F829
S315080026C0022D130030B414461546103928BF20E9E8
S315080026D03C00FAD8490728BF20E90C0048BF40F853
S315080026E0042D890028BF20F8022D48BF00F8012DC7
S315080026F030BC7047C91818BF00F8012DCB0728BF92
S3150800270000F8012D7047000038B50446607800EBE4
S315080027104000001900F110056878207100F088F96A
S31508002720A9780818A060A9782A788B18212B09DBC4
S315080027304942081800F21F00E0602878A978203975
S31508002740081803E01018401EE0600020287031BD0C
S3150800275038B50446607800EB4002121902F11005FC
S315080027602A78BAB12079DFF8AC120968405C207182
S3150800277000F05EF9A0602978212905D300F21F0030
S31508002780E0602878203803E00818401EE060002042
S31508002790287031BD401C0FF2842232F8111090FBCC
S315080027A0F1F201FB12006070E078401CE070A0783E
S315080027B0401EA070A07818B12046BDE83240A3E7B5
S315080027C0A06031BD2DE9FC4E0400894692469B4621
S315080027D018BF022C31D0032C18BF042C2DD02CD2B4
S315080027E00FF24020205C022827D1DFF82C5205EB97
S315080027F08406F76800F0CAFC0021B9703970797050
S31508002800F970FF2139710021B960F96000F0C4FC44
S31508002810F66900F0BBFC0021B180318071806155FA
S3150800282000F0BAFC00F0B4FE5B4652464946204624
S3150800283002B0BDE8F04E00F0B3BC2120BDE8F68E2C
S315080028402DE9F04188460446DFF8CC5105EB8401B2
S31508002850CE690FF2D011615C09B9012037E005EBAA
S315080028604407615D61B1B9887288914208D100F068
S315080028708DFC665D0021615500F08EFC304626E031
S3150800288000F086FDB08808B300F080FC71888919CD
S31508002890897988F800107188491C0FF28C1232F871
S315080028A0142091FBF2F302FB13117180B188491EC3
S315080028B0B18000F071FC605D30B1B8884FF6FF71E9
S315080028C0884204BF3088B880002000E02620BDE892
S315080028D0F0812DE9F84F80460E4617461C46FF2E16
S315080028E049D0002C45D0C3460FF238101BF800001B
S315080028F0022840D1484800EB8B00C56800F046FC2A
S3150800290095F8029095F803A000F046FC0FF20C101B
S3150800291030F81BB00AEB090058450BDBBAF1000F7B
S3150800292002D000F037F805E0222025E03948006893
S31508002930365C203FFFB2202FF8D2304600F0DEF892
S31508002940287800EB4000401900F8104F4670877051
S315080029502878401C90FBFBF10BFB1100287000F057
S3150800296015FCA978491CA97000F016FC404600F031
S315080029706EFC002000E00120BDE8F28F914206D2ED
S315080029800FF2980333F810000818801A00E0881A26
S31508002990C0B270472DE9F04700240FF280080FF205
S315080029A0840914F8090002282DD11B4800EB84007D
S315080029B0C768F87838B300F0E9FB8246FD7800204E
S315080029C0F8702A467978E0B2FFF7D8FF06465046EF
S315080029D000F0E2FB14E000F0D9FB824606EB460065
S315080029E0C019407C00F098F8504600F0D5FB701CE2
S315080029F038F8141090FBF1F201FB1206F6B26D1EC0
S31508002A00EDB2002DE7D1641C042CCADBBDE8F087C3
S31508002A1000000000CC2600209026002000000200BE
S31508002A200000000000020000000040000000000056
S31508002A30DFF81817096801EB40107047DFF8102710
S31508002A401268815470472DE9F041040032D000F035
S31508002A509DFBDFF80017DFF80057DFF80027FF2394
S31508002A601678FE2E1DD100261670DFF8F466377824
S31508002A702F700027DFF8ECC609E007F1010E07F80A
S31508002A8008E0DCF8008007F808305FFA8EF796F859
S31508002A9000E0D1F800807745EFDB0EEB080606F874
S31508002AA0013C2E78A64207D200F076FB00211B20B7
S31508002AB000F012FEFF201FE0361B2E701578DFF897
S31508002AC0A8761678D7F800C04FF0010E06F80CE085
S31508002AD0D1F800C016F80CE082F800E0641EE4B2F3
S31508002AE0002CEED106F80C30DFF8641609680022CF
S31508002AF06A5400F051FB2846BDE8F08110B504463B
S31508002B0000F044FBDFF860160968625C521C6254E8
S31508002B10BDE8104000F040BB2DE9F041044600F046
S31508002B2032F8054600F032FBDFF83026DFF82836A3
S31508002B30DFF82066DFF8308611E03168615C00272F
S31508002B4004F80E701F787F1C1F70D6F800E01778FF
S31508002B5004F80E701470FF2904D12C46FF25FF2CAB
S31508002B6001D10CE00C46D8F80010675C7F1E67544C
S31508002B70D8F800E014F80E107F273942DDD0BDE8FA
S31508002B80F04100F009BB80B5DFF8DC150968415C47
S31508002B90090603D5FFF74CFF007802BDFF2002BDEA
S31508002BA0BCB504460D46FFF7EEFFFF2818BFFFF732
S31508002BB0B3FFDFF8B475FF2D04D13868215C01F046
S31508002BC07F0106E02846FFF799FF3868215C41F047
S31508002BD0800121542046FFF72BFF0570B3BD0EB4C4
S31508002BE030B504460120FFF72EFF0546FFF720FF04
S31508002BF0FF2D08BFFF200FD0DFF8541509686C5465
S31508002C0003A9002204E051F8043B00F8013B521CDA
S31508002C10D3B2A342F7D3284630BC5DF810FB70B593
S31508002C2082B004460D4605F11F0000F037F9064646
S31508002C30FF2E0DD0DFF81805006835543CB1012089
S31508002C4000902B4600223146204600F003F8304615
S31508002C5076BD0000F2B582B0054616461F46089CAA
S31508002C600846DFF8EC140968405CB919884204DAAA
S31508002C7007B54FF4B07100F0D6F85FB1314602A837
S31508002C8000F0D5F800943B4602469DF80810284601
S31508002C9000F001F8F7BD2DE9F843054689461646C2
S31508002CA01F46DFF8B084089C0BE04A5D0A54491CAD
S31508002CB0B142FADBBF1B7519D8F8000019F8009065
S31508002CC00026FFB2BFB14846FFF7B2FE3018F11929
S31508002CD02029B2BF3E46C6F12006F6B2324624B9CE
S31508002CE001462846FFF773FCE4E7012C08BF29468E
S31508002CF0F8D00021DCE7BDE8F1832DE9F04182B088
S31508002D000446884616001F46DFF844040068255C1A
S31508002D100ED07119C9B2204600F04FF808B1182034
S31508002D2007E0009733462A4621464046FFF792FFBA
S31508002D300020BDE8F6810123DFE70A4600E0521CC1
S31508002D401378002BFBD10223521AD2B2D5E7F8B575
S31508002D50044601F11F00C5042D0E02F11F00C00430
S31508002D60000E05B9012500B90120854223D0DFF8F8
S31508002D70E463854210DA401BC0B2FFF764FE0746DB
S31508002D80FF2F01D10020F2BD691EC9B2204600F00E
S31508002D9026F8316847540EE08A420CD2411EC9B261
S31508002DA0204600F01CF804463068205CFFF7B4FEA5
S31508002DB03068FF2121540120F2BD70B504460D4646
S31508002DC0DFF88C632A463068215C2046FFF7BFFF90
S31508002DD018B130682554002070BD182070BD04E075
S31508002DE0491EDFF870231268805CC9B20029F7D142
S31508002DF07047000011B581B00C46DFF85413096816
S31508002E00405C844204D307B54FF4F47100F00BF824
S31508002E10214601A800F00BF804469DF80400FFF7C8
S31508002E2007FE201816BD0FF2543000F059BC38B50D
S31508002E3004460D46E904090E2078FFF7D0FF2070F6
S31508002E4005F01F0032BD80B5FFF7D4FF007802BD3C
S31508002E5010B51446FFF7CEFF047010BDF0B583B069
S31508002E600446DFF8EC522868265CFF2C04D107B527
S31508002E704FF40271FFF7D7FF06F11F0000F00EF8B6
S31508002E800746FF2F09D028683E540096002322469D
S31508002E900021384600F0DAF83846FEBD0004400D39
S31508002EA0C0B2D0E5F8B504460D4616460120FFF730
S31508002EB0CAFD0746FFF7BCFDFF2F01D1FF20F2BD73
S31508002EC033462A462021201800F01FF8A049096831
S31508002ED0201878543846F2BD10B582B004AC009478
S31508002EE000F001F816BD10B514461A46029B091BD8
S31508002EF0C9B22018BDE8104007E00CB480B502AA94
S31508002F00FFF7D0FF02BC5DF80CFB2DE9F0478046C1
S31508002F1016469946C24600250C460AE03A465046E9
S31508002F20FFF755FBBA44E819401EC5B2681CC5B27E
S31508002F30761CA5423CDA3078002839D0312818BFEB
S31508002F4032280ED159F8041B0AF8011B3228EDD194
S31508002F50681CC5B2AC42A4BF08120AF8010BE5DA30
S31508002F6026E0342811D159F8040B291D8C421FDBA1
S31508002F700AF8010B010A0AF8011B010C0AF8011BE1
S31508002F80000E0AF8010BE81CCFE759F8041BA0F15C
S31508002F903302072A38BF303806D3A0F14102072A80
S31508002FA034BF373859F8040BC7B27819A042B5DBD5
S31508002FB0AAEB0800C0B2BDE8F0876848FE21017098
S31508002FC070474178007800EB012080B270470170A5
S31508002FD0090A4170704770B500F02DF800F005F841
S31508002FE0007800EB062080B270BD06782946204698
S31508002FF000E700B583B08DF80420120A8DF8052085
S315080030000122009202231BE0F8B500F014F8FFF73E
S31508003010ECFF0778E91CC9B2FFF7E9FF007817EB60
S3150800302006260702A91CC9B2FFF7E1FF0078C019F6
S3150800303006EB0040F2BD04460D46691CC9B2D9E646
S315080030400A46014601A8FFF705FE07BD2DE9F54129
S315080030501F46089CA4B24CB3254689B200A8FFF7C0
S31508003060E6FE0646B9B201A8FFF7E1FE0746304676
S31508003070B84238BF3846C0F12000C0B2A842B8BF2F
S3150800308005469DF80400FFF7D3FC80469DF800002E
S31508003090FFF7CEFC2A4607EB08013018FFF797FA28
S315080030A0641BA919EF19A4B2002CD5D1BDE8F38188
S315080030B070B504460D4600F069F82A4A1268237866
S315080030C0FF2B08BFAD5403D09B181E78AE541D7055
S315080030D02570BDE8704000F05FB838B5044600F0CA
S315080030E055F82178FF22FF2908BFFF2507D01D4B79
S315080030F01B68CD5C8D420EBF2270EA5CCA5400F094
S315080031004BF8284632BDF8B504460E46002500F0B1
S315080031103DF82178FF2915D00A460125114B1B6871
S3150800312002E03A466D1CEDB2D75CB74208D1FF5CA7
S31508003130D754B14206D18A4208BFFF22227001E065
S315080031408F42EED100F028F82846F2BDC0260020AE
S31508003150C4260020CC260020BD260020BA27002041
S31508003160BC260020D0260020C82600200078FF288C
S3150800317001D1012070470020704700007061636B21
S3150800318065742D6275666665722E6300EFF31180AD
S31508003190602181F31188704780F311887047000019
S315080031A010B5012851D1132907D20FF2544030F92E
S315080031B011404FF0FF30844201D1202010BDDFF8C6
S315080031C00004002C04D519B161428166012101E091
S315080031D084660021C166190907290CBF002102214E
S315080031E0012A08BF41F0180103D0022A08BF41F09E
S315080031F0080103F00F02022AA8BF41F00401C165C5
S3150800320001214165DFF8BC13496801F20601016036
S3150800321001F11F02426001F1200282603F31C16064
S3150800322003210163DFF8A0134FF6FF720A60DFF887
S315080032309C23202313600A6C42F4C0620A64C16DA1
S3150800324041F02101C165002010BD212010BD0128D3
S3150800325000D0704710B5DFF87803006801280ED152
S31508003260FFF794FF0446DFF86C03016841F4C05188
S3150800327041F00401016000F025F9204612E110BD75
S315080032807047F0B5DFF83C03406800F206010022FB
S315080032900023DFF84C436280A2802270DFF82053B7
S315080032A010262E63296001F11F066E6001F12006C3
S315080032B0AE6001F13F07EF608788402F2DD0078861
S315080032C007EB010C202F39BFC5F800C00122C5F84D
S315080032D008C00123B0F802C05FEA5C1EF44618BFB6
S315080032E04FF0010C5FEA571E774618BF01275FFAB1
S315080032F08CFCFFB2BC4508D1808821280ED2D8079D
S3150800330052BF521C012020705B1CD2B20AB10120A8
S315080033102863DBB20BB102202863F0BD2960AE60DA
S31508003320F0BD70B504464FF4C06004422FD0A548DE
S3150800333040684088AB4D202802D22968C90708D4BE
S31508003340202802D32868800703D4286B4008400049
S31508003350286314F4007602D02868C00604D46005F1
S3150800336006D52868800603D50021122000F0B4F996
S3150800337016B12868C00504D4600508D528688005F4
S3150800338005D500211320BDE8704000F0A5B970BD31
S31508003390012800D07047F8B58A48406888490A6B02
S315080033A0D2B20E6A4C6A8E4B5F888F4DB6B2B74260
S315080033B011D0F71BBFB2B0F804C0BC44A0F804C0D3
S315080033C0B0F800C06744B5F802C097FBFCFE0CFBDA
S315080033D01E7707805E809E88A4B2A6420FD0A71BE0
S315080033E0BFB28688BE1986800688BE196D8896FB88
S315080033F0F5F705FB176505809C8000241C708488FA
S31508003400212C32D284880CB9012410E0448865093D
S3150800341018BF01250488641E2404640D18BF0124FE
S31508003420EDB2E4B2A5421DD185F001046DB11D7857
S315080034305DB9D50709D400F206050D6000F2250529
S315080034404D6000255D8001250D635CB1920709D4A6
S3150800345000F226028A6000F24500C86000209880C3
S3150800346002200863BDE8F14000E0F1BD10B55A4CF2
S31508003470E06A00F06100202813D1FFF787FE514962
S3150800348049684988202902D22268D20704D420290B
S3150800349006D32168890703D5E16A41F00101E16293
S315080034A000E010BDBDE81040FFF776BE4B48C16886
S315080034B0012904D10068800900F001007047002046
S315080034C07047000070B549484568A878F8B9A868F3
S315080034D0E8B107B54FF49C610FF21C1000F000F933
S315080034E015E0A9683160E96871604FF40061016010
S315080034F0042030622078FF2818BFFFF70DFB2879D3
S315080035002070FFF7FBFA01212846FFF721F9384C0E
S31508003510384EA87810B3A86810B92846FFF7F4F80B
S315080035202948316A490702D4F1694907D9D5316A68
S31508003530090713D4F169090710D4A968B160E968C5
S31508003540F1604FF480510160082030626078FF28EE
S3150800355018BFFFF7E1FA28796070D2E72078FF25CF
S31508003560FF2808D0316A490705D4F169490702D40A
S31508003570FFF7D2FA25706078FF2808D0316A090764
S3150800358005D4F169090702D4FFF7C6FA657070BD5C
S3150800359077E610B50C480168026C02EA010404607B
S315080035A046F2297004421CBFA0B2FFF7BAFE41F6E4
S315080035B0D60004421CBFBDE81040FFF783BF10BD0C
S315080035C000C80040AC26002008A8004000E100E042
S315080035D054C8004048A8004030C8004048C80040C9
S315080035E0782F00202CC8004004C301089C26002020
S315080035F0B827002010C80040756172742E63000059
S31508003600409C204EEBCB10278813C409E204BFFC6C
S31508003610710260FEC8FEF00030FF9C00780068006A
S3150800362034001A000D00000010B5244C08220021B1
S31508003630201DFFF70FF800F07BF9207000F078F9ED
S31508003640607000F075F9A0701D480078E07010BD34
S3150800365010B500F073FB1B4C6178884203D008460E
S3150800366000F064FB48B900F06CFB014694F90600CB
S31508003670814204D000F069FB08B1012010BD6088C2
S3150800368000F0FBFFA08801F000F82078012818BF99
S31508003690002000F0DCFF002010BD10B50A4C002009
S315080036A0207001F048FA00281CBFBDE81040FFF75B
S315080036B0CFBF2046BDE8104001F070BAF02C0020BC
S315080036C035270020EA270020E82C00200020704734
S315080036D0702070470020704701F07ABB42DE7047C1
S315080036E038B504460D4601F0A4FBFFF74FFD294601
S315080036F0204601F007FC29462046BDE83440EDE7A0
S315080037002DE9F0414FF42065DFF8E061371DDFF859
S31508003710E00101687965016AB965DFF8D8110968B9
S31508003720F965416A3966816A7966C16AB966016B63
S31508003730F966806B386797F8340040074CBFFC6B16
S31508003740BC6B01F0C0FD3865DFF8AC11DFF8AC21C1
S31508003750DFF8AC31A04238D2A34236D3183454F835
S3150800376004EBC7F840E054F804EBC7F844E0D7F890
S3150800377054E04FEACE5E4FEADE5EBEF1060F2AD16E
S31508003780D7F840E0964526D38E4524D2BEF800E009
S315080037904DF64268C6451ED106F18C05D6F804E0FA
S315080037A0C5F804E0D7F804E0C5F808E054F8045B67
S315080037B0756054F8045B7D6054F8045BBD6054F88A
S315080037C0045B7D6340F2017505E04FF0000EC7F813
S315080037D040E0C7F844E0001D984204D2D0F80080C3
S315080037E0B8F1CD3FF7D0181AB8640020F86406EB94
S315080037F0800C4FF0000ECCF878E0401C0628F6D373
S31508003800386C00283AD0002004E0C0B206EB800EDF
S31508003810CEF878C0A3422CD353F804CDE646964595
S31508003820F8D38E45F6D25FEACC7EF3D54FF0000E7C
S3150800383006EB8E08D8F87880E04504D00EF1010E24
S31508003840BEF1060FF4DBBEF1060FE3D1002814BF64
S31508003850401E0520D9E77B6F4FF0000E06EB8E0160
S31508003860CA6F8A670EF1010EBEF1050FF6DBC6F8C0
S315080038708C300146481EC9B20029ECD1786DC005C6
S31508003880C00D02280AD0032816D0042817D0052808
S3150800389018D0062819D00C281DD01FE0DFF86400C0
S315080038A00168890748BF40F602151CD40068C0079E
S315080038B019D540F2025516E040F6012513E040F608
S315080038C0022510E040F603250DE0B5F5206F0AD174
S315080038D040F6042507E040F6052504E018B124283B
S315080038E038BF40F607252846BDE8F08100000020CD
S315080038F004ED00E000E300E0FCC2010890210008A6
S31508003900902600201CA0004081B209B94BF6EF6151
S315080039100E4A1180000C08BF4FF6CE205080704723
S315080039200288130448BF4A40510001801046704778
S3150800393038B5064C62212046FFF7F2FF054641F2EC
S315080039400B01A01CFFF7ECFF684032BD42270020A0
S31508003950DFF8DC3433F810001040C840704730B543
S31508003960DFF8D0340FF27C5434F810409C60DFF84E
S31508003970C04434F81050954311402943D9600222B7
S315080039801A6000221A6024F8101058680028FCD122
S3150800399030BDDFF8A404DFF8A4148A780AB14978A0
S315080039A00FE089566FF008029142B8BF302108DB54
S315080039B0C16D39B140F24A31C26DB1FBF2F189B23B
S315080039C0C91E01607047E0B50A237F22DFF870043C
S315080039D000F062F84FF6FF72BDF806100D20FFF7EB
S315080039E0BEFF07BDF8B50546DFF85044B5F5004FEC
S315080039F019D102237F22DFF84C0400F04DF8BDF8F8
S31508003A000000000AFF2814BF002818206070BDF8BF
S31508003A1000000006C00E10281CBF001D00F095F916
S31508003A20BDF80000C543E07808B1002005E0A0898C
S31508003A30ADB26840C00701D50120E070A58105F048
S31508003A400106C5F34007DFF80004016841F40041A8
S31508003A5001604FF440520FF2B04000EB4600407848
S31508003A60010389B20220FFF77AFF304601F05EFCB7
S31508003A704022B90100F000FA2D06A80E00F0010058
S31508003A803843A070FFF785FFE07818B1FFF79BFF72
S31508003A900020E0700020F2BD018800A801F0BEBC3D
S31508003AA0DFF89803808970472DE9F04F87B0DFF873
S31508003AB09C53287804900B38C0B203900423039AC9
S31508003AC00B2100A801F06DFD9DF800008DF80A0095
S31508003AD09DF801008DF809009DF802008DF8080090
S31508003AE09DF803008DF80500D94E3078012804D1D9
S31508003AF06878471EBF41FF0F00E0012701F0BFFFAE
S31508003B0080469DF90200A8F10A0408F10A0A504500
S31508003B10B6BF84424FF0010B4FF0000B012003990A
S31508003B208840ADF806009DF80100000604D4A88870
S31508003B30BDF80610084201D04FF0010B02F034F828
S31508003B409DF8030000060AD4E888BDF80610084266
S31508003B5005D19DF900005045B8BF844202DB4FF0FD
S31508003B60010901E04FF000094BEA070059EA000095
S31508003B7000F09B80B748006800F002008DF804004A
S31508003B80DFF8D4A2DAF8000000F4E0600590B34844
S31508003B904FF4E0610160002000F0C8FD02F0AEF9C4
S31508003BA0AF4CA7B1687850B1AA48006840084000F1
S31508003BB0A84908600120307002F075FA07E020680D
S31508003BC040F400502060206820F48050206030784F
S31508003BD001280CD102F043FB9E48006840F0010022
S31508003BE09C49086000203070642002F05CFA2FB10E
S31508003BF0687818B90498C0B202F03EFC687838B103
S31508003C00206820F480502060206840F4005020602E
S31508003C10BDF80600C643BBF1000F08D002F01AFD36
S31508003C208DF801008DF80280A8883040A880B9F187
S31508003C30000F08D002F0B5FD8DF803008DF800805E
S31508003C40E8883040E8809DF900009DF90A1088420E
S31508003C5002BF9DF801009DF8091088420BD19DF915
S31508003C6002009DF90810884202BF9DF803009DF8DE
S31508003C700510884206D0042300AA0399C9B20B206E
S31508003C8001F0B6FC0598CAF8000001F0EBFC9DF8B7
S31508003C90040000F04BFD02F0A8FE687828B148F24F
S31508003CA060702060642002F0FEF99DF8010002F0C1
S31508003CB03BFC9DF8030002F06FFD07B0BDE8F08FEE
S31508003CC080B501F0D8FEBDE80140EDE601F0D3BEAF
S31508003CD070B50646A6F10B0400F040FC0546A6F1B1
S31508003CE00B00C0B2102801D38A2070BD5D488168D8
S31508003CF0090702D40068C00701D58C2070BD534857
S31508003D00067059490A680C2A0ED0A4B20FF26C1232
S31508003D1032F8242090F908008018C861FFF7C4FE1D
S31508003D20012D08BF00F0AEFB002070BD10B504469B
S31508003D3001F0A1FE2046BDE81040C9E743480078D7
S31508003D4070473E4890F9000070472DE9F04186B06B
S31508003D5006466FF02A00864246DB14237F22434834
S31508003D60FFF79AFEBDF810004FF6FF71884203D0A0
S31508003D70400448BF012506D43F2200211020FFF742
S31508003D80E7FD044600252D48394906F12B02D2B233
S31508003D902F2A1AD213220FF2241300E0521ED2B28F
S31508003DA013F91270BE42F9DB03EB420676780E6011
S31508003DB013F8121001700020002680460327ADB1C3
S31508003DC04FF6BF72BDF8101029E0092E0CDA325CE6
S31508003DD00A60067014237F222648FFF75DFE03203B
S31508003DE00126B0462827EAE78B201DE04FF46052EB
S31508003DF0C10200F041F84FF4E062310200F03CF8ED
S31508003E0080224FEAC81100F037F884F020003C18E9
S31508003E10A4B2402C28BF3F243F2284F0200100F0A2
S31508003E202BF8FFF7B6FD002006B0BDE8F0810000CC
S31508003E30A42B0020E810004064100040C82700208A
S31508003E40FCC501080EC601081C100040BC2700204E
S31508003E50152800208020004000E100E080E100E015
S31508003E60D010004060200040AC100040F8C50108A2
S31508003E70C0100040FAC501080B2070E5AA212900E8
S31508003E805523290000252800AA262700552827009B
S31508003E90002A2600AA2B2600552D2500002F2400CF
S31508003EA0AA3024005532230000342200AA35220005
S31508003EB05537210000392000AA3A2000D500E6012E
S31508003EC0EC02EF03F204F405F506F707F808F9091A
S31508003ED0FA0AFB0BFC0DFD0FFE11FF130016011964
S31508003EE0021C031F10001100200030004000410092
S31508003EF050006000700080009000A000B000C00074
S31508003F00D000E000F000000000000103DFF88C0894
S31508003F10417A39B1017A012904BFC07A042801D14E
S31508003F200120704700207047DFF87408016821F403
S31508003F3080510160DFF86408017881B100210170C1
S31508003F40DFF860180A68520852000A600A6842F0E8
S31508003F5001020A6000228169402002F095BD70477F
S31508003F600FF6DC01405C7047010603D54FF67F71FA
S31508003F700840C00070478001B0FBF1F080B2FF280E
S31508003F8088BFFF20C0F1FF00C0B2704738B5DFF820
S31508003F900C08817A012901D1002032BDDFF80C48CE
S31508003FA0617871B1E178807B4518ADB22079854298
S31508003FB028BF0546FFF7BCFC0121A940491E084059
S31508003FC000E0002061790818C0B232BD0000000088
S31508003FD02DE9F0470446C00704D507B540F2651138
S31508003FE000F04CFADFF8C857286DC00748BF8C2088
S31508003FF000F19180DFF8A467002030733070DFF895
S31508004000AC773878A0B12078122818BF0C280BD1C5
S31508004010617801F00701032902BF001910F8020CA4
S31508004020042804BF01203073A86F40F0010002E0A5
S31508004030A86F40084000A867707BDFF87887DFF82C
S315080040407897797899B10021B173296D41F0040107
S315080040502965012807D14FF6FF70C9F800004FF40B
S315080040600070C8F80000FFF791FF82460CE0296D42
S3150800407021F0040129654FF0000A012804D100F057
S315080040803EFA642002F00FF8A86F20F00800A8672F
S315080040901420E864C5F848A0787830B1707B002809
S315080040A001BFA86C00280120A864B8790028286DEB
S315080040B014BF40F0080020F008002865FFF726FF27
S315080040C028B1D9F8400040F00800C9F8400020207F
S315080040D028626C602C6068687F30686004202862FB
S315080040E04FF4E064DFF8D406046006E002F080FDD1
S315080040F018B102F085FDFFF749F8DFF8C406006835
S3150800410000F003000328F1D0C8F80040286D40F0FD
S31508004110010028650020BDE8F08710B5044601F0C7
S3150800412079FC201A0003000B3338DFF8981688420A
S315080041301AD2DFF8940602210160DFF89016A2B2BF
S315080041404A60220C02F00F020A60016C41F002017B
S315080041500164DFF87C460020207002E0012002F0AE
S3150800416053FD20780028F9D010BD2DE9F84FDFF867
S3150800417064667068716C08401FFA80F8C6F8048097
S31508004180DFF82C76DFF814566878002840F0D180DE
S31508004190DFF84446DFF814965FEAC8704CD5D7F8BE
S315080041A000A0386C796C41EA0041A96199F80000D1
S315080041B000283DD09AF80100800639D501202870DC
S315080041C04FF480503060306C40F480503064FFF714
S315080041D09DFE88B3192001F066FFDFF800B64FF49C
S315080041E04040CBF82800DBF800000090E06E40F471
S315080041F00050E066E06E40F48050E066A8699AF8E0
S3150800420000104901B8310818FFF787FFE06E8009EA
S315080042108001E066E06E00A909880843E066002090
S31508004220CBF8280048F26070E066A88A206003E0B0
S315080042300022002002F028FC5FEA08600CD52878E6
S3150800424030B1002028700022A969402002F01CFC29
S31508004250306C20F4805030645FEA486008D568788E
S3150800426030B901F0D7FB00220146892002F00CFC88
S315080042705FEAC8604FD5287ADFF838A5012804BF59
S31508004280697B01291ED101F0EAFF386F40F0010071
S3150800429038670020687301F0E5F90A2001F003FF8A
S315080042A04FF000084FF6FF7070604FF4E060CAF8F0
S315080042B000000920B8660120B864B86F40F008000D
S315080042C0B86718E0A97B491CA97399F80220C9B2F6
S315080042D0914215D2012808BF00F0D4F8B86F20F033
S315080042E00800B8671420B866FFF750FEB8644FF4A4
S315080042F00070CAF80000386D40F0010038650AE021
S31508004300012808BF00F0BEF801F084FB0022014630
S315080043108D2002F0B9FB5FEA08700AD5FFF7F6FDB3
S3150800432038B12068A88200202060706C20F0080050
S3150800433070645FEA88600AD520203862687830B9E8
S3150800434001F068FB00220146882002F09DFB687890
S3150800435020B118F4407F04BF0120A870BDE8F18F92
S3150800436070B582B00446FFF7B1FCDFF8740400218B
S315080043700160DFF830541521E960092101651F2124
S31508004380416001210166FFF78BFBFFF72BFB01F06C
S315080043908FF902F061FF00F043F9DFF80064308A14
S315080043A000F06BF9708A00F070F9FEF7EFFE6968A5
S315080043B041F040016960FEF7EFFE707900F005F9FB
S315080043C0B07900F012F9307900F041F9DFF81404F9
S315080043D090F90000FFF7B9FCF07800F0A7F996F914
S315080043E0070000F0AFF902237F22DFF8FC030188FB
S315080043F000A801F013F8BDF80000C0054CBF002066
S31508004400BDF80000DFF8E4130870DFF8E40300786D
S31508004410FFF75EFC20B107B540F2753100F02EF8C3
S31508004420012C05D12868C00711D500F02BF80EE03D
S315080044306CB92868C0070AD401F011FF286840F053
S3150800444001002860C82001F02EFE00207073DFF8F6
S315080044506843F120206440F2F910E06301F002F9A4
S315080044602868C00707D54FF6FF702060DFF84403B9
S315080044704FF4E061016001F041FD73BD0FF2B03009
S31508004480FFF72EB970B5DFF86C532E68DFF80C43CA
S31508004490607B012832D0FEF779FE48F2D001296008
S315080044A06A68520509D548F222022A606A68D20566
S315080044B0F5D529606A685207F1D4B6B22E60DFF8DE
S315080044C0FC124FF4E0620A60DFF82C130A6A5208FD
S315080044D052000A620A68520852000A600A6842F0E4
S315080044E002020A604A6A42F001024A6201216173C5
S315080044F0FEF752FEBDE8704001F080BE70BD70B593
S31508004500A64C607B48B301F0AAFEFEF73FFE0546BF
S31508004510DFF8E80201210160A34E306D40F001008A
S3150800452030650020607301F09DF820203060306B04
S3150800453040F002003063F06D40F00800F065284650
S31508004540FEF72AFE0A2001F0AEFD9B484FF6FF71E2
S31508004550016098484FF4E061016070BD8F48407B68
S315080045607047000010B58D4C607B20B107B540F24E
S315080045706441FFF783FF207A18B1FFF783FF207A9B
S31508004580607310BD8548007A704780B5022801D34C
S31508004590012002BD81490872487B012804D1087AA6
S315080045A020B9FFF7ACFF01E0FFF7DCFF002002BDF2
S315080045B093480068800200149A386FF07F0201B2AF
S315080045C09142B8BF104640B2704710B50446FEF790
S315080045D0DDFD8C49002C0A6814BF42F0120222F055
S315080045E012020A606D494C7140E038B50446FEF780
S315080045F0CDFD054601F08BFE40B98248002C0168C6
S3150800460014BF41F0800121F0800101606348847184
S315080046102846BDE83240FEF7BFBD6048807970473E
S3150800462079487A494A780B7813EB02220260CA78ED
S315080046308B7813EB022242604A790B7913EB02223C
S315080046408260CA79897911EB0221C160704710B579
S315080046500446FEF79BFD6B49002C0A6814BF42F01E
S31508004660200222F020020A604C490C71BDE8104075
S31508004670FEF792BD4948008A70474849088264494E
S31508004680086070474548408A7047444948826149EE
S31508004690086070476048007870475748816A41F05B
S315080046A002018162012101607047534800210160BF
S315080046B0816A21F002018162502001F0F4BC38B50C
S315080046C0564C574821690180E1694180554DE96C8E
S315080046D0818000202061FFF7E0FF0120E0610020D3
S315080046E0606220624CF25D00E864286840F400408D
S315080046F028604FF40040206048F20200206031BD77
S3150800470080B5FFF7D2FF45484FF40041016000210C
S31508004710016044490A6822F400420A60404A9388C4
S31508004720CB64118801615188C16101BD1D4900280A
S315080047300A6814BF42F0020222F002020A60174910
S31508004740C870704738B504467F2C0ED102237F22E5
S315080047503548018800A800F061FEBDF80000C005D4
S3150800476054BFBDF800406FF04A04FEF70FFD05463A
S3150800477001F0CDFD30B964B204F19A008005000C51
S315080047802A4908600548C4712846FEF705FD31BD6B
S31508004790024890F90700704700000000082800202A
S315080047A040A00040802000403020004054280020CF
S315080047B01020004000E100E004A0004080E100E095
S315080047C0A8200040CDFF070008A000404020004078
S315080047D0D22F002000A0004064100040E4100040E2
S315080047E05C100040C82700201CC60108C42700200A
S315080047F0BC2700201C100040602000402810004004
S315080048000C1000408420004098200040102D002005
S3150800481094200040902000402428002018100040D2
S315080048208C2F0020C010004020C6010854100040FC
S315080048307068792D636F6D6D6F6E2E6300000000D2
S31508004840FEFEF7F7C8C8010010B5BE48006890B963
S31508004850FEF79CFC0446BC480178002918BF0529C8
S3150800486004D1032100F8041B00F098F92046BDE89E
S315080048701040FEF791BC10BDF8B5B44E3778B24D6E
S315080048800020287129780FF2E820AE4C49B925682E
S315080048901DB907B59621FEF723FF00202060A8471B
S315080048A0F1BD032903D007B59C21FEF719FFFF20A8
S315080048B03070FF2F05D0384602F00FFE3846FEF757
S315080048C02BF902F01AFD88B1307800F081F8044619
S315080048D0FEF75CFC0646012028700121204602F0FE
S315080048E0BBF83046BDE8F240FEF756BCFEF74EFC74
S315080048F0064600202870206810B1281D00F04EF9E1
S315080049003046FEF749FCBDE8F140FEF7C6BE00009A
S3150800491080B58D480178012904D0022906D00429DA
S315080049200BD010E0BDE8014002F028B9FFF71AFEE7
S315080049303120BDE8024002F083BD05210170BDE8C3
S31508004940014002F0C7BF07B54FF4A2710FF220204D
S31508004950BDE80440FEF7C4BE38B5FEF717FC0446AA
S31508004960794D2878052804D007B540F2531100F090
S315080049702BF8002028707348006810B1281D00F035
S315080049800DF92046BDE83240FEF706BC70B5044670
S31508004990FEF7FCFB05466C4E3078002818BF052844
S315080049A004D007B54FF4B07100F00EF8042030704B
S315080049B04FF6FF7084421CBF204603F02FF82846A6
S315080049C0BDE87040FEF7E8BB0FF2A410FEF788BEFC
S315080049D02DE9FE4F804603F070F88DF805005C4F10
S315080049E0386818F800009DF80510401A8DF804007C
S315080049F0404603F07CF800F00C0004280CBF0125A3
S31508004A0000254046FEF7BFF88346BBF1FF0F0EBFF1
S31508004A10002738681BF800704E4C661CDFF8389182
S31508004A20FF2089F80000FDB1404603F06DF8064600
S31508004A3048F6410A4FF6FF70864218BF48F6610AE3
S31508004A4046480188201DFEF7C2FA3146A01DFEF72A
S31508004A50BEFA4348018804F10800FEF7B8FA04F2E2
S31508004A600A0604F20A000290002000909DF804301D
S31508004A709DF8052041463046FEF7ECF89DF80400FF
S31508004A80861947B1002000903B4600225946304619
S31508004A90FEF7E0F8BE196DB1404603F019F8407804
S31508004AA0800726D542460298311AC9B203F0CBFAD6
S31508004AB086191EE0A078617801EB002080B2410BD0
S31508004AC001F0010181F001054DF6FF7101EA000AC6
S31508004AD00AF00700032805D1601C03F03EF8001908
S31508004AE0407804E01F480078082802D1072089F892
S31508004AF00000404604F056FB08B14AF0100A1FFAB7
S31508004B008AF1601CFEF763FA1AF0070F0CBF164805
S31508004B1016480178491C0170E170301B401C207052
S31508004B20301B7F2804DB07B540F2BF11FFF74CFFA7
S31508004B302846BDE8FE8F04480178481E8041C00F0C
S31508004B4070470000C0280020202D0020B128002032
S31508004B50C42600202C2D002013280020EE27002034
S31508004B60EC27002034290020B0280020F02C002053
S31508004B706D61632E6300000038B544784568FEF71A
S31508004B8005FB0C2161438B4A8B585B1BB3F1004F25
S31508004B9098BF8D50BDE83240FEF7FEBA10B5044600
S31508004BA004F019FD6060042020702046BDE810401E
S31508004BB0E2E738B500F011F828186060012007E030
S31508004BC038B500F00AF805EB1020000260600220F4
S31508004BD020702046BDE83240CEE704460D4604F074
S31508004BE0FABC38B5FFF7F9FF05EB10400004606022
S31508004BF00320EDE710B50446207860B1042806D0F6
S31508004C0004F0E9FC6168421AB2F1004F01D80020AD
S31508004C1010BD081A10BD4FF0FF3010BD70B5044620
S31508004C2004F0D9FC0546FEF7B1FA06466FF00041D6
S31508004C30606800F02CF8401920603046BDE87040E6
S31508004C40FEF7AABA70B504460D46164604F0C3FC2C
S31508004C50002156B1FF22327007E0121AAA4202D288
S31508004C60154606B13170491C083422680AB9284627
S31508004C7070BD1378002BF6D0042B04D05268831A23
S31508004C80B3F1004FE9D806B13170002070BD00229B
S31508004C90D8E738B5044604F09EFC05460BE00178D3
S31508004CA041B1042904D04168691AB1F1004F01D80D
S31508004CB061688847083420680028F0D131BD10B5EE
S31508004CC00C213C4A01FB002404F085FC2168401AAB
S31508004CD0B0F1004F06D86068FFF7DBFF2046BDE855
S31508004CE010409BE710BD000070B50446324D687849
S31508004CF032490978884206D307B54FF484710FF212
S31508004D00C000FEF7EDFC6E78701C68700C2029490F
S31508004D1000FB061044600121017200E04E7054F851
S31508004D20081B0029FAD1FFF779FF304670BD00004D
S31508004D30F8B505464FF0FF3000901F4C207848B371
S31508004D4001F056FF30B907B540F239110FF270007D
S31508004D50FEF7C6FC04F03FFC0C21164A01FB0523AE
S31508004D6000251D72002305E0009EB54288BF354622
S31508004D7000955B1C6578DBB2AB420FD201FB0326BC
S31508004D803568471BB7F1004F04D92D1A367A0EB984
S31508004D90002DE9D101F034FF0020F2BD00A804F08F
S31508004DA039FC0120F2BD0C21024A01FB0020012139
S31508004DB001727047542A0020D42F00200CC3010822
S31508004DC06576656E742D636F6E74726F6C2E6300F4
S31508004DD030B50246124B33F812404FF6FF75AC4217
S31508004DE01CBF641C23F81240032818BF052803D1EA
S31508004DF018890818188130BD092818BF0B2803D14F
S31508004E00988A0818988230BD1D2802D1588F08182C
S31508004E10588730BD3E2200210148FDF71BBC000023
S31508004E20AC2D00202048012181604EF6BE2141604C
S31508004E3000E01E48012101607047A52805D11A48DF
S31508004E404DF6AD6141600221016070471648006861
S31508004E5010F0010018BF0120704780B514481021D2
S31508004E600160144800781449144A58B103280CBF45
S31508004E7000200120106040F651000860002001F073
S31508004E8033F906E0022010604FF40060086000F075
S31508004E9010FF0B4807210160002101640948102111
S31508004EA00160002002BD000000600040086000406C
S31508004EB080E100E0C22F00200C600040080000409E
S31508004EC014A0004000E100E070B5A048FEF705F91F
S31508004ED00446FF2C15D09E480068205C851EE9B262
S31508004EE02046FEF778F80646E9B22046FDF765FF44
S31508004EF02146304600F0DFF82046BDE87040FDF751
S31508004F000BBE70BD03460A468FA10420FFE70CB40A
S31508004F1080B502AA00F02AF801BC5DF80CFB00B5C2
S31508004F2087B001F0D3F9002105910491502103912E
S31508004F3000210291019187490091002302460FF250
S31508004F4024210120FFF7E3FF834881790391018833
S31508004F5002914179019101790091C37882780FF223
S31508004F6010214220FFF7D3FF07B000BD2DE9F04F0F
S31508004F7085B005460C469046002604F0CEFBC0B127
S31508004F800120FDF760FD8246BAF1FF0F11D000211E
S31508004F90FDF754FD294601A804F0C1FB05467CB976
S31508004FA000F084F810B9504604F02BFC5046FDF783
S31508004FB0B3FD05B0BDE8F08F8DF804200125641C0B
S31508004FC020780028ECD0A0F13001C9B20A2905D210
S31508004FD00A2101FB0600A0F13006F0E700F066F8AA
S31508004FE00028E3D10025227801A8422A0ED0442AB7
S31508004FF01AD0462A25D0572A0DD0622A3AD0662AD0
S315080050002AD06C2A25D0702A26D0D5E758F8040B62
S315080050108DF80400D2E758F8041B8DF8041009042B
S31508005020090E41700225CAE758F8041B8DF80410CA
S315080050300A0A42700A0C8270080E8DF807000425C9
S31508005040BDE758F8041B5046FDF777FE0028B6D092
S31508005050ACE758F8046BB2E7012358F8041B662A34
S3150800506008BF0223F2B25046FDF747FE002808BFE4
S315080050700026ECE7364800681AF8009058F8041B32
S31508005080CFB2FF2F9BD017F800B00BEB0901C9B2BE
S315080050905046FDF792FE002888D1CDF800B00023CF
S315080050A03A4649465046FDF7D1FF88E72A4601A900
S315080050B05046FDF740BEF0B585B00C46122806D01E
S315080050C03A281AD04FF6FE71884234D039E0204883
S315080050D00068255C214E08E02046FDF7A9FC394604
S315080050E0FEF7CEF8203D3068245CFF2C29D0EDB2BF
S315080050F0212D2CBF20272F46EEE704F04DFC044651
S31508005100FFF7C0FA0546FEF71CFE0646FEF716FE32
S315080051100746FFF7AFFA024604940E480390104874
S3150800512000880290019500963B460FF24C013B2001
S31508005130FFF7EDFE05E0204605B0BDE8F04004F0B7
S31508005140EFBE05B0F0BD000057460000DC27002082
S31508005150C4260020102D00203CC50108CC260020BE
S31508005160822F002042423870424242425742420051
S31508005170424242425742000057424257573870420D
S315080051800000000010B50446FEF700F8524830212A
S31508005190016052480160524801605248102101607E
S315080051A0200A08BF2402504804804FF20F014180AC
S315080051B0BFF35F8F4D480021016041604C484D495F
S315080051C0016010BD10B54C4C2068C0060BD546488A
S315080051D04A490A68C0F894204968C0F8901040F611
S315080051E00620FFF7CFFF2068C00708D544480321EB
S315080051F00170206C4008400020640120206020686F
S31508005200000703D5206C20F00800206410BD0000BC
S3150800521080B5002000F00AF838B907B5F5210FF275
S31508005220F800BDE80440FEF75BBA01BD2DE9FC4471
S31508005230344C4142226889184A1C02F01F02002891
S315080052405ABF504245185518A5F11F062E48A842C0
S3150800525024BF2E48864203D3EFF30880854201D344
S3150800526000202EE0FDF792FF82462948006810F0DC
S31508005270010718BF05F047F8206801468D4207D296
S315080052802068CD2100F8011920608542F8D307E08F
S315080052901F38CD2201E000F8012B8142FBD22560A0
S315080052A0304605F035F8E22001E006F8010BB54274
S315080052B0FBD20FB105F00CF85046FDF76DFF2068DC
S315080052C02038BDE8F6840F48006870470D48006826
S315080052D0203870470F4870473020004030C80040DB
S315080052E030C0004010D00040000000201C400040A4
S315080052F00CED00E00400FA0518A00040305000400C
S31508005300E2270020D8270020381F0020180C00208C
S3150800531094ED00E0000000206D6963726F2D696EE0
S315080053207465726E616C2E6300000000F0B589B07A
S315080053300446002000F04EFE0A237F2226480188F4
S3150800534000A800F06BF84FF6FF75BDF80200A842FA
S3150800535006D107B54FF486710FF29400FEF7C0F92F
S3150800536000260FF2A40701E02A4616B94FF47C423C
S3150800537003E0022E08BF4EF23F0200A800F032F802
S31508005380761C052EF0D3012C03D114237F22134853
S3150800539002E014237F221248018803A800F03EF891
S315080053A000260FF26C072A4608E02A46012E08BF97
S315080053B04FF6C07202D0082E08BF002203A800F0DC
S315080053C011F8761C0A2EF0D3012C04BF012000F038
S315080053D001FE09B0F0BD0000FCC50108FAC50108C8
S315080053E0F8C5010830F81610F05DFEF7B8BA0000E7
S315080053F0616E616C6F6775652D63656C6C2D62698E
S3150800540061732E630000000000100C0D0E000000F2
S31508005410010203040708090A0B0F000030B583B020
S31508005420044610467F2808BF0020B1F5004F1AD160
S3150800543008237F2240F6120100A8FFF7EFFF082293
S315080054400FF2CC0100A8FDF70CF930B908237F222A
S3150800545040F2A27100A8FFF7E1FF082200A9204642
S31508005460FDF7B5F837BD1A46214D294300FB031150
S315080054702046FDF7ACF837BD2DE9FC440C46154629
S315080054801B4941EA00060FF27C0AC00703D507B597
S31508005490622100F033F8E80703D507B5632100F069
S315080054A02DF81448864204D3A819401E124988428A
S315080054B003D307B5642100F021F8002707E0B85D9B
S315080054C0FF2803D007B56B2100F018F87F1CAF4200
S315080054D0F5D36A082146304604F07EFF30B107B599
S315080054E071215046BDE8FC44FEF7FAB8BDE8F384DE
S315080054F00000040800080408001004085046FEF7D7
S31508005500EFB800006D66672D746F6B656E2E6300CD
S31508005510FFFFFFFFFFFFFFFF30B583B0002401A8A0
S315080055200FF234110A680260DFF820510120287052
S31508005530002004F097FF30B1002004F093FF10B16B
S315080055402C7049203EBD02237F22DFF80401018822
S315080055500DF1020000F025F802237F22002100A8A1
S3150800556000F01FF8204601A931F81010BDF80220F6
S31508005570914208BF0124401C0228F4D3002CBDF830
S31508005580000004D0B0F57F7F07D100203EBDB0F5FE
S315080055907F7F0CBF0620042000E007200021297029
S315080055A03EBD10B5B1F5807F07D2284C247844B1AA
S315080055B0C9B2BDE8104005F0FDB9BDE81040FFF7D7
S315080055C02DBF10BD10B5B1F5807F07D21F4C2478CA
S315080055D064B1C9B2BDE8104005F029BA7F2A08BFF0
S315080055E000221C4C214302FB0311016010BD000080
S315080055F02DE9F04105460E46174698460FF25C001F
S31508005600B5F5807F13D2114C2178B1B1617819B103
S3150800561007B5C221FEF764F801206070434632469A
S315080056203946E8B205F036FB0020607005E007B59C
S31508005630CD21BDE8F041FEF753B8BDE8F081034936
S315080056400978002918BF05F035BC7047C32F00201C
S3150800565004C6010800000408FE01FD02746F6B65AC
S315080056606E2E630010B5DFF8DC4410202063FDF7CA
S315080056708DFDDFF8D4140A6842F001020A60FDF7CE
S315080056808BFDDFF8C804606020606168893161605D
S31508005690012121638A30E060A060E0688930E0601B
S315080056A002202063DFF8A8044FF6FF71016010BDE1
S315080056B0DFF8A00445F26401C1601E214162502151
S315080056C00162C821C1618165F021C16545F6900175
S315080056D04166882181660621C16644F20661016039
S315080056E04FF6FF714160DFF87004007838B1DFF8D3
S315080056F06C0448F2607101604FF4C1514160DFF8F3
S315080057006004016841F004010160DFF858040021D3
S31508005710417070472DE9F0470446DFF84C148A209B
S3150800572000FB041000F2050568782A7802EB0020D1
S315080057301FFA80FA0AF44040DFF8302412784A70DB
S3150800574066180021B1705FEA8A6157D5DFF82074C0
S31508005750796E090652D54FF480684FF40069B0F5A2
S31508005760404F0BD1E81D03F0AFFC80BBF86DC006B7
S3150800577044D5B86C002C3AD0C84638E0B0F5004F8E
S31508005780F4D1287AE97901EB002080B205F042FCD1
S31508005790FF2809D0DFF8DC13096831F810004FF448
S315080057A0FE61084213D1E1E70AF007000328DDD1BC
S315080057B0002C14BF786838680528D7D3002C14BF86
S315080057C0786838680628F9D3687A0428CED1F86D3F
S315080057D0C00609D4B86C04B1C84610EA080F03D04D
S315080057E0786C40F0010078640120B07006E010EA99
S315080057F0080F03D0786C400840007864BDE8F0874D
S315080058002DE9FC4E0446DFF860B38A2000FB04B09D
S31508005810071DDFF85C53002C0CBF28686868460033
S31508005820C0B2052806D207B54FF4ED710FF27030F5
S31508005830FDF756FF5FFA86F909EB070010F8081D11
S31508005840427802EB01211FFA81FA9BF801100170D8
S3150800585000214170C84EF06B20F48050F063686EEA
S31508005860D4B9306840051CD41AF4E45F0FD1FEF7AA
S3150800587011FF10B15FEA4A4009D53878802806D268
S3150800588004EB0B0082784946384605F0E3FB002C0A
S315080058900CBF0120022020E0012CE5D1306800056C
S315080058A0E2D5B648017881B100210170B448016893
S315080058B01AF4E45F02D00022402004E07878000958
S315080058C000F001028F2001F0DFF8002C0CBF4FF426
S315080058D080604FF400603060D9E72861BDE8F38E38
S315080058E02DE9F84F9A4C2068216C01EA0005A04E74
S315080058F0DFF890A2DFF88482DFF86C92A24F1AE0F4
S3150800590040B14878C00605D400229D4801688F201A
S3150800591001F0BAF8280605D501F0F6F825F0800555
S3150800592080202060E80506D501F0EEF825F480759C
S315080059304FF480702060002D68D0280706D5002017
S31508005940FFF7E8FE25F0080508202060E80606D5DA
S315080059500120FFF7DFFE25F010051020206005F076
S315080059606000602803D1B06CC0050AD401E0A8061F
S3150800597005D525F0200520202060002006E06806D1
S3150800598006D525F04005402020600120FFF738FFA6
S31508005990E80410D525F480554FF480502060D7F8D8
S315080059A000B0082038607868000548BFFEF7BCFAE2
S315080059B01FFA8BF03860E807ACD56D086D0001203A
S315080059C0206099F800000028A4D0FEF7DBFD012826
S315080059D0A0D198F8000000289CD09AF80000042866
S315080059E098D1F068400800F001008A2101FB009177
S315080059F0091D002814BF7268326812B92268D204D9
S31508005A00F7D5002814BF7068306879E70020206051
S31508005A10BDE8F18F5D4800687047F0B589B0044667
S31508005A200D460021032000F089FF04AE1BE0002785
S31508005A3000F09FFF26F8170000F09BFF00A921F849
S31508005A4017007F1C082FF3DB04A805F07FFC002055
S31508005A502080218836F8102051402180401C0828D3
S31508005A60F7DB6D1EA41CEDB2002DE0D100F0BDFFE2
S31508005A70012009B0F0BD0321022000F05FBFF8B590
S31508005A8029244FF6FF7500F074FF281A90FBF4F0EE
S31508005A9000F13A063E4F3878B8B90321032000F0E2
S31508005AA04DFF02237F223B48018800A8FFF7B6FC7A
S31508005AB000F05FFFBDF80010401880B2281A90FB6E
S31508005AC0F4F0253078700120387000F08EFF787871
S31508005AD0301A40B2F2BD80B50321022000F02EFF35
S31508005AE0BDE80140CBE770B500242B48007890B993
S31508005AF0FFF7F1FF05461B4E707848B13078401B1A
S31508005B0040B205F034FC0B2805DB3570012402E0B1
S31508005B10357001207070204670BD80B540B11F48B1
S31508005B20002101600848016821F08001016001BD7B
S31508005B30FEF72EFEFEF706FEFEF76FFDBDE80240F5
S31508005B40FEF753BD0020004084200040CC2B0020E7
S31508005B5000A000404C100040BD270020D010004097
S31508005B6080200040C72F0020C82B0020BC2700201B
S31508005B7020200040E026002004A00040082800203D
S31508005B802028002013280020B82000403820004094
S31508005B90C52F002002C60108152800205410004011
S31508005BA07068792E6300000010B584B00A237F223E
S31508005BB00B48018800A8FFF731FC4FF6FF74BDF8C3
S31508005BC00000A04205D107B54E210FF21800FDF7D7
S31508005BD087FD2246BDF800100020FDF7C0FE1FBD58
S31508005BE0FCC50108616E616C6F6775652D66696C29
S31508005BF07465722E63000000DFF8640351210160AA
S31508005C0070472DE9F04104461E2C3CBFBDE8F04123
S31508005C1000F049BADFF84C030168C90704D54168A2
S31508005C2011B11826641F11E00168C90704D5416837
S31508005C3011B90C260A3C09E00168C90704D4406872
S31508005C4010B10C260F3C01E00626143CFDF79EFA1F
S31508005C50804605F091FBDFF810030721016000215B
S31508005C6041608160DFF804134FF000720A60A4B245
S31508005C7004FB06F1491E4160DFF8F44226682068F5
S31508005C8040084000206005F079FBDFF8D4723D68D3
S31508005C90386820F04000386005F078FB3D602660E3
S31508005CA005F06CFB05F076FB4046BDE8F041FDF7D4
S31508005CB073BA2DE9F0410024DFF8B8522C60DFF8FA
S31508005CC0B86234604FF4A040706041F29A084046CA
S31508005CD0FFF797FF686844F69041081A00B24FF438
S31508005CE0487190FBF1F000F3030030604046FFF77F
S31508005CF088FF08274046FFF784FF686804197F1E57
S31508005D00F8D1DFF87802211DC908B0FBF1F080B29E
S31508005D107060BDE8F08138B56FF00F04DFF86052A7
S31508005D200120A8602C608020FFF76BFFE868FF2839
S31508005D3002D8641C102CF5DB31BD9248016841F08D
S31508005D400101016090480421016090480160704794
S31508005D5070B58448016841F0010101600121416084
S31508005D60FDF714FA0446824D00F09DF87C4851214F
S31508005D7001602E6005F002FB2046BDE87040FDF785
S31508005D800BBA70B5824D2889824C4FF6FF76B04221
S31508005D9029D102237F228048018805F10800FFF7F0
S31508005DA03DFB2889B04204BF02202881A0698007EC
S31508005DB003D4A06940F00200A06101206870288918
S31508005DC020606948072101600021416081606749B8
S31508005DD04FF000720A60A169C9072DD5E16959B368
S31508005DE048F69F4137E0A1698907E2D5697899BBEA
S31508005DF0A16811F00101A26803D10F2809D2401C3D
S31508005E0006E0920705D52A791AB1032801D3401E60
S31508005E1028812971288902283CBF02202881206808
S31508005E2029898842C9D1A06900F00300032818BF50
S31508005E30FFF78EFF012070BDA169C90701D5E16989
S31508005E4021B1A169C90704D4E16911B144F24F61CE
S31508005E5001E042F227314160002070BD2DE9F84388
S31508005E603F4C434DFDF792F9804605F085FAFFF75A
S31508005E7088FF5FEA00090CD100F015F8276820684A
S31508005E8020F04000206005F081FA27602E6005F0BA
S31508005E9075FA05F07FFA4046FDF77EF9B9F1000F6D
S31508005EA0E0D0BDE8F1832E682868400840002860E5
S31508005EB005F064BA2C48002141608160016821F030
S31508005EC00201016029484FF0007101603048002145
S31508005ED04170817801290BD1304901220A60304985
S31508005EE00968C90748BF032106D40221817024E73F
S31508005EF08178042901D10521817070472DE9F8437D
S31508005F00234C207838B3E078F0B124E0FDF73EF969
S31508005F10804605F031FAA078052810D0144E00F016
S31508005F2041F80F4DD5F80090286820F04000286009
S31508005F3005F02CFAC5F80090376005F01FFA05F051
S31508005F4029FA4046FDF728F9A0780528DED1002071
S31508005F506070FFF783FF00202070BDE8F183000022
S31508005F60008000401C40004010E000E004ED00E026
S31508005F7094ED00E0104000400C0000400060E3167D
S31508005F800840004058A0004080E200E000E100E040
S31508005F90E0270020044000401AC6010818A0004067
S31508005FA00C4000403768306840084000306005F013
S31508005FB0E5B9000010B5464C002000F01CFD40F67F
S31508005FC08C218842206834BF40F0080020F0080081
S31508005FD0206010BD10B582B0044600F05FF800A836
S31508005FE0FFF71CFA9DF801009DF80010FF2902BF73
S31508005FF0FF280420002104B1801CC0B2082828BF4D
S315080060000720082928BF0721324A136823F460733A
S3150800601043EAC01010601068C00851EAC00010605A
S3150800602013BD00B583B002237F222B48018800A840
S31508006030FFF7F4F9BDF800004FF6FF7188420EBF6E
S315080060404FF4E1600A2190FBF1F0ADF80000FDF78E
S3150800605027FDC0071FD500F021F801A8FFF7DEF9D4
S315080060609DF80500FF2808BF0420811CC9B208292D
S31508006070A8BF0721C1F12F02BDF80030C0F12F00DB
S3150800608002EBD272521000FB0320C1F12F01B0FBC4
S31508006090F1F0ADF80000BDF800000EBD02237F2226
S315080060A00E48018870470E490A680E4B1B68DB07C5
S315080060B058BF4008032809D34B6D43F001034B65CD
S315080060C00B689B1A1B031B0B8342F9D3704700000E
S315080060D000BC00401800004000C60108FEC50108C3
S315080060E0382000401C40004010B5040004D110BD03
S315080060F04FF47A70FFF7D7FF2046441E80B2002877
S31508006100F6D110BD7047000038B5FFF73AFE0020FB
S31508006110FFF760FFDFF8E442206840F008002060DF
S31508006120FEF780FEFFF746FF00F025F88D78DD6064
S315080061308D890560CD89456000F014F8206820F047
S315080061401000206005F059F9FDF722FAFFF786FEE0
S31508006150FFF7E1FDBDE83140FEF77FBE40F2016082
S31508006160FFF710B8088A1060488A5060888A186055
S31508006170C88A586042E0A248A2490A78C260A24A80
S315080061804B78D360A14B7047F0B50B689D4C646A99
S315080061900F25960005FA06F6344212D0002606EBBD
S315080061A0820724FA07F7FF0708D5B70005FA07F7A5
S315080061B0BB4330F812C007EA0C073B43761C042E93
S315080061C0EDDB0B60F0BDF0B50B688E4C646AFF25FD
S315080061D0D600B5402C420FD0002505EBC20624FA9E
S315080061E006F6F60705D50126AE40B343175C3E40D2
S315080061F033436D1C082DF0DB0B60F0BD10B5814CE8
S31508006200606A002827D000228149201DFFF7DBFF9E
S3150800621001228049201DFFF7D6FF02227E49201D54
S31508006220FFF7D1FF0022764900F016F801227B49D4
S3150800623000F012F80222744900F00EF80322784999
S3150800624000F00AF80422714900F006F8052275499B
S3150800625004F1180034E010BD04F1180094E710B5F5
S31508006260684C606A002827D0002269492046FFF753
S31508006270AAFF012267492046FFF7A5FF02226649C1
S315080062802046FFF7A0FF00225D4900F016F801221C
S31508006290624900F012F802225B4900F00EF8032268
S315080062A05F4900F00AF80422584900F006F805226A
S315080062B05C4904F10C0003E010BD04F10C0063E72F
S315080062C0BDE8104060E70320FFF7B9B910B505F03F
S315080062D0F6F8044605F0F7F8C0B208B9012C07D15C
S315080062E0072C11D8DFE804F004100608080A0C0E7B
S315080062F0002010BD092010BD022010BD032010BDCE
S315080063000B2010BD062010BD44F0800010BD3D488E
S31508006310007A70473B48807A704744484FF40041FA
S31508006320C160082101603749887A50B13E48006843
S31508006330800900F001000B7A83421CBF0872FFF740
S31508006340ECBB70472DE9F04104462E4DAC72374F31
S315080063500020B8654FF400483548C0F8008008208A
S315080063603860C7F80C80FCF711FF2C4E002C3168FA
S3150800637021F4706114D041F400613160B16821F0F4
S315080063804001B160082100F05FF801F0BF012970F3
S31508006390082100F053F801F0BF012971012113E02B
S315080063A041F480713160B16841F04001B16001216A
S315080063B000F04AF841F040012970012100F03EF84A
S315080063C041F04001297100216972FCF7E5FE4CB1E4
S315080063D01848062101606020B8657068800900F0D9
S315080063E0010001E00020B8652872287AFFF795FBBE
S315080063F014B11148C0F80080BDE8F08100BC004027
S3150800640000B000409027002000B4004000B80040CB
S315080064100CB000400CB400400CB8004004B000407A
S3150800642004B4004004B8004008B0004014A8004076
S3150800643080E100E018BC004000E100E06A8B61F3EF
S315080064400B226A8329797047EA8961F30B22EA816C
S31508006450297870472B490A68920992010A600A68E6
S315080064601043086028484FF400410160002101608C
S315080064706420FFF718BE00002DE9F0478046234D3B
S31508006480D5F80090286840F4004028601D4F386809
S3150800649020F4805038601E4C207868B11D48A178D9
S315080064A0627800EB820212F82A2C891A00EB88001F
S315080064B010F82A0C461802E0202601202070B0B2F7
S315080064C0FFF7C8FF0FF2500A02E0B0B2FFF7C2FFAB
S315080064D0386B042805D0386B400754BF761E761CE7
S315080064E0F3E7F86A38B184F80180A6701FFA89F0D4
S315080064F02860BDE8F08707B540F221115046FDF740
S31508006500EFF8E5E7D0100040181000401C100040D6
S31508006510CF2F00207C3E0008616E616C6F67756541
S315080065202D76636F2E6300004FF4FE52810189B207
S315080065300C20FDF714BA2DE9F84F8A4CA568ADB2C0
S3150800654000264FF00A080127B94620681FFA80FA84
S3150800655000F04BFAB0202063DFF80CB2DBF800003D
S315080065600120FFF7A0FDB9F1000F11D0AAF1030031
S31508006570874202DAF81C87B213E057460AF500404C
S3150800658020600621092000F0D9F94FF000090BE038
S31508006590DBF80000000707D5042FA6BFF81E87B250
S315080065A0002707F5004020601A2EA8BF6FF00908DB
S315080065B004DA16F1190FB8BF4FF00A08464436B286
S315080065C07019A060DBF800000007C9D5012FC7DAEB
S315080065D0B9F1000FC4D1A560C4F800A00820CBF813
S315080065E000006248006880B2BDE8F28F10B56049C5
S315080065F04FF0FF325A4B1C7864B1002819BF4A6025
S315080066005C48486041F211100860D9889888BDE84E
S31508006610104090E7002819BF4A600A604860086081
S3150800662000F0E3F906210920BDE8104000F0D7B9CB
S3150800663038B50120FFF7DAFF04460020FFF7D6FF3A
S3150800664005460120FFF7D2FF4042001B00EB45003C
S3150800665000B232BD2DE9F04F83B0474CA06AADF8C1
S3150800666004002068ADF80200444D2868ADF8000023
S315080066703B4E307858B14FF6FF7200210820FDF7DF
S3150800668067F98046C022C0210820FDF768F93C4F0B
S315080066903C48007810B148F260703860708840F461
S315080066A0404040F04C00F8630220A06201202060C0
S315080066B040F24C40FFF7F7FC0120E8602860002014
S315080066C0B0804020F080307800B12020FFF72CFF02
S315080066D0FFF7AEFF83464020B0807F20F080FFF7AB
S315080066E023FFFFF7A5FF00F04FF8FE2101FB00FA94
S315080066F0ABEB090B307850B1484604F038FE00F091
S3150800670043F880B20AEB8911B1FBF0F004E000F01F
S315080067103CF880B2BAFBF0F080B2401C4FEAC039B0
S31508006720BDF8000028600020E86002202060BDF85F
S3150800673002002060BDF80400A0620020F8633078EB
S3150800674030B14FF6FF721FFA88F10820FDF707F9F6
S3150800675040F24C40FFF7A7FC4FEA1940BDE8FE8F10
S3150800676000280020C010004018A00040007000401B
S3150800677038100040EEEEFFFF602000402810004071
S31508006780D0100040BD2700208146584604F0EFBDD2
S315080067903F22410089B201E03F2201460220FDF76F
S315080067A0DEB82DE9F04F93B0564CE06CADF8080012
S315080067B02068ADF80600544DE86AADF804004FF6B7
S315080067C0FF7200210120FDF7C3F8ADF802004FF66D
S315080067D0FF7200210B20FDF7BBF8ADF800004FF45F
S315080067E00040206000202861686148F2020000F03D
S315080067F08DF84CF68C30E06448F2F000E8624FF40D
S31508006800805211460120FDF7AAF84FF6FF720021C3
S315080068100B20FDF7A4F80621062000F0E0F88046D4
S3150800682000F087F883464CF69C30E0640020FFF7BA
S31508006830AFFF0621084600F081F80026B0B2FFF740
S31508006840A7FF0621062000F079F800F092F803A9C0
S3150800685021F81600761C202EF0DB00F08AF81020AE
S31508006860FFF796FF00F065F8A0EB0B00BDF82C10BB
S31508006870A1EB0801404301FB01094FF0100A11275B
S3150800688000F050F800F055F800F045F805DB8146B1
S315080068901FFA87FA7F1C202FF2DB504610280ED1EC
S315080068A00F2700F03FF800F044F800F034F806DB54
S315080068B081461FFA87FA781E07B2002FF1D5BDF870
S315080068C00800E064BDF806002060BDF80400E86230
S315080068D04FF6FF72BDF802100120FDF740F84FF69B
S315080068E0FF72BDF800100B20FDF739F8012028616A
S315080068F0002000F00BF84FEA4A00C0B213B0BDE81A
S31508006900F08F0000C010004018100040286040F2C8
S315080069104C40FFF7C8BBA0EB0B00404306FB060044
S315080069204845704703A830F81700A0EB0806B8B228
S315080069302EE70621072000F052B8000070B505467C
S315080069400E4604F019FD3D4C206C20F0080020642A
S3150800695004F020FDFCF71AFC310341EAC51141F0A9
S315080069600101374A116008212160BDE87040FCF733
S3150800697013BC2DE9F041334C334D304E25E004F07D
S31508006980FBFC324804210160306C40F0080030649A
S315080069902F68286840084000286004F0EFFCD4F807
S315080069A00080206820F04000206004F0EFFCC4F866
S315080069B000802F6004F0E2FC306C20F008003064A0
S315080069C023480421016004F0E5FC30680007D6D5A9
S315080069D0082030601F48006880B2BDE8F08180B5A5
S315080069E0FFF7ACFFBDE80140C3E715480168490851
S315080069F0490001607047F8B50746FFF712FB0446E1
S31508006A0039460320FFF7EBFF054639460120FFF715
S31508006A10E6FF064639460020FFF7E1FF08490A68FF
S31508006A20520852000A60401B0004711BB0FBF1F0CB
S31508006A3060434000000CF2BD0000000018A00040B2
S31508006A40047000400080004094ED00E000E100E0A2
S31508006A5080E200E00070004038B504460D4601208B
S31508006A6004F06CFD5548002D12BF00210178491C21
S31508006A700170534844705348FDF7AAFA0020BDE850
S31508006A80324004F05BBD000010B5144680B34028C0
S31508006A901FD088281CBF89288D2828D08F282BD15D
S31508006AA04948007804280DD144B1484802210170AC
S31508006AB040F60620BDE8104000F0B0BFFDF752FDD5
S31508006AC0312015E0FDF74EFD002C0CBF31200020CB
S31508006AD00EE03A4801784078814204D2002101202C
S31508006AE0BDE81040B8E7FDF73DFD402000E08D20E9
S31508006AF0BDE8104000F0A4BC07B59D210FF2E400E4
S31508006B00BDE81040FCF7ECBD30480078022800D0FC
S31508006B10704780B52E480078042807D00C280ED177
S31508006B202C480078022818BF7C2808D100F091FF6D
S31508006B30FDF718FD0020BDE8024000F081BC01BD4C
S31508006B4038B50024FCF722FB05462048007810B922
S31508006B50FEF7C9FF04462846FCF71EFB002C1CBF9F
S31508006B60BDE8314004F0F7BC31BD80B5FFF7E8FF5A
S31508006B7014211948BDE80440FEF722B807B5D62106
S31508006B800FF26000FCF7ACBD38B5144C2068216CD8
S31508006B9001EA0005ADB2A80706D5206C20F0020070
S31508006BA020640F4801210170680705D5206C20F084
S31508006BB004002064FDF7ACFE256031BD5028002096
S31508006BC0542800202C2D002013280020202D0020DA
S31508006BD0C4280020C5280020182D002008A0004041
S31508006BE0D22F00206D61632D656D3235302E63001E
S31508006BF0EFF3118060288041C043C00F7047000042
S31508006C00002181F3118870472DE9F14F9AB0DFF81A
S31508006C10EC45606818909DF86800072808BF0320AF
S31508006C2002D0082802D102208DF86800DFF8D05576
S31508006C302868696840EA0120A96840EA014000908E
S31508006C406868400703D5E06940F00200E0612868FB
S31508006C50400703D5E06940F00400E0614FF0010AFF
S31508006C60009829690AFA01F1084203D0E06940F060
S31508006C700800E061DFF8807500207860DFF8848519
S31508006C809DF86800012800F05282C0F07882032837
S31508006C901ED005D3042840F072820020606017E0F9
S31508006CA0D8F84000C00703D5E06940F04000E0612D
S31508006CB0D8F84000400703D5E06940F02000E061BD
S31508006CC0D8F84000800703D5E06940F01000E0617D
S31508006CD0FCF75CFAFEF7BAF88DF85C004FF0000B8B
S31508006CE0D8F840001690D8F844001590DFF81895A3
S31508006CF0D9F84C001490D9F850001390D9F85400DC
S31508006D001290D9F858001190DFF800050068109025
S31508006D10DFF8F80440680F90DFF8F00440690E9039
S31508006D20DFF8E804406A0D90DFF8E46430680C90F8
S31508006D3070680B90B0680A90F068099030690890FE
S31508006D4070690790B0690690F0690590B06B049079
S31508006D50DFF8C0040068DFF8C0144968039102210F
S31508006D602160DFF8B8140968DFF8B424126841EA2C
S31508006D700221DFF8B024126841EA024102914FF07D
S31508006D80FF316162DFF8A0140A687968D20408D571
S31508006D906A68D20705D5E269D20744BFD34641F4EB
S31508006DA0807100F0FCF9920408D56A68520605D588
S31508006DB0E269D20744BFD34641F4804100F0EFF9B7
S31508006DC052040AD500F0E5F907D0E269D20704D5DE
S31508006DD0D346EA680AFA02F2114300F0E0F912040F
S31508006DE010D5009A2B690AFA03F31A420AD0E26907
S31508006DF0D20702D4E269120704D5D3462A690AFAE9
S31508006E0002F2114300F0CBF9D20305D5E269120666
S31508006E1044BFD34641F00061796000216A68D20711
S31508006E2048BF4FF480516A68520648BF41F4005182
S31508006E3000F0AFF918BF41F480412B690AFA03F351
S31508006E401A4218BF41F40041E269D20605D4E26944
S31508006E50920602D4E269520601D541F01001E269B0
S31508006E60120648BF41F4803108400190A520FDF77D
S31508006E70E4FFC4F83CA0E069A16B11B1616A014264
S31508006E80FAD0616A014200F0EF800020E063D34641
S31508006E90786840F08040786004F06EFA0720C8F8F9
S31508006EA000000F20C9F8000003F012FA1898606075
S31508006EB01698C8F840001598C8F844001498C9F8F8
S31508006EC04C001398C9F850001298C9F85400119844
S31508006ED0C9F85800CD48109901600F9941600E997C
S31508006EE041610D9941620C9830600B9870600A9860
S31508006EF0B0600998F0600898306107987061069844
S31508006F00B0610598F0610498B063C24801990160C0
S31508006F10C14803994160C5484FF0FF310160BF4839
S31508006F200268BF480068BF490968636AE669334072
S31508006F30D5F810C07E68DDF808E042EA002040EA8D
S31508006F40014080EA0E0000990840590801F0010145
S31508006F5040EA8120990801F0010140EA8100D90838
S31508006F6001F0010101FA0CF1084303F47C7140EACF
S31508006F70015030437860FCF709F904F00BFA002059
S31508006F8020609DF85C0008B1FDF74CFF7868A149C0
S31508006F900968C90303D5010144BF20212162D8F835
S31508006FA04010890704D5C10144BF0221C8F80C1056
S31508006FB0D8F84010490704D5810144BF0421C8F810
S31508006FC00C10D8F84010C90703D5410148BFC8F8C6
S31508006FD00CA0D9F84C1011F0E00F05D0C10503D567
S31508006FE091494FF480520A60D9F8501011F0E00F19
S31508006FF005D0410403D58C494FF400520A60D9F8EC
S31508007000541011F0E00F1EBFE9680AFA01F10842B0
S3150800701003D085494FF480420A60D9F8581011F018
S31508007020E00F1EBF29690AFA01F1084203D07E491A
S315080070304FF400420A60BBF1000F70D17C49096821
S3150800704009056CD56168890769D59DF86810042912
S3150800705065D070490968C90642D573490968C906E1
S315080070603ED587F800A05AE0BBF1000F7FF410AFB9
S315080070706648806940084000644988616648C06877
S3150800708040F004006449C8606A4880F800A04FF2DE
S315080070900F01694A138840F2072C634504BF5388D9
S315080070A08B4203D14CF23C335380D3465A4B1B6870
S315080070B043F08053DFF860C1CCF800300378002B2A
S315080070C0FCD1BBF1000F1CBF51804FF0000B584894
S315080070D040680004B860564989680843B860DDE628
S315080070E04FF47A7100223A70544A536D43F0010303
S315080070F05365464B9B69DB0758BF4FF4FA71136813
S315080071004B4C64684A4DAD6845EA0444BD68AC42D8
S3150800711005D11468E41A2403240B8C42F0D340F0FA
S31508007120004078601BB0BDE8F04FFFF769BDFDF77A
S315080071308DFE0446A520FDF780FE04F01DF9FFF735
S315080071405FFD3F4D2E68286840084000286004F01F
S3150800715015F93C4FD7F80080386820F040003860B1
S3150800716004F014F9C7F800802E6004F007F90CB192
S31508007170FDF758FE1BB0BDE8F04F04F00BB907B594
S3150800718040F222410FF2C8001BB0BDE8F04FFCF7F1
S31508007190A7BA009AEB680AFA03F31A427047224A1A
S315080071A012687047164ACBB21360C1F307235360BF
S315080071B0C1F307419160244900230B601368002B33
S315080071C004BF5368002B01D192681AB10A6842F0CD
S315080071D001020A600A6842F400720A600A6842F00C
S315080071E080020A6010E519490978890141F480018D
S315080071F041F48041D6E70000882B002004000040B7
S3150800720008BC004014A0004014A8004004400040F8
S315080072100050004000E100E004ED00E008B0004046
S3150800722008B4004008B8004000E200E080E200E050
S315080072300C600040E02C00200000002038200040B0
S3150800724094ED00E0008000402000004099270020CF
S31508007250736C6565702E630008237F2202480188D7
S315080072600248FEF7DBB800BF22C60108102D002031
S31508007270F8B504460D46DFF8DC030078002802BF9F
S31508007280DFF8D4633069002827D1DFF8D003007807
S315080072900A2818BF022D20D1FBF778FF0746F27897
S315080072A0082A18D2012D02D19019047206E006F1B7
S315080072B0080106F10900FBF78AF93472F078401CD8
S315080072C0F0703846FBF768FF2046FBF717FCFDF71A
S315080072D0BBFA0120F2BDFBF75FFF0020F2BDDFF825
S315080072E07803017919B901210171FDF7ADBA704723
S315080072F0DFF8640300210171704738B5DFF85403DD
S31508007300007870BBFBF742FF0546DFF84C43E07890
S3150800731070B1217A6170421EE270D2B204F109019D
S3150800732004F10800FBF753F92846FBF735FF16E08A
S315080073302846FBF731FF206998B92079022802D040
S3150800734004F07CF960706078FF2808D1207940B194
S3150800735004F019FB6070FF2803D00020207101207B
S3150800736032BD002032BD2DE9F04104460D4601F03C
S31508007370BAFFB94E00203071FBF708FF8046306926
S3150800738020B14046FBF708FF002013E0B448007818
S31508007390052808BFFDF7E0FA00F00EF8070008BF59
S315080073A034614046FBF7F8FE1FB105B1A04701203E
S315080073B000E00220BDE8F08110B5FBF7E7FEA6491C
S315080073C0CA78A74B1B781A430979114305D1A549F1
S315080073D009784C1EA441E40F00E00024FBF7DCFE0C
S315080073E0204610BD10B59E48002101709A4CFF201A
S315080073F060702161FCF79CFA20709A4800210170A0
S315080074009948017014219948FDF7DAFBBDE8104048
S3150800741001F004BE38B502460021082000F016FC2B
S315080074200446FF2C01D1012032BD0121FFF720FFC0
S3150800743005462046FBF770FB681E8041C00F32BD2B
S315080074402DE9F0410446DFF81C82854E884F824DAF
S315080074506878FF2809D13878FE2818D007B54FF480
S31508007460B3710FF21820FCF73BF93878811F012910
S315080074700DD805213170214600F096FA08B900F0BA
S3150800748013F86878FBF748FBFF20687002E0AC70D9
S3150800749000F00AF83878042804D02879012804BFAF
S315080074A002202871BDE8F081032030704046FDF7C0
S315080074B075BB10B5684C617881420DD10846FBF75B
S315080074C02BFBFBF763FEFF2161706949FE220A70F8
S315080074D0BDE81040FBF760BE10BD38B504465E4DEA
S315080074E0A97801F087FE28B9A9782046BDE8344076
S315080074F001F022BA31BD00002DE9F8430446FF2CFD
S3150800750006D107B540F2B7110FF27010FCF7E8F88C
S31508007510584D204600F0EBFA00F00C002870FF20CA
S315080075206870204600F0E3FA00F00C0008285FD0E7
S3150800753028780C285CD1204600F0CAFA0746FBF7E3
S3150800754040FD804608F44C46384600F006FBC05D10
S3150800755068704FF6FF794FF4406018EA000F06D0BE
