:020000040800F2
:10000000000400206F00000885000008850000083B
:10001000A70B0901000000000401005000200008A7
:1000200004050000770A00082D0D0008D805000817
:1000300000000000000000000000000000000000C0
:100040000000000000000000000000005F00000051
:10005000FFFFFFFF09480068202100EA010028B1E6
:100060000748016842685FEA010D10477047FFF7D3
:10007000F1FF00F010F800F03FF800002C00004005
:100080000020000803E000005FEA000D70474FF415
:10009000017000F095B838B54FF20F043C4D00F0F8
:1000A000BBF820B140F2052028806C8031BD394872
:1000B0000068C00613D56888A0421CD1288840F289
:1000C000022188421CBF40F20621884213D040F230
:1000D000011188421CBF40F2111188420BD02E4CF6
:1000E000208A40F6A721884205D12068FFF7CCFF7F
:1000F0006068804700BF31BD10B572B627480168FF
:1001000049084900016000F0E7F82248006800094A
:10011000C10754BF2249234902E0CD2201F8012B37
:10012000214A9142F9D32149214A224B03E011F897
:10013000014B02F8014B9A42F9D31F491F4A002391
:1001400001E001F8013B9142FBD311494A884FF28B
:100150000F039A420BD10A8840F205239A4207D036
:10016000C00704D5100A012818BF022800D00022B9
:10017000064802804CF23C30488000F077F94FF49A
:100180000170BDE8104000F01BB80000880D002091
:10019000000000202C00004000200008FCED00E0E2
:1001A000000000209800002000040020DC1200085D
:1001B000000400200804002008040020970D0020FF
:1001C0000D4930220A600D490A600D490A600D4947
:1001D00010220A60010A08BF00020B4908804FF292
:1001E0000F004880BFF35F8F084800210160416025
:1001F00007480849016070473020004030C800407F
:1002000030C0004010D00040000000201C400040E2
:100210000CED00E00400FA0510B5002408210E20C2
:1002200000F0E9F92948402181600A2100BF491EF8
:10023000FCD1C8210268520601D4012401E0491E04
:10024000F8D104210E2000F0D6F9204610BD80B56B
:1002500000F0C6F90121062000F0CDF9062000F0DB
:10026000FAF90121072000F0C6F9072000F0E6F9AD
:100270001748016821F01001016001BD052800D96F
:10028000704710B5DFE800F01721030F1C17114C61
:100290002088411E2180C0B9072000F0E9F942F210
:1002A0001070208010BD072000F0D5F90620BDE8B1
:1002B000104000F0DDB90620BDE8104000F0BEB9E6
:1002C0000620BDE8104000F0C6B910BD08B40040DB
:1002D00000BC0040940D002006E04B48016841F04E
:1002E00001010160012141604C48512101607047CA
:1002F000F8B5494C454D4FF6FF77464EB088B842A9
:1003000027D102237F2246480188301D00F0C6F91C
:10031000B088B84204BF0220B080A069800703D42F
:10032000A06940F00200A06101207070B0882060D8
:100330000720286000206860A86035484FF00071F1
:100340000160A069C00732D5E06980B348F69F40DC
:100350003CE0A0698007E3D52868C00348BF00F0EF
:1003600043F8707898BBA06810F00100A168B288CB
:1003700003D10F2A08D2521C06E0890704D5F17870
:1003800011B1032A28BF521EF07092B2022A38BF60
:100390000222B2802068B1888842C5D1A06900F0ED
:1003A0000300032818BFFFF798FF0120F2BDA069E2
:1003B000C00701D5E06920B1A069C00704D4E06995
:1003C00010B144F24F6001E042F227306860002033
:1003D000F2BD80B503E040F2DC5000F093F9FFF786
:1003E00087FF0028F7D001BD0848002141608160E7
:1003F000016821F00201016005484FF000710160C1
:1004000004480021417070471C40004010E000E0AB
:1004100004ED00E0000400200440004000800040A3
:10042000D81200080078704730B5DBB0044621468A
:1004300036A800F081F9002000904FF40263514A81
:1004400036A901A800F017FB0FF2801201A90FF2E4
:10045000881000F06BFC054600F0C9F81DB121467C
:10046000284600F0B1F928465BB030BD80B5FFF7F3
:10047000B0FFFFF7ECFE00F079FC00F0B8F800F0F8
:10048000A5FC0020FFF7FAFE07E01A2000F097FA1B
:1004900001220021522000F023F800F0A8F80220E9
:1004A000FFF7ECFE00A800F063FC0028F5D19DF8F2
:1004B00000005128E9D03448002101700120FFF7E5
:1004C000B3FF20B90520FFF7D9FE012000E004208A
:1004D000FFF7D4FE40F20120FFF772FE002002BDBC
:1004E000F8B506460F461546284C1D220FF2B401FA
:1004F000204600F06CFC0A2204F13401201D00F0BB
:1005000066FC08237F222248018804F10E0000F0D7
:10051000C5F8A676522E1BD13520207006220FF288
:10052000A40104F12E0000F052FC0120E076022329
:100530007F221848018804F11C0000F0AFF8102356
:100540007F221548018804F11E0000F0A7F802E0A0
:100550001D202070E776012D12D12078A0F11B0517
:10056000012000F0DAFC0D48FD2101704570EAB26F
:1005700004F11A01801C00F02AFC094801210170D5
:10058000F1BD000068050020930D00202805002023
:10059000DA120008D6120008D412000898040020CD
:1005A000920D00200063CC00FFFF0000000000005F
:1005B0000000FFFFFFFFFFFFFFFF7C656D010000F4
:1005C000000000000004050050000000491200086F
:1005D00085120008250400084D0900088509000857
:1005E0000E48012181604EF6BE21416000E00C48BA
:1005F00001210160704710B582080FF2280353F8FB
:100600002220136800F0030080000F248440A343DD
:1006100001FA00F01843106010BD000000600040B7
:100620000860004000B0004004B0004000B400404A
:1006300004B4004000B8004004B80040C1080329D9
:1006400008D2C1108902124A012300F0070003FA00
:1006500000F050507047C108032908D2C110890228
:100660000C4A012300F0070003FA00F050507047D5
:10067000C10803290BD2C110074A02EB81210A6885
:10068000012300F0070003FA00F0504008607047B3
:1006900014B0004010B000400CB0004030B583B042
:1006A000044610467F2808BF0020B1F5004F1AD13C
:1006B00008237F2240F6120100A8FFF7EFFF08226F
:1006C0000FF2380100A800F09BFB30B908237F220D
:1006D00040F2A27100A8FFF7E1FF082200A920461E
:1006E00000F075FB37BD1A46034D294300FB03118B
:1006F000204600F06CFB37BD00000408FFFFFFFF41
:10070000FFFFFFFF0A490A680A4B1B68DB0758BF57
:100710004008032809D34B6D43F001034B650B6878
:100720009B1A1B031B0B8342F9D370470000000088
:10073000382000401C40004001700122427082704D
:1007400001290CBF8021402181800021C1800181CD
:10075000A94801600E218162016821F01001016049
:100760000021416341627047F8B504460D461646C4
:10077000A2484FF0FF3101609F4FFE620020786277
:10078000386840F001003860FFF731FF012C19D1C3
:100790006DB900F0FFFA78B9786AB042F4D3002E50
:1007A000F2D038684008400038601620F2BD284674
:1007B00000F0DEFA0028EFD13868400840003860C9
:1007C0000020F2BD0120F2BD80B50A460146182086
:1007D000FFF786FE012000F0A0FBBDE80140F1E03C
:1007E00030B583B00446002020814AF6B43200A917
:1007F0002078FFF7B9FF08B11C203EBD9DF800002E
:10080000032818BF182801D118203EBD042801D1A3
:1008100017203EBD012801D021203EBD002500E06B
:100820006D1CEDB2A188091D8D420BDA40F2DD226C
:10083000281900F10A012078FFF796FF0028EFD071
:1008400026203EBD0025002006E00146EDB2281915
:10085000007B00F0C5FC6D1CA188EAB28A42F4D38B
:10086000A27AE37A9B18FF2B01D022203EBD0B1900
:100870001D7BB5EB102F01D023203EBD5B7BC0B2AA
:10088000834201D024203EBDA078824207D0401E82
:10089000C0B2824201D127203EBD25203EBD881C2A
:1008A00020810220E08000203EBD38B504466078FB
:1008B000012804D00ED3032846D003D30AE0022037
:1008C000607010E000F082FA00F066F8A078401C3A
:1008D000A07008E0182032BD2278A078411EC9B26D
:1008E0000620FFF7FDFD2046FFF77AFF054620783A
:1008F000012804BF284600F062F80DB100F066FA46
:10090000272DE9D0A8060BD52278A1781520FFF76E
:10091000E7FD002DE7D10320FFF7B0FC002032BD3A
:10092000680603D4182D18BF1C2D07D1217828463E
:10093000FFF74AFF04206070284632BD172DE8D12A
:1009400000F02AF803206070172032BDF8B5044685
:100950000D461646002706E0E088411CE18000199C
:10096000807A78557F1CBFB2B74209D2E0882189CE
:100970008842F1D32046FFF798FF0028ECD0F2BD63
:100980000020F2BD10B50446FFF78FFF00F004F819
:1009900000F018F8172010BD2278A1780620FFF784
:1009A0009FBD80B51649FD220A7001224A708870E9
:1009B000012000F0C7FB13480021017001BD00B900
:1009C0001920EEE710B582B00F4C207860B10020FE
:1009D00000F0B8FB0028F8D0002000F09EFA0120BB
:1009E00000F0B0FB0020207040F2DD2200A90120C1
:1009F000FFF7BAFE13BD000000E0004000A8004071
:100A000098040020910D0020920D0020F8B50446B6
:100A10000D4616461F4607E03046A047294600F01F
:100A2000F1FB05467F1E761CBFB2002FF4D128468D
:100A3000F2BD38B50C46154605E0014614F8010B29
:100A400000F0E0FB6D1EADB2002DF6D132BDF8B561
:100A500004460D4616461F463A4631462868236826
:100A60009847040005D13A463146E868FFF7E1FFB0
:100A7000E8602046F2BD10B5029C8472038142609A
:100A800001604FF0FF31C1600021017410BD2DE9FC
:100A9000F84F04468B461E469BF81B70802F28BFDC
:100AA0008027D0689D49884250D1002E4CD0B06834
:100AB00000904FF0FF384FF000090BEB490A9AF80D
:100AC00048500FE0FF2D16D0FFF791FD4FF4006363
:100AD000E80240F0006241460098FFF797FF804629
:100AE000681CC5B29AF84900A842EBDA09F101097D
:100AF000B9F1060FE1DBDBF844006FEA0801884238
:100B000024D1A06800BA7A08594673689847C8B9D2
:100B1000E06805BAA06802BA3B464FF0FF31B06802
:100B2000FFF774FFC04385420CD140F6A720ABF815
:100B30001000A06800BA01220BF110011030736898
:100B4000984708B1422002E0172000E04320BDE8AA
:100B5000F28F2DE9F84F80460D469146D5F804A056
:100B60002889ADF8000005F1140606F110070423EA
:100B700052464046FFF76BFF002870D1BAF80000DC
:100B800040BA1FFA80FBBAF8020040BA84B2E0070C
:100B900048BF462063D4B4F5026FC8BF4E205EDC68
:100BA000002C5BD05FEA0B000AD04FF60441BBEB90
:100BB000010000F09B80FF3853D0FE3851D0ABE0ED
:100BC000287C08B151204AE08D2C28BF4F2046D206
:100BD0002346321D00F0A7F8002840D1FA7E802A73
:100BE00028BF802202F10C00844201BFB08840BAC5
:100BF00000F47F40B0F5007F2CD1F08840BA4EF26F
:100C00005031884202BF388A40F6A721884202BF8D
:100C1000788A00F47F40B0F5807F1BD1B06800BABD
:100C20003F49C969884215D14FF6FF70388206F1F5
:100C300010014FF0FF30FFF7FCFEF16809BAC9431D
:100C4000884204BF387E042804D1787E052818BF66
:100C5000062801D0452002E0012028740020BDE8CC
:100C6000F28F287C002843D0042300F05BF8002892
:100C7000F5D1DAF8000006BA201F84B22848C0690E
:100C8000864238BF4820EAD3A019796D884228BF30
:100C90004920E4D24FF6035083450DD1B9F1000F3E
:100CA0000AD031460220D9F80020904720B14A20CE
:100CB000D5E7E01B84B2BE19002CCFD0BDF80000F0
:100CC0008442B4BF274607463B4600F02BF8002875
:100CD000C5D1B9F1000FECD07A0851463046D9F8A9
:100CE000043098470028E4D04B20B8E7287C08B9A6
:100CF0004120B4E7042C18BF4C20B0D104236A680B
:100D000000F011F80028AAD14B462A463946304651
:100D100001B0BDE8F04FBAE64420A0E7E320BBDE17
:100D20000000000852462946404690E670B5044649
:100D30000D4616462889C10701D4802803DA4F20C2
:100D400070BDA87A78B9324629462046FFF701FFE0
:100D50000028F6D0172807D1286861688847172827
:100D600002D1002070BD502070BD000000F090B88E
:100D700010B5044600F00EF850B112488178124ABE
:100D80008918897821708178491C8170002010BDF4
:100D9000012010BD10B50B4C207888B900F0D2F9B5
:100DA00078B1607840B1002000F0B7F8012000F081
:100DB000C9F90020607010BD012020700020A070D3
:100DC000012010BD910D00200804002070478142D1
:100DD00012D21018401E5118491E92B2002A1EBF8E
:100DE00011F8013900F80139521EF6D1704711F897
:100DF000013B00F8013B521E92B2002AF7D1704726
:100E000010B500E0521E92B232B110F8013B11F859
:100E1000014BA342F6D001E0002010BD181B40B2E8
:100E200010BD0000DFF87403002141718171DFF80B
:100E30007003016C490849000164016C21F40071E0
:100E40000164DFF8601310220A6320220A63002283
:100E50004A650A664A668A6502224A65D24A0A607B
:100E60008D324A60D14A0A618D324A61D04A126895
:100E7000120709D5026C42F001020264026C42F4CE
:100E80000072026401220A634FF6FF71016070472D
:100E900038B5C248002181700121C1700171002163
:100EA000017009214170FFF7BDFFC24848F294412B
:100EB000016008210161C0484FF400530360BF493D
:100EC00000220A65BE4A546824F4706444F4006445
:100ED00054604024146102240C60BA4C2360402307
:100EE0000B65136823F4704343F4804313604FF49D
:100EF0008043036000204865B34803250560042053
:100F0000086023602020486504201061106820F4E8
:100F1000706040F48070106031BD58B1AB4801681A
:100F2000490605D5A2490968090744BF0421C160E3
:100F3000002000E001209949C870704797490A795C
:100F400022B901220A71087000204870704710B55C
:100F500004460620FFF772FB9D4810210160062021
:100F6000FFF779FB90484078A72807BF8F480470A7
:100F70000320FFF7E3FF0120BDE81040E2E02DE988
:100F8000F843924C8A49854D2A7922B10A681207A2
:100F900044BF0422E260AA7892B10420E060206895
:100FA0004006FCD50420A0600020A870E87820B995
:100FB0003220FFF7A7FB0420E0600020BDE8F283A9
:100FC000774E844FDFF8E48100281CBF6879002841
:100FD0003CD00620FFF732FB287930B10020287181
:100FE000022229464046FFF7F2FEE87808B10420C5
:100FF000A06098F80000052804D2A72088F8020015
:10100000032010E0FE2818BFFD2808D198F8010041
:101010004044A721817098F80100C01C03E0A7207C
:1010200088F801000220A871A8794044401E386069
:10103000012030600420F861306C40F00100306421
:101040000420E0600620FFF706FBB6E74FF40079C6
:10105000B869C0071CD40868000719D5B86A8DF8AC
:101060000000B86A8DF80000B86A8DF80000B86A10
:101070008DF8000001203060C6F80090306C40F020
:1010800001003064306C40F4007030640120F8617D
:10109000F86810B9306880058FD501206871042088
:1010A000A060414C306880051FD4F868022884D3C2
:1010B00020780A2806D00B2808D0FD2818BFFE2863
:1010C00006D07AE78220FFF742FF76E7C120FAE7F1
:1010D0006078862805D3FFF7A5FE0120FFF72EFFD5
:1010E0006BE7F968C01C8142FAD30620FFF7A6FA25
:1010F000306C400840003064306C20F40070306484
:101100001020F861C6F800900620FFF7A4FA2879AD
:1011100018B1012000F016F84FE7607800198078C8
:10112000A72803D00320FFF709FFF2E72078FE2865
:1011300003D10420FFF702FFEBE7FD2088F8000051
:1011400001203BE770B50446144D234E1448016856
:10115000C90703D5042131600121697181688907BC
:1011600003D5022181600121A9708168490710D54A
:1011700004218160316019480068A97988421CBF48
:101180000220FFF7DBFEFFF74DFEE87808B90420E8
:1011900070602046BDE87040F1E600008A0D002036
:1011A0000CA8004000C00040080400209804002063
:1011B00008B0004000B0004080E100E014A800400A
:1011C00000B4004080E200E014BC004008B40040DD
:1011D00030C0004014C0004010B4004028C000409F
:1011E0000A0242EA11214840C0F30311484080EA54
:1011F00000304101C9B20206D20E41EA0221484044
:1012000080B270470A0A4840C0B208214308C007AC
:1012100046BF034858401846491EF7D15040704712
:101220002083B8ED2848018A40F6A772914202BF98
:10123000418A4FF47F40014204D102298041C043DA
:10124000C00F704700207047F8B504460D461D4E8C
:1012500001203070FFF7E6FF18B94FF40170FEF778
:10126000AFFF1948876A294644F48070B8470021C7
:1012700031700FF2580618B9294644F40070B84787
:10128000805DF2BD2DE9F041044688465600FFF727
:10129000C9FF18B94FF40170FEF792FF0A48476A78
:1012A0000023324641462046B8470FF2200520B9B8
:1012B0003346002241462046B847405DBDE8F081F4
:1012C00000000000960D0020000004080002020249
:1012D0004B4B46472A083A08EE0800800000000100
:1012E000FFFF0000FFFFFFFFFFFFFFFFFFFFFFFF0C
:1012F000FFFFFFFFFFFFFFFFFFFFFFFFFFFFFFFFFE
:10130000FFFFFFFFFFFFFFFFFFFFFFFFFFFFFFFFED
:10131000FFFFFFFFFFFFFFFFFFFFFFFFFFFFFFFFDD
:10132000FFFFFFFFFFFFFFFFFFFFFFFFFFFFFFFFCD
:10200000E026002029960108A5950108A79501085A
:10201000A70A080100210008040503AC00505F0076
:102020005C5980510000000000000000000000002A
:1020300000000000000000000000000000000000A0
:102040000000000055C5177C0437FFFFFFFFFFFFAE
:10205000FFFFFFFF00E0010800000000000000009B
:10206000FFFFFFFFFFFFFFFFFFFFFFFFFFFFFFFF80
:10207000FFFFFFFFFFFFFFFFFFFFFFFFFFFFFFFF70
:10208000F02F002000000000EB2F0020EB2F00209D
:10209000E026002008BD0108F8B60108881F0020CE
:1020A000180C00200000020800300020FFFFFFFF96
:1020B000FFFFFFFFFFFFFFFFFFFFFFFFFFFFFFFF30
:1020C000FFFFFFFFFFFFFFFFFFFFFFFFFFFFFFFF20
:1020D000FFFFFFFFFFFFFFFFFFFFFFFFFFFFFFFF10
:1020E000FFFFFFFFFFFFFFFFFFFFFFFFFFFFFFFF00
:1020F000FFFFFFFFFFFFFFFFFFFFFFFFFFFFFFFFF0
:10210000E026002029960108A5950108A795010859
:10211000AB950108A9950108AD9501082496010821
:1021200024960108249601082496010824960108A3
:10213000AF950108249601080DB601084752000822
:1021400024960108249601085939000824960108AC
:10215000BB8F000824960108E9780008249601083E
:10216000A56D000817480008A1420008197A000868
:10217000249601088379000891790008DF57000848
:102180006D8400082496010824960108259601080C
:1021900010B501F007010368012405E010B501F056
:1021A0000301890003680F248C40A34302FA01F164
:1021B0001943016010BD000038B500F0CDF80446A9
:1021C00000F0CAF8054600F0C7F805F00F0500F06A
:1021D0000102182C28BF362039D20120A04045F238
:1021E0000F41084218BF382031D1E00803D002283F
:1021F00007D003D309E02146484804E02146484877
:1022000001E021464748FFF7C3FFA00805281DD875
:10221000DFE800F003070B0F13172A462146424858
:1022200012E02A46214641480EE02A46214640480F
:102230000AE02A4621463F4806E02A4621463E4813
:1022400002E02A4621463D48FFF7A8FF0020BDE8EE
:10225000324000F088B810B501F00301890003880E
:102260000F248C40A34302FA01F11943018010BDF1
:102270002DE9F84300F070F8044600F06DF80546CB
:1022800000F06AF8064600F067F8074600F064F8C8
:1022900005F00F0206F0010507F00F0800F0010934
:1022A000182C28BF36202CD2012707FA04F045F25B
:1022B0000F41084218BF382023D1A61021462048DC
:1022C00000EB4600FFF7C7FF424621461D4800EBE2
:1022D0004600FFF7C0FFE0101B49421804F0070159
:1022E00007FA01F3DB4314781C408D402C43147033
:1022F000164A801802781A4009FA01F11143017058
:102300000020BDE8F24300F02EB880B500F04FF891
:102310000F4908400F49086001BD00000CB00040A3
:102320000CB400400CB8004000B0004004B00040C5
:1023300000B4004004B4004000B8004004B80040BD
:10234000B8270020C4270020AC270020B027002099
:10235000F0ABFF00D027002028480168491C01602D
:1023600011F8010D704726490A68264B1B68D31ADD
:10237000852BB8BF10700868401C0860704710B506
:102380000446C0B2FFF7EFFF200A67E010B5FFF781
:10239000E3FF0446FFF7E0FF04EB002080B210BD2E
:1023A00010B5044680B2FFF7EAFF200CC5E010B577
:1023B000FFF7ECFF00F06CF804EB004010BD38B5FF
:1023C00005460F4C23680F4A12689A1AAA18862AE3
:1023D00003DA0246184600F0FCF82068281820604E
:1023E00031BD38B504460846044D2246296800F040
:1023F000F0F828682018286031BD0000142B002058
:10240000182B0020F82C002070B504460D4600263D
:1024100004E0FFF7BBFF25F81600761CF6B2A642D3
:10242000F7D370BD10B5044621460820FFF7D9FF49
:10243000FFF7ACFF2081FFF78FFFA072FFF78CFF43
:10244000E072FFF789FF2073FFF7A0FFE081FFF73D
:1024500083FF2074FFF7ABFF606110BDBDE8104043
:1024600081E710B500F014F82080FFF78FFF60803F
:10247000FFF772FF2071FFF76FFF6071FFF786FFB4
:10248000E080FFF783FF2081FFF766FFA07210BD99
:1024900004467BE710B50446FFF75EFFA070FFF728
:1024A00075FF2080211D0820FFF79BFFFFF754FFD9
:1024B000E070FFF751FF2073FFF74EFF607310BD10
:1024C00010B50446214600F004F82069BDE810402C
:1024D00066E7102073E710B5044621461020FFF789
:1024E00080FFFFF764FF206110BD10B5FFF7D0FF3C
:1024F000208010BD207936E710B50446FFF7CAFFEB
:1025000004F1100000F01CF804F11C010820FFF792
:1025100068FFFFF73BFFA0842434FFF737FF60809C
:10252000FFF71AFF2071FFF717FF6071FFF714FF25
:10253000A071FFF711FFE07110BDBDE810401EE76C
:1025400010B50446FFF733FF2060FFF730FF6060EF
:10255000FFF71CFF208110BD10B500F011F8A08816
:10256000FFF70DFFE088FFF70AFF2089FFF707FF5D
:102570006089FFF704FFA089FFF701FFA07B6DE7EB
:10258000044620680CE710B50446FFF710FF2060F2
:10259000FFF7FCFEA080FFF7F9FEE080FFF7F6FEF4
:1025A0002081FFF7F3FE6081FFF7F0FEA081FFF7C7
:1025B000D3FEA07310BD10B5FFF7E2FFFFF79AFF3F
:1025C000611DFFF786FF04F115011020BDE81040E2
:1025D000F5E6814233D21018401E5118491E10E012
:1025E000121F11F8013900F8013911F8013900F80A
:1025F000013911F8013900F8013911F8013900F8F1
:10260000013992B2042AEBD292B2002A1EBF11F80D
:10261000013900F80139521EF6D17047121F11F826
:10262000013B00F8013B11F8013B00F8013B11F8B8
:10263000013B00F8013B11F8013B00F8013B92B26D
:10264000042AEBD292B2002A1EBF11F8013B00F817
:10265000013B521EF6D17047130003D00A461946BB
:1026600000F020B8704710B500E0521E92B232B1AF
:1026700010F8013B11F8014BA342F6D00FE0002007
:1026800010BD10B500E0521E92B232B110F8013BFD
:1026900011F8014BA342F6D001E0002010BD181B39
:1026A00040B210BD62F30F2262F31F42401810F0D7
:1026B000030308D0C91A1FD3DB0748BF00F8012D58
:1026C00028BF20F8022D130030B4144615461039E7
:1026D00028BF20E93C00FAD8490728BF20E90C00B0
:1026E00048BF40F8042D890028BF20F8022D48BFBC
:1026F00000F8012D30BC7047C91818BF00F8012D33
:10270000CB0728BF00F8012D70470000002818BF34
:102710000128212070470000704770470020704753
:1027200000F0FCB938B50446432830D044280ED018
:10273000452806D0462818BF47280CD04D2826D05B
:102740001CE001F01FF801F01DF801F01BF8BDE8D6
:10275000314001F017B80E4D2878C0B9012028701B
:10276000002001F07DF8472C0CBF40F6010040F638
:10277000020001F0D1F80020287031BD07B540F209
:10278000CD210FF21000BDE8344001F09BB931BDFE
:10279000C22F0020656D6265722D636F6E6669677A
:1027A00075726174696F6E2E63000000DFF8DC34AF
:1027B00033F810001040C840704730B5DFF8D0340F
:1027C0000FF27C5434F810409C60DFF8C04434F8B9
:1027D0001050954311402943D96002221A6000220B
:1027E0001A6024F8101058680028FCD130BDDFF8BA
:1027F000A404DFF8A4148A780AB149780FE0895656
:102800006FF008029142B8BF302108DBC16D39B1C9
:1028100040F24A31C26DB1FBF2F189B2C91E0160CA
:102820007047E0B50A237F22DFF8700400F062F8F9
:102830004FF6FF72BDF806100D20FFF7BEFF07BD73
:10284000F8B50546DFF85044B5F5004F19D102231D
:102850007F22DFF84C0400F04DF8BDF80000000ABC
:10286000FF2814BF002818206070BDF80000000683
:10287000C00E10281CBF001D00F095F9BDF8000027
:10288000C543E07808B1002005E0A089ADB26840FA
:10289000C00701D50120E070A58105F00106C5F350
:1028A0004007DFF80004016841F4004101604FF483
:1028B00040520FF2B04000EB46004078010389B26D
:1028C0000220FFF77AFF304601F010FA4022B901EA
:1028D00000F000FA2D06A80E00F001003843A070A9
:1028E000FFF785FFE07818B1FFF79BFF0020E0704D
:1028F0000020F2BD018800A801F070BADFF898034B
:10290000808970472DE9F04F87B0DFF89C53287815
:1029100004900B38C0B203900423039A0B2100A843
:1029200001F01FFB9DF800008DF80A009DF80100E2
:102930008DF809009DF802008DF808009DF803004D
:102940008DF80500D94E3078012804D16878471EEB
:10295000BF41FF0F00E0012701F071FD80469DF9A6
:102960000200A8F10A0408F10A0A5045B6BF8442E1
:102970004FF0010B4FF0000B012003998840ADF898
:1029800006009DF80100000604D4A888BDF80610D2
:10299000084201D04FF0010B01F0E6FD9DF8030065
:1029A00000060AD4E888BDF80610084205D19DF952
:1029B00000005045B8BF844202DB4FF0010901E03E
:1029C0004FF000094BEA070059EA000000F09B8035
:1029D000B748006800F002008DF80400DFF8D4A2C8
:1029E000DAF8000000F4E0600590B3484FF4E061CD
:1029F0000160002002F0F0F902F0A7FCAF4CA7B193
:102A0000687850B1AA48006840084000A8490860AA
:102A10000120307002F071FD07E0206840F40050A2
:102A20002060206820F480502060307801280CD18C
:102A300002F077FE9E48006840F001009C49086063
:102A400000203070642002F058FD2FB1687818B96A
:102A50000498C0B202F072FF687838B1206820F4A0
:102A600080502060206840F400502060BDF80600CF
:102A7000C643BBF1000F08D003F04EF88DF80100FB
:102A80008DF80280A8883040A880B9F1000F08D0E6
:102A900003F0E9F88DF803008DF80080E8883040F5
:102AA000E8809DF900009DF90A10884202BF9DF858
:102AB00001009DF8091088420BD19DF902009DF993
:102AC0000810884202BF9DF803009DF80510884257
:102AD00006D0042300AA0399C9B20B2001F068FABA
:102AE0000598CAF8000001F09DFA9DF8040002F074
:102AF00073F903F0DCF9687828B148F2607020605F
:102B0000642002F0FAFC9DF8010002F06FFF9DF8CE
:102B1000030003F0A3F807B0BDE8F08F80B501F023
:102B20008AFCBDE80140EDE601F085BC70B50646C3
:102B3000A6F10B0402F068F80546A6F10B00C0B23E
:102B4000102801D38A2070BD5D488168090702D42E
:102B50000068C00701D58C2070BD534806705949E4
:102B60000A680C2A0ED0A4B20FF26C1232F824209C
:102B700090F908008018C861FFF7C4FE012D08BF56
:102B800001F0D6FF002070BD10B5044601F053FCE3
:102B90002046BDE81040C9E74348007870473E48EA
:102BA00090F9000070472DE9F04186B006466FF0BD
:102BB0002A00864246DB14237F224348FFF79AFE11
:102BC000BDF810004FF6FF71884203D0400448BFA3
:102BD000012506D43F2200211020FFF7E7FD04461F
:102BE00000252D48394906F12B02D2B22F2A1AD2DC
:102BF00013220FF2241300E0521ED2B213F9127006
:102C0000BE42F9DB03EB420676780E6013F8121031
:102C100001700020002680460327ADB14FF6BF7239
:102C2000BDF8101029E0092E0CDA325C0A6006703B
:102C300014237F222648FFF75DFE03200126B046BD
:102C40002827EAE78B201DE04FF46052C10200F014
:102C500041F84FF4E062310200F03CF880224FEA84
:102C6000C81100F037F884F020003C18A4B2402CC2
:102C700028BF3F243F2284F0200100F02BF8FFF70B
:102C8000B6FD002006B0BDE8F0810000242B002036
:102C9000E810004064100040E0270020F0B901086F
:102CA00002BA01081C100040D4270020212800206F
:102CB0008020004000E100E080E100E0D010004012
:102CC00060200040AC100040ECB90108C01000408A
:102CD000EEB901080B2070E5AA212900552329002F
:102CE00000252800AA26270055282700002A2600AC
:102CF000AA2B2600552D2500002F2400AA302400E1
:102D00005532230000342200AA3522005537210015
:102D100000392000AA3A2000D500E601EC02EF03BA
:102D2000F204F405F506F707F808F909FA0AFB0BAF
:102D3000FC0DFD0FFE11FF1300160119021C031FED
:102D400010001100200030004000410050006000E1
:102D5000700080009000A000B000C000D000E00033
:102D6000F00000000000010310B5DFF88C3ADFF836
:102D70008C4A2488001B03EB4000002304E030F859
:102D8000134021F813405B1C9342F8DB002010BD78
:102D90002DE9F04182B004460D4616460027DFF8C3
:102DA000588A01E0B81CC7B2B7421ADA78194078DD
:102DB000795D01EB0020ADF80000012200A907EBCE
:102DC000D77004EB6000DFF8343A1B88C01A08EBB8
:102DD000400003F0F1F80028E4D0FFF7A3FC002046
:102DE00000E00120BDE8F681F8B504460E46154620
:102DF00000270DE000F019F8761C04EB4700BDF841
:102E00000010090A4170BDF8000004F817007F1C8B
:102E1000B7EB550FEEDBE80706D500F006F82819EA
:102E2000BDF8001000F8011CF1BD012200A9B0B2EC
:102E30009AE7DFF8C419DFF8C4291288801A01EB79
:102E40004001022003F07EB8DFF8B419415CDFF8DE
:102E5000B429825CDFF8B039C05C10B102F5997218
:102E600092B241EAC21080B2704710B5DFF89C39C7
:102E700003EB4002DFF88849005D012801D11046CC
:102E800010BD1088081803EB400010BD38B50C4683
:102E9000DFF87C190D782A462146FFF765FF208868
:102EA00000281CBF4FF6FF7188420AD0012000E0C5
:102EB000401CC0B2A84206D234F8101022889142B9
:102EC000F6D0002032BD012032BD2DE9F04F9DB07B
:102ED00089460446DFF83C79002038707880DFF8B6
:102EE00038090088ADF8000008A9FFF7CFFF824637
:102EF00001207870DFF824090588DFF82409B0F88C
:102F00000080BDF80060DFF8F4080088ADF8040028
:102F100083460AA9FFF7BAFFD0B1BAF1000F43D038
:102F20004FF6FE70BDF82010814204D1BDF8280094
:102F3000012806D10FE0012904BFBDF82810814205
:102F400032D0BDF82000BDF8281088422CD202E013
:102F5000BAF1000F27D0002078703046CDF808B0C5
:102F60000795CDF81480DFF8A81809788DF80610B9
:102F70000818ADF8100000F06FFABDF81000FFF768
:102F8000F3FEDFF8A00800880690BDF80200000BF1
:102F90004FF6FF789DF80610884218BF0F2800D121
:102FA00014B3002515E0012478780128D5D15846BE
:102FB0000296CDF81C800595D5E7069805FB00F430
:102FC000BDF8040000F03CFCBDF8000000F038FC47
:102FD0006D1C9DF806008542EFDB012038704D2006
:102FE000FFF7A0FB0025FBE0BDF8105000F034FA1D
:102FF0002846FFF7B9FE6E1CBDF80200C043C0B200
:10300000ADF80200DFF820080588BDF80200A842EC
:1030100018BF01244FF0000A1FE0401CC1B2A942B2
:1030200017D2C0B28346DFF8041831F81B10BDF880
:103030000E209142F1D1FFF707FF4FF68071084053
:10304000BDF80C104FF680721140884208BF0BF893
:1030500009A00AF101001FFA80FABDF802008245BA
:1030600007DA022203A9B0B2FFF77EFEB61C0020E9
:10307000D4E7002100E0491CA94219DA11F809003F
:103080008842F8D0012413E02AF81160012201A936
:10309000BDF8103003EB4000401C00F0E4FABDF82E
:1030A0000400C0F3C710401C00EBD07006EB6006B4
:1030B000DFF858A7B6B20598864213DA012200A9B4
:1030C0003046FFF751FEBDF8000040450AD0761C9F
:1030D000000ABDF8001001F07F02BDF8021088421E
:1030E00002DB012400252BE0002100E0491CA9425D
:1030F000CCDA11F809308342F8D1C9B2FF29C5D022
:103100007F2A0CBF4FF0000C9446DFF8F436CB5CFE
:103110009C4509DABDF800C0CCF3C01CDFF8E8E636
:1031200011F80EE0F44501D00124AFE7012BABD03C
:103130007F2A08BF00223AF811105118A4E76D1C2D
:10314000DFF8EC060088854204DA3AF815004045BD
:10315000F5D101247E80B5B2059885420ADA0122B4
:1031600000A92846FFF700FE6E1CBDF80000404590
:10317000F1D034E7002CFCD101220CA9029800F018
:1031800072FABDF8300040450DD105E0401C80B218
:10319000202813D32034A4B20799029A891A8C42AA
:1031A00005DB0120387000201DB0BDE8F08FA518A8
:1031B00020220CA9A8B2FFF7D7FD00200CA931F8F6
:1031C00010104145E2D0A8B2FFF733FE203CA4B274
:1031D000E0E70298069905FB010000F032FB6D1C48
:1031E0009DF806008542F4DB01203870414600F06E
:1031F00055F818B100F034F90028D4D10120D3E7F4
:103200002DE9F84504460D4616469A4631462846AD
:10321000FFF72BFEB0F80080DFF8E875DFF808163E
:1032200009888D420AD27F2E08BF0026DFF8D0051C
:10323000285C864202DAE85D824504D007B540F298
:10324000834100F00CFADFF8C005285C68B1414604
:10325000284600F03BFAE95D012908BF20700AD03A
:10326000022914BF2060208005E0524641462046D6
:10327000BDE8F845B8E5BDE8F18510B50446084657
:103280001146FFF7F2FDDFF870150088DFF86C25B6
:103290001288801A01EB4000206010BD2DE9F34F29
:1032A00083B0DFF858050488DFF868054078002807
:1032B0001ABFDFF8640500882046DFF85415097846
:1032C0000D18ADB2DFF860050088ADF80800C04306
:1032D000C0B200EB013000F55060ADF8020000F024
:1032E000CCF92B1B00F0C5F96E1CB6B2002832D108
:1032F0000025DFF8387510E0E8B2FFF7A5FDADF85E
:10330000040037F81500ADF80600022200F0AEF90F
:10331000002820D1B61CB6B26D1CBDF8080085424D
:10332000EADB002500E06D1CBDF80800854280F254
:103330008E804FF0000A1AE000F08EF81FFA89F034
:10334000FFF712FD09F1010900F097F9BB191B1BEA
:1033500000F08FF9002874D17F1CFFB25F45EBDBD2
:10336000DFF8D004285C8619B6B20AF1010ADFF84A
:10337000900415F800B05FFA8AFADA45D3D25146C4
:10338000E8B2FFF772FD8046B8F80090DFF87804E5
:103390002F5CF80140EA0520ADF80000BBF1010FF9
:1033A000BDF800000CBF40F07F004AEA0000ADF815
:1033B0000000DFF84404311B00EB4100711C89B2AE
:1033C00001914FF6FF7189451EBFBDF80010BDF891
:1033D0001020914218D19DF80C100029C5D001226F
:1033E00000A902F0E9FD019E58BBA8F80060DFF8D3
:1033F00014042A5CDFF8400450F82510B0B2FFF73F
:10340000C7FC0028ACD11FE0DFF8F813695C491C49
:1034100001EBD171C9054FEA116B012200A902F03D
:10342000CBFD019E68B9A8F80060002F95D04946F1
:10343000E8B200F04BF901905A4600F017F9002865
:103440008ED0FFF76FF9002005B0BDE8F08FDFF8F0
:10345000C40346800120F7E701220DF10201704705
:103460002DE9F04182B0DFF8B0030688DFF88C0365
:103470000488DFF8A0536878002812BF2046304641
:103480002646012200A9FFF76FFCBDF800000128C5
:103490000CBF4FF6FE70401EADF80000DFF8700361
:1034A0000778DFF854833846471E70B1012200A91F
:1034B000BFB2B819001B08EB400002F07DFD0028E8
:1034C000F1D0FFF72FF9002007E06978481E80410E
:1034D000C00F6870002028700120BDE8F681000050
:1034E0002DE9FE4F83460C4617469A4600208DF87C
:1034F0000400012539465846FFF7B7FC81465E4671
:10350000C94909888B450AD27F2F08BF0027BC48CC
:10351000305C874203DABB48305C824504D007B593
:1035200040F2A65100F09BF8BA4F787820B1BB4822
:10353000B0F80080B14803E0B948B0F80080B64860
:103540000088397849B97988081ABC4909888842BD
:10355000B4BF43204420FFF7E5F8B9F80010AA48AB
:10356000305C78B1584600F0B1F8BAF1010F08BFED
:10357000217804D0BAF1020F0CBF21882168814262
:103580006BD02BE002914FF0000B23E0012200A949
:1035900002980BEBDB7300EB630000F064F80BEBBD
:1035A000040040781BF8041001EB002080B2AAF15F
:1035B00001018B4505D1C0B2BDF80010C9B2ADF80C
:1035C0000010BDF80010884218BF00250BF1020062
:1035D0005FFA80FBD345D9DB002D3ED1FFF73CFFDE
:1035E000B9F80000401E00F03EF89248355C78883B
:1035F000A8F10101491B814200DB60B9387808B9A4
:1036000045201CE0BDF802100020FFF747FE20B364
:1036100001208DF804007888401C78807949725C1C
:10362000214680B2FFF7B4FBB8B100F026F87B88E2
:103630005B1E724C24881B1B00F01BF810B1FFF7B7
:1036400071F80AE09DF8040010B1FFF709FF20B1FE
:103650007888A9F8000028187880BDE8F78F0FF265
:10366000E81000F02FBA80B2FFF77EBB01A96248D4
:10367000331B00EB430002F09FBC01220DF102015D
:103680005D48704770B582B00446002519260122B6
:1036900000A9A0B2FFF768FB641CBDF8000048B1A8
:1036A0004FF47F41401A02D0FF3806D007E0681C73
:1036B00040B276BDAD1C761EE9D168B276BDBDF8CC
:1036C0000000C0B200B96D1CE843F1E738B50C4604
:1036D000002100914B49455C2A46214600A8FFF78E
:1036E00083FB681C00EBD07004EB600080B2FFF736
:1036F000C9FF002848BFC043009940B2401832BDFE
:10370000F0B583B004462546404830F81560464978
:1037100009888C4202D23C48285C20B907B540F2A7
:10372000A661FFF79CFF37482D5C681C00EBD0704A
:1037300006EB6007B8B2FFF7A5FF322814D2C10725
:103740004CBF00214FF47F41ADF80410012201A9C4
:10375000294BBFB207EB6000284F3F88C01B03EB2B
:10376000400002F029FC60B131462046FFF7AEFF71
:103770000090401C00902B467F2200A92046FFF7B6
:10378000AFFEF7BDF8B5234C2078002832D11B4896
:103790000588607800281ABF1F4806882E461C48F6
:1037A00007783846471E02281DD3012200A9FFB220
:1037B000B819FFF758FFBDF800000028F1D01948EC
:1037C000008807FB006000F03CF80020ADF8000026
:1037D000012200A90848BB195B1BFFF74AFF48B14B
:1037E000FEF7A0FFF1BD3046FFF723FBFFB20FB994
:1037F00001202070F1BD000000E001080CB90108B3
:1038000054B7010840B701082CB70108182A002056
:1038100008B901088C2F002010B901080EB9010861
:1038200012B901080AB9010816B9010804B701085C
:1038300018B901081CB90108BCB8010814B901087D
:10384000201880B2FFF7F5BA73696D2D6565707247
:103850006F6D2D696E7465726E616C2E6300000071
:103860002DE9F94786B01322FF2100A8FEF7F4FEE8
:10387000DFF88490EE22FF214846FEF7EDFE262574
:103880004FF0130A00270FF280081C48385C411CD7
:1038900001EBD1714C101A497E5CFF2804D107B5A9
:1038A0006F21404600F00EF97F2E04D307B570213A
:1038B000404600F007F91348385C00B11934601C29
:1038C00000FB0655012E1CBF29F817A0B2447F1C2F
:1038D000132FDADB40F21C40854204D307B59B214D
:1038E000404600F0EFF800A99DF81800FFF7EDFA48
:1038F00008B0BDE8F0870000182A002040B7010892
:1039000054B701082CB7010873696D2D6565707295
:103910006F6D2E630000000010B5044602F092FBAC
:1039200052483021016052480160524801605248BB
:1039300010210160200A08BF2402504804804FF281
:103940000F014180BFF35F8F4D480021016041604E
:103950004C484D49016010BD10B54C4C2068C00664
:103960000BD546484A490A68C0F894204968C0F80F
:10397000901040F60620FFF7CFFF2068C00708D55B
:10398000444803210170206C40084000206401205D
:1039900020602068000703D5206C20F00800206418
:1039A00010BD000080B5002000F00AF838B907B556
:1039B000F5210FF2F800BDE8044000F083B801BD26
:1039C0002DE9FC44344C4142226889184A1C02F01B
:1039D0001F0200285ABF504245185518A5F11F066E
:1039E0002E48A84224BF2E48864203D3EFF3088016
:1039F000854201D300202EE002F024FB82462948B4
:103A0000006810F0010718BF02F03DFB2068014676
:103A10008D4207D22068CD2100F80119206085422F
:103A2000F8D307E01F38CD2201E000F8012B8142D6
:103A3000FBD22560304602F02BFBE22001E006F8C5
:103A4000010BB542FBD20FB102F002FB504602F06F
:103A500035FB20682038BDE8F6840F4800687047C1
:103A60000D480068203870470F48704730200040EC
:103A700030C8004030C0004010D00040000000209E
:103A80001C4000400CED00E00400FA0518A00040C6
:103A900030500040FA270020F0270020881F002027
:103AA000180C002094ED00E0000000206D696372A6
:103AB0006F2D696E7465726E616C2E63000000007C
:103AC00042DE704738B504460D4602F002FB02F0B4
:103AD000B9FA2946204602F065FB29462046BDE892
:103AE0003440EDE72DE9F0414FF42065DFF8E06167
:103AF000371DDFF8E00101687965016AB965DFF813
:103B0000D8110968F965416A3966816A7966C16ABE
:103B1000B966016BF966806B386797F83400400727
:103B20004CBFFC6BBC6BFFF798FF3865DFF8AC113E
:103B3000DFF8AC21DFF8AC31A04238D2A34236D353
:103B4000183454F804EBC7F840E054F804EBC7F815
:103B500044E0D7F854E04FEACE5E4FEADE5EBEF1B5
:103B6000060F2AD1D7F840E0964526D38E4524D2B9
:103B7000BEF800E04DF64268C6451ED106F18C0540
:103B8000D6F804E0C5F804E0D7F804E0C5F808E08A
:103B900054F8045B756054F8045B7D6054F8045B72
:103BA000BD6054F8045B7D6340F2017505E04FF0A1
:103BB000000EC7F840E0C7F844E0001D984204D268
:103BC000D0F80080B8F1CD3FF7D0181AB8640020C3
:103BD000F86406EB800C4FF0000ECCF878E0401C47
:103BE0000628F6D3386C00283AD0002004E0C0B292
:103BF00006EB800ECEF878C0A3422CD353F804CD48
:103C0000E6469645F8D38E45F6D25FEACC7EF3D5EC
:103C10004FF0000E06EB8E08D8F87880E04504D00F
:103C20000EF1010EBEF1060FF4DBBEF1060FE3D17B
:103C3000002814BF401E0520D9E77B6F4FF0000E0F
:103C400006EB8E01CA6F8A670EF1010EBEF1050FF9
:103C5000F6DBC6F88C300146481EC9B20029ECD10B
:103C6000786DC005C00D02280AD0032816D004289C
:103C700017D0052818D0062819D00C281DD01FE011
:103C8000DFF864000168890748BF40F602151CD4BC
:103C90000068C00719D540F2025516E040F601252C
:103CA00013E040F6022510E040F603250DE0B5F5DF
:103CB000206F0AD140F6042507E040F6052504E010
:103CC00018B1242838BF40F607252846BDE8F08102
:103CD0000000002004ED00E000E300E0F8B6010879
:103CE00090210008E02600201CA00040F0B589B01B
:103CF0000446002001F098FB0A237F222648018811
:103D000000A800F06BF84FF6FF75BDF80200A8425E
:103D100006D107B54FF486710FF29400FFF7D2FE7B
:103D200000260FF2A40701E02A4616B94FF47C42A0
:103D300003E0022E08BF4EF23F0200A800F032F866
:103D4000761C052EF0D3012C03D114237F221348B7
:103D500002E014237F221248018803A800F03EF8F5
:103D600000260FF26C072A4608E02A46012E08BFFB
:103D70004FF6C07202D0082E08BF002203A800F040
:103D800011F8761C0A2EF0D3012C04BF012001F09B
:103D90004BFB09B0F0BD0000F0B90108EEB9010815
:103DA000ECB9010830F81610F05DFEF706BD000012
:103DB000616E616C6F6775652D63656C6C2D6269F2
:103DC00061732E630000000000100C0D0E00000057
:103DD000010203040708090A0B0F000030B583B085
:103DE000044610467F2808BF0020B1F5004F1AD1C5
:103DF00008237F2240F6120100A8FFF7EFFF0822F8
:103E00000FF2CC0100A8FEF72EFC30B908237F2268
:103E100040F2A27100A8FFF7E1FF082200A92046A6
:103E2000FEF7D7FB37BD1A46214D294300FB03118E
:103E30002046FEF7CEFB37BD2DE9FC440C46154667
:103E40001B4941EA00060FF27C0AC00703D507B5FB
:103E5000622100F033F8E80703D507B5632100F0CD
:103E60002DF81448864204D3A819401E12498842EE
:103E700003D307B5642100F021F8002707E0B85DFF
:103E8000FF2803D007B56B2100F018F87F1CAF4264
:103E9000F5D36A082146304602F08EF830B107B5F6
:103EA00071215046BDE8FC44FFF70CBEBDE8F38429
:103EB0000000040800080408001004085046FFF73A
:103EC00001BE00006D66672D746F6B656E2E63001A
:103ED000FFFFFFFFFFFFFFFF30B583B0002401A805
:103EE0000FF234110A680260DFF8205101202870B7
:103EF0000020FFF7B5FC30B10020FFF7B1FC10B196
:103F00002C7049203EBD02237F22DFF80401018886
:103F10000DF1020000F025F802237F22002100A805
:103F200000F01FF8204601A931F81010BDF802205A
:103F3000914208BF0124401C0228F4D3002CBDF894
:103F4000000004D0B0F57F7F07D100203EBDB0F562
:103F50007F7F0CBF0620042000E00720002129708D
:103F60003EBD10B5B1F5807F07D2284C247844B10E
:103F7000C9B2BDE81040FFF743B9BDE81040FFF7F4
:103F80002DBF10BD10B5B1F5807F07D21F4C24782E
:103F900064B1C9B2BDE81040FFF76FB97F2A08BF0E
:103FA00000221C4C214302FB0311016010BD0000E4
:103FB0002DE9F04105460E46174698460FF25C0083
:103FC000B5F5807F13D2114C2178B1B1617819B168
:103FD00007B5C221FFF776FD0120607043463246E7
:103FE0003946E8B2FFF77CFA0020607005E007B5BB
:103FF000CD21BDE8F041FFF765BDBDE8F081034983
:104000000978002918BFFFF77BBB7047C42F002039
:10401000F8B9010800000408FE01FD02746F6B6529
:104020006E2E630010B5DFF8DC441020206302F030
:1040300009F8DFF8D4140A6842F001020A6002F0BD
:104040003DF8DFF8C8046060206061688931616014
:10405000012121638A30E060A060E0688930E0607F
:1040600002202063DFF8A8044FF6FF71016010BD45
:10407000DFF8A00445F26401C1601E2141625021B5
:104080000162C821C1618165F021C16545F69001D9
:104090004166882181660621C16644F2066101609D
:1040A0004FF6FF714160DFF87004007838B1DFF837
:1040B0006C0448F2607101604FF4C1514160DFF857
:1040C0006004016841F004010160DFF85804002138
:1040D000417070472DE9F0470446DFF84C148A2000
:1040E00000FB041000F2050568782A7802EB002036
:1040F0001FFA80FA0AF44040DFF8302412784A7040
:1041000066180021B1705FEA8A6157D5DFF8207424
:10411000796E090652D54FF480684FF40069B0F506
:10412000404F0BD1E81D02F0D3F980BBF86DC006FB
:1041300044D5B86C002C3AD0C84638E0B0F5004FF2
:10414000F4D1287AE97901EB002080B202F03CFC3E
:10415000FF2809D0DFF8DC13096831F810004FF4AC
:10416000FE61084213D1E1E70AF007000328DDD120
:10417000002C14BF786838680528D7D3002C14BFEA
:10418000786838680628F9D3687A0428CED1F86DA3
:10419000C00609D4B86C04B1C84610EA080F03D0B1
:1041A000786C40F0010078640120B07006E010EAFD
:1041B000080F03D0786C400840007864BDE8F087B1
:1041C0002DE9FC4E0446DFF860B38A2000FB04B002
:1041D000071DDFF85C53002C0CBF28686868460098
:1041E000C0B2052806D207B54FF4ED710FF270305A
:1041F000FFF768FC5FFA86F909EB070010F8081D65
:10420000427802EB01211FFA81FA9BF8011001703C
:1042100000214170C84EF06B20F48050F063686E4E
:10422000D4B9306840051CD41AF4E45F0FD100F013
:1042300087FD10B15FEA4A4009D53878802806D258
:1042400004EB0B0082784946384602F0DDFB002C77
:104250000CBF0120022020E0012CE5D130680005D0
:10426000E2D5B648017881B100210170B4480168F7
:104270001AF4E45F02D00022402004E078780009BC
:1042800000F001028F2002F00DFD002C0CBF4FF456
:1042900080604FF400603060D9E72861BDE8F38E9C
:1042A0002DE9F84F9A4C2068216C01EA0005A04ED8
:1042B000DFF890A2DFF88482DFF86C92A24F1AE058
:1042C00040B14878C00605D400229D4801688F207F
:1042D00002F0E8FC280605D502F024FD25F0800553
:1042E00080202060E80506D502F01CFD25F48075CD
:1042F0004FF480702060002D68D0280706D500207C
:10430000FFF7E8FE25F0080508202060E80606D53E
:104310000120FFF7DFFE25F010051020206005F0DA
:104320006000602803D1B06CC0050AD401E0A80683
:1043300005D525F0200520202060002006E0680635
:1043400006D525F04005402020600120FFF738FF0A
:10435000E80410D525F480554FF480502060D7F83C
:1043600000B0082038607868000548BF00F032F9D6
:104370001FFA8BF03860E807ACD56D086D0001209E
:10438000206099F800000028A4D000F051FC01281A
:10439000A0D198F8000000289CD09AF800000428CA
:1043A00098D1F068400800F001008A2101FB0091DB
:1043B000091D002814BF7268326812B92268D2043D
:1043C000F7D5002814BF7068306879E700202060B6
:1043D000BDE8F18F5D4800687047F0B589B00446CC
:1043E0000D460021032001F00BFD04AE1BE0002769
:1043F00001F021FD26F8170001F01DFD00A921F8AC
:1044000017007F1C082FF3DB04A802F045FD0020F5
:104410002080218836F8102051402180401C082837
:10442000F7DB6D1EA41CEDB2002DE0D101F03FFDC5
:10443000012009B0F0BD0321022001F0E1BCF8B574
:1044400029244FF6FF7501F0F6FC281A90FBF4F0D2
:1044500000F13A063E4F3878B8B90321032001F045
:10446000CFFC02237F223B48018800A8FFF7B6FC5F
:1044700001F0E1FCBDF80010401880B2281A90FB52
:10448000F4F0253078700120387001F010FD787854
:10449000301A40B2F2BD80B50321022001F0B0FC19
:1044A000BDE80140CBE770B500242B48007890B9F7
:1044B000FFF7F1FF05461B4E707848B13078401B7E
:1044C00040B202F0FAFC0B2805DB3570012402E053
:1044D000357001207070204670BD80B540B11F4816
:1044E000002101600848016821F08001016001BDE0
:1044F00000F0A4FC00F07CFC00F0E5FBBDE802400D
:1045000000F0C9BB00200040842000404C2B00205C
:1045100000A000404C100040D5270020D0100040E3
:1045200080200040C82F0020482B0020D4270020E6
:10453000202000400427002004A000401428002070
:104540002C2800201F280020B820004038200040E0
:10455000C62F0020F6B90108212800205410004081
:104560007068792E6300000010B584B00A237F22A2
:104570000B48018800A8FFF731FC4FF6FF74BDF827
:104580000000A04205D107B54E210FF21800FFF739
:1045900099FA2246BDF800100020FEF70EF91FBD63
:1045A000F0B90108616E616C6F6775652D66696CA5
:1045B0007465722E63000000DFF88C08417A39B10F
:1045C000017A012904BFC07A042801D10120704773
:1045D00000207047DFF87408016821F48051016001
:1045E000DFF86408017881B100210170DFF86018FC
:1045F0000A68520852000A600A6842F001020A6022
:1046000000228169402002F04DBB70470FF6DC01AB
:10461000405C7047010603D54FF67F710840C0002B
:1046200070478001B0FBF1F080B2FF2888BFFF2007
:10463000C0F1FF00C0B2704738B5DFF80C08817ACE
:10464000012901D1002032BDDFF80C48617871B139
:10465000E178807B4518ADB22079854228BF0546B8
:1046600002F044FC0121A940491E084000E000205E
:1046700061790818C0B232BD000000002DE9F04792
:104680000446C00704D507B540F2651100F04CFAA6
:10469000DFF8C857286DC00748BF8C2000F1918013
:1046A000DFF8A467002030733070DFF8AC7738781B
:1046B000A0B12078122818BF0C280BD1617801F026
:1046C0000701032902BF001910F8020C042804BFD7
:1046D00001203073A86F40F0010002E0A86F40088D
:1046E0004000A867707BDFF87887DFF878977978E3
:1046F00099B10021B173296D41F0040129650128A8
:1047000007D14FF6FF70C9F800004FF40070C8F8E9
:104710000000FFF791FF82460CE0296D21F00401B3
:1047200029654FF0000A012804D100F03EFA642008
:1047300000F0E3FEA86F20F00800A8671420E864EA
:10474000C5F848A0787830B1707B002801BFA86C0C
:1047500000280120A864B8790028286D14BF40F013
:10476000080020F008002865FFF726FF28B1D9F8D7
:10477000400040F00800C9F84000202028626C602A
:104780002C6068687F306860042028624FF4E06421
:10479000DFF8D406046006E002F0B8FB18B102F0BE
:1047A000BDFB01F04FFCDFF8C406006800F0030019
:1047B0000328F1D0C8F80040286D40F001002865BA
:1047C0000020BDE8F08710B50446FFF703FE201A6D
:1047D0000003000B3338DFF8981688421AD2DFF84E
:1047E000940602210160DFF89016A2B24A60220C02
:1047F00002F00F020A60016C41F002010164DFF86F
:104800007C460020207002E0012002F08BFB207823
:104810000028F9D010BD2DE9F84FDFF86466706804
:10482000716C08401FFA80F8C6F80480DFF82C7617
:10483000DFF814566878002840F0D180DFF844464D
:10484000DFF814965FEAC8704CD5D7F800A0386C32
:10485000796C41EA0041A96199F8000000283DD037
:104860009AF80100800639D5012028704FF4805055
:104870003060306C40F480503064FFF79DFE88B3A8
:10488000192000F03AFEDFF800B64FF44040CBF8B4
:104890002800DBF800000090E06E40F40050E06675
:1048A000E06E40F48050E066A8699AF80010490173
:1048B000B8310818FFF787FFE06E80098001E066D5
:1048C000E06E00A909880843E0660020CBF82800C4
:1048D00048F26070E066A88A206003E000220020B1
:1048E00002F0E0F95FEA08600CD5287830B10020CA
:1048F00028700022A969402002F0D4F9306C20F41D
:10490000805030645FEA486008D5687830B9FFF7B6
:1049100061FD00220146892002F0C4F95FEAC86007
:104920004FD5287ADFF838A5012804BF697B012913
:104930001ED100F0F6FE386F40F00100386700200D
:104940006873FFF76FFB0A2000F0D7FD4FF00008F7
:104950004FF6FF7070604FF4E060CAF80000092065
:10496000B8660120B864B86F40F00800B86718E076
:10497000A97B491CA97399F80220C9B2914215D2AA
:10498000012808BF00F0D4F8B86F20F00800B8671D
:104990001420B866FFF750FEB8644FF40070CAF8F0
:1049A0000000386D40F0010038650AE0012808BFBA
:1049B00000F0BEF8FFF70EFD002201468D2002F048
:1049C00071F95FEA08700AD5FFF7F6FD38B1206883
:1049D000A88200202060706C20F0080070645FEAFC
:1049E00088600AD520203862687830B9FFF7F2FC79
:1049F00000220146882002F055F9687820B118F4A9
:104A0000407F04BF0120A870BDE8F18F70B582B06F
:104A10000446FEF789F8DFF8740400210160DFF82E
:104A200030541521E960092101651F2141600121F0
:104A30000166FDF763FFFDF703FFFFF719FB02F0C7
:104A400097FD00F043F9DFF80064308A00F06BF95D
:104A5000708A00F070F901F0F5FA696841F04001E0
:104A6000696001F02BFB707900F005F9B07900F076
:104A700012F9307900F041F9DFF8140490F90000E0
:104A8000FEF791F8F07800F0A7F996F9070000F02A
:104A9000AFF902237F22DFF8FC03018800A8FFF7AB
:104AA0009DF9BDF80000C0054CBF0020BDF8000016
:104AB000DFF8E4130870DFF8E4030078FEF736F857
:104AC00020B107B540F2753100F02EF8012C05D168
:104AD0002868C00711D500F02BF80EE06CB92868E3
:104AE000C0070AD400F01DFE286840F001002860CD
:104AF000C82000F002FD00207073DFF86843F12049
:104B0000206440F2F910E063FFF78CFA2868C007D0
:104B100007D54FF6FF702060DFF844034FF4E061E3
:104B2000016000F012FC73BD0FF2B030FEF7CABF97
:104B300070B5DFF86C532E68DFF80C43607B0128FA
:104B400032D001F07FFA48F2D00129606A6852053C
:104B500009D548F222022A606A68D205F5D5296093
:104B60006A685207F1D4B6B22E60DFF8FC124FF437
:104B7000E0620A60DFF82C130A6A520852000A62E7
:104B80000A68520852000A600A6842F002020A608B
:104B90004A6A42F001024A620121617301F08EFA11
:104BA000BDE8704000F08CBD70BD70B5A64C607B58
:104BB00048B300F0B6FD01F045FA0546DFF8E8021B
:104BC00001210160A34E306D40F0010030650020EE
:104BD0006073FFF727FA20203060306B40F002004E
:104BE0003063F06D40F00800F065284601F066FA89
:104BF0000A2000F082FC9B484FF6FF710160984844
:104C00004FF4E061016070BD8F48407B7047000049
:104C100010B58D4C607B20B107B540F26441FFF7C1
:104C200083FF207A18B1FFF783FF207A607310BDED
:104C30008548007A704780B5022801D3012002BD63
:104C400081490872487B012804D1087A20B9FFF70E
:104C5000ACFF01E0FFF7DCFF002002BD93480068D5
:104C6000800200149A386FF07F0201B29142B8BFFF
:104C7000104640B2704710B5044601F0E3F98C4984
:104C8000002C0A6814BF42F0120222F012020A60DD
:104C90006D494C7140E038B5044601F0D3F9054642
:104CA00000F097FD40B98248002C016814BF41F024
:104CB000800121F080010160634884712846BDE8CD
:104CC000324001F0FBB960488079704779487A49F1
:104CD0004A780B7813EB02220260CA788B7813EBC8
:104CE000022242604A790B7913EB02228260CA7970
:104CF000897911EB0221C160704710B5044601F0BB
:104D0000A1F96B49002C0A6814BF42F0200222F07E
:104D100020020A604C490C71BDE8104001F0CEB988
:104D20004948008A704748490882644908607047CA
:104D30004548408A70474449488261490860704745
:104D40006048007870475748816A41F002018162EB
:104D5000012101607047534800210160816A21F000
:104D600002018162502000F0C8BB38B5564C57484C
:104D700021690180E1694180554DE96C8180002005
:104D80002061FFF7E0FF0120E06100206062206207
:104D90004CF25D00E864286840F4004028604FF45D
:104DA0000040206048F20200206031BD80B5FFF76E
:104DB000D2FF45484FF400410160002101604449A1
:104DC0000A6822F400420A60404A9388CB64118842
:104DD00001615188C16101BD1D4900280A6814BFE5
:104DE00042F0020222F002020A601749C8707047BE
:104DF00038B504467F2C0ED102237F223548018826
:104E000000A8FEF7EBFFBDF80000C00554BFBDF8D9
:104E100000406FF04A0401F015F9054600F0D9FC96
:104E200030B964B204F19A008005000C2A49086088
:104E30000548C471284601F041F931BD024890F996
:104E400007007047000000001428002040A0004028
:104E500080200040302000408428002010200040A6
:104E600000E100E004A0004080E100E0A820004054
:104E7000CDFF070008A0004040200040CF2F0020B9
:104E800000A0004064100040E41000405C100040AE
:104E9000E027002010BA0108DC270020D4270020DA
:104EA0001C10004060200040281000400C10004002
:104EB0008420004098200040FC2C002094200040DA
:104EC000902000403028002018100040982F00202B
:104ED000C010004016BA0108541000407068792DC7
:104EE000636F6D6D6F6E2E6300000000FEFEF7F7BE
:104EF000C8C80100DFF8B4045121016070472DE9F2
:104F0000F04104461E2C3CBFBDE8F04100F0F5BA6C
:104F1000DFF89C040168C90704D5416811B118265F
:104F2000641F11E00168C90704D5416811B90C2656
:104F30000A3C09E00168C90704D4406810B10C2696
:104F40000F3C01E00626143C01F07CF8804602F09C
:104F50001BFBDFF8600407210160002141608160D4
:104F6000DFF854144FF000720A60A4B204FB06F19B
:104F7000491E4160DFF8444426682068400840002C
:104F8000206002F003FBDFF824743D68386820F0ED
:104F90004000386002F002FB3D60266002F0F6FA45
:104FA00002F000FB4046BDE8F04101F087B810B5C3
:104FB000DFF8FC130A68D20704D54A6812B1182139
:104FC000401F11E00A68D20704D54A6812B90C21C3
:104FD0000A3809E00A68D20704D4496811B10C21E3
:104FE0000F3801E006211438DFF8C82307231360C7
:104FF000002353609360DFF8C0334FF000741C60EF
:1050000080B24843401E506010BD2DE9F04100249D
:10501000DFF8AC532C60DFF8AC6334604FF4A04091
:10502000706041F29A084046FFF769FF686844F6ED
:105030009041081A00B24FF4487190FBF1F000F370
:10504000030030604046FFF75AFF08274046FFF74D
:1050500056FF686804197F1EF8D1DFF86C03211D24
:10506000C908B0FBF1F080B27060BDE8F08138B5DE
:105070006FF00F04DFF854530120A8602C608020EB
:10508000FFF73DFFE868FF2802D8641C102CF5DB11
:1050900031BDCF48016841F001010160CD480421D4
:1050A0000160CD480160704710B5CC4C01202070E4
:1050B0000020E070CA48816901F00301032906D18C
:1050C0000020607000F093F80120E07010BD0F2107
:1050D0000160022181610120A0706420BDE81040C0
:1050E00065E770B5B248016841F001010160012136
:1050F000416000F0A7FF0446B04D00F09DF8AB48BA
:10510000512101602E6002F041FA2046BDE8704056
:1051100000F0D4BF70B5B14D2889B14C4FF6FF7681
:10512000B04229D102237F22AE48018805F1080050
:10513000FEF754FE2889B04204BF02202881A069EE
:10514000800703D4A06940F00200A06101206870CC
:105150002889206097480721016000214160816013
:1051600095494FF000720A60A169C9072DD5E16920
:1051700059B348F69F4137E0A1698907E2D56978BC
:1051800099BBA16811F00101A26803D10F2809D2CF
:10519000401C06E0920705D52A791AB1032801D3ED
:1051A000401E28812971288902283CBF02202881BD
:1051B000206829898842C9D1A06900F0030003282A
:1051C00018BFFFF78EFF012070BDA169C90701D587
:1051D000E16921B1A169C90704D4E16911B144F2BF
:1051E0004F6101E042F227314160002070BD2DE99E
:1051F000F8436E4C714D00F025FF804602F0C4F973
:10520000FFF788FF5FEA00090CD100F015F8276866
:10521000206820F04000206002F0C0F927602E6076
:1052200002F0B4F902F0BEF9404600F047FFB9F1D0
:10523000000FE0D0BDE8F1832E68286840084000E8
:10524000286002F0A3B95B480021416081600168D9
:1052500021F00201016058484FF0007101605F4881
:1052600000214170817801290BD15F4901220A6038
:105270005E490968C90748BF032106D4022181702D
:1052800007E78178042901D10521817070472DE954
:10529000F843524CE078002855D1484EDFF80C8195
:1052A0001DE000F0CFFE054602F06EF9A07803285D
:1052B00010D000F0A1F8D8F80090D8F8000020F045
:1052C0004000C8F8000002F069F9C8F800903760A3
:1052D00002F05CF902F066F9284600F0EFFEA078D3
:1052E0000328DED13E4D208928604FF6FF76E08806
:1052F000B0420CD102237F223D480188A01DFEF759
:105300006DFDE088B04202D16420E08001E0E088D9
:1053100080B1E08837494A6D42F001024A650A6867
:10532000AB68DB07FBD50B689B1A1B031B0BB3EBAE
:10533000500FF5D3FFF7D5FE0420A0704FF4C870CE
:10534000BDE8F24333E6BDE8F1832DE9F843234C91
:10535000207838B3E078F0B124E000F073FE8046A6
:1053600002F012F9A078052810D0144E00F044F88D
:105370000E4DD5F80090286820F04000286002F01B
:105380000DF9C5F80090376002F000F902F00AF953
:10539000404600F093FEA0780528DED10020607022
:1053A000FFF725FF00202070BDE8F183008000405A
:1053B0001C40004010E000E004ED00E094ED00E04F
:1053C000104000400C0000400060E3160840004020
:1053D00058A0004080E200E000E100E0F827002053
:1053E000044000400EBA010818A000400C400040E4
:1053F00012BA010838200040376830684008400081
:10540000306002F0C3B8000010B5464C002000F038
:1054100054FD40F68C218842206834BF40F00800DB
:1054200020F00800206010BD10B582B0044600F0E6
:105430005FF800A8FEF7D2FC9DF801009DF800106F
:10544000FF2902BFFF280420002104B1801CC0B244
:10545000082828BF0720082928BF0721324A1368D7
:1054600023F4607343EAC01010601068C00851EA6A
:10547000C000106013BD00B583B002237F222B480B
:10548000018800A8FEF7AAFCBDF800004FF6FF71E6
:1054900088420EBF4FF4E1600A2190FBF1F0ADF8B5
:1054A0000000FDF72BFAC0071FD500F021F801A876
:1054B000FEF794FC9DF80500FF2808BF0420811C1E
:1054C000C9B20829A8BF0721C1F12F02BDF80030D9
:1054D000C0F12F0002EBD272521000FB0320C1F189
:1054E0002F01B0FBF1F0ADF80000BDF800000EBDDB
:1054F00002237F220E48018870470E490A680E4B2E
:105500001B68DB0758BF4008032809D34B6D43F0E5
:1055100001034B650B689B1A1B031B0B8342F9D3DA
:105520007047000000BC004018000040F4B90108BA
:10553000F2B90108382000401C40004010B50400BA
:1055400004D110BD4FF47A70FFF7D7FF2046441EF8
:1055500080B20028F6D110BD7047000038B5FFF7C3
:10556000D9FD0020FFF760FFDFF85443206840F0CA
:105570000800206000F0A6FDFFF746FF00F05DF890
:105580008D78DD608D890560CD89456000F04CF82F
:10559000206820F01000206002F050F802F06DFA50
:1055A00002F03DF8FFF723FEFFF761FDBDE8314053
:1055B00000F0A3BD10B502F090FA02F084F8C148E3
:1055C000C1490A79C260C14A4B79D360C04B8C791A
:1055D000DC600C8B04604C8B4460888B1060C88B43
:1055E0005060088C1860488C586010BD10B5FFF7EB
:1055F0005BFDFFF709FF00F020F88C78DC608C89F8
:105600000460CC89446000F00FF8AD48016821F0D7
:105610001001016002F012F802F02FFAFFF737FED6
:10562000BDE8104002F05ABA088A1060488A5060FB
:10563000888A1860C88A586042E0A248A2490A785D
:10564000C260A24A4B78D360A14B7047F0B50B689B
:105650009D4C646A0F25960005FA06F6344212D076
:10566000002606EB820724FA07F7FF0708D5B700E4
:1056700005FA07F7BB4330F812C007EA0C073B43B3
:10568000761C042EEDDB0B60F0BDF0B50B688E4C84
:10569000646AFF25D600B5402C420FD0002505EBEB
:1056A000C20624FA06F6F60705D50126AE40B34336
:1056B000175C3E4033436D1C082DF0DB0B60F0BDE2
:1056C00010B5814C606A002827D000228149201D36
:1056D000FFF7DBFF01228049201DFFF7D6FF0222E2
:1056E0007E49201DFFF7D1FF0022764900F016F811
:1056F00001227B4900F012F80222744900F00EF8F2
:105700000322784900F00AF80422714900F006F8F3
:105710000522754904F1180034E010BD04F11800A9
:1057200094E710B5684C606A002827D000226949C8
:105730002046FFF7AAFF012267492046FFF7A5FF91
:10574000022266492046FFF7A0FF00225D4900F0D3
:1057500016F80122624900F012F802225B4900F0BB
:105760000EF803225F4900F00AF80422584900F0BD
:1057700006F805225C4904F10C0003E010BD04F1B9
:105780000C0063E7BDE8104060E70320FEF737BC7C
:1057900010B502F0D8F9044602F0D9F9C0B208B940
:1057A000012C07D1072C11D8DFE804F004100608FB
:1057B000080A0C0E002010BD092010BD022010BDEB
:1057C000032010BD0B2010BD062010BD44F080004A
:1057D00010BD3D48007A70473B48807A7047444886
:1057E0004FF40041C160082101603749887A50B107
:1057F0003E480068800900F001000B7A83421CBF1C
:105800000872FEF76ABE70472DE9F04104462E4D3E
:10581000AC72374F0020B8654FF400483548C0F8E7
:10582000008008203860C7F80C8000F00BFC2C4E7C
:10583000002C316821F4706114D041F400613160B2
:10584000B16821F04001B160082100F05FF801F07B
:10585000BF012970082100F053F801F0BF01297140
:10586000012113E041F480713160B16841F04001E1
:10587000B160012100F04AF841F040012970012196
:1058800000F03EF841F0400129710021697200F0FA
:1058900015FC4CB11848062101606020B86570689D
:1058A000800900F0010001E00020B8652872287A24
:1058B000FEF713FE14B11148C0F80080BDE8F08176
:1058C00000BC004000B00040AC27002000B4004005
:1058D00000B800400CB000400CB400400CB80040D0
:1058E00004B0004004B4004004B8004008B00040D8
:1058F00014A8004080E100E018BC004000E100E096
:105900006A8B61F30B226A8329797047EA8961F314
:105910000B22EA81297870472B490A689209920183
:105920000A600A681043086028484FF4004101608B
:10593000002101606420FFF7E0BD00002DE9F04781
:105940008046234DD5F80090286840F40040286038
:105950001D4F386820F4805038601E4C207868B1A4
:105960001D48A178627800EB820212F82A2C891A6D
:1059700000EB880010F82A0C461802E020260120CF
:105980002070B0B2FFF7C8FF0FF2500A02E0B0B2C9
:10599000FFF7C2FF386B042805D0386B400754BFAF
:1059A000761E761CF3E7F86A38B184F80180A67099
:1059B0001FFA89F02860BDE8F08707B540F2211191
:1059C0005046FEF77FF8E5E7D01000401810004081
:1059D0001C100040CC2F0020D82C0008616E616C98
:1059E0006F6775652D76636F2E6300004FF4FE526E
:1059F000810189B20C20FCF7E0BE2DE9F84F8A4CFA
:105A0000A568ADB200264FF00A080127B946206804
:105A10001FFA80FA00F04BFAB0202063DFF80CB2D6
:105A2000DBF800000120FFF768FDB9F1000F11D08D
:105A3000AAF10300874202DAF81C87B213E0574646
:105A40000AF5004020600621092000F0D9F94FF046
:105A500000090BE0DBF80000000707D5042FA6BF04
:105A6000F81E87B2002707F5004020601A2EA8BF55
:105A70006FF0090804DA16F1190FB8BF4FF00A08E1
:105A8000464436B27019A060DBF800000007C9D5A3
:105A9000012FC7DAB9F1000FC4D1A560C4F800A086
:105AA0000820CBF800006248006880B2BDE8F28FA1
:105AB00010B560494FF0FF325A4B1C7864B1002892
:105AC00019BF4A605C48486041F211100860D988EB
:105AD0009888BDE8104090E7002819BF4A600A6026
:105AE0004860086000F0E3F906210920BDE8104095
:105AF00000F0D7B938B50120FFF7DAFF04460020DF
:105B0000FFF7D6FF05460120FFF7D2FF4042001BFA
:105B100000EB450000B232BD2DE9F04F83B0474C99
:105B2000A06AADF804002068ADF80200444D286872
:105B3000ADF800003B4E307858B14FF6FF720021AF
:105B40000820FCF733FE8046C022C0210820FCF765
:105B500034FE3C4F3C48007810B148F26070386029
:105B6000708840F4404040F04C00F8630220A0628E
:105B70000120206040F24C40FFF7BFFC0120E860AC
:105B800028600020B0804020F080307800B12020D4
:105B9000FFF72CFFFFF7AEFF83464020B0807F2049
:105BA000F080FFF723FFFFF7A5FF00F04FF8FE217D
:105BB00001FB00FAABEB090B307850B1484601F01D
:105BC0007CF900F043F880B20AEB8911B1FBF0F0E8
:105BD00004E000F03CF880B2BAFBF0F080B2401C68
:105BE0004FEAC039BDF8000028600020E8600220BC
:105BF0002060BDF802002060BDF80400A062002013
:105C0000F863307830B14FF6FF721FFA88F1082040
:105C1000FCF7D3FD40F24C40FFF76FFC4FEA194010
:105C2000BDE8FE8F0A280020C010004018A00040E8
:105C30000070004038100040EEEEFFFF6020004092
:105C400028100040D0100040D5270020814658463B
:105C500001F033B93F22410089B201E03F22014601
:105C60000220FCF7AABD2DE9F04F93B0564CE06C32
:105C7000ADF808002068ADF80600544DE86AADF8AC
:105C800004004FF6FF7200210120FCF78FFDADF8F4
:105C900002004FF6FF7200210B20FCF787FDADF8E4
:105CA00000004FF40040206000202861686148F245
:105CB000020000F08DF84CF68C30E06448F2F00001
:105CC000E8624FF4805211460120FCF776FD4FF652
:105CD000FF7200210B20FCF770FD0621062000F06A
:105CE000E0F8804600F087F883464CF69C30E0648C
:105CF0000020FFF7AFFF0621084600F081F80026DC
:105D0000B0B2FFF7A7FF0621062000F079F800F0F7
:105D100092F803A921F81600761C202EF0DB00F083
:105D20008AF81020FFF796FF00F065F8A0EB0B0053
:105D3000BDF82C10A1EB0801404301FB01094FF015
:105D4000100A112700F050F800F055F800F045F85F
:105D500005DB81461FFA87FA7F1C202FF2DB5046B5
:105D600010280ED10F2700F03FF800F044F800F0A3
:105D700034F806DB81461FFA87FA781E07B2002F37
:105D8000F1D5BDF80800E064BDF806002060BDF85C
:105D90000400E8624FF6FF72BDF802100120FCF724
:105DA0000CFD4FF6FF72BDF800100B20FCF705FD4F
:105DB00001202861002000F00BF84FEA4A00C0B231
:105DC00013B0BDE8F08F0000C01000401810004074
:105DD000286040F24C40FFF790BBA0EB0B00404323
:105DE00006FB06004845704703A830F81700A0EBF3
:105DF0000806B8B22EE70621072000F052B80000CE
:105E000070B505460E4601F0BFFB3D4C206C20F0FE
:105E10000800206401F0C6FB00F014F9310341EAE8
:105E2000C51141F00101374A116008212160BDE828
:105E3000704000F043B92DE9F041334C334D304E02
:105E400025E001F0A1FB324804210160306C40F0F4
:105E5000080030642F68286840084000286001F07E
:105E600095FBD4F80080206820F04000206001F00D
:105E700095FBC4F800802F6001F088FB306C20F0A7
:105E80000800306423480421016001F08BFB306876
:105E90000007D6D5082030601F48006880B2BDE8F2
:105EA000F08180B5FFF7ACFFBDE80140C3E71548BE
:105EB00001684908490001607047F8B50746FFF7D7
:105EC000DAFA044639460320FFF7EBFF0546394668
:105ED0000120FFF7E6FF064639460020FFF7E1FF05
:105EE00008490A68520852000A60401B0004711BEE
:105EF000B0FBF1F060434000000CF2BD0000000078
:105F000018A00040047000400080004094ED00E0C4
:105F100000E100E080E200E0007000404348018AB8
:105F200040F6A772914202BF418A4FF47F4001427E
:105F300004D102298041C043C00F70470020704740
:105F4000000000002DE9F84F8246884600F07AF8FC
:105F50000446374D2F68286840084000286001F04B
:105F600015FBDFF8C4B001208BF80000FFF7D6FF67
:105F700028B907B5FF210FF2BC00FDF7A3FD2B48A0
:105F8000D0F8289041464AF48070C84706462F60F2
:105F900001F0FCFA204600F091F800208BF8000098
:105FA0000FF298040EB1305D04E041464AF40070EF
:105FB000C847005DBDE8F28F2DE9F84F804689465D
:105FC0004FEA420A00F03EF80546194E376830683D
:105FD00040084000306001F0D9FAFFF79FFF30B968
:105FE00007B54FF4A1710FF24C00FDF76BFD0F48A0
:105FF000D0F824B00023524649464046D8470446CC
:10600000376001F0C3FA284600F058F80FF22C056B
:106010000CB1605D05E05346002249464046D84732
:10602000405DBDE8F28F0000CA2F00200000040888
:1060300094ED00E0666C6173682E6300000202025A
:106040004B4B4647EFF31180602181F31188704775
:10605000174838B50446FFF7F5FF054615480021F7
:106060000160082154F8042B826054F8042BC260AC
:10607000491EF7D10121016001F088FA2846BDE8E8
:10608000324000F01BB80B480021016001F07EBADD
:1060900010B50446FFF7D6FF05496209520142F0E8
:1060A00014020A62044A4A62BDE8104000F006B8D1
:1060B0006C27002094ED00E009000B1080F311889C
:1060C000704700002048012181604EF6BE214160EA
:1060D00000E01E48012101607047A52805D11A483B
:1060E0004DF6AD61416002210160704716480068BD
:1060F00010F0010018BF0120704780B5144810212E
:106100000160144800781449144A58B103280CBFA0
:1061100000200120106040F6510008600020FFF7C9
:106120000DFA06E0022010604FF400600860FEF7F0
:106130006CFF0B4807210160002101640948102110
:106140000160002002BD00000060004008600040C7
:1061500080E100E0C32F00200C60004008000040F8
:1061600014A0004000E100E070B5A04802F055F82E
:106170000446FF2C15D09E480068205C851EE9B2BD
:10618000204601F0C8FF0646E9B2204601F0B5FE00
:106190002146304600F0DFF82046BDE8704001F0AF
:1061A0005BBD70BD03460A468FA10420FFE70CB417
:1061B00080B502AA00F02AF801BC5DF80CFB00B51E
:1061C00087B0FFF7E5FA0021059104915021039172
:1061D00000210291019187490091002302460FF2AC
:1061E00024210120FFF7E3FF83488179039101888F
:1061F00002914179019101790091C37882780FF27F
:1062000010214220FFF7D3FF07B000BD2DE9F04F6A
:1062100085B005460C469046002602F0AAF8C0B1AB
:10622000012001F0B0FC8246BAF1FF0F11D000212D
:1062300001F0A4FC294601A802F09DF805467CB9AE
:1062400000F084F810B9504602F007F9504601F00A
:1062500003FD05B0BDE8F08F8DF804200125641C16
:1062600020780028ECD0A0F13001C9B20A2905D26B
:106270000A2101FB0600A0F13006F0E700F066F805
:106280000028E3D10025227801A8422A0ED0442A12
:106290001AD0462A25D0572A0DD0622A3AD0662A2B
:1062A0002AD06C2A25D0702A26D0D5E758F8040BBE
:1062B0008DF80400D2E758F8041B8DF80410090487
:1062C000090E41700225CAE758F8041B8DF8041026
:1062D0000A0A42700A0C8270080E8DF80700042525
:1062E000BDE758F8041B504601F0C7FD0028B6D0A2
:1062F000ACE758F8046BB2E7012358F8041B662A90
:1063000008BF0223F2B2504601F097FD002808BFF3
:106310000026ECE7364800681AF8009058F8041B8D
:10632000CFB2FF2F9BD017F800B00BEB0901C9B219
:10633000504601F0E2FD002888D1CDF800B00023DE
:106340003A464946504601F021FF88E72A4601A90E
:10635000504601F090BDF0B585B00C46122806D02D
:106360003A281AD04FF6FE71884234D039E02048DE
:106370000068255C214E08E0204601F0F9FB394613
:1063800001F0AAFB203D3068245CFF2C29D0EDB23F
:10639000212D2CBF20272F46EEE702F02FF90446CF
:1063A000FEF7C6FC0546FCF7FAFB0646FCF7F4FBD5
:1063B0000746FEF7B5FC024604940E4803901048C9
:1063C00000880290019500963B460FF24C013B205D
:1063D000FFF7EDFE05E0204605B0BDE8F04002F015
:1063E000F1BB05B0F0BD000057460000F4270020C7
:1063F000E8260020FC2C002030B90108F0260020FF
:106400009E2F002042423870424242425742420090
:106410004242424257420000574242575738704268
:1064200000000000DFF8800500210170FF210172EB
:1064300001737047F8B5044602F09CFD0546DFF88D
:106440006C050688DFF86075204602F0EBFEB0F5BB
:10645000006F1CD1204602F007FF00F0B5FAFF28BC
:1064600013D0DFF84C15096831F8102042F02002F3
:1064700021F81020214607F10C0001F0B9FE387810
:1064800090B1A819398A461A13E09320F2BDFF2172
:1064900007F1080001F0D7FE052803D2214607F1D5
:1064A0000800EAE73920F2BD3D823146384602F065
:1064B00068FFB2B20321204602F031FE032205211B
:1064C000204602F037FE204601F0B8FB0020F2BD66
:1064D000F8B50446DFF8D004007AFF2813D0DFF8BF
:1064E000D4542968465C3746384602F0ADFE08228F
:1064F00001462046FCF7B7F808B90120F2BD28682C
:106500003F5CB742F0D10020F2BDF8B5044602F07E
:1065100033FE050B204602F0BDFE0646204602F083
:10652000A7FEB0F5404F17D1E8073DD53146002012
:1065300000F083F90446FF2C36D0002103F030F838
:1065400090B30521204602F0FCFD40F080020521B9
:10655000204602F0EFFD27E0304601F0D2FD00F0CA
:1065600033FA0446FF2C01D10020F2BD01200021A6
:10657000224603F023FADFF84024D2E900670643FD
:106580000F43C2E90067EB070ED5DFF824341B6820
:1065900033F814304FF4FE64234205D0D2E90245AB
:1065A00020432943C2E902010120F2BD38B5044667
:1065B00002F038FEB0F5006F0CBF01250025204623
:1065C00002F042FE04462146284600F036F9FF2834
:1065D00010D18DB1204601F094FD00F0F5F9FF28AF
:1065E0000AD0DFF8CC13096831F810004FF4FA61D3
:1065F000084201D0012032BD002032BD2DE9FC410E
:1066000007460C46DFF8A05302F00CFEB0F5006F11
:106610000CBF05F10C0005F108000078FF2848D0F8
:10662000DFF890130968405C0646B7423ED1FFF799
:1066300009FD80460521304602F083FD00F07F0011
:10664000471EFAB20521304602F074FD002C18BF37
:10665000312C01D0F8B210BBFFF7F4FC0746F0B2C2
:1066600002F0E0FDB0F5006FF1B206D105F10C00CB
:1066700001F0E9FD00F00CF903E005F1080001F07C
:10668000E2FD3846FFF71AFD4046FFF717FD2146A9
:10669000304603F0E7FF304601F0DEFA04E000F098
:1066A000F7F84046FFF70AFD012003E0765C8642DA
:1066B000BBD10020BDE8F68138B502F05BFCBA4CD6
:1066C000218A421A4FF6FF75ADF80050208200A9CA
:1066D00090B200F0FEF8BDF80000A84202D1002000
:1066E000207031BD0146204602F04BFE31BD002135
:1066F0004FF6FF70EDE02DE9F84FDFF8BC92D9E9D5
:106700000001002908BF002800F090800026012425
:10671000B2460027B846FFF795FC8446D9E9000148
:1067200004EA00021AEA010308BF002A18D0012770
:10673000E5436FEA0A0B284001EA0B01C9E90001B1
:10674000D9E9022304EA02001AEA030108BF00287B
:1067500006D0B84602EA050003EA0B01C9E90201C6
:106760006046FFF7ABFC002F51D09148006830F82D
:10677000160081074BD59149096831F81670B8F1B8
:10678000000F05D000F49871102908BF012500D032
:1067900000258B49096800227254B8F1000F25D0FA
:1067A000800623D58DF80070380A8DF8010000A905
