S0140000736C656570792D73656E736F722E73333787
S3150800200000270020ED700108697001086B7001084F
S31508002010A70A080100210008040303AC00505F006A
S3150800202000000000000000000000000000000000A2
S315080020300000000000000000000000000000000092
S315080020400000000000000000FFFFFFFFFFFFFFFF8A
S31508002050FFFFFFFF00E0020800000000000000008C
S31508002060FFFFFFFFFFFFFFFFFFFFFFFFFFFFFFFF72
S31508002070FFFFFFFFFFFFFFFFFFFFFFFFFFFFFFFF62
S31508002080F02F002000000000EA2F0020EA2F002091
S31508002090002700207C8C0108C0730108A81F0020B7
S311080020A070050020000003080030002036
S3150800210000270020ED700108697001086B7001084E
S315080021106F7001086D70010871700108E870010898
S31508002120E8700108E8700108E8700108E87001081D
S3150800213073700108E870010871730108373D0008DB
S31508002140F30C0108E870010859720008E8700108E4
S31508002150F3C700085B6F0008E8700108E87001081B
S31508002160E9600008A7330008312E0008912100080D
S31508002170E8700108137100087F7100082B440008F5
S3150800218075C10008E8700108E8700108E9700108DF
S31508002190DFF80C110978DFF80C211268520742D5CE
S315080021A0C9B203293FD2C9B2DFF8FC20DFF8FC30F8
S315080021B01B8822F81130DFF8F820127801238B40AB
S315080021C01A43DFF8EC301A70DFF8E8201278002A94
S315080021D022D000221000C0B2032824D20122824055
S315080021E0DFF8D0301B781A4214D0DFF8B42010700C
S315080021F0DFF8C0201278012383405A40DFF8B43054
S315080022001A70C0B2DFF8B02032F81020DFF8AC3010
S315080022101A6008E0401CDEE7DFF8A0200023136000
S315080022201F4A032313701F4A4FF6FF731360BFF349
S315080022305F8F704780B51F48002101701848032139
S3150800224001702048002101701448052101801848B2
S31508002250002101701948002101601B480021016016
S315080022601A484FF4004101601948102101601948C5
S315080022700E490160184801210160154803210160D3
S3150800228016480421016007484FF6FF7101600C48A3
S315080022904FF40061016000F05EF801BD8E2F00204A
S315080022A0A12F002010A80040882900208C2F00208C
S315080022B0A22F0020A02F00209029002004D0004043
S315080022C000E100E0A32F002008D000400CD0004019
S315080022D010D0004018D000401CD0004050A8004044
S315080022E0DFF8DC3433F810001040C840704730B5CA
S315080022F0DFF8D0340FF27C5434F810409C60DFF8D5
S31508002300C04434F81050954311402943D96002223D
S315080023101A6000221A6024F8101058680028FCD1A8
S3150800232030BDDFF8A404DFF8A4148A780AB1497826
S315080023300FE089566FF008029142B8BF302108DBDA
S31508002340C16D39B140F24A31C26DB1FBF2F189B2C1
S31508002350C91E01607047E0B50A237F22DFF87004C2
S3150800236000F062F84FF6FF72BDF806100D20FFF771
S31508002370BEFF07BDF8B50546DFF85044B5F5004F72
S3150800238019D102237F22DFF84C0400F04DF8BDF87E
S315080023900000000AFF2814BF002818206070BDF846
S315080023A000000006C00E10281CBF001D00F095F99D
S315080023B0BDF80000C543E07808B1002005E0A08913
S315080023C0ADB26840C00701D50120E070A58105F0CF
S315080023D00106C5F34007DFF80004016841F400412F
S315080023E001604FF440520FF2B04000EB46004078CF
S315080023F0010389B20220FFF77AFF304600F04EFA51
S315080024004022B90100F000FA2D06A80E00F00100DE
S315080024103843A070FFF785FFE07818B1FFF79BFFF8
S315080024200020E0700020F2BD018800A800F0AEBAD6
S31508002430DFF89803808970472DE9F04F87B0DFF8F9
S315080024409C53287804900B38C0B203900423039A4F
S315080024500B2100A800F046FB9DF800008DF80A0045
S315080024609DF801008DF809009DF802008DF8080016
S315080024709DF803008DF80500D94E3078012804D15F
S315080024806878471EBF41FF0F00E0012700F09FFD57
S3150800249080469DF90200A8F10A0408F10A0A504587
S315080024A0B6BF84424FF0010B4FF0000B0120039991
S315080024B08840ADF806009DF80100000604D4A888F7
S315080024C0BDF80610084201D04FF0010B00F014FECB
S315080024D09DF8030000060AD4E888BDF806100842ED
S315080024E005D19DF900005045B8BF844202DB4FF084
S315080024F0010901E04FF000094BEA070059EA00001C
S3150800250000F09B80B748006800F002008DF80400D0
S31508002510DFF8D4A2DAF8000000F4E0600590B348CA
S315080025204FF4E0610160002001F0D5F901F085FC67
S31508002530AF4CA7B1687850B1AA4800684008400077
S31508002540A84908600120307001F04FFD07E02068B7
S3150800255040F400502060206820F4805020603078D5
S3150800256001280CD101F0E6FE9E48006840F0010003
S315080025709C49086000203070642001F036FD2FB1B8
S31508002580687818B90498C0B201F0A6FF687838B11F
S31508002590206820F480502060206840F400502060B5
S315080025A0BDF80600C643BBF1000F08D002F082F85A
S315080025B08DF801008DF80280A8883040A880B9F10E
S315080025C0000F08D002F01DF98DF803008DF8008081
S315080025D0E8883040E8809DF900009DF90A10884295
S315080025E002BF9DF801009DF8091088420BD19DF99C
S315080025F002009DF90810884202BF9DF803009DF865
S315080026000510884206D0042300AA0399C9B20B20F4
S3150800261000F08AFA0598CAF8000000F0C9FA9DF891
S31508002620040001F058F902F010FA687828B148F267
S3150800263060702060642001F0D8FC9DF8010001F06C
S31508002640A3FF9DF8030002F0D7F807B0BDE8F08FA6
S3150800265080B500F0B8FCBDE80140EDE600F0B3BC7B
S3150800266070B50646A6F10B0401F096F80546A6F1E4
S315080026700B00C0B2102801D38A2070BD5D4881685E
S31508002680090702D40068C00701D58C2070BD5348DD
S31508002690067059490A680C2A0ED0A4B20FF26C12B9
S315080026A032F8242090F908008018C861FFF7C4FEA4
S315080026B0012D08BF01F004F8002070BD10B50446CE
S315080026C000F081FC2046BDE81040C9E74348007881
S315080026D070473E4890F9000070472DE9F04186B0F2
S315080026E006466FF02A00864246DB14237F224348BB
S315080026F0FFF79AFEBDF810004FF6FF71884203D027
S31508002700400448BF012506D43F2200211020FFF7C8
S31508002710E7FD044600252D48394906F12B02D2B2B9
S315080027202F2A1AD213220FF2241300E0521ED2B215
S3150800273013F91270BE42F9DB03EB420676780E6097
S3150800274013F8121001700020002680460327ADB149
S315080027504FF6BF72BDF8101029E0092E0CDA325C6C
S315080027600A60067014237F222648FFF75DFE0320C1
S315080027700126B0462827EAE78B201DE04FF4605271
S31508002780C10200F041F84FF4E062310200F03CF873
S3150800279080224FEAC81100F037F884F020003C1870
S315080027A0A4B2402C28BF3F243F2284F0200100F029
S315080027B02BF8FFF7B6FD002006B0BDE8F081000053
S315080027C0602C0020E81000406410004038280020E3
S315080027D0BA890108CA8901081C1000402C28002063
S315080027E0D92800208020004000E100E080E100E0D8
S315080027F0D010004060200040AC100040B6890108A7
S31508002800C0100040B88901080B2070E5AA212900EC
S315080028105523290000252800AA2627005528270021
S31508002820002A2600AA2B2600552D2500002F240055
S31508002830AA3024005532230000342200AA3522008B
S315080028405537210000392000AA3A2000D500E601B4
S31508002850EC02EF03F204F405F506F707F808F909A0
S31508002860FA0AFB0BFC0DFD0FFE11FF1300160119EA
S31508002870021C031F10001100200030004000410018
S3150800288050006000700080009000A000B000C000FA
S31508002890D000E000F000000000000103F0B589B0A8
S315080028A00446002001F038FB0A237F2226480188C7
S315080028B000A800F06BF84FF6FF75BDF80200A842B5
S315080028C006D107B54FF486710FF2940002F0F6F8B8
S315080028D000260FF2A40701E02A4616B94FF47C42F7
S315080028E003E0022E08BF4EF23F0200A800F032F8BD
S315080028F0761C052EF0D3012C03D114237F2213480E
S3150800290002E014237F221248018803A800F03EF84B
S3150800291000260FF26C072A4608E02A46012E08BF51
S315080029204FF6C07202D0082E08BF002203A800F096
S3150800293011F8761C0A2EF0D3012C04BF012001F0F1
S31508002940EBFA09B0F0BD0000BA890108B889010898
S31508002950B689010830F81610F05DFFF7C8BC00000C
S31508002960616E616C6F6775652D63656C6C2D626948
S3150800297061732E630000000000100C0D0E000000AD
S31508002980010203040708090A0B0F00002DE9F043AA
S3150800299083B004000D0090461E0027005FFA88F8F1
S315080029A0B8F17F0F02D15FF00008FFE7ADB2B5F5C9
S315080029B0004F1AD108237F221448018800A8FFF780
S315080029C0E5FF0822124900A802F046FA002806D1B7
S315080029D008237F220F48018800A8FFF7D7FF08229F
S315080029E000A9380002F0E6F90EE0ADB20A4828431D
S315080029F0F6B25FFA88F808FB0609F6B2320092B218
S31508002A004946380002F0D6F9BDE8F783C4890108BB
S31508002A1028790108B48901080000040830B583B094
S31508002A200124002501A8DFF874110A680260DFF89E
S31508002A30700101210170002002F03CFA00280AD03A
S31508002A40002002F037FA002805D0DFF854010021EB
S31508002A500170492045E002237F22DFF848010188FA
S31508002A600DF1020000F03EF802237F22002100A8A3
S31508002A7000F038F80021080002280AD201A931F826
S31508002A801010BDF80220914201D101210D00401C11
S31508002A90F2E7EDB2002D04D0BDF80000B0F57F7F57
S31508002AA01ED0EDB2002D07D1BDF80000B0F57F7F2E
S31508002AB002D0042004000CE0EDB2002D02D106205D
S31508002AC0040006E0BDF80000B0F57F7F01D00720BE
S31508002AD00400DFF8CC00002101702000C0B200E03D
S31508002AE000203EBDF8B504000D0016001F00ADB26B
S31508002AF0B5F5807F0ED2DFF8A8000078002812D03E
S31508002B003B00DBB23200D2B22900C9B2200002F083
S31508002B1099FC08E03B00DBB23200D2B2290089B248
S31508002B202000FFF733FFF1BDF8B504000D001600CD
S31508002B301F00A4B2B4F5807F1FD2DFF864000078C6
S31508002B4000281FD0DFF860000078002805D007B5F8
S31508002B50C221DFF8580001F0B1FF134801210170C6
S31508002B603B00DBB22A00D2B231002000C0B202F02C
S31508002B70C9FD0D480021017004E007B5CD210B48B9
S31508002B8001F09CFFF1BD10B5040005480078002847
S31508002B9003D02000C0B202F0C5FE10BD708901083E
S31508002BA0CE2F0020C2890108CF2F00207489010882
S31508002BB010B5DFF8E0441020206302F063FFDFF869
S31508002BC0D8140A6842F001020A6002F061FFDFF8D1
S31508002BD0CC046060206061688931616001212163ED
S31508002BE08A30E060A060E0688930E06002202063F7
S31508002BF0DFF8AC044FF6FF71016010BDDFF8A404DE
S31508002C0045F26401C1601E21416250210162C8215A
S31508002C10C1618165F021C16545F69001416688214B
S31508002C2081660621C16644F2066101604FF6FF71AE
S31508002C304160DFF87404007838B1DFF8700448F2B0
S31508002C40607101604FF4C1514160DFF864040168A6
S31508002C5041F004010160DFF85C040021417070470F
S31508002C602DE9F0470446DFF850148A2000FB0410CB
S31508002C7000F2050568782A7802EB00201FFA80FA28
S31508002C800AF44040DFF8342412784A7066180021A6
S31508002C90B1705FEA8A6157D5DFF82474796E090640
S31508002CA052D54FF480684FF40069B0F5404F0BD108
S31508002CB0E81D02F0F3FE80BBF86DC00644D5B86C7B
S31508002CC0002C3AD0C84638E0B0F5004FF4D1287A3F
S31508002CD0E97901EB002080B202F0ECFEFF2809D06A
S31508002CE0DFF8E013096831F810004FF4FE61084276
S31508002CF013D1E1E70AF007000328DDD1002C14BF41
S31508002D00786838680528D7D3002C14BF78683868DF
S31508002D100628F9D3687A0428CED1F86DC00609D4F6
S31508002D20B86C04B1C84610EA080F03D0786C40F0B6
S31508002D30010078640120B07006E010EA080F03D09D
S31508002D40786C400840007864BDE8F0872DE9FC4EB1
S31508002D500446DFF864B38A2000FB04B0071DDFF8D9
S31508002D606053002C0CBF286868684600C0B2052866
S31508002D7006D207B54FF4ED710FF2743001F09EFEDE
S31508002D805FFA86F909EB0700A0F108063078717832
S31508002D9001EB00201FFA80FA9BF80100307002F060
S31508002DA026FF7070C84EF06B20F48050F063686E92
S31508002DB0D4B9306840051CD41AF4E45F0FD100F08A
S31508002DC087FD10B15FEA4A4009D53878802806D2CF
S31508002DD004EB0B0082784946384602F087FF002C40
S31508002DE00CBF0120022020E0012CE5D13068000547
S31508002DF0E2D5B648017881B100210170B44801686E
S31508002E001AF4E45F02D00022402004E07878000932
S31508002E1000F001028F2003F0E7F8002C0CBF4FF4F6
S31508002E2080604FF400603060D9E72861BDE8F38E12
S31508002E302DE9F84F9A4C2068216C01EA0005A04E4E
S31508002E40DFF890A2DFF88482DFF86C92A24F1AE0CE
S31508002E5040B14878C00605D400229D4801688F20F5
S31508002E6003F0C2F8280605D503F0FEF825F080051C
S31508002E7080202060E80506D503F0F6F825F480756D
S31508002E804FF480702060002D68D0280706D50020F2
S31508002E90FFF7E6FE25F0080508202060E80606D5B7
S31508002EA00120FFF7DDFE25F010051020206005F053
S31508002EB06000602803D1B06CC0050AD401E0A806FA
S31508002EC005D525F0200520202060002006E06806AC
S31508002ED006D525F04005402020600120FFF736FF83
S31508002EE0E80410D525F480554FF480502060D7F8B3
S31508002EF000B0082038607868000548BF00F032F94D
S31508002F001FFA8BF03860E807ACD56D086D00012014
S31508002F10206099F800000028A4D000F051FC012890
S31508002F20A0D198F8000000289CD09AF80000042840
S31508002F3098D1F068400800F001008A2101FB009151
S31508002F40091D002814BF7268326812B92268D204B3
S31508002F50F7D5002814BF7068306879E7002020602C
S31508002F60BDE8F18F5D4800687047F0B589B0044642
S31508002F700D460021032001F011FD04AE1BE00027D9
S31508002F8001F027FD26F8170001F023FD00A921F816
S31508002F9017007F1C082FF3DB04A803F01FF9002095
S31508002FA02080218836F8102051402180401C0828AE
S31508002FB0F7DB6D1EA41CEDB2002DE0D101F045FD36
S31508002FC0012009B0F0BD0321022001F0E7BCF8B5E5
S31508002FD029244FF6FF7501F0FCFC281A90FBF4F043
S31508002FE000F13A063E4F3878B8B90321032001F0BC
S31508002FF0D5FC02237F223B48018800A8FFF7C6FCC0
S3150800300001F0E7FCBDF80010401880B2281A90FBC2
S31508003010F4F0253078700120387001F016FD7878C4
S31508003020301A40B2F2BD80B50321022001F0B6FC89
S31508003030BDE80140CBE770B500242B48007890B96D
S31508003040FFF7F1FF05461B4E707848B13078401BF4
S3150800305040B203F0D4F80B2805DB3570012402E0F2
S31508003060357001207070204670BD80B540B11F488C
S31508003070002101600848016821F08001016001BD56
S3150800308000F05BFC00F033FC00F0E5FBBDE8024015
S3150800309000F0C9BB0020004084200040B82C002066
S315080030A000A000404C1000402D280020D010004001
S315080030B080200040DB2F0020B42C00202C28002084
S315080030C0202000403027002004A00040CC28002003
S315080030D0E4280020D7280020B820004038200040E7
S315080030E0D92F0020C0890108D92800205410004093
S315080030F07068792E6300000010B584B00A237F2219
S315080031000B48018800A8FFF741FC4FF6FF74BDF88D
S315080031100000A04205D107B54E210FF2180001F0B4
S31508003120CDFC2246BDF800100020FFF7E0F81FBDD1
S31508003130BA890108616E616C6F6775652D66696C81
S315080031407465722E63000000DFF8F807417A39B11A
S31508003150017A012904BFC07A042801D101207047E9
S3150800316000207047DFF8E007016821F4805101600C
S31508003170DFF8D007017881B100210170DFF8CC179C
S315080031800A68520852000A600A6842F001020A6098
S3150800319000228169402002F027BF70470FF63C01E4
S315080031A0405C7047010603D54FF67F710840C000A2
S315080031B070478001B0FBF1F080B2FF2888BFFF207E
S315080031C0C0F1FF00C0B2704738B5DFF87807817ADA
S315080031D0012901D1002032BDDFF87847617871B145
S315080031E0E178807B4518ADB22079854228BF05462F
S315080031F003F029F80121A940491E084000E00020F3
S3150800320061790818C0B232BD000000002DE9F04708
S315080032100446C00704D507B540F2651100F04CFA1C
S31508003220DFF83457286DC00748BF8C2000F191801D
S31508003230DFF81067002030733070DFF818773878B9
S31508003240A0B12078122818BF0C280BD1617801F09C
S315080032500701032902BF001910F8020C042804BF4D
S3150800326001203073A86F40F0010002E0A86F400803
S315080032704000A867707BDFF8E486DFF8E496797883
S3150800328099B10021B173296D41F00401296501281E
S3150800329007D14FF6FF70C9F800004FF40070C8F860
S315080032A00000FFF791FF82460CE0296D21F004012A
S315080032B029654FF0000A012804D100F03EFA64207F
S315080032C000F093FEA86F20F00800A8671420E864B1
S315080032D0C5F848A0787830B1707B002801BFA86C83
S315080032E000280120A864B8790028286D14BF40F08A
S315080032F0080020F008002865FFF726FF28B1D9F84E
S31508003300400040F00800C9F84000202028626C60A0
S315080033102C6068687F306860042028624FF4E06497
S31508003320DFF84006046006E002F0A0FF18B102F0DC
S31508003330A5FF02F0A7FBDFF83006006800F00300DF
S315080033400328F1D0C8F80040286D40F00100286530
S315080033500020BDE8F08710B50446FFF703FE201AE3
S315080033600003000B3338DFF8041688421AD2DFF858
S31508003370000602210160DFF8FC15A2B24A60220CA1
S3150800338002F00F020A60016C41F002010164DFF8E5
S31508003390E8450020207002E0012002F075FF207841
S315080033A00028F9D010BD2DE9F84FDFF8D065706810
S315080033B0716C08401FFA80F8C6F80480DFF8987523
S315080033C0DFF880556878002840F0D180DFF8B045EE
S315080033D0DFF880955FEAC8704CD5D7F800A0386C3E
S315080033E0796C41EA0041A96199F8000000283DD0AE
S315080033F09AF80100800639D5012028704FF48050CC
S315080034003060306C40F480503064FFF79DFE88B31E
S31508003410192000F0EAFDDFF86CB54FF44040CBF810
S315080034202800DBF800000090E06E40F40050E066EB
S31508003430E06E40F48050E066A8699AF800104901E9
S31508003440B8310818FFF787FFE06E80098001E0664B
S31508003450E06E00A909880843E0660020CBF828003A
S3150800346048F26070E066A88A206003E00022002027
S3150800347002F0BAFD5FEA08600CD5287830B1002062
S3150800348028700022A969402002F0AEFD306C20F4B5
S31508003490805030645FEA486008D5687830B9FFF72D
S315080034A061FD00220146892002F09EFD5FEAC860A0
S315080034B04FD5287ADFF8A4A4012804BF697B01291F
S315080034C01ED100F037FF386F40F001003867002042
S315080034D06873FFF76DFB0A2000F087FD4FF00008C0
S315080034E04FF6FF7070604FF4E060CAF800000920DC
S315080034F0B8660120B864B86F40F00800B86718E0ED
S31508003500A97B491CA97399F80220C9B2914215D220
S31508003510012808BF00F0D4F8B86F20F00800B86793
S315080035201420B866FFF750FEB8644FF40070CAF866
S315080035300000386D40F0010038650AE0012808BF30
S3150800354000F0BEF8FFF70EFD002201468D2002F0BE
S315080035504BFD5FEA08700AD5FFF7F6FD38B120681B
S31508003560A88200202060706C20F0080070645FEA72
S3150800357088600AD520203862687830B9FFF7F2FCEF
S3150800358000220146882002F02FFD687820B118F441
S31508003590407F04BF0120A870BDE8F18F70B582B0E6
S315080035A00446FFF75BF8DFF8E00300210160DFF867
S315080035B09C531521E960092101651F2141600121FC
S315080035C00166FEF735FFFEF7D5FEFFF717FB03F09A
S315080035D0F9FA00F043F9DFF86C63308A00F06BF90A
S315080035E0708A00F070F902F04DFA696841F04001FE
S315080035F0696002F04DFA707900F005F9B07900F0CB
S3150800360012F9307900F041F9DFF8800390F90000EB
S31508003610FFF763F8F07800F05EF996F9070000F016
S3150800362066F902237F22DFF86803018800A8FFF7FE
S31508003630ADF9BDF80000C0054CBF0020BDF800007C
S31508003640DFF850130870DFF850030078FFF708F822
S3150800365020B107B540F2753100F02EF8012C05D1DE
S315080036602868C00711D500F02BF80EE06CB9286859
S31508003670C0070AD400F05EFE286840F00100286002
S31508003680C82000F0B2FC00207073DFF8D442F120A5
S31508003690206440F2F910E063FFF78AFA2868C00749
S315080036A007D54FF6FF702060DFF8B0024FF4E061EF
S315080036B0016000F0C2FB73BD0FF2103001F0FEB9D5
S315080036C070B5DFF8D8522E68DFF87842607B01289B
S315080036D032D002F0D7F948F2D00129606A6852055B
S315080036E009D548F222022A606A68D205F5D529600A
S315080036F06A685207F1D4B6B22E60DFF868124FF442
S31508003700E0620A60DFF898120A6A520852000A62F2
S315080037100A68520852000A600A6842F002020A6001
S315080037204A6A42F001024A620121617302F0B0F965
S31508003730BDE8704000F0CABD70BD70B5814C607BB5
S3150800374048B300F0F7FD02F09DF90546DFF854028C
S31508003750012101607E4E306D40F001003065002089
S315080037606073FFF725FA20203060306B40F00200C6
S315080037703063F06D40F00800F065284602F088F9DD
S315080037800A2000F032FC76484FF6FF710160734854
S315080037904FF4E061016070BD6A48407B70470000E5
S315080037A010B5684C607B20B107B540F26441FFF75D
S315080037B083FF207A18B1FFF783FF207A607310BD64
S315080037C06048007A704780B5022801D3012002BDFF
S315080037D05C490872487B012804D1087A20B9FFF7AA
S315080037E0ACFF01E0FFF7DCFF002002BD6E48006871
S315080037F0800200149A386FF07F0201B29142B8BF76
S31508003800104640B2704710B5044602F03BF96749C6
S31508003810002C0A6814BF42F0120222F012020A6053
S3150800382048494C7140E038B5044602F02BF9054684
S3150800383000F0EEFD40B95D48002C016814BF41F068
S31508003840800121F0800101603E4884712846BDE868
S31508003850324002F01DB93B488079704754485549B3
S315080038604A780B7813EB02220260CA788B7813EB3E
S31508003870022242604A790B7913EB02228260CA79E6
S31508003880897911EB0221C160704710B5044602F030
S31508003890F9F84649002C0A6814BF42F0200222F0C3
S315080038A020020A6027490C71BDE8104002F0F0B802
S315080038B02448008A7047234908823F4908607047B0
S315080038C02048408A70471F4948823C49086070472B
S315080038D03B48007870471D4900280A6814BF42F023
S315080038E0020222F002020A601649C870704738B50B
S315080038F004467F2C0ED102237F223248018800A875
S31508003900FFF744F8BDF80000C00554BFBDF80040F5
S315080039106FF04A0402F0B6F8054600F079FD30B9B2
S3150800392064B204F19A008005000C2749086005482E
S31508003930C471284602F0ACF831BD024890F9070078
S3150800394070470000CC28002040A00040802000409E
S3150800395030200040482800201020004000E100E008
S3150800396004A0004080E100E0A8200040CDFF070049
S3150800397008A0004040200040DD2F002000A00040A5
S3150800398064100040E41000405C1000403828002015
S31508003990D0890108342800202C2800201C1000405B
S315080039A060200040281000400C1000408420004091
S315080039B098200040842C002094200040902000404D
S315080039C0E8280020D4890108541000407068792D31
S315080039D0636F6D6D6F6E2E6300000000FEFEF7F7D5
S315080039E0C8C80100DFF8B4045121016070472DE909
S315080039F0F04104461E2C3CBFBDE8F04100F0F5BA84
S31508003A00DFF89C040168C90704D5416811B1182676
S31508003A10641F11E00168C90704D5416811B90C266D
S31508003A200A3C09E00168C90704D4406810B10C26AD
S31508003A300F3C01E00626143C02F024F8804603F009
S31508003A40CDF8DFF86004072101600021416081603C
S31508003A50DFF854144FF000720A60A4B204FB06F1B2
S31508003A60491E4160DFF84444266820684008400043
S31508003A70206003F0B5F8DFF824743D68386820F054
S31508003A804000386003F0B4F83D60266003F0A8F8FB
S31508003A9003F0B2F84046BDE8F04101F0F9BF10B5B1
S31508003AA0DFF8FC130A68D20704D54A6812B1182150
S31508003AB0401F11E00A68D20704D54A6812B90C21DA
S31508003AC00A3809E00A68D20704D4496811B10C21FA
S31508003AD00F3801E006211438DFF8C82307231360DE
S31508003AE0002353609360DFF8C0334FF000741C6006
S31508003AF080B24843401E506010BD2DE9F0410024B5
S31508003B00DFF8AC532C60DFF8AC6334604FF4A040A8
S31508003B10706041F29A084046FFF769FF686844F604
S31508003B209041081A00B24FF4487190FBF1F000F387
S31508003B30030030604046FFF75AFF08274046FFF764
S31508003B4056FF686804197F1EF8D1DFF86C03211D3B
S31508003B50C908B0FBF1F080B27060BDE8F08138B5F5
S31508003B606FF00F04DFF854530120A8602C60802002
S31508003B70FFF73DFFE868FF2802D8641C102CF5DB28
S31508003B8031BDCF48016841F001010160CD480421EB
S31508003B900160CD480160704710B5CC4C01202070FB
S31508003BA00020E070CA48816901F00301032906D1A3
S31508003BB00020607000F093F80120E07010BD0F211E
S31508003BC00160022181610120A0706420BDE81040D7
S31508003BD065E770B5B248016841F00101016001214D
S31508003BE0416001F04FFF0446B04D00F09DF8AB4828
S31508003BF0512101602E6002F0F3FF2046BDE87040B7
S31508003C0001F046BF70B5B14D2889B14C4FF6FF7625
S31508003C10B04229D102237F22AE48018805F1080067
S31508003C20FEF7B4FE2889B04204BF02202881A069A5
S31508003C30800703D4A06940F00200A06101206870E3
S31508003C40288920609748072101600021416081602A
S31508003C5095494FF000720A60A169C9072DD5E16937
S31508003C6059B348F69F4137E0A1698907E2D56978D3
S31508003C7099BBA16811F00101A26803D10F2809D2E6
S31508003C80401C06E0920705D52A791AB1032801D304
S31508003C90401E28812971288902283CBF02202881D4
S31508003CA0206829898842C9D1A06900F00300032841
S31508003CB018BFFFF78EFF012070BDA169C90701D59E
S31508003CC0E16921B1A169C90704D4E16911B144F2D6
S31508003CD04F6101E042F227314160002070BD2DE9B5
S31508003CE0F8436E4C714D01F0CDFE804602F076FF2A
S31508003CF0FFF788FF5FEA00090CD100F015F827687E
S31508003D00206820F04000206002F072FF27602E60D5
S31508003D1002F066FF02F070FF404601F0B9FEB9F105
S31508003D20000FE0D0BDE8F1832E68286840084000FF
S31508003D30286002F055BF5B48002141608160016838
S31508003D4021F00201016058484FF0007101605F4898
S31508003D5000214170817801290BD15F4901220A604F
S31508003D605E490968C90748BF032106D40221817044
S31508003D7007E78178042901D10521817070472DE96B
S31508003D80F843524CE078002855D1484EDFF80C81AC
S31508003D901DE001F077FE054602F020FFA078032813
S31508003DA010D000F0A1F8D8F80090D8F8000020F05C
S31508003DB04000C8F8000002F01BFFC8F80090376002
S31508003DC002F00EFF02F018FF284601F061FEA07807
S31508003DD00328DED13E4D208928604FF6FF76E0881D
S31508003DE0B0420CD102237F223D480188A01DFEF770
S31508003DF0CDFDE088B04202D16420E08001E0E08891
S31508003E0080B1E08837494A6D42F001024A650A687E
S31508003E10AB68DB07FBD50B689B1A1B031B0BB3EBC5
S31508003E20500FF5D3FFF7D5FE0420A0704FF4C870E5
S31508003E30BDE8F24333E6BDE8F1832DE9F843234CA8
S31508003E40207838B3E078F0B124E001F01BFE804614
S31508003E5002F0C4FEA078052810D0144E00F044F8ED
S31508003E600E4DD5F80090286820F04000286002F032
S31508003E70BFFEC5F80090376002F0B2FE02F0BCFE45
S31508003E80404601F005FEA0780528DED100206070C6
S31508003E90FFF725FF00202070BDE8F1830080004071
S31508003EA01C40004010E000E004ED00E094ED00E066
S31508003EB0104000400C0000400060E3160840004037
S31508003EC058A0004080E200E000E100E0C0280020A1
S31508003ED004400040CE89010818A000400C4000406C
S31508003EE0D289010838200040376830684008400009
S31508003EF0306002F075BE000010B5464C002000F098
S31508003F00AAFD40F68C218842206834BF40F008009C
S31508003F1020F00800206010BD10B582B0044600F0FD
S31508003F205FF800A8FEF732FD9DF801009DF8001025
S31508003F30FF2902BFFF280420002104B1801CC0B25B
S31508003F40082828BF0720082928BF0721324A1368EE
S31508003F5023F4607343EAC01010601068C00851EA81
S31508003F60C000106013BD00B583B002237F222B4822
S31508003F70018800A8FEF70AFDBDF800004FF6FF719C
S31508003F8088420EBF4FF4E1600A2190FBF1F0ADF8CC
S31508003F900000FEF74DFAC0071FD500F021F801A86A
S31508003FA0FEF7F4FC9DF80500FF2808BF0420811CD5
S31508003FB0C9B20829A8BF0721C1F12F02BDF80030F0
S31508003FC0C0F12F0002EBD272521000FB0320C1F1A0
S31508003FD02F01B0FBF1F0ADF80000BDF800000EBDF2
S31508003FE002237F220E48018870470E490A680E4B45
S31508003FF01B68DB0758BF4008032809D34B6D43F0FD
S3150800400001034B650B689B1A1B031B0B8342F9D3F1
S315080040107047000000BC004018000040BE89010837
S31508004020BC890108382000401C40004010B5040037
S3150800403004D110BD4FF47A70FFF7D7FF2046441E0F
S3150800404080B20028F6D110BD7047000080B5FFF792
S31508004050D9FD0020FFF760FFDFF80404006850F080
S315080040600800DFF8FC13086002F0C8FDFFF744FFFC
S31508004070DFF8F003DFF8F01309780160DFF8E803EA
S315080040804078DFF8E8130860DFF8DC038078DFF8AB
S31508004090E0130860DFF8DC03DFF8DC130988016049
S315080040A0DFF8D4034088DFF8D4130860DFF8C803C4
S315080040B08088DFF8CC130860DFF8BC03C088DFF817
S315080040C0C4130860DFF8B0030089DFF8BC13086082
S315080040D0DFF8A4034089DFF8B413086000F0F6F8A7
S315080040E0DFF87C03006830F01000DFF8741308600E
S315080040F0FEF7A0F802F030FF02F0A8FFFFF7EFFD89
S31508004100FFF72DFD02F09CFD01BD80B540F2016070
S3150800411003F082F801BD80B502F0F2FEDFF8440331
S31508004120DFF86C1309780160DFF864034078DFF87C
S315080041303C130860DFF858038078DFF8341308600A
S31508004140DFF83003DFF84C1309880160DFF8440311
S315080041504088DFF828130860DFF838038088DFF81E
S3150800416020130860DFF82C03C088DFF818130860EE
S31508004170DFF820030089DFF810130860DFF814035E
S315080041804089DFF80813086001BD80B5FFF704FD14
S31508004190FFF7B2FEDFF8CC02DFF8CC12097801602F
S315080041A0DFF8C4024078DFF8C4120860DFF8B80206
S315080041B08078DFF8BC120860DFF8B802DFF8B812BA
S315080041C009880160DFF8B0024088DFF8B01208609D
S315080041D0DFF8A4028088DFF8A8120860DFF89802E2
S315080041E0C088DFF8A0120860DFF88C020089DFF8C3
S315080041F098120860DFF880024089DFF8901208609C
S3150800420000F064F8DFF85802006830F01000DFF8B4
S3150800421050120860FEF70EF8FFF7B1FD02F07DFEBA
S3150800422001BDF0B40B68DFF870522D680F26D2B2C4
S315080042309700BE4035421ED000252C00E4B2042C5F
S3150800424019D2DFF854522D68D2B2E4B214EB8206C2
S31508004250F540ED070DD50F25E4B2A600B540AB43F2
S31508004260D2B230F812500F26E4B2A700BE4035404D
S315080042702B43641CE2E70B60F0BC7047F0B40B6894
S31508004280DFF814522D68FF26D2B2D700BE40354259
S3150800429019D000252C00E4B2082C14D2DFF8F85106
S315080042A02D68D2B2E4B214EBC206F540ED0708D584
S315080042B00125A540AB43D2B2155C0126A640354080
S315080042C02B43641CE7E70B60F0BC704780B5DFF84A
S315080042D0C801006800282CD0002262496C48FFF704
S315080042E0CDFF012261496A48FFF7C8FF02226049EB
S315080042F06748FFF7C3FF00225E496648FFF791FF4C
S3150800430001225E496348FFF78CFF02225C49614837
S31508004310FFF787FF03225B495E48FFF782FF042207
S3150800432059495C48FFF77DFF052258495948FFF768
S3150800433078FF01BD80B55848006800282CD00022B7
S3150800434048494948FFF79AFF012248494648FFF776
S3150800435095FF022246494448FFF790FF0022454947
S315080043604548FFF75EFF012244494348FFF759FFD6
S31508004370022243494048FFF754FF032241493E4879
S31508004380FFF74FFF042240493B48FFF74AFF052243
S315080043903E493948FFF745FF01BD80B50320FEF7C2
S315080043A0F2FB01BD80B503F055F83C4911EB8000DE
S315080043B002BD10B503F04EF8040003F051F8C0B280
S315080043C0002804D1E4B2012C01D000201FE0E4B299
S315080043D0200000280CD002280CD003280CD0042872
S315080043E00AD005280AD006280AD007280AD00BE0E2
S315080043F000200CE009200AE0022008E0032006E07D
S315080044000B2004E0062002E054F08000C0B210BD84
S315080044102348007870472348007870472248006888
S31508004420C0F3801010F00100704710B51F484FF414
S31508004430004101601E48082101601A4800780028DA
S315080044400DD0FFF7EBFF040015480078E4B2A04250
S3150800445005D01348047012480078FEF706FE10BD12
S3150800446000BC00400CB000409C2700200CB4004063
S315080044700CB8004000B000409027002004B000406F
S3150800448000B4004004B4004000B8004004B800403E
S31508004490AC270020A0270020B82A00203079010880
S315080044A0BE2F0020C02F002008B0004020A80040E2
S315080044B014A800402B490A68920992010A600A6802
S315080044C01043086028484FF400410160002101604C
S315080044D06420FFF78ABD00002DE9F0478046234D8A
S315080044E0D5F80090286840F4004028601D4F3868C9
S315080044F020F4805038601E4C207868B11D48A17899
S31508004500627800EB820212F82A2C891A00EB8800DE
S3150800451010F82A0C461802E0202601202070B0B2B6
S31508004520FFF7C8FF0FF2500A02E0B0B2FFF7C2FF6A
S31508004530386B042805D0386B400754BF761E761CA6
S31508004540F3E7F86A38B184F80180A6701FFA89F093
S315080045502860BDE8F08707B540F22111504600F003
S31508004560ADFAE5E7D0100040181000401C100040D6
S31508004570E12F00200C280008616E616C6F67756575
S315080045802D76636F2E6300004FF4FE52810189B2C7
S315080045900C20FDF7ACBE2DE9F84F8A4CA568ADB2E4
S315080045A000264FF00A080127B94620681FFA80FA44
S315080045B000F04BFAB0202063DFF80CB2DBF80000FD
S315080045C00120FFF712FDB9F1000F11D0AAF103007F
S315080045D0874202DAF81C87B213E057460AF500400C
S315080045E020600621092000F0D9F94FF000090BE0F8
S315080045F0DBF80000000707D5042FA6BFF81E87B210
S31508004600002707F5004020601A2EA8BF6FF009089A
S3150800461004DA16F1190FB8BF4FF00A08464436B245
S315080046207019A060DBF800000007C9D5012FC7DAAA
S31508004630B9F1000FC4D1A560C4F800A00820CBF8D2
S3150800464000006248006880B2BDE8F28F10B5604984
S315080046504FF0FF325A4B1C7864B1002819BF4A60E4
S315080046605C48486041F211100860D9889888BDE80E
S31508004670104090E7002819BF4A600A604860086041
S3150800468000F0E3F906210920BDE8104000F0D7B98B
S3150800469038B50120FFF7DAFF04460020FFF7D6FFFA
S315080046A005460120FFF7D2FF4042001B00EB4500FC
S315080046B000B232BD2DE9F04F83B0474CA06AADF881
S315080046C004002068ADF80200444D2868ADF80000E3
S315080046D03B4E307858B14FF6FF7200210820FDF79F
S315080046E0FFFD8046C022C0210820FDF700FE3C4F92
S315080046F03C48007810B148F260703860708840F421
S31508004700404040F04C00F8630220A062012020607F
S3150800471040F24C40FFF769FC0120E8602860002061
S31508004720B0804020F080307800B12020FFF72CFFC1
S31508004730FFF7AEFF83464020B0807F20F080FFF76A
S3150800474023FFFFF7A5FF00F04FF8FE2101FB00FA53
S31508004750ABEB090B307850B1484601F050FD00F03C
S3150800476043F880B20AEB8911B1FBF0F004E000F0DF
S315080047703CF880B2BAFBF0F080B2401C4FEAC03970
S31508004780BDF8000028600020E86002202060BDF81F
S3150800479002002060BDF80400A0620020F8633078AB
S315080047A030B14FF6FF721FFA88F10820FDF79FFD1A
S315080047B040F24C40FFF719FC4FEA1940BDE8FE8F5E
S315080047C006290020C010004018A0004000700040D4
S315080047D038100040EEEEFFFF602000402810004031
S315080047E0D01000402D2800208146584601F007BD0C
S315080047F03F22410089B201E03F2201460220FDF72F
S3150800480076BD2DE9F04F93B0564CE06CADF8080034
S315080048102068ADF80600544DE86AADF804004FF676
S31508004820FF7200210120FDF75BFDADF802004FF68F
S31508004830FF7200210B20FDF753FDADF800004FF481
S315080048400040206000202861686148F2020000F0FC
S315080048508DF84CF68C30E06448F2F000E8624FF4CC
S31508004860805211460120FDF742FD4FF6FF720021E6
S315080048700B20FDF73CFD0621062000F0E0F88046F7
S3150800488000F087F883464CF69C30E0640020FFF77A
S31508004890AFFF0621084600F081F80026B0B2FFF700
S315080048A0A7FF0621062000F079F800F092F803A980
S315080048B021F81600761C202EF0DB00F08AF810206E
S315080048C0FFF796FF00F065F8A0EB0B00BDF82C107B
S315080048D0A1EB0801404301FB01094FF0100A11271B
S315080048E000F050F800F055F800F045F805DB814671
S315080048F01FFA87FA7F1C202FF2DB504610280ED1AC
S315080049000F2700F03FF800F044F800F034F806DB13
S3150800491081461FFA87FA781E07B2002FF1D5BDF82F
S315080049200800E064BDF806002060BDF80400E862EF
S315080049304FF6FF72BDF802100120FDF7D8FC4FF6BE
S31508004940FF72BDF800100B20FDF7D1FC012028618D
S31508004950002000F00BF84FEA4A00C0B213B0BDE8D9
S31508004960F08F0000C010004018100040286040F288
S315080049704C40FFF73ABBA0EB0B00404306FB060092
S315080049804845704703A830F81700A0EB0806B8B2E8
S315080049902EE70621072000F052B8000070B505463C
S315080049A00E4602F01BF93D4C206C20F008002064EE
S315080049B002F022F901F066F8310341EAC51141F027
S315080049C00101374A116008212160BDE8704001F0F5
S315080049D05FB82DE9F041334C334D304E25E002F0F7
S315080049E0FDF8324804210160306C40F0080030645C
S315080049F02F68286840084000286002F0F1F8D4F8CB
S31508004A000080206820F04000206002F0F1F8C4F829
S31508004A1000802F6002F0E4F8306C20F00800306463
S31508004A2023480421016002F0E7F830680007D6D56C
S31508004A30082030601F48006880B2BDE8F08180B564
S31508004A40FFF7ACFFBDE80140C3E715480168490810
S31508004A50490001607047F8B50746FFF784FA04462F
S31508004A6039460320FFF7EBFF054639460120FFF7D5
S31508004A70E6FF064639460020FFF7E1FF08490A68BF
S31508004A80520852000A60401B0004711BB0FBF1F08B
S31508004A9060434000000CF2BD0000000018A0004072
S31508004AA0047000400080004094ED00E000E100E062
S31508004AB080E200E00070004042DE704770B50400F6
S31508004AC00D0002F0A6F800F0DDFF06002900200020
S31508004AD002F0F0FC2B002200DFF8A012012003F000
S31508004AE0FDF829002000FFF7E7FF70BDDFF89012F8
S31508004AF0884205D20168B1F1CD3F01D1001DF5E725
S31508004B00DFF87C12081A70472DE9F84F4FF4206534
S31508004B10DFF87062DFF870020068B065DFF86C02D3
S31508004B200068F065DFF8680200683066DFF864023E
S31508004B3000687066DFF860020068B066DFF85C023D
S31508004B400068F066DFF8580200683067DFF854023C
S31508004B500068706796F83800400702D5D6F8408096
S31508004B6001E0D6F83C8002F0F8FB7065706D4045B0
S31508004B7043D2DFF80C0240453FD318F11808D8F89D
S31508004B800000706418F10408D8F80000B06418F141
S31508004B900408B06DC005C00D80B2062831D1706C0E
S31508004BA0DFF8041288422CD3706CDFF800128842B2
S31508004BB027D2706C00884DF64261884221D1706810
S31508004BC0C6F89000B068C6F89400D8F8000070607F
S31508004BD018F10408D8F80000B06018F10408D8F8ED
S31508004BE00000F06018F10408D8F80000B06318F166
S31508004BF0040840F20170050003E0002070640020FC
S31508004C00B064706D001DFFF771FFF0640020306519
S31508004C10002083465FFA8BFBBBF1060F08D25FFACA
S31508004C208BFB16EB8B00002181671BF1010BF1E76B
S31508004C30706C00285AD000208346DFF8440181466C
S31508004C40C14534D3B9F10409D9F800000700DFF8E3
S31508004C5058018742F4D3DFF854018742F0D2F807A7
S31508004C60EED5002082465FFA8AFABAF1060F09D213
S31508004C705FFA8AFA16EB8A00806FB84202D01AF1F8
S31508004C80010AF0E75FFA8AFABAF1060FD8D15FFA95
S31508004C908BFBBBF1000F02D0BBF1010B01E05FF00B
S31508004CA0050B5FFA8BFB16EB8B008767C8E7584640
S31508004CB0B0F1010BC0B2002818D0B06F0700002071
S31508004CC082465FFA8AFABAF1050F0CD25FFA8AFAB7
S31508004CD016EB8A005FFA8AFA16EB8A01C96F8167B2
S31508004CE01AF1010AEDE7C6F88C70E0E7B06DC00569
S31508004CF0C00D0400200002280AD003281AD0042870
S31508004D001CD005281ED0062820D00C2826D029E03D
S31508004D10DFF89C000068800703D540F602100500FE
S31508004D2007E0DFF88C000068C00702D540F20250A1
S31508004D3005001EE040F6012005001AE040F60220B4
S31508004D40050016E040F60320050012E0ADB2B5F501
S31508004D50206F02D140F6042005000AE040F605203F
S31508004D60050006E0002C04D0242C02D240F60720C9
S31508004D700500280080B2BDE8F28F0000E47701083C
S31508004D80002700200000002004ED00E024ED00E0EC
S31508004D9000E300E028ED00E02CED00E030ED00E057
S31508004DA034ED00E03CED00E090210008C0730108F6
S31508004DB01CA0004030B404000B00A34223D292B2D8
S31508004DC01419641E92B2D3185B1E92B2042A11D328
S31508004DD0121F1D7825705B1E641E1D7825705B1ECC
S31508004DE0641E1D7825705B1E641E1D7825705B1E6B
S31508004DF0641EEAE792B2002A23D01D7825705B1E4E
S31508004E00641E521EF6E792B2042A11D3121F1D78A9
S31508004E1025705B1C641C1D7825705B1C641C1D7842
S31508004E2025705B1C641C1D7825705B1C641CEAE7F6
S31508004E3092B2002A05D01D7825705B1C641C521E90
S31508004E40F6E730BC7047030092B2002A03D0197007
S31508004E505B1C521EF8E7704770B403001C000D0077
S31508004E6092B2012A0CD320782E78C0B2F6B2B0429C
S31508004E7002D0801B40B204E0521E641C6D1CEFE792
S31508004E80002070BC704770B403001C000D0092B27D
S31508004E90012A0CD320782E78C0B2F6B2B04202D0DE
S31508004EA0801B40B204E0521E641C6D1CEFE7002014
S31508004EB070BC70472DE9F04387B004003348028878
S31508004EC0FF2100A8FFF7BFFF3148008880B24200E3
S31508004ED092B2FF212F48FFF7B6FF2E26172700208C
S31508004EE00500EDB2172D34D2EDB22B48285C401CD4
S31508004EF0022190FBF1F8EDB2284815F80090EDB2C2
S31508004F002548285CFF2804D307B56F212448FFF7F6
S31508004F10D5FDEDB22148285C7F2804D307B570215A
S31508004F201F48FFF7CBFDEDB21E48285C002801D0CC
S31508004F3018F1190818F1010000FB0966B9F1010F0B
S31508004F4005D0EDB2134820F8157019EB07076D1C4C
S31508004F50C7E740F21C40864210D301F05AFE00F023
S31508004F6091FD804640F21C4332000F49012002F0B1
S31508004F70B5FE07B59B210A48FFF7A0FD00A920004A
S31508004F80C0B200F0C4F807B0BDE8F083E4890108B0
S31508004F90E6890108682B00207087010888870108C0
S31508004FA0A479010858870108B479010810B5DFF813
S31508004FB06C3ADFF86C4A2488001B03EB4000002398
S31508004FC004E030F8134021F813405B1C9342F8DBE9
S31508004FD0002010BD2DE9F04182B004460D46164664
S31508004FE00027DFF8388A01E0B81CC7B2B7421ADAD8
S31508004FF078194078795D01EB0020ADF800000122B0
S3150800500000A907EBD77004EB6000DFF8143A1B8899
S31508005010C01A08EB400002F001FF0028E4D002F0B5
S31508005020C5FF002000E00120BDE8F681F8B504467A
S315080050300E46154600270DE000F019F8761C04EB1D
S315080050404700BDF80010090A4170BDF8000004F8D1
S3150800505017007F1CB7EB550FEEDBE80706D500F007
S3150800506006F82819BDF8001000F8011CF1BD012248
S3150800507000A9B0B29AE7DFF8A419DFF8A4291288C4
S31508005080801A01EB4001022002F08EBEDFF8941967
S31508005090415CDFF89429825CDFF89039C05C10B176
S315080050A002F5997292B241EAC21080B2704710B501
S315080050B0DFF87C3903EB4002DFF86849005D012818
S315080050C001D1104610BD1088081803EB400010BD2A
S315080050D038B50C46DFF85C190D782A462146FFF7E5
S315080050E065FF208800281CBF4FF6FF7188420AD04A
S315080050F0012000E0401CC0B2A84206D234F81010C5
S3150800510022889142F6D0002032BD012032BD2DE919
S31508005110F04F9DB089460446DFF81C7900203870A8
S315080051207880DFF818090088ADF8000008A9FFF7AD
S31508005130CFFF824601207870DFF804090588DFF87A
S315080051400409B0F80080BDF80060DFF8D4080088CC
S31508005150ADF8040083460AA9FFF7BAFFD0B1BAF141
S31508005160000F43D04FF6FE70BDF82010814204D1DF
S31508005170BDF82800012806D10FE0012904BFBDF8B3
S315080051802810814232D0BDF82000BDF82810884288
S315080051902CD202E0BAF1000F27D0002078703046F2
S315080051A0CDF808B00795CDF81480DFF88818097887
S315080051B08DF806100818ADF8100000F05EFABDF874
S315080051C01000FFF7F3FEDFF8800800880690BDF8A8
S315080051D00200000B4FF6FF789DF80610884218BFAC
S315080051E00F2800D114B3002515E00124787801288A
S315080051F0D5D158460296CDF81C800595D5E7069870
S3150800520005FB00F4BDF8040000F02CFCBDF8000016
S3150800521000F028FC6D1C9DF806008542EFDB012096
S3150800522038704D2002F0C2FE0025FBE0BDF8105094
S3150800523000F023FA2846FFF7B9FE6E1CBDF80200F7
S31508005240C043C0B2ADF80200DFF800080588BDF813
S315080052500200A84218BF01244FF0000A1FE0401CB4
S31508005260C1B2A94217D2C0B28346DFF8E41731F8B3
S315080052701B10BDF80E209142F1D1FFF707FF4FF63C
S3150800528080710840BDF80C104FF6807211408842B4
S3150800529008BF0BF809A00AF101001FFA80FABDF849
S315080052A00200824507DA022203A9B0B2FFF77EFEA2
S315080052B0B61C0020D4E7002100E0491CA94219DAEF
S315080052C011F809008842F8D0012413E02AF8116081
S315080052D0012201A9BDF8103003EB4000401C00F084
S315080052E0D4FABDF80400C0F3C710401C00EBD07018
S315080052F006EB6006DFF838A7B6B20598864213DAD9
S31508005300012200A93046FFF751FEBDF800004045CE
S315080053100AD0761C000ABDF8001001F07F02BDF81D
S315080053200210884202DB012400252BE0002100E060
S31508005330491CA942CCDA11F809308342F8D1C9B21E
S31508005340FF29C5D07F2A0CBF4FF0000C9446DFF822
S31508005350D436CB5C9C4509DABDF800C0CCF3C01C3A
S31508005360DFF8C8E611F80EE0F44501D00124AFE7EE
S31508005370012BABD07F2A08BF00223AF8111051182A
S31508005380A4E76D1CDFF8CC060088854204DA3AF8F3
S3150800539015004045F5D101247E80B5B205988542B1
S315080053A00ADA012200A92846FFF700FE6E1CBDF89E
S315080053B000004045F1D034E7002CFCD101220CA9AD
S315080053C0029800F062FABDF8300040450DD105E0BC
S315080053D0401C80B2202813D32034A4B20799029A1D
S315080053E0891A8C4205DB0120387000201DB0BDE803
S315080053F0F08FA51820220CA9A8B2FFF7D7FD002028
S315080054000CA931F810104145E2D0A8B2FFF733FED7
S31508005410203CA4B2E0E70298069905FB010000F0DB
S3150800542022FB6D1C9DF806008542F4DB01203870CE
S31508005430414600F044F818B100F023F90028D4D109
S315080054400120D3E72DE9F84504460D4616469A4647
S3150800545031462846FFF72BFEB0F80080DFF8C875FE
S31508005460DFF8E81509888D420AD27F2E08BF002684
S31508005470DFF8B005285C864202DAE85D824504D08A
S3150800548007B540F2834100F0FCF9DFF8A005285C77
S3150800549068B14146284600F02BFAE95D012908BFA4
S315080054A020700AD0022914BF2060208005E05246E9
S315080054B041462046BDE8F845B8E5BDE8F1852DE941
S315080054C0F34F83B0DFF858050488DFF86C05407899
S315080054D000281ABFDFF8640500882046DFF854154F
S315080054E009780D18ADB2DFF864050088ADF8080034
S315080054F0C043C0B200EB013000F55060ADF80200C1
S3150800550000F0CDF92B1B00F0C6F96E1CB6B20028C8
S3150800551032D10025DFF8387510E0E8B2FFF7B6FD9E
S31508005520ADF8040037F81500ADF80600022200F0C1
S31508005530AFF9002820D1B61CB6B26D1CBDF808001C
S315080055408542EADB002500E06D1CBDF808008542AF
S3150800555080F28E804FF0000A1AE000F08EF81FFAEB
S3150800556089F0FFF723FD09F1010900F098F9BB1945
S315080055701B1B00F090F9002874D17F1CFFB25F4511
S31508005580EBDBDFF8D404285C8619B6B20AF1010A07
S31508005590DFF8900415F800B05FFA8AFADA45D3D234
S315080055A05146E8B2FFF783FD8046B8F80090DFF869
S315080055B07C042F5CF80140EA0520ADF80000BBF139
S315080055C0010FBDF800000CBF40F07F004AEA00005A
S315080055D0ADF80000DFF84404311B00EB4100711CF4
S315080055E089B201914FF6FF7189451EBFBDF80010BB
S315080055F0BDF81020914218D19DF80C100029C5D08D
S31508005600012200A902F00AFC019E58BBA8F8006016
S31508005610DFF814042A5CDFF8440450F82510B0B209
S31508005620FFF7D8FC0028ACD11FE0DFF8FC13695C53
S31508005630491C01EBD171C9054FEA116B012200A97A
S3150800564002F0ECFB019E68B9A8F80060002F95D01F
S315080056504946E8B200F04CF901905A4600F018F9AC
S3150800566000288ED002F0A2FC002005B0BDE8F08F1D
S31508005670DFF8C40346800120F7E701220DF1020195
S3150800568070472DE9F04182B0DFF8B0030688DFF8ED
S3150800569090030488DFF8A0536878002812BF2046D4
S315080056A030462646012200A9FFF780FCBDF8000017
S315080056B001280CBF4FF6FE70401EADF80000DFF85B
S315080056C074030778DFF854833846471E70B1012201
S315080056D000A9BFB2B819001B08EB400002F09EFBF8
S315080056E00028F1D002F062FC002007E06978481E25
S315080056F08041C00F6870002028700120BDE8F6813F
S31508005700000000002DE9FE4F83460C4617469A46D0
S3150800571000208DF80400012539465846FFF7C7FCD6
S3150800572081465E46C94909888B450AD27F2F08BF3C
S315080057300027BC48305C874203DABB48305C8245A8
S3150800574004D007B540F2A65100F09BF8BA4F787816
S3150800575020B1BB48B0F80080B14803E0B948B0F8BA
S315080057600080B6480088397849B97988081ABC494A
S3150800577009888842B4BF4320442002F017FCB9F8D0
S315080057800010AA48305C78B1584600F0B1F8BAF172
S31508005790010F08BF217804D0BAF1020F0CBF218887
S315080057A0216881426BD02BE002914FF0000B23E079
S315080057B0012200A902980BEBDB7300EB630000F0F3
S315080057C064F80BEB040040781BF8041001EB00208A
S315080057D080B2AAF101018B4505D1C0B2BDF800100F
S315080057E0C9B2ADF80010BDF80010884218BF0025F0
S315080057F00BF102005FFA80FBD345D9DB002D3ED1C1
S31508005800FFF73BFFB9F80000401E00F03EF892484B
S31508005810355C7888A8F10101491B814200DB60B933
S31508005820387808B945201CE0BDF802100020FFF7BB
S3150800583046FE20B301208DF804007888401C788045
S315080058407949725C214680B2FFF7C4FBB8B100F013
S3150800585026F87B885B1E724C24881B1B00F01BF8FD
S3150800586010B102F0A3FB0AE09DF8040010B1FFF79F
S3150800587008FF20B17888A9F8000028187880BDE8C4
S31508005880F78F0FF2E810FFF719B980B2FFF78EBB52
S3150800589001A96248331B00EB430002F0BFBA01229C
S315080058A00DF102015D48704770B582B004460025C7
S315080058B01926012200A9A0B2FFF778FB641CBDF8DF
S315080058C0000048B14FF47F41401A02D0FF3806D095
S315080058D007E0681C40B276BDAD1C761EE9D168B2F9
S315080058E076BDBDF80000C0B200B96D1CE843F1E70B
S315080058F038B50C46002100914B49455C2A4621469D
S3150800590000A8FFF793FB681C00EBD07004EB60005F
S3150800591080B2FFF7C9FF002848BFC043009940B2CC
S31508005920401832BDF0B583B004462546404830F8E5
S315080059301560464909888C4202D23C48285C20B941
S3150800594007B540F2A661FFF79CFF37482D5C681C37
S3150800595000EBD07006EB6007B8B2FFF7A5FF322858
S3150800596014D2C1074CBF00214FF47F41ADF8041093
S31508005970012201A9294BBFB207EB6000284F3F88D7
S31508005980C01B03EB400002F049FA60B131462046DD
S31508005990FFF7AEFF0090401C00902B467F2200A91F
S315080059A02046FFF7AFFEF7BDF8B5234C2078002850
S315080059B032D11B480588607800281ABF1F48068818
S315080059C02E461C4807783846471E02281DD3012252
S315080059D000A9FFB2B819FFF758FFBDF80000002864
S315080059E0F1D01948008807FB006000F03CF8002059
S315080059F0ADF80000012200A90848BB195B1BFFF798
S31508005A004AFF48B102F0D2FAF1BD3046FFF733FB40
S31508005A10FFB20FB901202070F1BD000000E00208B6
S31508005A20DA890108888701087087010858870108FC
S31508005A30682B0020EF8901089C2F0020DE890108C9
S31508005A40DC890108E0890108D8890108E489010888
S31508005A5028870108E68901080C7A010814890108D3
S31508005A60E2890108201880B2FFF705BB73696D2D1E
S31508005A70656570726F6D2D696E7465726E616C2ED8
S31508005A8063000000EFF31180602181F311887047ED
S31508005A9080F31188704770470120704700207047CF
S31508005AA000207047002070470020704770477047F5
S31508005AB070470000F8B506000C4C276814D0FFF7AD
S31508005AC0E1FF0B4D2978226822F8116037F8021B8E
S31508005AD0B142FBD1FFF7DCFFB81E2168401AC005AA
S31508005AE02978000E884200D1FF20F2BD2827002021
S31508005AF02C27002010B567480068674C2060606056
S31508005B0048220021FFF79FF920680021817220684A
S31508005B10C17220680B210173206803214173206834
S31508005B204FF6FE71C1814FF6FF71018200F08BFBC3
S31508005B302168087600F087FB2168487600F083FB29
S31508005B4021688876206855490978C17620685449BD
S31508005B50096881625349097880F82C1020685249EF
S31508005B600968016310BD10B5FCF7B0FD4A4C6168C1
S31508005B70097B884203D00846FCF7A0FD50B9FCF71C
S31508005B80A8FD0146606890F90D00814204D0FCF733
S31508005B90A4FD08B1012010BD6068C089FDF78BFE21
S31508005BA06068008AFDF78FFE6068807A012818BF52
S31508005BB00020FDF76AFE002010BD10B53B4C002002
S31508005BC0207002F021FC00281CBFBDE81040FFF73A
S31508005BD0CABF2046BDE8104002F044BC7047704773
S31508005BE0002070470120704770470020704700204A
S31508005BF0704770477047002070470020704780B58F
S31508005C00002000F023F828B1002000F013F808B1AE
S31508005C10002002BDFF2002BD80B5002000F00AF872
S31508005C2030B11D480068807A032801D2002002BDE1
S31508005C30FF2002BD18480068C07A02281CBF112838
S31508005C40432801D101207047002070471248006898
S31508005C50817A04298041C00F7047000010B50400FE
S31508005C6005D007B5D3210FF26800FEF727FF4820B5
S31508005C700849096800FB041007494860BDE8104058
S31508005C8071E705484068C089704703484068008A3C
S31508005C907047000050270020E42D002084270020AC
S31508005CA0582700205C27002060270020D42D0020DC
S31508005CB07047002070470020704702F028BD7047E3
S31508005CC0704702F003B903F0E4B802F065B90000C2
S31508005CD0656D6265722D6D756C74692D6E65747768
S31508005CE06F726B2D737475622E63000070B504466F
S31508005CF00D461646FDF7AFFD38B16078002E14BF85
S31508005D0040F0200000F0DF0060702946204604F0CD
S31508005D105EF9FF2822D09D4C014604F10C0004F0E0
S31508005D2062FB2088401C2080618880B281420BD2A9
S31508005D30A088401CA08004F10C0004F069FB04F064
S31508005D40C3F82088401E2080608821888842F2D3C4
S31508005D508F480078BDE8704002F089BC70BD00002D
S31508005D602DE9F04E86B0044600208DF80500FFF7B1
S31508005D7089FE864D2988491E2980FFF789FE204617
S31508005D8004F02EF890F8009090F801A000200090FA
S31508005D90082380480068205CA0F10802D2B2214698
S31508005DA002A804F02FF902AE7078FFF722FF7A48AE
S31508005DB0007898B1A86800280FD0F078FDF7F2F9B6
S31508005DC04946FDF7F6F9024696F9020000F1660320
S31508005DD05BB24946204600F0BDF895E00AF0070098
S31508005DE002282DD0FF208DF80400204603F0F8FF86
S31508005DF000F1010B584604F0C2FB0546A9EB050065
S31508005E00801E47B2002F06D5204604F05DF8FFF73E
S31508005E10F1FE002082E001A9584604F045FD00285D
S31508005E2075D10AF0070001280BD105EB0B019DF887
S31508005E30040005F03FFF20B99DF8040004F044F87B
S31508005E4065E09DF804005349096810F801A0534914
S31508005E50096844544F480068205C00F12001C9B223
S31508005E609DF8040003F0C2FF9DF8040004F04BFB04
S31508005E7000F00C0004281CBFEF19002578B280B288
S31508005E8000906B1C9BB2224651469DF8040004F014
S31508005E9078FA07EB0A01C9B29DF8040004F065F91F
S31508005EA070783F490978884205D307B5BD210FF2B6
S31508005EB0F800FEF703FE9DF8040004F01FFB8004BB
S31508005EC0800C717840EA813189B29DF8040004F0AB
S31508005ED017FBF078FDF766F94946FDF76AF90246B9
S31508005EE0032100F01EF8B07800F16602D2B2042150
S31508005EF000F017F89DF80820052100F012F89DF823
S31508005F000440204602F00CFD01208DF805002046CD
S31508005F1003F0DAFFFFF76EFE9DF8050006B0BDE850
S31508005F20F08E9DF8040004F0C7BA10B5174CA18886
S31508005F3029B1C9B21D20FFF7C8FE0020A08004F1D0
S31508005F400C0004F065FAFF2803D0FFF709FF0028C4
S31508005F50F5D010BD30B5A1B014461D4600220092FA
S31508005F604B1CDBB2014601A804F04CF8FFF73CFED7
S31508005F702A46214601A8054B9B689847FFF73AFE33
S31508005F8021B030BD074804F069BA00004429002052
S31508005F90D42F002014270020CD2800201C270020FD
S31508005FA054270020502900206D61632D72656365B2
S31508005FB06976652E6300000038B504460D46012053
S31508005FC005F068FF5548002D12BF00210178491CCD
S31508005FD00170534844705348FDF718F90020BDE88E
S31508005FE0324005F057BF000010B5144680B340286C
S31508005FF01FD088281CBF89288D2828D08F282BD108
S315080060004948007804280DD144B148480221017056
S3150800601040F60620BDE8104005F04ABFFDF7C0FB74
S31508006020312015E0FDF7BCFB002C0CBF3120002009
S315080060300EE03A4801784078814204D200210120D6
S31508006040BDE81040B8E7FDF7ABFB402000E08D2027
S31508006050BDE8104002F008BC07B59D210FF2E40028
S31508006060BDE81040FEF72ABD30480078022800D067
S31508006070704780B52E480078042807D00C280ED122
S315080060802C480078022818BF7C2808D105F02BFF79
S31508006090FDF786FB0020BDE8024002F0E5BB01BD26
S315080060A038B50024FFF7EEFC05462048007810B9FD
S315080060B0FCF7C1FF04462846FFF7EAFC002C1CBF84
S315080060C0BDE8314001F06EBF31BD80B5FFF7E8FF8E
S315080060D014211948BDE8044002F0D6B907B5D621FF
S315080060E00FF26000FEF7EABC38B5144C2068216C44
S315080060F001EA0005ADB2A80706D5206C20F002001B
S3150800610020640F4801210170680705D5206C20F02E
S315080061100400206402F05EF8256031BD40290020A5
S3150800612048280020942E0020D7280020882E0020FA
S315080061302429002025290020682E002008A00040D8
S31508006140DD2F00206D61632D656D3235302E6300BD
S3150800615038B504461B4D214600F03DF8E860211D80
S3150800616000F039F8A86004F1080100F034F8686016
S3150800617004F10C0100F02FF8286031BD7047F8B51E
S315080061800446114D80202860104E062030600720F6
S31508006190286030688007FCD5002704EB870100F0EB
S315080061A01AF8A8627F1C042FF7D330684007FCD57D
S315080061B000262A6B04EB860100F00AF8761C042EEA
S315080061C0F7D3F1BD383000400030004010A0004041
S315080061D0002005F09DBE002005F0A8BE70B5044657
S315080061E00D46FFF74FFC06462846FFF7B1FF204647
S315080061F0FFF7C5FF3046BDE87040FFF749BC0028E9
S3150800620048BF40427047000016490880154909886A
S31508006210002903D113494BF6EF620A80010C124A92
S31508006220118011490988002903D10F494FF6CE225A
S315080062300A80704702001088030400D548404300CE
S31508006240138080B2704710B562210648FFF7F2FF47
S31508006250040041F20B010448FFF7ECFF604080B2EE
S3150800626010BD0000F0270020F2270020EFF3118070
S3150800627060288041C043C00F70470000002181F3A9
S3150800628011887047704700002DE9F04F97B0040059
S31508006290DFF84C0800681490E4B2072C02D10320FA
S315080062A0040004E0E4B2082C01D102200400DFF85F
S315080062B034080568DFF83008006855EA0025DFF875
S315080062C02C08006855EA0045DFF81C0800684007F6
S315080062D007D5DFF81C08006850F00200DFF8101830
S315080062E00860DFF800080068400707D5DFF80008EF
S315080062F0006850F00400DFF8F81708600120DFF89E
S31508006300F41709688840054207D0DFF8E4070068F3
S3150800631050F00800DFF8D8170860DFF8C00700213A
S315080063200160E4B2012C00F05E83C0F08B83032C7D
S315080063302FD007D3042C40F08583DFF8A40700216B
S31508006340016026E0DFF8B0070068C00707D5DFF868
S31508006350A007006850F04000DFF894170860DFF8DF
S3150800636098070068400707D5DFF88407006850F0EB
S315080063702000DFF87C170860DFF87C0700688007D4
S3150800638007D5DFF86C07006850F01000DFF86017D3
S315080063900860FFF777FB824600F04AFC06000027F4
S315080063A0DFF8540700681390DFF85007006812906A
S315080063B0DFF84C0700681190DFF84807006810906E
S315080063C0DFF8440700680F90DFF8400700680E9072
S315080063D0DFF83C0700680D90DFF8380700680C9076
S315080063E0DFF8340700680B90DFF8300700680A907A
S315080063F0DFF82C0700680990DFF82807006808907E
S31508006400DFF8240700680790DFF820070068069081
S31508006410DFF81C0700680590DFF818070068049085
S31508006420DFF8140700680390DFF810070068029089
S31508006430DFF80C0700680190DFF80807D0F800902D
S31508006440DFF8040700680090DFF800070221016002
S31508006450DFF8FC06D0F80080DFF8F806006858EA8E
S315080064600028DFF8F406006858EA0048DFF8EC066A
S315080064705FF0FF310160DFF8E8060068C00413D555
S31508006480DFF864060068C0070ED5DFF86406006802
S31508006490C00709D501200700DFF84006006850F458
S315080064A08070DFF838160860DFF8B40600688004E4
S315080064B013D5DFF83406006840060ED5DFF8300637
S315080064C00068C00709D501200700DFF81006006834
S315080064D050F48040DFF804160860DFF88406006888
S315080064E0400419D50120DFF87C1609688840054262
S315080064F012D0DFF8FC050068C0070DD5012007009B
S31508006500DFF8D80500680121DFF85826126891409F
S315080065100843DFF8C8150860DFF844060068000479
S315080065201ED50120DFF8CC1509688840054217D02A
S31508006530DFF8BC050068C00704D4DFF8B4050068B6
S3150800654000070DD501200700DFF890050068012136
S31508006550DFF8A025126891400843DFF88015086027
S31508006560DFF8FC050068C0030ED5DFF8840500686F
S31508006570000609D501200700DFF86005006850F01D
S315080065800060DFF8581508600020DFF85C15096818
S31508006590C90701D550F48050DFF84C15096849063B
S315080065A001D550F400500121DFF8B8251268914052
S315080065B00D4201D050F480400121DFF838251268D9
S315080065C091400D4201D050F40040DFF824150968C7
S315080065D0C90609D4DFF818150968890604D4DFF84E
S315080065E010150968490601D550F01000DFF80015A6
S315080065F00968090601D550F4803010EA0909FFF741
S3150800660041FEA52000F009FBDFF85C0501210160C9
S31508006610DFF8DC040068DFF854150968002904D09F
S31508006620DFF8381509680142F5D0DFF83015096832
S31508006630014205D0DFF8301500220A6001210F005B
S31508006640FFB2002F51D1DFF8280500684008400046
S31508006650DFF81C150860DFF81C05006850F0040018
S31508006660DFF810150860DFF8100501210170DFF862
S315080066700C05008840F2072188420DD1DFF8FC049A
S3150800668040884FF20F01884206D1DFF8F0044CF239
S315080066903C31418001200700DFF8E404006850F02F
S315080066A08050DFF8DC140860DFF8CC040078002896
S315080066B0FAD1FFB2002F06D0DFF8C0044FF20F015F
S315080066C0418000200700DFF8BC0400680004DFF8FA
S315080066D0B8140860DFF8B0040068DFF8B014096879
S315080066E00843DFF8A414086009E0DFF8F00300683F
S315080066F050F08040DFF8E413086000F06FFADFF826
S31508006700900407210160DFF88C040F21016005F071
S3150800671021FCDFF8CC0314990160DFF8DC03139938
S315080067200160DFF8D80312990160DFF8D4031199E4
S315080067300160DFF8D00310990160DFF8CC030F99E8
S315080067400160DFF8C8030E990160DFF8C4030D99EC
S315080067500160DFF8C0030C990160DFF8BC030B99F0
S315080067600160DFF8B8030A990160DFF8B4030999F4
S315080067700160DFF8B00308990160DFF8AC030799F8
S315080067800160DFF8A80306990160DFF8A4030599FC
S315080067900160DFF8A00304990160DFF89C03039900
S315080067A00160DFF8980302990160DFF89403019904
S315080067B00160DFF89003C0F80090DFF88C030099B9
S315080067C00160DFF8D4035FF0FF310160DFF8800372
S315080067D0D0F800A0DFF87C0300685AEA002ADFF840
S315080067E0780300685AEA004ADFF87003D0F800B068
S315080067F0BF48006810EA0B0BB84800689AEA080117
S3150800680029400843B5490860B4480068CBF34001FD
S3150800681011F0010150EA8120B0490860AF480068CC
S31508006820CBF3800111F0010150EA8100AB49086001
S31508006830AA480068CBF3C00111F00101AD4A1268FD
S3150800684091400843A5490860A44800681BF47C7178
S3150800685050EA0150A1490860FFF714F98DF8540071
S3150800686000F0CAF9B94800210160F6B2002E01D03D
S3150800687000F0C4F9B3480068C00306D59748006815
S31508006880000102D5C548202101609B4800688007A1
S3150800689006D592480068C00102D5C14802210160A8
S315080068A095480068400706D58C480068800102D5DF
S315080068B0BB48042101609048006810F00100C0B28E
S315080068C0002806D085480068400102D5B448012151
S315080068D001608B48006810F0E00F07D07F48006819
S315080068E0C00503D59E484FF480510160854800686D
S315080068F010F0E00F07D079480068400403D598489F
S315080069004FF4005101608048006810F0E00F0BD08A
S31508006910724800680121934A12689140084203D0E0
S315080069208F484FF4804101607848006810F0E00F06
S315080069300BD06A48006801216E4A126891400842E5
S3150800694003D087484FF400410160FFB2002F41D1C0
S315080069509448006800053DD561480068800739D528
S31508006960E4B2042C36D077490968C90607D57C49AC
S315080069700968C90603D58C4901220A702AE04FF432
S315080069807A71894B5FF0000C83F800C0874B1B684F
S3150800699053F00103DFF814C2CCF80030744B1B68BF
S315080069A0DB0701D489B24908814B1B681A00754B6D
S315080069B01B681B041800754B1B681843724B1B6831
S315080069C0984207D17A4B1B689B1A1B031B0B89B28B
S315080069D08B42ECD34148006850F000403F490860BC
S315080069E0FFF74CFC34E000F023F90600A52000F080
S315080069F014F900F0F3F8FFF741FC6E480068070049
S31508006A006C480068400840006A49086000F0E8F8E9
S31508006A106948006880466848006830F04000664962
S31508006A20086000F0E5F86448C0F80080614807602F
S31508006A3000F0D6F8F6B2002E01D000F0DFF800F02C
S31508006A40DBF805E007B540F222415C48FEF736F868
S31508006A5017B0BDE8F08F38B504000D00E8B221493B
S31508006A600860C5F3072020490860C5F307401F4999
S31508006A7008601F48002101601A480068002807D1ED
S31508006A8019480068002803D118480068002805D06E
S31508006A901748006850F00100154908601448006856
S31508006AA050F40070124908601148006850F08000E0
S31508006AB00F4908602000C0B2FFF7E6FB31BD38B5C4
S31508006AC004003F480078800140F4800555F480456D
S31508006AD029002000C0B2FFF7BEFF31BDC42B00203D
S31508006AE00800004008BC00400CBC004010BC004038
S31508006AF02000004018BC004054A0004058A00040A8
S31508006B0060A8004064A8004068A800406CA800403F
S31508006B10044000400840004018400040284000401B
S31508006B200050004004500040085000400C500040FF
S31508006B301050004014500040185000401C500040AF
S31508006B403850004000E100E008ED00E00400004095
S31508006B5008B0004008B4004008B8004028000040CB
S31508006B6000E200E014BC0040400000403C00004049
S31508006B701C40004010ED00E0CC2D00200000002055
S31508006B8004ED00E010600040C82B002014600040AF
S31508006B9014A0004014A8004080E200E02400004051
S31508006BA020A000400C600040C12F00208C2000402F
S31508006BB03820004094ED00E000800040247A010867
S31508006BC0BF2F002008237F22024801880248FBF7CE
S31508006BD0DDBE00BFD6890108842C002072B6704736
S31508006BE0BFF35F8FBFF34F8FBFF36F8F7047000000
S31508006BF000BF30BF00BF704762B670472848012102
S31508006C00016028484EF6BE2101602748012101602F
S31508006C1070472348012101607047C0B2A52806D1F4
S31508006C2020494DF6AD620A601F4902220A60704784
S31508006C301D480068C00701D5012000E00020704704
S31508006C4080B51A481021016019480078012812D326
S31508006C5017480078032803D116480021016002E08E
S31508006C60144801210160144840F6510101600020D2
S31508006C70FDF7DCF908E00F48022101600E484FF4E1
S31508006C8000610160FCF739FF0C48072101600C48D8
S31508006C90002101600B4810210160002002BD0000A0
S31508006CA008600040046000400060004080E100E0A9
S31508006CB0BD2F0020080000400C60004014A00040D2
S31508006CC054A0004000E100E070B40400E4B2012CD6
S31508006CD062D1C9B2132908D2C9B2DFF8200330F944
S31508006CE011005FF0FF36B04201D1202055E0C9B24D
S31508006CF0DFF8080330F91100002810D5C9B20029B9
S31508006D000DD0C9B2DFF8F40230F911004042DFF8BD
S31508006D10F0623060DFF8EC02012606600BE0C9B2CB
S31508006D20DFF8D80230F91100DFF8D4623060DFF8F6
S31508006D30D40200260660DBB21809072802D1002013
S31508006D40050001E002200500D2B2012A02D155F061
S31508006D50180504E0D2B2022A01D155F00805DBB2C3
S31508006D6013F00F00022801DB55F00405A64805605C
S31508006D70A64801260660A648006840F4C04050F0C0
S31508006D800900A34E3060A3484FF6FF760660A24876
S31508006D9020260660002000E0212070BC704738B528
S31508006DA00400E4B2012C13D19848006801280FD1D9
S31508006DB0FEF768FE05009648006850F006009449FC
S31508006DC0086000F081F82800C0B2FEF761FEFFE710
S31508006DD031BDC0B2012805D18D49096831F00601D7
S31508006DE08B4A1160704710B40300DBB2012B17D130
S31508006DF086480068012813D11000421EC0B2002838
S31508006E0008D0864800684007FBD50878844C20607F
S31508006E10491CF1E7814800684006FBD5002000E0E0
S31508006E20212010BC704710B50400FFF7F2FEE4B24B
S31508006E30012C04D1794800684006FBD5FFE710BD50
S31508006E407047F8B5040077484568744800688007B5
S31508006E5038D57248006810F0380671480768F6B2E7
S31508006E60002E12D1A8880F280FD2288840198771BA
S31508006E702888401C6C49498890FBF1F201FB1200F6
S31508006E802880A888401CA880DFE7F6B2002E02D129
S31508006E902320060010E0300702D5272006000BE065
S31508006EA0F00602D52420060006E0B00602D5252005
S31508006EB0060001E0012006003100C9B2012000F0F9
S31508006EC06DF8C2E7F1BD70475848406881880129C6
S31508006ED015D352490968490711D54188091889798E
S31508006EE04F4A11604188491C514A528891FBF2F376
S31508006EF002FB131141808188491E8180E6E77047AD
S31508006F004C483F49096801604B483E490968016099
S31508006F104A483D4909680160704739484549096842
S31508006F200160384844490968016037484349096897
S31508006F3001603648012101603548006840F4C040C8
S31508006F4050F009003249086032484FF6FF71016077
S31508006F503148202101607047704710B52D480068F8
S31508006F6004002B4800680440002C16D02948046009
S31508006F7046F22970044203D0200080B2FFF761FF71
S31508006F8041F6D600044201D0FFF79EFF214800686B
S31508006F9004001F4800680440E6E710BD10B4C0B2FC
S31508006FA0204A52F82020C0B2254BC35C002B08D1DA
S31508006FB0C0B2244B148823F81040C0B2204BC154E9
S31508006FC019E0C0B21F4B33F810301380C0B21C4B07
S31508006FD0C15413885488A34209D2C0B21A4B33F855
S31508006FE0103054881B1B1488E318938003E0138819
S31508006FF054881B1B938010BC704700007C890108CD
S3150800700068C800406CC800405CC8004054C80040CE
S3150800701048A8004008A8004000E100E048C8004031
S315080070203CC800400428002078790108F42700208D
S3150800703070790108542C0020582C00205C2C002064
S315080070405C2B0020602B00206479010880B5674816
S315080070500021016066484FF400510160654802212D
S31508007060016065484FF400510160604800210160E5
S315080070705E48006850F060005C4908600E2000F029
S315080070802AF85E4908705E480021016058484FF4A6
S315080070908041016057480421016057484FF48041F8
S315080070A0016058481621016055480021016054487E
S315080070B0006850F0600052490860162000F00BF88E
S315080070C05149087051484FF4005101604F484FF438
S315080070D08041016001BD0100C9B208000E2802D036
S315080070E016280AD013E04A480068C0F3801010F04A
S315080070F0010090F00100C0B20AE046480068C0F3FB
S31508007100801010F0010090F00100C0B200E00020ED
S31508007110704710B538484FF40051016035480221D0
S3150800712001600E20FFF7D7FF040034480078E4B268
S31508007130A04207D031480470304801780E2002F08A
S3150800714081FC1BE02D480078002801D1012000E0D1
S3150800715000202A490870294801780E2002F072FC9E
S3150800716026480078002801D1012000E000202349A4
S315080071700870224801780E2002F064FC10BD10B594
S315080071801D484FF4804101601A4804210160162009
S31508007190FFF7A1FF04001C480078E4B2A04207D01C
S315080071A01948047018480178162002F04BFC1BE0B9
S315080071B015480078002801D1012000E00020124976
S315080071C0087011480178162002F03CFC0E48007839
S315080071D0002801D1012000E000200B4908700A4868
S315080071E00178162002F02EFC10BD000064A80040AD
S315080071F080E100E014A8004020A80040AA2F002043
S3150800720068A8004014BC0040AB2F002000E100E055
S3150800721008B4004008B8004010B50446FEF732FC32
S315080072204F48302101604F4801604F4801604F4880
S3150800723010210160200A08BF24024D4804804FF23D
S315080072400F014180BFF35F8F4A480021016041600A
S3150800725049484A49016010BD10B5494C2068C00626
S315080072600BD5434847490A68C0F894204968C0F8CE
S31508007270901040F60620FFF7CFFF2068C00708D514
S31508007280414803210170206C400840002064012019
S3150800729020602068000703D5206C20F008002064D1
S315080072A010BD000080B5002000F00AF838B907B50F
S315080072B0F5210FF2E800BDE80440FDF7FFBB01BD6C
S315080072C02DE9FC44314C4142226889184A1C02F0D7
S315080072D01F0200285ABF504245185518A5F11F0627
S315080072E02B48A84224BF2B48864203D3EFF30880D5
S315080072F0854201D300202EE0FEF7C4FB82462648CD
S31508007300006810F0010718BF04F049FE206801461E
S315080073108D4207D22068CD2100F8011920608542E8
S31508007320F8D307E01F38CD2201E000F8012B81428F
S31508007330FBD22560304604F039FEE22001E006F86B
S31508007340010BB542FBD20FB104F004FE5046FEF71E
S315080073509FFB20682038BDE8F6840C480068704713
S315080073603020004030C8004030C0004010D00040F7
S31508007370000000201C4000400CED00E00400FA0567
S3150800738018A0004030500040C22800205428002091
S31508007390A81F00207005002094ED00E06D69637257
S315080073A06F2D696E7465726E616C2E630000000045
S315080073B010B42D480068C0B2002100231A00082A1C
S315080073C00CD2012393400400A4B21C4204D0274BDC
S315080073D033F81230190001E0521CF0E789B2062989
S315080073E01AD1234B5B884FF20F04A3420BD1204BD3
S315080073F01B889BB21B0ADBB20B2B04D21D4B1C4C01
S3150800740024881C8003E01B4B4FF4C0641C80184B77
S315080074104CF23C345C801BE040F2072389B2994267
S3150800742014D1134B5B884FF20F04A3420ED1104BB5
S315080074301B8840F20724A34208D10D4B4CF23C347A
S315080074405C800C4B0A4C24881C8001E0094B19808F
S3150800745010BC70470748008880B2000AC0B270475F
S3150800746004480088704700002C000040D4770108C3
S3150800747000000020942F002070B5A04802F0C8FF35
S315080074800446FF2C15D09E480068205C851EE9B28C
S31508007490204602F063FF0646E9B2204602F065FE82
S315080074A02146304600F0DFF82046BDE8704002F07D
S315080074B00BBD70BD03460A468FA10420FFE70CB436
S315080074C080B502AA00F02AF801BC5DF80CFB00B5ED
S315080074D087B0FCF76EFF00210591049150210391B6
S315080074E000210291019187490091002302460FF27B
S315080074F024210120FFF7E3FF83488179039101885E
S3150800750002914179019101790091C37882780FF24D
S3150800751010214220FFF7D3FF07B000BD2DE9F04F39
S3150800752085B005460C469046002604F0A6FDC0B177
S31508007530012002F060FC8246BAF1FF0F11D000214B
S3150800754002F054FC294601A804F099FD05467CB9C9
