S01900006D6F62696C652D73656E736F722D686F73742E733337B1
S31508000000280C0020697600088D760008917600088D
S3150800001095760008997600089D760008000000008D
S31508000020000000000000000000000000A1760008A3
S31508000030A576000800000000A9760008AD7600083D
S31508000040B1760008B5760008B9760008BD760008CE
S31508000050C1760008C5760008C9760008CD7600087E
S31508000060D1760008D5760008D7670008DD7600083F
S31508000070E1760008E5760008E9760008ED760008DE
S31508000080F1760008F5760008F9760008FD7600088E
S315080000900177000805770008097700080D7700083A
S315080000A01177000815770008197700081D770008EA
S315080000B089670008DB330008297700082D770008D0
S315080000C03177000835770008397700083D7700084A
S315080000D041770008836C0008497700084D770008C7
S315080000E09560000855770008597700085D7700087D
S315080000F06177000865770008697700086D7700085A
S315080001007177000875770008797700087D77000809
S315080001108177000885770008897700088D770008B9
S315080001209177000895770008997700089D77000869
S3150800013088B001F02BFB002080F3108801230022F1
S315080001400F2101F0EDFC28B101230022082100202F
S3150800015001F0E6FC01F040FD0FF6143440B102460A
S315080001600FF6F42100F0CEF9E321204601F062FBF8
S31508000170002001F069FD020008D00FF6043100F0F6
S31508000180C1F9F021204601F055FB05E00FF60C31C8
S3150800019000F041FB00F02DFA00F045F800F07DFC78
S315080001A00FF6183100F037FBDFF8FC19002002F0D3
S315080001B03AF8CCA4214600F02EFB00F01AFA01F01A
S315080001C07DFB02460FF6103100F09CF901A900A844
S315080001D002F0ADFA002801BF9DF80000DFF8CC193F
S315080001E00978884210D102F040FA68B9BDF80C3097
S315080001F09DF80F200FF6EC2101F0ACFC01A90020B8
S3150800020001F01BFF214601E00FF6143100F003FB55
S3150800021000F0EFF901F002FB01F0E7FD00F048FC01
S3150800022000F0EAF9F6E780B5002002F0EDFE0120BD
S31508000230BDE8024002F0F5BE80B5002002F001FFDD
S315080002400120BDE8024002F0FCBE10B582B0049859
S3150800025051880A291FD1DFF854490021E170A0B15D
S31508000260A07A411CA1720698C9B20091437A027A13
S315080002700FF6DC21002001F06DFCA07A03280AD3D2
S3150800028000F0C7FA0020A07004E00FF6443101F030
S3150800029061FC0020A07213BD2DE9F04383B00E4621
S315080002A00D9C082C07D2234672880FF63831002099
S315080002B001F050FC6FE00E9D0822294600A802F0C6
S315080002C0DDFE72880FF6A836DFF8E0780FF6D0382C
S315080002D00FF21029012A0AD0022A20D0032A21D097
S315080002E0042A2FD00A2A35D0642A3CD04AE00A2CA0
S315080002F002D20FF620313FE00FF6403100F08BFABC
S3150800030000F04BF8B8783979084341D1B8710FF63F
S31508000310483101F01FFC284600F061FB3BE00FF670
S31508000320603111E00FF6903100F075FA00F035F8FB
S315080003300FF69C3100F06FFA002038710120B87072
S31508000340787228E00FF6A43100F065FA00F025F877
S3150800035041461EE00FF6AC3100F05DFA00F01DF8DC
S315080003600FF6B43115E00822DFF83C1800A802F0B1
S31508000370C1FE80B10FF6B83100F04DFA00F00DF865
S31508000380494606E00FF6C43100F0E5FA00F005F834
S31508000390314600F040FABDE8F78300A9002001F0D5
S315080003A042BF38B50446DFF8045802F061F96870B0
S315080003B0902C06D0912C0DD0942C15D0962C26D0A6
S315080003C02EE00FF6A43100F026FA0020E87300F0BC
S315080003D0B0FA2AE00FF6BC3100F01DFAFFF723FF4A
S315080003E00020A870287220E00FF6D43100F0E4FB54
S315080003F00FF6F83100F0E0FB0FF6204100F0DCFBC9
S315080004000FF6584100F0D8FBFFF70DFF0DE00FF689
S31508000410944100F000FAFFF706FF02F060F904E0E5
S3150800042022460FF6A84100F096FA0020BDE83240B1
S3150800043001F0A6BB02460FF6B44102E002460FF6EB
S31508000440D841002001F086BB10B588B0044600A844
S315080004500FF6D4410CC90CC0182102F08DFE0822F3
S3150800046000A902A802F00AFE2088ADF810004FF095
S31508000470FF308DF81200A0788DF8130002A9DFF876
S315080004802C07007802F00BF920B102460FF6A041BE
S3150800049000F061FA08B010BD704700B9704710B592
S315080004A0312819D0DFF804476078022818BF0328D6
S315080004B012D10FF68C4100F0AEF900F031F90021A7
S315080004C0012002F018F802460FF6884100F043FAB8
S315080004D000F08FF83220E07310BDDFF8D01688736D
S315080004E0704700000D0A000080B502460FF68C41E1
S315080004F000F008F84FF41C710FF27470BDE8044060
S3150800050001F098B9002001F041BB2DE9F04182B015
S31508000510044611B90FF6844103E0012903D10FF609
S31508000520904100F078F900F064F8DFF88056298ADF
S31508000530687830B9B9B10222002102F06BF90020BF
S3150800054010E0206881420ED0F021B1FBF0F2D2B261
S31508000550022180B202F05EF9020002D00FF668416D
S3150800056013E02068288202F083FE0646DFF840760C
S315080005700120387000230222216889B2002002F087
S3150800058039F8020004D00FF6504100F0E4F92CE0E7
S315080005900020A873EFF31088012080F3108801F07B
S315080005A03BF9072001F0CEF901F034F9FFF73BFEDD
S315080005B088F31088A87B20B901F024FBA87B0028C3
S315080005C0FCD00020387000AA0DF1010102F026F8CF
S315080005D021680D1A06EB052002F052FE2068401B22
S315080005E020600FF6084100F016F900F002F8BDE8A1
S315080005F0F381002001F0C4BA38B500250095DFF86C
S31508000600AC456078022815D1A07800281CBF20794F
S31508000610012805D0E07801281CBF607A012803D19B
S3150800062004250095002102E0F0250095012100A887
S31508000630FFF76BFF607878B9607B012806D1F02553
S315080006400095012100A8FFF760FF05E0208A18B190
S3150800065000F066F80020208200982D1AEDB202F00C
S3150800066002FE618A411A89B2FB2958D360826078F2
S31508000670022808BFFFF7E0FD00F057F805B9012585
S31508000680A079012812D1E079A842B8BF0546401BD7
S31508000690E071C0B250B9A0710FF65C3101F05AFA98
S315080006A00FF6843100F0B7F8FFF7A3FF2079012889
S315080006B00CD16079A842B8BF0546401B6071C0B22C
S315080006C020B920710FF6783101F044FAA078012894
S315080006D00CD1607AA842B8BF0546401B6072C0B20A
S315080006E078B95020607200F099F80AE0607802281C
S315080006F007D1A079217A08432179084308BF00F079
S31508000700E8F8E07B58B1401EE073C0B238B9002162
S3150800071001F0F1FE02460FF6703100F01CF931BD0A
S3150800072002220021002002F075B810B588B0DFF863
S315080007307C44E07A00285BD00020E072607830B113
S31508000740022846D042D3042846D04BD350E00FF6B1
S315080007506C3101F0FFF9FFF74CFF01F053FC06A8D6
S315080007600FF670310CC90CC040F2FF10ADF8080046
S315080007704FF0FF308DF80A001A208DF80B0008227A
S3150800078006A900A802F07AFC00208DF80C00BDF836
S3150800079008309DF80B200FF24C5101F0DBF900A947
S315080007A0002001F04AFCC1A100F035F8FFF721FF4F
S315080007B000A9207801F073FF28B102460FF61C3114
S315080007C000F0C9F814E00FF6443108E00FF6583186
S315080007D004E00FF67C3101E00FF69C31002001F0B1
S315080007E0B9F905E00FF6B43100F015F801F077FF16
S315080007F0207B60B10020207301F071FF02460FF6DE
S31508000800B83100F0A8F8012020720020A07208B0C4
S3150800081010BD0FF28051002001F09CB9F0B587B0E9
S31508000820282501F054F8044601F0B4FF302809DA07
S31508000830A0F10805EDB22B4628220FF6A4310020B8
S3150800084001F088F905F0FE05DA4E0822D649304649
S3150800085002F014FC0020221205E006EB40010A72A1
S315080008604C72401CC0B205EBD571B0EB610FF4DBDE
S3150800087000F0AAF80A2000F0F5F8019605F108003C
S31508000880C0B200900A2300F0E8F80600C74F12D05D
S31508000890B87A431CBB72DBB232460FF67C310020B5
S315080008A001F058F9B87A032807D3FFF7B2FF0020FA
S315080008B0B870B87201E00120F87005F108000090E0
S315080008C0234632460FF68831002001F043F907B077
S315080008D0F0BD10B58AB003A907A801F03AFF00F0E9
S315080008E078F84CF20F00ADF810000420ADF81200AD
S315080008F001208DF814008DF815004020ADF816007B
S315080009000DF11A000290019408200090042304AA0D
S31508000910BDF80C10002001F040FF02460FF66431C6
S3150800092000F019F8A148012181712821C1710AB086
S3150800093010BD80B541F21110ADF8000001208DF808
S31508000940020000A9002001F0C4FF02460FF6543148
S3150800095000F001F801BD002001F0FCB810B588B020
S3150800096006A80FF678310CC90CC000F032F805223B
S3150800097006A904F1080002F081FB00F025F86420BE
S31508000980ADF80E0001208DF810008DF8110000203A
S31508000990ADF8120041F21110ADF8140000208DF8E0
S315080009A016000DF11600029001940D2000906423A4
S315080009B006220A2103A801F006FF02460FF6243193
S315080009C0FFF7C9FF08B010BD4CF20F00ADF80C00D8
S315080009D07047784C08227449204602F04FBB10B580
S315080009E088B004460822214606A802F047FB607A2A
S315080009F0217A01EB002406A9002001F01BFF28B18B
S31508000A0002460FF60831FFF7A6FF24E0A1B201F06F
S31508000A1023FF00220FF63C31FFF79DFF06A9FFF7DB
S31508000A20BDFC5FA1FFF7F7FEFFF7D3FFFFF7CCFF8B
S31508000A30022000F017F8019408200090022300F025
S31508000A400CF802460FF64031FFF785FF574801219B
S31508000A5001715021417108B010BD03AA002101207F
S31508000A6001F09BBEADF80E0001208DF810008DF840
S31508000A7011004020ADF812000DF1160002907047E3
S31508000A804A4A012803D1012906D110737047002864
S31508000A9002BF01290120D0727047444800218170A5
S31508000AA05021417200218172704700000D0A000032
S31508000AB010B582B000A9002001F034F800286DD1E5
S31508000AC09DF800000A2869D036A1FFF7A4FE37482A
S31508000AD09DF800100A2918BF0D2957D0302936D09D
S31508000AE0312937D03F2913D061291FD0652934D041
S31508000AF069290AD06B2937D06C291FD06D2919D0DE
S31508000B00732934D0742906D03CE001F0A8FA3DE0F8
S31508000B1000F055F83AE00FF664440021204602F04A
S31508000B2010FC0021204602F00CFC2FE0012001F009
S31508000B30D1FA2BE0012001F02CFB27E040780228AF
S31508000B4002D1FFF70BFF21E00FF664211CE001211B
S31508000B50C1721FE0012101731CE00FF6782100F035
S31508000B602BF800F05DFE11E001F074FB0EE0427B0D
S31508000B70511E8941C90F4173427B0FF66C21FFF75D
S31508000B80EAFE03E00FF67821FFF745FE9DF8000020
S31508000B900A2803D00FF67821FFF73DFE13BD0000A3
S31508000BA05D0D0A000D0A000008040020D40000208C
S31508000BB00101002024030020002000F0E7BF80B5D3
S31508000BC00FF66021FFF727FEFFF713FD0FF66021EA
S31508000BD0FFF721FEFFF70DFD0FF66C21FFF71BFE51
S31508000BE0FFF707FD0FF68021FFF715FEFFF701FD5A
S31508000BF00FF68421FFF70FFEFFF7FBFC0FF6942193
S31508000C00FFF709FEFFF7F5FC0FF6A421FFF703FE31
S31508000C10FFF7EFFC0FF6C421FFF7FDFDFFF7E9FC30
S31508000C200FF6E821FFF7F7FDFFF7E3FC0FF6F021D3
S31508000C30FFF7F1FDFFF7DDFC0FF60C31FFF7EBFDD3
S31508000C40FFF7D7FC0FF62031FFF7E5FD0020BDE8DA
S31508000C50024000F095BF00004552524F523A2065B7
S31508000C607A7370496E697420307825780D0A000009
S31508000C70736C656570792D73656E736F722E63007C
S31508000C804552524F523A20657A73705574696C49C9
S31508000C906E697420307825780D0A00004556454E51
S31508000CA0543A20657A73705574696C496E69742074
S31508000CB07061737365640D0A000000000D0A494EE1
S31508000CC049543A206D6F62696C652D73656E736F52
S31508000CD0722061707020000052455345543A2570C1
S31508000CE00D0A000053454E534F52204150503A20AA
S31508000CF06A6F696E696E67206E6574776F726B20AE
S31508000D002D206368616E6E656C20307825782C20FE
S31508000D1070616E69642030782532782C20000000D6
S31508000D2053454E534F52204150503A2070757368C0
S31508000D3020627574746F6E203020746F206A6F6934
S31508000D406E2061206E6574776F726B0D0A00000065
S31508000D505741524E494E473A205458206F66205BF9
S31508000D60646174615D2025782578206D7367206637
S31508000D7061696C65642C20636F6E7365637574694D
S31508000D807665206661696C757265733A25780D0A11
S31508000D90000000004552524F523A20746F6F206D82
S31508000DA0616E792064617461206D7367206661697C
S31508000DB06C757265732C206C6F6F6B696E67206635
S31508000DC06F72206E65772073696E6B0D0A000000DE
S31508000DD052582041434B20666F72205B4441544170
S31508000DE05D0D0A005258205B626164207061636B76
S31508000DF065745D20636C757374657220307825326E
S31508000E0078206F66206C656E6774682025780D0AF1
S31508000E1000000000525820746F6F2073686F727458
S31508000E20205B73696E6B206164766572746973659D
S31508000E305D2066726F6D3A20000000005258205BF4
S31508000E4073696E6B206164766572746973655D207B
S31508000E5066726F6D3A2000003B2070726F6365738F
S31508000E6073696E67206D6573736167650D0A0000A7
S31508000E703B2069676E6F72696E670D0A0000000095
S31508000E805258205B73656E736F722073656C656369
S31508000E90742073696E6B5D2066726F6D3A20000070
S31508000EA03B207468697320697320616E204552522D
S31508000EB04F525D0D0A0000005258205B73696E6B35
S31508000EC02072656164795D2066726F6D3A20000054
S31508000ED03B2077696C6C2073746172742073656E3D
S31508000EE064696E6720646174610D0A005258205B5C
S31508000EF073696E6B2071756572795D2066726F6DA8
S31508000F003A2000005258205B444154415D206672E5
S31508000F106F6D3A20000000003B20746869732069F1
S31508000F207320616E204552524F520D0A0000000090
S31508000F305258205B6D756C746963617374206865BB
S31508000F406C6C6F5D2066726F6D3A20005258205B9C
S31508000F50756E6B6E6F776E2028253278295D206650
S31508000F60726F6D3A200000004556454E543A20737C
S31508000F707461636B537461747573206E6F77204563
S31508000F804D4245525F4E4554574F524B5F55500D93
S31508000F900A0000004556454E543A20737461636B47
S31508000FA0537461747573206E6F7720454D424552B0
S31508000FB05F4E4554574F524B5F444F574E0D0A00EC
S31508000FC04556454E543A20737461636B5374617485
S31508000FD07573206E6F7720454D4245525F4A4F49DB
S31508000FE04E5F4641494C45440D0A0000202020200A
S31508000FF0203A206966207573696E67206861726495
S31508001000636F646564206E6574776F726B207365B1
S315080010107474696E67732C0D0A0000002020202066
S31508001020203A206D616B652073757265207468655A
S3150800103020706172656E74206973206F6E20746803
S31508001040652073616D65206368616E6E656C202628
S315080010502050414E2049440D0A000000202020203F
S31508001060203A207573652027212720666F72207025
S315080010706172656E7420746F206C65617665206E8A
S315080010806574776F726B20616E6420273127207430
S315080010906F20726573657420706172656E740D0ACF
S315080010A0000000004556454E543A20737461636B40
S315080010B0537461747573206E6F77204D4F56455F74
S315080010C04641494C45440D0A000000004556454E28
S315080010D0543A20737461636B537461747573206E2C
S315080010E06F7720307825780D0A0000004556454E62
S315080010F0543A206E6574776F726B206B657920732E
S31508001100776974636865642C206E657720736571EA
S315080011102025780D0A0000005363616E20657272FF
S315080011206F7220307825780073656E736F720000D1
S315080011304A6F696E206572726F7220307825780062
S31508001140706F6C6C3A206E6F20706172656E740DEC
S315080011500A0000006C6F6F6B696E6720666F7220FD
S315080011606E657720706172656E743A2072656A6F73
S31508001170696E3A2025780D0A000000004552524F44
S31508001180523A20657A73704572726F7248616E645E
S315080011906C657220307825780D0A00004556454E54
S315080011A0543A206E617070696E672E2E2E0000000C
S315080011B04556454E543A2068696265726E6174698F
S315080011C06E672E2E2E000000706F6C6C3A203078F9
S315080011D025780D0A0000000073657454696D657200
S315080011E03A20307825780D0A0000000077616B6593
S315080011F075700D0A000000004556454E543A2064A5
S3150800120069646E27742072656365697665205B7309
S31508001210696E6B206164766572746973655D206DAD
S315080012206573736167652C00726573656E64696EB4
S31508001230672073696E6B2071756572790D0A0000F7
S315080012404556454E543A206469646E277420726583
S315080012506365697665205B73696E6B207265616488
S31508001260795D206D6573736167652C206E6F7420D8
S3150800127077616974696E6720616E79206C6F6E6735
S3150800128065720D0A00000000736563757265207249
S31508001290656A6F696E206661696C65642C20747274
S315080012A079696E6720756E736563757265207265F8
S315080012B06A6F696E3A2025780D0A00004255545423
S315080012C04F4E303A206A6F696E206E6574776F727A
S315080012D06B0D0A0073656E736F7200006572726F2C
S315080012E0722072657475726E65642066726F6D2001
S315080012F0656D6265724A6F696E4E6574776F726B5B
S315080013003A20307825780D0A000000007761697464
S31508001310696E6720666F7220737461636B207570DF
S315080013202E2E2E0D0A000000425554544F4E303AC8
S315080013302061707020616C726561647920747279BD
S31508001340696E6720746F206A6F696E0D0A00000067
S31508001350425554544F4E303A20616C726561647937
S31508001360206A6F696E65642C206E6F2061637469EC
S315080013706F6E0D0A00000000425554544F4E303A25
S3150800138020617070206C656176696E672C206E6FBF
S3150800139020616374696F6E0D0A000000425554544B
S315080013A04F4E303A206170702077696C6C206C65FE
S315080013B06176650D0A000000425554544F4E313A85
S315080013C0206C65617665206E6574776F726B207325
S315080013D0746174757320307825780D0A0000000052
S315080013E05741524E3A2053454E445F444154415F5B
S315080013F053495A45202825642920746F6F206C614B
S315080014007267652C206368616E67696E6720746F02
S315080014102025640D0A0000005741524E494E473AAE
S315080014202053454E44205B646174615D20666169A2
S315080014306C65642C2065727220307825782C2066BD
S3150800144061696C757265733A25780D0A00000000AB
S315080014505458205B444154415D207374617475731C
S315080014603A20307825782020646174613A203078F3
S31508001470253278202F206C656E2030782578290D46
S315080014800A0000005458205B73696E6B20717565FD
S3150800149072795D2C207374617475733A3078257887
S315080014A00D0A00004556454E543A20736574746912
S315080014B06E67206D756C74696361737420746162FC
S315080014C06C6520656E7472792C20737461747573FB
S315080014D020697320307825780D0A000068656C6CE1
S315080014E06F0000005458205B6D756C7469636173F6
S315080014F0742068656C6C6F5D2C20737461747573E9
S3150800150020697320307825780D0A00005458204544
S3150800151052524F52205B73656E736F722073656CFF
S315080015206563742073696E6B5D2C20736574207215
S31508001530656D6F7465204555493634206661696C5A
S315080015407572652C207374617475732030782578EC
S315080015500D0A00004556454E543A2073656E736F62
S315080015607220736574206164647265737320746194
S31508001570626C6520656E74727920257820746F20F8
S3150800158073696E6B205B00005458205B73656E733D
S315080015906F722073656C6563742073696E6B5D2C5E
S315080015A0207374617475733A307825780D0A0000D3
S315080015B05741524E3A20617070206E6F74206A6FE0
S315080015C0696E65642C2063616E27742073656E648A
S315080015D00D0A0000526573657474696E67206E6F34
S315080015E064652E2E2E0D0A00736C65657057686546
S315080015F06E4E6F744A6F696E65643A2025780000EE
S31508001600756E6B6E6F776E20636D640D0A00000051
S315080016100D0A6D6F62696C652D73656E736F723E28
S31508001620000000003F203D2068656C700D0A000030
S3150800163069203D207072696E74206E6F646520693A
S315080016406E666F0D0A0000006C203D2073656E649F
S31508001650206D756C746963617374205B68656C6C66
S315080016606F5D0D0A0000000074203D20706C6179E2
S315080016702074756E650D0A0061203D207072696ED2
S31508001680742061646472657373207461626C650D9D
S315080016900A0000006D203D207072696E74206D7519
S315080016A06C746963617374207461626C650D0A00F9
S315080016B030203D2073696D756C61746520627574A0
S315080016C0746F6E20303A206A6F696E20746F206ED0
S315080016D06574776F726B0D0A0000000031203D209B
S315080016E073696D756C61746520627574746F6E20AC
S315080016F0313A206C65617665205A696742656520CE
S315080017006E6574776F726B0D0A00000065203D20C8
S315080017107265736574206E6F64650D0A00000000BB
S3150800172073203D207475726E206F6E20736C65652C
S3150800173070696E67207768656E206E6F74206A6FB1
S31508001740696E65640D0A00006B203D207072696E33
S315080017507420746865207365637572697479206B83
S315080017606579730D0A00000072203D207265736565
S3150800177074206E6F64650D0A0000000049020002BD
S315080017807B010001410100010000000080B5012035
S3150800179080F3108801215C4801F03AFF012145F2E7
S315080017A03D2001F016FF012001F0F0FF574802F036
S315080017B033F802F02DFA02F035FA02F056FB5448D7
S315080017C002F0FCFA534802F0F9FA534802F0F6FA26
S315080017D0524802F0F3FA524802F05AFE4FF080409F
S315080017E002F0A2FF4F4802F09FFF4F4802F09CFF0D
S315080017F04E4804F06DF801F031FD042004F05BFB5F
S3150800180004F07CFB04F0F0FB01F0F1FBBDE80140BD
S3150800181004F0BBBC04F065BD04F074BD05F026B841
S315080018204348016801F4E061424A11430160BFF38D
S315080018304F8FFEE738B504460D4605F017F8012028
S3150800184080F310882B4622460FF21C11002000F068
S315080018509DF9BDE83140E3E710B5374C2078FF28FD
S315080018602BD17F2001F034FF012822D07E2001F001
S315080018702FFF012808BF02201BD07D2001F028FF7A
S31508001880012808BF032014D07C2001F021FF01287D
S3150800189008BF04200DD07B2001F01AFF012808BFDD
S315080018A0052006D07A2001F013FF01280CBF062078
S315080018B00020207001F03BFF207810BD80B5FFF7AF
S315080018C0CBFF1E4951F8200002BD04F0D7BF80B5F2
S315080018D004F0E4FF80B202BD032813D31849472257
S315080018E04A6000228A600A6805220A600246501E7B
S315080018F092B21AB10A68D203FCD5F7E7086840081D
S3150800190040000860704700000B40001800240140A2
S3150800191000080140000C014000100140001401407D
S315080019200030014000040040000C0040003801402F
S315080019300CED00E00400FA05090100208C000020E7
S3150800194010E000E080B5072818BF082802D0801EDE
S31508001950022807D80121012001F027FFBDE8014030
S3150800196005F00CB801BD00000D0A5B415353455202
S31508001970543A25703A25645D0D0A000070B5134681
S31508001980101802E0A4192C705B1EDBB24BB101F0F3
S315080019900F060909451E28460A2E34BF3024372467
S315080019A0F0E7101870BD2DE9F04F87B080468946DC
S315080019B014469B4601AD002701A88DF800001BE0E0
S315080019C05BF804AB04224FEA1A412846FFF7D6FF14
S315080019D004221FFA8AF1FFF7D1FF054605A88542BA
S315080019E009D39DF800002E1A00F096F8002831D188
S315080019F0F719FFB201AD641C9DF800002E1A207875
S31508001A00002807D0252802D005F8010BE6E714F8C8
S31508001A10010F002876D02528F6D0322818BF34289A
S31508001A205FD0582857D063280CD0642818BF6C2874
S31508001A3025D0702818BF732807D075281FD0782896
S31508001A4049D0CBE75BF8040BDEE75BF804AB00F0A4
S31508001A5063F800285CD1F719FFB201AD002600E053
S31508001A60761CF6B216F80A000028F9D13246514615
S31508001A704846C04700284BD1F719FFB2AEE75BF8D6
S31508001A80040B0021002803D52D212970012140428D
S31508001A90002300224FF0000C02E0801B0CF1010C21
S31508001AA00FF2101656F82260B042F6D243EA0C0638
S31508001AB0F6B2002E05D0C9B20CF130034B55491CBD
S31508001AC00123521C092AE5DBC9B230304855481CA7
S31508001AD0C0B2451982E75BF8041B0222C9B2284640
S31508001AE079E714F8010F78281CBF5828641EF1D12D
S31508001AF014F8010C32287FF463AF5BF8041B042248
S31508001B0089B2ECE700F008F810B9F019C0B200E0A5
S31508001B10002007B0BDE8F08FF2B201A94846404759
S31508001B2004F0F3BF10B50C4605F0F8F8002801D507
S31508001B30262010BD2070002010BD10B500241346C5
S31508001B400A4601460FF21D00FFF72DFF00B90124D2
S31508001B50204610BD0CB480B502AAFFF7EEFF02BC02
S31508001B605DF80CFB38B50C46154603E014F8010B76
S31508001B7005F0EEF82846451EC0B20028F6D132BD5B
S31508001B8080B5012005F04FF8002002BD0CB438B529
S31508001B9004460D46012005F04AF804AA29462046BF
S31508001BA0FFF7CBFF0446002005F041F8204632BC7B
S31508001BB05DF80CFB00CA9A3B00E1F5058096980093
S31508001BC040420F00A086010010270000E80300002D
S31508001BD0640000000A0000001748006817494860BA
S31508001BE0401C086004F026BC80B51548007838B952
S31508001BF004F090FD13490978084302D0012002BD7C
S31508001C00002002BD04F018BC0020704710B50C4C2B
S31508001C10207830B104F0B3FC192803D000212170D4
S31508001C2010BD192010BD80B504F070FD04480121CF
S31508001C300170002002BD00000C01002010040020E5
S31508001C4022040020210400202DE9F04F8DB08146A2
S31508001C5000264FF0180B6C4DAA1C04A9042000F0AE
S31508001C604CFC042818BF01269DF8100002280CBF5A
S31508001C700020022050EA06081DD100260FF25C2437
S31508001C80DA460DF11201207800F04BFC070022D14C
S31508001C906188BDF81200814215D2C6B1002040EA1B
S31508001CA008080834BAF1010AEBD1761C022EE5DBE6
S31508001CB0B8F1000F23D042460FF25C114846FFF7F1
S31508001CC065FF012087E08842E8D2012EE6D1207818
S31508001CD000F039FC0746002FE0D0638822780FF21F
S31508001CE070114846FFF752FF6068D8E70BF101000C
S31508001CF05FFA80FB5946012000F025FC0746002FB5
S31508001D00F4D000260FF2801BDFF80081404C01E07A
S31508001D10761CF6B2207886423CDA4FEA061A0AEBB7
S31508001D2008077868417909293CBF8079092803D3CF
S31508001D30F2215846FFF77EFD002009AA02E0B9689D
S31508001D4000F04CF8796849798842F8DB002005AA42
S31508001D5002E0F96800F042F8796889798842F8DB88
S31508001D60786805A9039109A90291817901914179B8
S31508001D7000910379428801881AF8080000F0EFFB01
S31508001D800700C5D03A460FF210114846FFF7FEFE87
S31508001D90384620E00020287000A800F01CFC824687
S31508001DA090B90DF1020000F016FC824660B9BDF844
S31508001DB00200BDF8001041EA0040FFF786FD281D25
S31508001DC000F09EFC002006E052460FF2EC01484661
S31508001DD0FFF7DCFE50460DB0BDE8F08F31F8101065
S31508001DE022F81010401CC0B2704710B501F0BFF8B9
S31508001DF0084C03E00020207000F0E3FBFFF7F4FE38
S31508001E000028F7D110BD000004040020E8000020D7
S31508001E100A010020010100204552524F523A20453E
S31508001E205A5350207574696C7320636F6E666967C0
S31508001E3020636F6D7061746962696C697479206674
S31508001E406C616773202D2030782534780D0A0000E0
S31508001E504552524F523A2053657420636F6E666935
S31508001E6067206661696C656420666F722069642004
S31508001E7030782532782C2076616C75652030782587
S31508001E8032780D0A00000000657A73702D75746942
S31508001E906C732E63000000004552524F523A20657B
S31508001EA07A7370416464456E64706F696E7420302D
S31508001EB07825780D0A0000004552524F523A20659F
S31508001EC07A737047657452616E646F6D4E756D6294
S31508001ED0657220307825780D0A0000000100180088
S31508001EE008000000020008001000000003000A00B5
S31508001EF0200000000400000040000000050001006A
S31508001F008000000006000100000100000700100024
S31508001F100002000008000800000400000900000094
S31508001F20000800000A000000001000000C00000075
S31508001F30004000000D0005000080000010001E0093
S31508001F400000040011000600000008001200B80B8B
S31508001F500000100013000500000020001400140003
S31508001F600000400015000000000080001A00200054
S31508001F70000000021B000600000000011C00010012
S31508001F80000000041D000000000000081E000000FC
S31508001F90000000102D0001000000002030B587B0B9
S31508001FA004460FF2FC25E0790590A0790490607943
S31508001FB0039020790290E0780190A07800906378E9
S31508001FC0227800F01BF800F0E1F8E07B0590A07B92
S31508001FD00490607B0390207B0290E07A0190A07ABF
S31508001FE00090637A227A00F009F800F0CFF895A1FC
S31508001FF0002007B0BDE83040FFF7ACBD29460020F9
S31508002000FFF7A8BD00B585B000A80FF2B0211022D1
S3150800201004F0C2FE00A804F0EAFE28B900220FF276
S31508002020AC21FFF797FD06E00FF2C02100F0F8F8A3
S3150800203000A8FFF7B3FF05B000BDF8B504460D4686
S315080020400FF2C421FFF786FD00267FA7725D394689
S315080020502046FFF77FFD761C082EF7D3F1BD00B5A5
S3150800206089B002A901A800F062FB0FF2AC2100F0CA
S31508002070D7F80FF2AC2100F0D3F87449002000F02D
S31508002080D2F800F04AFB02460FF29C2100F0C4F891
S3150800209000F07CF8BDF8100000909DF912309DF80C
S315080020A013200FF29821FFF7AAFF02A90020FFF7D5
S315080020B0C4FF674802880FF2B42100F0ADF800F0BB
S315080020C065F805220FF2C02100F0A6F800F05EF8C8
S315080020D009B000BD2DE9F14F82B00FF2C42100F01E
S315080020E09FF858A400F09BF800F050F800260FF26D
S315080020F0E0290FF2D42A4FF6FF7B0FF2C4280A25EF
S3150800210012E03A460FF2F4210020FFF723FD00A95A
S31508002110304600F0AFFB00A9002000F084F800F07C
S315080021207EF800F033F8761C9DF80800F6B2864271
S315080021302AD296FBF5F005FB106101F13003DBB2FC
S31508002140684390FBF5F000F060F8304600F0A2FB1B
S3150800215007465F450CBF5146494600F061F84FF601
S31508002160FC71781A0CD0401E05D0801EC9D15A467B
S315080021700FF26421C9E74FF6FD720FF26821C4E732
S315080021800A460FF26C21C0E7BDE8F78F0020FFF77B
S31508002190F7BC2DE9F04782B004460FF26C2100F037
S315080021A03FF8FFF7F3FF00270FF2A4250FF2942953
S315080021B00FF2802A0FF270280A2605E0294600F059
S315080021C02FF8FFF7E3FF7F1CA7421CDA97FBF6F010
S315080021D006FB107101F13003DBB2704390FBF6F099
S315080021E000F013F800A9F8B200F061FB0028E5D169
S315080021F0BDF800205146FFF7ADFC9DF80220494680
S3150800220000F00AF8DDE7BDE8F38700F13002D2B244
S3150800221041460020FFF79EBC0020FFF79BBC2146E5
S315080022200020FFF797BCF8B504460D46082606A712
S31508002230701910F8012C39462046FFF78BFC761EDC
S31508002240F6D1F1BD0D0A000025780000080400202B
S3150800225006040020F0B58BB0012400F009FA022824
S3150800226018BF032816D102250FF218260FF2F41705
S3150800227000A9204600F042FB012C0CBF3946314626
S31508002280FFF7CEFF0DF10300FFF788FE03246D1E4E
S31508002290EED103E00FF20C21FFF7C2FF0BB0F0BD41
S315080022A025582025582025582025582025582025EA
S315080022B05820255820255820000000005A696762D2
S315080022C06565205365637572697479214552524F65
S315080022D0523A20696E697469616C697A696E672019
S315080022E073656375726974790D0A0000494E464F25
S315080022F0203A206C696E6B206B65792073657420B3
S31508002300746F3A2000000000457874656E64656451
S3150800231050616E49643A200073656E736F722000CF
S31508002320657569205B0000005D2073686F72742014
S315080023304944205B2532785D0D0A00006368616EAA
S315080023406E656C205B307825785D2C20706F77651C
S3150800235072205B307825785D2C2070616E49642088
S315080023605B30782532785D0D0A0000002C207374E6
S3150800237061636B205B2532785D2C20617070205B71
S31508002380322E36305D0D0A0073656375726974798D
S31508002390206C6576656C205B25785D0D0A0000006B
S315080023A0496E6465782020496E75736520204E6FE6
S315080023B064654964202020457569363400000000AC
S315080023C020256325633A2000202046414C534500CA
S315080023D020205452554520002020554E555345443B
S315080023E0202020002020554E4B4E4F574E202000CF
S315080023F0202044495343204143542000202030786C
S315080024002532782020200000496E64657820204D0A
S31508002410756C74696361737449642020456E6470D1
S315080024206F696E740D0A000020256325633A202023
S315080024302000000020203078253278202020202017
S31508002440000000002020307825780D0A00000000E2
S31508002450202D2D2D204552524F52202D2D2D0D0A5F
S3150800246020000000454D4245525F54525553545F73
S3150800247043454E5445525F4C494E4B5F4B45593A7E
S3150800248020000000454D4245525F43555252454E85
S31508002490545F4E4554574F524B5F4B45593A20208F
S315080024A000000000494E464F203A206E6F742061A6
S315080024B02076616C6964206E6574776F726B207321
S315080024C07461746520746F207175657279207468FB
S315080024D065206B657973200D0A20000034B5044623
S315080024E00D4600AA0121122000F062F8294620466E
S315080024F000F0F8F832BDFF22F0E770B500F015FAE3
S31508002500002000F0C5FC00F03FF900F0F5FC04F0EF
S315080025108BFC00F0A7F8287004F0A0FC3080204659
S3150800252070BD38B504460D46522000F0B1FC00F0E7
S315080025302BF900F0E1FC04F077FC044604F08EFC6D
S315080025402880204632BD38B504460D46532000F093
S315080025509FFC00F019F900F05EF800F077B92DE954
S31508002560F84304460D46904699460A9E0B9F02205C
S3150800257000F08EFC00F008F900F04DF8404604F033
S3150800258066FC484604F057FC089D00F040F9099C93
S3150800259000F0FAF83146284604F08BFC3946204606
S315080025A004F087FC00F0A8FCBDE8F14304F03CBC4D
S315080025B070B500F0BAF9AB2044E02946204604F08D
S315080025C066BC80B5062000F063FC00F095FCBDE80B
S315080025D0014000F0BAB938B50446492000F058FC65
S315080025E000F08AFC04F020FC054604F037FC208045
S315080025F0284632BDF8B500F0BFF80E2000F048FCBA
S3150800260000F0C2F800F007F800F0BBF8384604F00E
S3150800261012FC00F094B9284604F019BC70B500F015
S3150800262084F94E2000F034FC00F0AEF800F064FCAB
S3150800263004F014FC00F016F8287004F0F5FB30706E
S31508002640204670BD00F024FC00F09EF800F0DFF88C
S315080026503146284604F01BFC00F04EFCBDE87040ED
S3150800266004F0E2BB044604F0DFBB80B5172001E0A6
S3150800267080B5182000F00CFC00F03EFCBDE80140D7
S3150800268004F0D2BB70B500F050F91A2000F000FC37
S3150800269000F07AF800F031F800F073F8DCE738B5A6
S315080026A004460D461F2000F0F3FB00F06DF800F01D
S315080026B038F9288904F0CBFBA87A04F0BCFBE87A41
S315080026C004F0B9FB287B04F0B6FBE88904F0BFFBED
S315080026D0287C04F0B0FB686904F0CAFBB6E080B554
S315080026E02020C7E738B504460D46212000F0D0FB68
S315080026F000F04AF800F001F8A8E0284604F0B8BB54
S3150800270010B50446262000F0C3FB00F0F5FB214671
S315080027100820BDE8104004F0DABB80B5272000F099
S31508002720B7FB00F0E9FBBDE8014004F097BB70B5C4
S3150800273004460D46282000F0ABFB00F0DDFB04F054
S3150800274073FB00F092FB2070284604F0D3FB30465A
S3150800275070BD70B504460D46292000F099FB00F0BF
S31508002760CBFB04F061FB0646214600F010F804F0A6
S3150800277075FB2880304670BD04460D4616461F4632
S315080027807047304604F057BB204604F054BB082077
S3150800279004F09DBB80B533206CE72DE9F84300F0C3
S315080027A00BF8342000F074FBFFF7EEFFFFF733FF5A
S315080027B0404604F0BBFB15E004460D469046994694
S315080027C0099E0A9F70472DE9F843FFF7F5FF382061
S315080027D000F05EFB204604F0A9FB00F018F840461E
S315080027E004F029FB484604F026FB089C204604F022
S315080027F022FB3146FFF7E2FE00F07EFB04F014FBF5
S31508002800044604F011FB38702046BDE8F2832846DA
S3150800281004F011BB70B500F088F8422000F038FBD0
S3150800282000F005F8FFF7F3FFFFF7ABFF14E72046C4
S3150800283004F00DBB38B504460D465C2000F028FBB5
S31508002840FFF7A2FF2946082004F021FB00F054FBFD
S31508002850BDE8314004F0E8BA38B504460D465D20B7
S3150800286000F016FBFFF790FFFFF7D5FEBDE83140F5
S3150800287000F042BB38B504460D465E2000F008FB62
S31508002880FFF782FF00F038FB29460820BDE83440F0
S3150800289004F01DBB10B504465F2000F0F9FAFFF7F7
S315080028A073FF00F029FBBDE8104004F0D7BA38B52D
S315080028B004460D46632000F0EBFAFFF765FF00F0CB
S315080028C01BFB04F0B1FA0446284604F060FB2046D8
S315080028D032BD38B504460D46642000F0D9FAFFF734
S315080028E053FF284604F04EFBB0E710B504466820AF
S315080028F000F0CEFA204604F053FB1AE038B5044639
S315080029000D466A20FFE700F0C3FAFFF73DFF00F027
S31508002910F3FA04F089FA0446284604F05AFB2046DE
S3150800292032BD2946082004F0B2BA04460D461646BA
S31508002930704700F0E1FABDE8104004F075BA00F0FF
S31508002940DBFABDE8F14004F06FBA2DE9F04790B024
S31508002950DFF84C46DFF84C5685222968204600F0F9
S315080029608DFB04F20300DFF84016086028688078BB
S31508002970072867D00D2868D00F286BD0192878D07B
S315080029801B2800F084801C2800F08E80232800F085
S315080029909480242800F09481312800F0A2803228FF
S315080029A000F0C1803F2800F0C780432800F0E0808F
S315080029B0442800F0E280452800F0EA80462800F026
S315080029C0558148285AD0542849D0592800F00581FD
S315080029D0622800F0D7806E2800F06481782800F01D
S315080029E0AC817C2800F02A817D2800F0108180289F
S315080029F000F01A818E2800F0A581922800F0B28195
S31508002A00932800F0C281972800F01D81982800F0CD
S31508002A1044819B2800F04B819E2800F06481A02801
S31508002A2000F06D81A72800F07B81B62800F0BA81F6
S31508002A30B72800F0DF81B82800F0E181BB2800F054
S31508002A40048209E204F02BFB09E204F007FA04F019
S31508002A503EFB04E204F0E8F904F022FBFFE104F08F
S31508002A60E3F9044600F07DFA0146204604F02EFB01
S31508002A70F5E104F0D9F9FDF794FCF0E104F0D4F996
S31508002A80FFF7F0FD41B2204604F02AFBE7E100A873
S31508002A9004F0B7FA04F0C8F9FFF7E4FD42B221469C
S31508002AA000A804F019FBDAE104F0BEF9FFF7DAFD35
S31508002AB00146204604F012FBD1E104F0B5F9FFF710
S31508002AC0D1FD054604F0CAF9064600F0D1F904F02E
S31508002AD0ABF9009001AB32462946204604F0E1FAEC
S31508002AE0BDE104F0A1F98DF8000004F09DF98DF818
S31508002AF0010004F0B3F9ADF8020004F095F98DF879
S31508002B0004000DF1050100F0B4F904F08DF98DF813
S31508002B100D0004F089F9FFF7A5FD0246214600A835
S31508002B2004F0C2FA9BE104F07FF9FFF79BFD01462A
S31508002B30204604F0BAFA92E104F076F9804604F0E9
S31508002B408DF9054603A804F006FA04F06DF900F0BD
S31508002B508CF900F087F9044600F003FA0290019414
S31508002B600097334603AA29464046FDF76EFB76E1F1
S31508002B7004F05AF9FDF791FC71E104F06FF904F0DD
S31508002B8095FA6CE100F078F900A804F091FA66E18C
S31508002B9004F04AF9804605A804F0DDF904F044F982
S31508002BA000F06EF9064604F059F900F05BF9FFF7F4
S31508002BB059FD814604F038F9824600F0D2F90490AE
S31508002BC0CDF80CA0CDF808900194009773B22A4668
S31508002BD005A94046FDF760FB41E104F03FF90446CC
S31508002BE002A900F046F904F01FF900F049F900F0CF
S31508002BF03CF907467800C0B200F0B3F90190009797
S31508002C0073B22A4602A9204604F051FA27E104F0D5
S31508002C1025F9044600F030F904F006F9024600A941
S31508002C20204604F047FA1AE104F0FEF8044604F0D8
S31508002C3015F90146204604F03EFA10E104F00EF9B3
S31508002C4004F037FA0BE104F0EFF8FFF70BFD00F09C
S31508002C5017F900F00AF9074600F083F900903B4699
S31508002C6072B22946204604F029FAF8E004F0DCF8A6
S31508002C70804604F0D9F800F003F900F0F6F800F001
S31508002C80F1F8044600F06DF9019000947BB23246E3
S31508002C902946404604F013FAE1E004F0C5F804F0CA
S31508002CA010FADCE004F0C0F8FDF7C4FBD7E000F04A
S31508002CB0E3F804F0B9F8014600A804F0F4F9CEE008
S31508002CC004F0CCF800F0DFF804F0AEF800F0D8F81D
S31508002CD0064604F0C3F8009033462A4601A9204662
S31508002CE004F0E0F9BBE004F09FF8044600A91620BA
S31508002CF004F0EDF800A9204604F0E4F9AFE004F08A
S31508002D0093F8044604A9102004F0E1F800A910205D
S31508002D1004F0DDF800AA04A9204604F0D4F99EE0E0
S31508002D2004F082F8FFF79EFC054600F01AF9024601
S31508002D302946204604F0C8F991E004F075F804F035
S31508002D40C4F98CE004F070F8FFF78CFC00F098F8F2
S31508002D50064600F006F90346324669B2204604F0F4
S31508002D60AFF97CE000F084F804F05EF8FFF77AFC2F
S31508002D7000F086F8064600F0F4F8009033466AB28A
S31508002D80214601A804F098F969E004F04DF8FFF728
S31508002D9069FC054600F0E5F802462946204604F097
S31508002DA08CF95CE005A804F046F904F03DF800F05B
S31508002DB06AF804F039F88DF80C0004F04FF8ADF80D
S31508002DC00E0004F04BF8ADF8100004F02DF88DF85D
S31508002DD0120004F029F88DF8130004F025F800F025
S31508002DE04FF840B200902B4601AA214605A804F0E8
S31508002DF06FF934E004F018F804F06BF92FE004F0EA
S31508002E002DF8ADF8000004F029F8ADF8020004F03A
S31508002E1025F8ADF8040004F021F8ADF8060004F032
S31508002E201DF8ADF8080004F019F8ADF80A0004F02A
S31508002E3015F8ADF80C0003F0F7FFFFF713FC42B2E4
S31508002E40214600A804F046F909E000A804F0F3F8C2
S31508002E5000A804F040F902E03120FDF745FB10B068
S31508002E60BDE8F087074603F0DFBF064603F0DCBF80
S31508002E7001A9082004F02BB800A9082004F027B8F7
S31508002E80054603F0D1BF044601A9082004F01FB87F
S31508002E904449096801F20302444B1A608870704776
S31508002EA080B5FEF7B3FE192818BF272801D10120DF
S31508002EB002BD3C49096801F203023B4B1A60B0B9EE
S31508002EC04A788B78582B08BFC878110658BF322025
S31508002ED0910748BF3320D10748BF3420344993109F
S31508002EE003F001034B70521102F003020A7010B18D
S31508002EF0FDF7FAFA022002BD10B52A4801682B4AE6
S31508002F001268521A92B22B4CE3780B70591CE17076
S31508002F106178237941EA431100684170862A04D30F
S31508002F204020BDE81040FDF7DFBA2348006802706C
S31508002F30A07828B14FF4FF710FF28000FEF77AFCF3
S31508002F400120A070FEF76FFE30B9FFF7A9FF012830
S31508002F5004D104F0A3F8F8E7FDF7C6FA0020A0703C
S31508002F6010BD114A1168401810600846704710B520
S31508002F70FEF74AFE441C0F48807848B140F21F21EC
S31508002F800FF23800FEF756FC02E0FFF7DEFC641E7F
S31508002F90E4B21CB1FFF784FF0028F6D010BD00008C
S31508002FA09C01002010040020180400201C040020A6
S31508002FB0200400200001002014040020657A7370A4
S31508002FC02E63000038B504460D46ADF800501020B3
S31508002FD08DF8030003208DF8020000A9204600F0B2
S31508002FE04FFF01222946204601F0A0F831BD10B551
S31508002FF0214C4FF480712046FFF7E4FF4FF400712F
S315080030002046BDE81040DDE71B4A28B1012804BF69
S3150800301013464FF4007102E013464FF48071002204
S315080030200BE0154A28B1012804BF13464FF4007176
S3150800303002E013464FF48071012289B2184601F066
S3150800304075B838B50C4928B1012804BF0C464FF4A9
S31508003050007502E00C464FF48075A9B2204601F0CF
S315080030600BF8002814BF00220122A9B22046BDE8A9
S31508003070384001F05BB80000000C014081423ABFBD
S315080030805318984203F078BE8018990707D0521E45
S3150800309024BF13F8011D00F8011DF6D870478107F3
S315080030A01CD1103A07D330B433E93210103A20E96C
S315080030B03210F9D230BC1032121F24BF53F8041D47
S315080030C040F8041DF8D838BF121D521E24BF13F845
S315080030D0011D00F8011DF8D8704700BF083A07D34C
S315080030E033E90210083A40F804CD40F8041DF7D237
S315080030F00832EAE70300002013F0030F09D0521E36
S3150800310022BF13F8010B11F801CBB0EB0C00F3D07A
S315080031107047121F22BF53F8040B51F804CB6045C1
S31508003120F7D0121D0AD200BA9CFA8CFCB0EB0C0040
S3150800313038BF6FF0000088BF01207047521E22BFBB
S3150800314013F8010B11F801CBB0EB0C00F6D0521CAA
S3150800315008BF1046704750F8041B61B150F8042B9D
S31508003160D30744BFA9F101039A18002342F8043B88
S31508003170091FFAD1EFE77047002203F0B3BF00003A
S3150800318030B58BB0012000F0C0F9612000F0A0FA3C
S315080031900028FAD04FF4007000F0C3F9012000F0BF
S315080031A0D1F903F0EBFF03F0E4FF06A800F0D6F927
S315080031B00121284801F019F8002003904FF6FF7006
S315080031C0ADF810000020ADF81200234C03A92046E4
S315080031D001F087FB0C20ADF800000020ADF80200D6
S315080031E00120ADF804000020ADF80600ADF808008F
S315080031F000A9204601F0E3FC0121204601F016FE55
S315080032001021204602F0C1FA1021204602F05CFA8D
S315080032100028F9D0204602F023FA05461021204658
S3150800322002F0B3FA1021204602F04EFA0028F9D02F
S31508003230204602F015FA08994900401BB1FBF0F048
S315080032404FF47A71B0FBF1F003F075FF03F091FFCC
S315080032500BB030BD01002000000C004080B5FFF720
S315080032608FFF002002BD80B500F002F880B202BDD3
S3150800327010B5EFF3108400F014F884F3108810BD2D
S3150800328070B50446EFF3108500F00BF806462046A5
S3150800329003F048FF03F040FF8642FBD085F3108811
S315080032A070BD012080F3108803F036BF10B58AB0D0
S315080032B04020ADF8040018208DF8070003208DF88B
S315080032C0060001A97A4800F0DBFD0121794800F0E3
S315080032D08CFF4820ADF808004FF6FF70ADF80C00DB
S315080032E00020ADF80E00ADF80A00734C02A920467E
S315080032F001F0F7FA05A801F08FFD3020ADF81400AB
S315080033000120ADF8160005A9204601F087FB082123
S31508003310204601F0C9FE0121204601F069FE00227F
S315080033200221204601F0DEFD1D208DF80000002058
S315080033308DF80100ADF8020000A802F077FD0AB08A
S3150800334010BD2DE9F04107460C46FFF7AFFF5B4D70
S315080033506F60DFF864815A4E00F039F801F0F7FF24
S3150800336000F035F802F03CF80021404601F0A4FFD1
S31508003370387879784843642148437D2190FBF1F0F9
S3150800338068800220287000206870EFF310870120FB
S3150800339080F3108801220221404601F0A3FD4FF078
S315080033A00056484806600221404602F0EEF94648B3
S315080033B006600121404601F039FD87F3108801E0D7
S315080033C0FEF72CFA68782043FAD0BDE8F081387801
S315080033D096FBF0F189B240467047F8B5364D0221A2
S315080033E0284602F0D2F9354C6088411E61800028D3
S315080033F04ED12078616842185278002A3AD0405C4B
S315080034006426F8B12E4F97FBF0F189B2284601F0F1
S315080034109EFF20786168405C97FBF0F189B22846E8
S3150800342001F0DEFF00F03FF8012200F033F82078C3
S315080034306168425C40184078504370437D2190FB98
S31508003440F1F012E04FF47A71284601F080FF4FF44C
S315080034507A71284601F0C4FF00F025F800F019F843
S315080034602078616840184078704360802078801C16
S315080034702070F1BD0221284601F034FD00F00EF857
S3150800348000F007F80021284601F0D0FC0120607002
S31508003490F1BD00220021284601F088BE0B484FF0F6
S315080034A00051016070470021284601F005BF000061
S315080034B000100140000C1A0000040040F80000202B
S315080034C048E8010000E100E080E200E080E100E079
S315080034D02143016010BD10B5040018BFB4F5804F34
S315080034E009D0B4F5004F18BFB4F5404F03D040F2E9
S315080034F00B3100F006F8DFF84802016821F4404174
S31508003500E6E70FF27820FEF795B910B5040018BF64
S31508003510012C03D040F26A31FFF7F3FF8A480460B2
S3150800352010BD10B50446B4F5807F1CBFB4F5007F06
S31508003530B4F5407F03D040F27B31FFF7E2FF8148C4
S315080035400168C5E710B5040018BF012C03D040F286
S315080035508931FFF7D6FF7D48046010BD30B578493C
S315080035600A687B4B02F00C02082A0ED10A680C681E
S31508003570C2F38342921C774D5543E40302D50C6887
S31508003580A40301D52B4600E0534303600B68724A37
S315080035900468C3F303139B5C24FA03F343600B68C4
S315080035A04468C3F302239B5C24FA03F383600B6825
S315080035B04468C3F3C2239B5C24FA03F3C360096817
S315080035C0C368C1F381318918097CB3FBF1F1016144
S315080035D030BDF8B504460D460FF2A0165F48044202
S315080035E000D11CB940F2514100F00FF85C4F45B1CB
S315080035F0012D03D040F2524100F007F83868204305
S3150800360001E03868A0433860F1BD3046FEF712B9CC
S31508003610F8B504460D460FF264165248044200D126
S315080036201CB94FF48E61FFF7F0FF4F4F45B1012DDE
S3150800363003D040F27141FFF7E8FF3868204301E004
S315080036403868A0433860F1BDF8B504460D460FF258
S315080036502C164248044200D11CB940F2AB41FFF790
S31508003660D4FF424F45B1012D03D040F2AC41FFF7DC
S31508003670CCFF3868204301E03868A0433860F1BDC4
S31508003680F8B504460D460FF2F4063648044200D152
S315080036901CB940F2CA41FFF7B8FF354F45B1012DB5
S315080036A003D040F2CB41FFF7B0FF3868204301E072
S315080036B03868A0433860F1BD10B5040018BF012C66
S315080036C003D040F2DF41FFF71CFF2A48046010BD13
S315080036D038B504460025212C18BF312C14D0392CB6
S315080036E018BF412C10D0612C18BF7A2C0CD07B2C1B
S315080036F018BF7C2C08D07D2C1CBF7E2C7F2C03D0B9
S3150800370040F23B51FFF7FDFE60090C49012808BF4E
S31508003710086803D002280CBF086A486A012104F029
S315080037201F029140084218BF0125284632BD12489B
S31508003730016841F080710160704700000010024086
S315080037400410024020100240800442423C044242D7
S3150800375000127A0000093D00C00000200200C0FFE8
S3150800376018100240003601811C1002400C1002405D
S3150800377010100240400442422410024073746D3314
S3150800378032663130785F7263632E630010B50400C9
S3150800379018BF012C02D0882100F003F817480460EE
S315080037A010BD0FF26400FEF745B870B505000C466B
S315080037B00FF2540618BF012D03D0D2213046FEF76A
S315080037C039F8012C18BF022C03D0D3213046FEF756
S315080037D031F80B480168890855EA810101600948F2
S315080037E0016841F004010160012C0CBF30BF20BF05
S315080037F0016821F00401016070BD000020000E423E
S315080038000070004010ED00E073746D33326631309D
S31508003810785F7077722E630080B5DFF8CC13884224
S315080038200ED0DFF8C813884213D0DFF8C4138842D5
S3150800383018D0B521DFF8C003BDE80440FDF7FABF8C
S3150800384001214FF40070FFF7FFFE00214FF40070CE
S3150800385010E001214FF48060FFF7F6FE00214FF4D7
S31508003860806007E001214FF40040FFF7EDFE0021DC
S315080038704FF40040BDE80440FFF7E6BE70B50446C5
S315080038800D460FF27C36DFF8600384421FBFDFF86F
S315080038905C038442DFF85803844202D0DE2100F03C
S315080038A09FF92868002818BFB0F5803F1AD0B0F5F0
S315080038B0003F18BFB0F5403F14D0B0F5802F18BFB1
S315080038C0B0F5A02F0ED0B0F5C02F18BFB0F5E02F79
S315080038D008D0B0F5002F18BFB0F5102F02D0DF21A1
S315080038E000F07EF92879002818BF012802D0E021C7
S315080038F000F076F96879002818BF012802D0E1217E
S3150800390000F06EF9A868002818BFB0F5003F14D07B
S31508003910B0F5802F18BFB0F5C02F0ED0B0F5002F28
S3150800392018BFB0F5202F08D0B0F5402F18BFB0F556
S31508003930602F02D0E22100F053F9E868002818BF8A
S31508003940B0F5006F02D0E32100F04AF9287C401E4A
S31508003950C0B2102802D3E42100F042F96068DFF80B
S315080039609412084029680843297940EA01206060D2
S31508003970A068DFF888120840E9680843A968084380
S31508003980697940EA4100A060E06A20F47000297C69
S31508003990491EC9B240EA0150E06270BD70B50446DE
S315080039A00D460FF25C26DFF8400284421FBFDFF89F
S315080039B03C028442DFF83802844203D040F22D11DB
S315080039C000F00EF94DB1012D03D04FF4977100F0B8
S315080039D007F9A06840F0010002E0A068400840002E
S315080039E0A06070BD10B50446DFF8FC0184421FBF15
S315080039F0DFF8F8018442DFF8F801844203D040F288
S31508003A007D1100F045F8A06840F00800A06010BDE0
S31508003A1010B50446DFF8D00184421FBFDFF8CC0199
S31508003A208442DFF8CC01844203D040F28B1100F0C7
S31508003A302FF8A068C00828E010B50446DFF8A801EA
S31508003A4084421FBFDFF8A4018442DFF8A401844240
S31508003A5003D040F2A31100F01BF8A06840F0040060
S31508003A60A06010BD10B50446DFF87C0184421FBF74
S31508003A70DFF878018442DFF87801844203D040F207
S31508003A80B11100F005F8A068800800F0010010BD2B
S31508003A900FF26C10FDF7CEBE2DE9F84304460D462D
S31508003AA016461F460FF25819DFF83C0184421FBF1D
S31508003AB0DFF838018442DFF83801844203D040F247
S31508003AC0512100F08AF8002D18BF012D23D0022DB0
S31508003AD018BF032D1FD0042D18BF052D1BD0062D8A
S31508003AE018BF072D17D0082D18BF092D13D00A2D7A
S31508003AF018BF0B2D0FD00C2D18BF0D2D0BD00E2D6A
S31508003B0018BF0F2D07D0102D18BF112D03D040F266
S31508003B10522100F062F8701E5FFA80F8B8F1100FB3
S31508003B2003D340F2532100F058F8002F18BF012F95
S31508003B300FD0022F18BF032F0BD0042F18BF052F45
S31508003B4007D0062F18BF072F03D04FF4157100F0C2
S31508003B5044F807200A2D0CD3A5F10A0101EB41010F
S31508003B60E268884022EA000007FA01F10843E060AB
S31508003B7009E005EB45012269884022EA000007FAB8
S31508003B8001F1084320611F20072E0AD208EB88019D
S31508003B90626B884022EA000005FA01F10843606377
S31508003BA019E00D2E0BD2F11F01EB8101226B884023
S31508003BB022EA000005FA01F1084320630BE0A6F1AA
S31508003BC00D0101EB8101E26A884022EA000005FA4C
S31508003BD001F10843E062BDE8F1834846FDF72ABED5
S31508003BE03046FDF727BE00000024014000280140AA
S31508003BF0003C0140FFFEF0FF003C0008FDF7F1FF26
S31508003C0073746D3332663130785F6164632E630096
S31508003C1080B50120FFF750FD0020BDE80240FFF700
S31508003C204BBD00005D480021016041608160C160B4
S31508003C305B494161704770B5044620790FF26816F2
S31508003C40002818BF042802D0692100F048F86079D6
S31508003C5008281CBF0C28102802D06A2100F03FF85B
S31508003C602068010D090500D110B96B2100F037F85D
S31508003C70A0794A4D60B3012804D06C2100F02FF8D2
S31508003C80A07928B32968226891432960696822685F
S31508003C9091436960217969180A6823681A430A609A
S31508003CA0A96822689143A960E96822689143E96096
S31508003CB061792268102907D1A9681143A960E968C2
S31508003CC022681143E96070BD69180868104304E06A
S31508003CD020792918086822689043086070BD304624
S31508003CE0FDF7A8BD38B504460025012C18BF022CDF
S31508003CF032D0042C18BF082C2ED0102C18BF202C1C
S31508003D002AD0402C18BF802C26D0B4F5807F18BF47
S31508003D10B4F5007F20D0B4F5806F18BFB4F5006FF6
S31508003D201AD0B4F5805F18BFB4F5005F14D0B4F5A7
S31508003D30804F18BFB4F5004F0ED0B4F5803F18BFBA
S31508003D40B4F5003F08D0B4F5802F18BFB4F5002F9E
S31508003D5002D0BD2100F011F812480068204218BFB1
S31508003D600125284632BD10B50446200D000500D1B0
S31508003D7014B9D32100F001F80CE00FF22C00FDF77E
S31508003D8059BD10B50446200D000500D114B9FB2114
S31508003D90FFF7F3FF0348046010BD0000000401406C
S31508003DA0FFFF0F001404014073746D33326631301F
S31508003DB0785F657874692E630000000080B5DFF8C7
S31508003DC01C1688421ED0DFF81816884221D0DFF864
S31508003DD01416884224D0DFF81016884227D0DFF858
S31508003DE00C1688422AD0DFF8081688422DD0DFF84C
S31508003DF00416884230D06E210FF28060BDE8044078
S31508003E00FDF718BD01210420FFF71EFC0021042040
S31508003E102AE001210820FFF717FC0021082023E0EB
S31508003E2001211020FFF710FC002110201CE00121C1
S31508003E302020FFF709FC0021202015E00121402061
S31508003E40FFF702FC002140200EE001218020FFF749
S31508003E50FBFB0021802007E001214FF48070FFF76B
S31508003E60F3FB00214FF4807006E080B501210120A4
S31508003E70FFF7EAFB00210120BDE80440FFF7E4BB99
S31508003E802DE9F04104460D4600260FF2F058DFF8FA
S31508003E904C0584421CBFDFF84805844215D0DFF87C
S31508003EA0440584421CBFDFF8400584420DD0DFF884
S31508003EB03C0584421FBFDFF838058442DFF8340525
S31508003EC0844202D0B12100F07DF8E878002818BFB6
S31508003ED004280ED0282818BF48280AD0142818BF46
S31508003EE0102806D01C2818BF182802D0B22100F0C6
S31508003EF069F8288810B9B32100F064F8E87800F06A
S31508003F000F07C0060AD5A87801281CBF022803286F
S31508003F1002D0BA2100F056F8A8780743288801216C
S31508003F200F22C3B213B3D4F800C001FA06F39E46B3
S31508003F300EEA0008F04514D14FEA860E02FA0EF88A
S31508003F402CEA080C07FA0EFE4EEA0C0C95F803E06C
S31508003F50BEF1280F08BF636103D0BEF1480F08BF42
S31508003F602361761C082EE0D3C4F800C0B0F5807F24
S31508003F7026D3D4F804C0002606F1080301FA03F391
S31508003F809E460EEA0008F04515D14FEA860E02FA5B
S31508003F900EF82CEA080C07FA0EFE4EEA0C0C95F8F9
S31508003FA003E0BEF1280F08BF636195F803E0BEF190
S31508003FB0480F08BF2361761C082EDDD3C4F804C059
S31508003FC0BDE8F0814046FDF735BCF8B504460D4618
S31508003FD000260FF2A847DFF8040484421CBFDFF866
S31508003FE00004844216D0DFF8FC0384421CBFDFF8C5
S31508003FF0F80384420ED0DFF8F40384421FBFDFF8CB
S31508004000F0038442DFF8EC03844203D040F21D112A
S3150800401000F089F8012D18BF022D27D0042D18BFEE
S31508004020082D23D0102D18BF202D1FD0402D18BFC6
S31508004030802D1BD0B5F5807F18BFB5F5007F15D04C
S31508004040B5F5806F18BFB5F5006F0FD0B5F5805F71
S3150800405018BFB5F5005F09D0B5F5804F18BFB5F59F
S31508004060004F03D04FF48F7100F05DF8A068284226
S3150800407018BF01263046F2BDF8B504460D4600269F
S315080040800FF2F837DFF8540384421CBFDFF85003F9
S31508004090844216D0DFF84C0384421CBFDFF848037D
S315080040A084420ED0DFF8440384421FBFDFF8400382
S315080040B08442DFF84003844203D040F2431100F003
S315080040C032F8012D18BF022D27D0042D18BF082D50
S315080040D023D0102D18BF202D1FD0402D18BF802D9E
S315080040E01BD0B5F5807F18BFB5F5007F15D0B5F59F
S315080040F0806F18BFB5F5006F0FD0B5F5805F18BF94
S31508004100B5F5005F09D0B5F5804F18BFB5F5004F76
S3150800411003D04FF4A27100F006F8E068284218BFF1
S3150800412001263046F2BD3846FDF784BBF8B504468D
S315080041300D4616460FF24437DFF8A00284421CBF2C
S31508004140DFF89C02844216D0DFF8980284421CBF2E
S31508004150DFF8940284420ED0DFF8900284421FBF33
S31508004160DFF88C028442DFF88C02844203D04FF4D5
S31508004170C671FFF7D8FF012D18BF022D27D0042DD1
S3150800418018BF082D23D0102D18BF202D1FD0402D65
S3150800419018BF802D1BD0B5F5807F18BFB5F5007FF9
S315080041A015D0B5F5806F18BFB5F5006F0FD0B5F50A
S315080041B0805F18BFB5F5005F09D0B5F5804F18BF09
S315080041C0B5F5004F03D040F28D11FFF7ACFF3EB1B5
S315080041D0012E03D04FF4C771FFF7A5FF2561F1BD86
S315080041E06561F1BD3046FDF725BB70B504460D4641
S315080041F00FF28826012C18BF022C75D0042C18BF84
S31508004200082C71D07C4884421CBF7C4884426BD001
S315080042107B4884421CBF7B48844265D07A488442E6
S315080042201CBF7A4884425FD0794884421CBF7948CB
S31508004230844259D07848844218BFB4F5805F53D079
S31508004240B4F5EA1F18BFB4F5EB1F4DD0B4F5004F0F
S315080042501CBF7248844247D0714884421CBF7148CB
S31508004260844241D0704884421CBF704884423BD087
S31508004270B4F1201F1CBF6E48844235D06D48844275
S315080042801CBF6D4884422FD06C4884421CBF6C48C2
S31508004290844229D06B48844218BFB4F5011F23D045
S315080042A0694884421CBF694884421DD068488442D4
S315080042B01CBF6848844217D0674884421CBF6748B9
S315080042C0844211D0664884421CBF664884420BD09B
S315080042D0654884421FBF654884426548844203D0C6
S315080042E040F22221FFF77EFF002D18BF012D03D0D3
S315080042F040F22321FFF776FF5E48002C4CBF826907
S315080043000268C4F30343A1B2660D3601B14004F452
S315080043104016B6F5401F06D122F07062036823F0F6
S315080043207063036008E0E60243BF032606FA03F358
S315080043309A438A4342F0706205B10A43002C01D5BC
S31508004340826170BD026070BD70B504000D460FF243
S315080043502C1618BF012C0CD0022C18BF032C08D021
S31508004360042C1CBF052C062C03D040F25D21FFF758
S3150800437039FF002D18BF012D1FD0022D18BF032DA0
S315080043801BD0042D18BF052D17D0062D18BF072DD5
S3150800439013D0082D18BF092D0FD00A2D18BF0B2DC5
S315080043A00BD00C2D18BF0D2D07D00E2D18BF0F2DB5
S315080043B003D040F25E21FFF715FF05F003008000E9
S315080043C025F003012C4A8B580F258540AB438B50AB
S315080043D08B5804FA00F01843885070BD0008014055
S315080043E0000C014000100140001401400018014073
S315080043F0001C014000200140100014003000140089
S3150800440040001600C000160000011800000218003F
S315080044100003180000081A00000C1A00010020000A
S3150800442002002000040020000800200010002000E0
S315080044304000200000013000000230000004300077
S3150800444000102000002020000100008002000080EB
S315080044500400008008000080100000802000008012
S31508004460400000808000008000010080000200807B
S3150800447000040080040001400800014073746D3395
S3150800448032663130785F6770696F2E63000000000E
S3150800449080B5DFF8781288420ED0DFF874128842A9
S315080044A016D0DFF8701288421BD079210FF26820E7
S315080044B0BDE80440FDF7BEB901214FF48050FFF76F
S315080044C0C3F800214FF48050BDE80440FFF7BCB89C
S315080044D001214FF48040FFF7D3F800214FF48040C4
S315080044E007E001214FF40040FFF7CAF800214FF416
S315080044F00040BDE80440FFF7C3B870B504460D4652
S315080045000FF21426DFF8040284421FBFDFF8000208
S315080045108442DFF80002844202D0A22100F0C3F8E8
S315080045202888002818BFB0F5806F08D0B0F5004F6E
S3150800453018BFB0F5404F02D0A52100F0B4F868883E
S31508004540B0F5827F18BF002802D0A62100F0ABF88C
S31508004550A888B0F5006F18BF002802D0A72100F080
S31508004560A2F8E888002818BF022802D0A82100F07F
S315080045709AF82889002818BF012802D0A92100F036
S3150800458092F86889B0F5007F18BF002802D0AA21E2
S3150800459000F089F8A889002818BF08280ED0102826
S315080045A018BF18280AD0202818BF282806D030286F
S315080045B018BF382802D0AB2100F075F8E889002822
S315080045C018BF802802D0AC2100F06DF8288A10B9EF
S315080045D0AD2100F068F8208800F441502988084386
S315080045E069880843A9880843E9880843298908434C
S315080045F069890843A9890843E98908432080A08B6B
S315080046004FF2FF710840A083288A208270BD70B5DA
S3150800461004460D460FF20016DFF8F00084421FBF6D
S31508004620DFF8EC008442DFF8EC00844203D040F265
S31508004630AD1100F038F84DB1012D03D04FF4D77104
S3150800464000F031F8208840F0400003E020884FF65B
S31508004650BF710840208070BD3846FDF7EBB838B505
S3150800466004460D46DFF8A40084421FBFDFF8A00009
S315080046708442DFF8A000844203D040F2252100F0EE
S3150800468015F8A58131BD10B50446204884421FBFE0
S315080046901F4884421F48844203D040F2352100F067
S315080046A005F8A08910BD3046FDF7C4B80FF26800BA
S315080046B0FDF7C0B8F8B506460D4600240FF25807B0
S315080046C0124886421FBF124886421248864203D0C5
S315080046D040F20131FFF7C0FF802D18BF402D0FD0E3
S315080046E0202D18BF102D0BD0082D18BF042D07D06C
S315080046F0022D18BF012D03D040F20231FFF7ACFF9F
S315080047003089284218BF01242046F2BD00300140F6
S3150800471000380040003C004073746D333266313017
S31508004720785F7370692E630080B5DFF89816884243
S3150800473048D0B0F1804F4ED0DFF88C16884251D061
S31508004740DFF88816884254D0DFF88416884257D096
S31508004750DFF8801688425AD0DFF87C1688425DD08A
S31508004760DFF87816884260D0DFF87416884265D07C
S31508004770DFF8701688426AD0DFF86C1688426FD068
S31508004780DFF86816884274D0DFF86416884277D056
S31508004790DFF8601688427AD0DFF85C16884200F0A7
S315080047A08280DFF85816884200F08680DFF85016B7
S315080047B0884200F08A807C21DFF85806BDE804406C
S315080047C0FDF738B801214FF40060FEF73DFF0021E0
S315080047D04FF4006081E001210120FEF751FF00211E
S315080047E001205CE001210220FEF74AFF0021022099
S315080047F055E001210420FEF743FF002104204EE086
S3150800480001210820FEF73CFF0021082047E001218E
S315080048101020FEF735FF0021102040E0012120205E
S31508004820FEF72EFF0021202039E001214FF4005029
S31508004830FEF70AFF00214FF400504EE001214FF425
S315080048400020FEF701FF00214FF4002045E001217A
S315080048504FF48010FEF7F8FE00214FF480103CE07C
S3150800486001214FF40010FEF7EFFE00214FF400106F
S3150800487033E001214020FEF703FF002140200EE02F
S3150800488001218020FEF7FCFE0021802007E001219F
S315080048904FF48070FEF7F4FE00214FF48070BDE8F7
S315080048A00440FEF7EDBE01214FF48030FEF7CCFE42
S315080048B000214FF4803010E001214FF40030FEF75C
S315080048C0C3FE00214FF4003007E001214FF4802099
S315080048D0FEF7BAFE00214FF48020BDE80440FEF73B
S315080048E0B3BE2DE9F84F04460D46DFF82865DFF814
S315080048F0EC74DFF8DC84DFF8D494DFF8CCA4DFF8B6
S31508004900C4B45C4518BFB4F1804F35D0544518BFC0
S315080049104C4531D044451CBFDFF8B80484422BD03F
S31508004920DFF8B404844218BFBC4225D0DFF8B004CF
S3150800493084421CBFDFF8AC0484421DD0DFF8A8040B
S3150800494084421CBFDFF8A404844215D0DFF8A00413
S3150800495084421CBFDFF89C0484420DD0DFF898041B
S3150800496084421FBFDFF894048442DFF8940484422B
S3150800497002D0E52100F002FC6888002818BF10283C
S3150800498007D020281CBF4028602802D0E62100F066
S31508004990F5FBE88800281CBFB0F5807FB0F5007FDE
S315080049A002D0E72100F0EAFB20885C4518BFBC422C
S315080049B008D0B4F1804F18BF544503D04C4518BFF2
S315080049C0444504D14FF68F71084069880843DFF8DB
S315080049D004148C421CBFDFF800148C4204D04FF636
S315080049E0FF410840E98808432080A888A0852888D0
S315080049F020855C4518BFBC420AD0DFF8FC03844218
S31508004A001FBFDFF8F8038442DFF8F403844201D1BC
S31508004A10287A20860120A082BDE8F18F2DE9F84F7B
S31508004A2004460D46DFF8ECA3DFF8CCB3DFF8AC8319
S31508004A30DFF890934C4518BFB4F1804F32D0DFF8B9
S31508004A40880384421CBFDFF8840384422AD0DFF837
S31508004A508003844218BF444524D0DFF88403844287
S31508004A601CBFDFF8800384421CD0DFF87C03844235
S31508004A701CBFDFF87803844214D0DFF8740384423D
S31508004A801CBFDFF8700384420CD05C451FBFDFF8FB
S31508004A906C038442DFF86803844203D04FF48D71B7
S31508004AA000F087F82888002818BF10280BD020287F
S31508004AB018BF302807D0602818BF702803D040F2E6
S31508004AC01B1100F076F86888002818BF012803D063
S31508004AD04FF48E7100F06DF82889002818BF022857
S31508004AE003D040F21D1100F064F8208C4FF6FE71D9
S31508004AF008402084208CA688218B4FF68C721140A2
S31508004B002A881143ADF800104FF6FD71084029892F
S31508004B100843698841EA00074C4518BF444508D050
S31508004B205C451FBFDFF8D4028442DFF8D402844212
S31508004B3038D1A888002818BF042803D04FF49D71DF
S31508004B4000F037F86889002818BF082803D040F213
S31508004B503B1100F02EF8E889B0F5007F18BF002851
S31508004B6003D04FF49E7100F024F8A889B0F5807F31
S31508004B7018BF002803D040F23D1100F01AF84FF68E
S31508004B80F7703840698908434FF6FB710840A988D1
S31508004B9041EA00074FF6FF403040A9890843E989F2
S31508004BA041EA0006A680BDF800002083E888A086B2
S31508004BB002E05046FCF73EBE2784BDE8F18F2DE99A
S31508004BC0F84304460D462888DFF84862002818BFCF
S31508004BD0042807D0082818BF0C2803D04FF41371EF
S31508004BE000F0CCFA6888002818BF022803D040F2E3
S31508004BF04D2100F0C3FAA88801281CBF0228032803
S31508004C0003D040F24E2100F0B9FAE888002818BF10
S31508004C10042807D0082818BF0C2803D040F24F21D3
S31508004C2000F0ACFA2889102803D34FF4147100F069
S31508004C30A5FA298870486D4A694B684FDFF890C114
S31508004C40DFF888E1DFF88081DFF87891002933D131
S31508004C504C4518BFB4F1804F23D0444518BF74455E
S31508004C601FD0644518BFBC421BD09C421CBF5D497F
S31508004C708C4216D05C498C4218BF944211D05C49CC
S31508004C808C421CBF5B498C420BD084421FBF5B48D9
S31508004C908442DFF84403844203D04FF4157100F0D0
S31508004CA06DFA2B89AA88698800F0B1F8E988204648
S31508004CB0BDE8F44300F0DCBB042920D14C4518BFFD
S31508004CC0B4F1804F10D0444518BF74450CD06445E4
S31508004CD018BFBC4208D09C421CBF9442844203D0F1
S31508004CE040F25E2100F04AFA2B89AA88698800F00A
S31508004CF08AF8E9882046BDE8F44300F00CBC082988
S31508004D002FD14C4518BFB4F1804F0BD0444518BF7E
S31508004D10744507D0644518BFBC4203D04FF41A71D6
S31508004D2000F02CFA2989AA886888238C4FF6FF6632
S31508004D3033402384A38B268C4FF60C773B401A43CB
S31508004D4042EA0111A1834FF6FF51314041EA0020A2
S31508004D5040F480702084E9882046BDE8F44300F0DA
S31508004D6019BC4C4518BFB4F1804F0BD0444518BF49
S31508004D70744507D0644518BFBC4203D040F272217F
S31508004D8000F0FCF92989AA886888238C4EF6FF76F4
S31508004D9033402384A38B268C40F6FF473B4043EAE7
S31508004DA0022242EA0131A1834DF6FF71314041EA00
S31508004DB0003040F480502084E9882046BDE8F4435A
S31508004DC000F017BC002C0140000400400008004019
S31508004DD0000C004000100040001400400034014060
S31508004DE0004C0140005001400054014000180040AA
S31508004DF0001C0040002000400040014000440140E3
S31508004E00004801403146204600F040BD3146204664
S31508004E1000F025BDC058000800210180418081802E
S31508004E20C180018141818181C181704770B5044685
S31508004E300D46DFF88861DFF87801844218BFB4F1BF
S31508004E40804F3ED0DFF8780184421CBFDFF874013A
S31508004E50844236D0DFF8700184421CBFDFF86C014B
S31508004E6084422ED0DFF8680184421CBFDFF8440173
S31508004E70844226D0DFF85C0184421CBFDFF85C015F
S31508004E8084421ED0DFF8580184421CBFDFF8540163
S31508004E90844216D0DFF8500184421CBFDFF84C016B
S31508004EA084420ED0DFF8040184421FBFDFF80801F0
S31508004EB08442DFF82401844203D040F21F3100F017
S31508004EC05DF94DB1012D03D04FF4487100F056F944
S31508004ED0208840F0010003E020884FF6FE71084064
S31508004EE0208070BDF8B504460D461646DFF8CC702E
S31508004EF0DFF8BC00844218BFB4F1804F3ED0DFF81B
S31508004F00C00084421CBFDFF8BC00844236D0DFF8FC
S31508004F10B80084421CBFDFF8B40084422ED0DFF804
S31508004F20B00084421CBFDFF88C00844226D0DFF82C
S31508004F30A40084421CBFDFF8A40084421ED0DFF818
S31508004F40A00084421CBFDFF89C00844216D0DFF81C
S31508004F50980084421CBFDFF8940084420ED0DFF824
S31508004F604C0084421FBFDFF850008442DFF8680017
S31508004F70844203D040F2613100F076F94FF47F4065
S31508004F80054200D11DB940F2623100F06DF946B113
S31508004F90012E03D040F2633100F066F9A089284358
S31508004FA001E0A089A843A081F1BD000000400140AE
S31508004FB0002C01400034014000440140C05800085C
S31508004FC00004004000080040000C004000100040AB
S31508004FD000140040004C01400048014000500140C8
S31508004FE00054014000180040001C0040002000400A
S31508004FF070B504460D46DFF87C61DFF86801844227
S3150800500018BFB4F1804F3ED0DFF8640184421CBF5C
S31508005010DFF86401844236D0DFF8500184421CBFB1
S31508005020DFF8800184422ED0DFF87C0184421CBF61
S31508005030DFF83401844226D0DFF8480184421CBFD9
S31508005040DFF8440184421ED0DFF8400184421CBFC9
S31508005050DFF83C01844216D0DFF83C0184421CBFCD
S31508005060DFF8380184420ED0DFF8280184421FBFDA
S31508005070DFF82C018442DFF8EC01844203D040F2C9
S315080050807A5100F07BF84DB1012D03D040F27B51E7
S3150800509000F074F8208840F0800003E020884FF67E
S315080050A07F710840208070BD70B504460D46DFF854
S315080050B0C4602C48844218BFB4F1804F35D0DFF85D
S315080050C0B00084421CBFDFF8B00084422DD0DFF860
S315080050D09C0084421CBF2448844226D0DFF8A400E2
S315080050E084421CBFDFF8A00084421ED0DFF89C0073
S315080050F084421CBFDFF89800844216D0DFF8980077
S3150800510084421CBFDFF8940084420ED0DFF8840086
S3150800511084421FBFDFF888008442DFF848018442D2
S3150800512003D040F2DF5100F029F8082D18BF002DF2
S3150800513003D04FF4BC6100F021F8208B4FF6F771CD
S3150800514008402843208370BD084040EA0520208394
S3150800515070BD08402843A08370BD084040EA05207A
S31508005160A08370BD002C014000340140000C0040B3
S3150800517000040040C0580008000800403046FCF70C
S3150800518059BB0000004C014000500140005401404A
S315080051900018004000400140001C0040002000406C
S315080051A0004401400010004000140040F8B50446D1
S315080051B00D461646DFF8CC70DFF8C400844218BFE7
S315080051C0B4F1804F36D0DFF8C00084421CBFDFF848
S315080051D0BC0084422ED0DFF8B80084421CBFDFF83A
S315080051E0B800844226D0DFF8B40084421CBFDFF83A
S315080051F0B00084421ED0DFF8AC0084421CBFDFF842
S31508005200A800844216D0DFF8A40084421CBFDFF849
S31508005210A00084420ED0DFF87C0084421FBFDFF86E
S3150800522094008442DFF83C02844203D040F2B17114
S3150800523000F01AF8002D18BF042D07D0082D18BF46
S315080052400C2D03D040F2B27100F00EF8012E18BFF3
S31508005250002E03D040F2B37100F006F8208C01212D
S3150800526005E00000004801403846FCF7E3BAA940CB
S3150800527088432084208C06FA05F108432084F1BD72
S31508005280002C0140C05800080004004000080040F7
S31508005290000C00400040014000340140004C014031
S315080052A0005001400054014000180040001C004016
S315080052B0002000400044014038B504460D46DFF89A
S315080052C09003844218BFB4F1804F3ED0DFF88803BC
S315080052D084421CBFDFF88403844236D0DFF8C0035B
S315080052E084421CBFDFF8A40284422ED0DFF8A00255
S315080052F084421CBFDFF8AC03844226D0DFF8A8033B
S3150800530084421CBFDFF8AC0384421ED0DFF8A80332
S3150800531084421CBFDFF89403844216D0DFF89C034E
S3150800532084421CBFDFF8980384420ED0DFF880035E
S3150800533084421FBFDFF88C038442DFF8DC04844212
S3150800534003D040F6D10100F08FF8A58431BD38B5F9
S3150800535004460D46DFF8F802844218BFB4F1804FC0
S315080053603CD0DFF8F40284421CBFDFF8F002844226
S3150800537034D0DFF82C0384421CBF844884422DD0E5
S31508005380834884421CBFDFF81C03844226D0DFF81A
S31508005390180384421CBFDFF81C0384421ED0DFF8C2
S315080053A0180384421CBFDFF80403844216D0DFF8D2
S315080053B00C0384421CBFDFF8080384420ED0DFF8D2
S315080053C0F00284421FBFDFF8FC028442DFF848047B
S315080053D0844203D040F6DF0100F046F8A58531BDCA
S315080053E038B504460D469A48844218BFB4F1804F32
S315080053F036D0DFF8640284421CBFDFF860028442BC
S315080054002ED0DFF89C0284421CBFDFF89802844243
S3150800541026D0DFF8940284421CBFDFF89802844243
S315080054201ED0DFF8940284421CBFDFF88002844253
S3150800543016D0DFF8880284421CBFDFF88402844253
S315080054400ED0DFF86C0284421FBFDFF87802844270
S31508005450DFF8C403844203D040F6ED0100F004F8F7
S31508005460A58631BD00480140DFF8B403FCF7E2B970
S3150800547070B504460D46774E7548844218BFB4F198
S31508005480804F34D0744884421CBF744884422ED05E
S31508005490DFF80C0284421CBFDFF80802844226D0DB
S315080054A0DFF8040284421CBFDFF8080284421ED0DB
S315080054B0DFF8040284421CBFDFF8F001844216D0EC
S315080054C0DFF8F80184421CBFDFF8F40184420ED0ED
S315080054D0DFF8DC0184421FBFDFF8E8018442DFF809
S315080054E03803844203D040F62A11FFF747FE002D01
S315080054F018BF042D07D0082D18BF0C2D03D040F671
