S010000073696E6B2D686F73742E73333744
S31508000000C80C0020117900083579000839790008EC
S315080000103D7900084179000845790008000000008C
S3150800002000000000000000000000000049790008F8
S315080000304D7900080000000051790008557900083C
S31508000040597900085D790008617900086579000822
S31508000050697900086D7900087179000875790008D2
S31508000060797900087D790008176A000885790008FB
S31508000070897900088D790008917900089579000832
S31508000080997900089D790008A1790008A5790008E2
S31508000090A9790008AD790008B1790008B579000892
S315080000A0B9790008BD790008C1790008C579000842
S315080000B0C96900082F370008D1790008D5790008E2
S315080000C0D9790008DD790008E1790008E5790008A2
S315080000D0E9790008DF6D0008F1790008F57900086C
S315080000E091630008FD790008017A0008057A00087E
S315080000F0097A00080D7A0008117A0008157A0008AE
S31508000100197A00081D7A0008217A0008257A00085D
S31508000110297A00082D7A0008317A0008357A00080D
S31508000120397A00083D7A0008417A0008457A0008BD
S315080001308AB007A80FF604210CC90CC001F0C6FA4C
S31508000140002080F31088012300220F2101F072FCA1
S3150800015028B1012300220821002001F06BFC01F0E0
S3150800016049FB044601F014FB234602460FF6D41158
S3150800017000F075F901F0CCFC020005D00FF6D81195
S3150800018000F0D4F901F0E8FA0DF102020DF10101CF
S31508000190042001F0F3FC0346042B07D004220FF6D3
S315080001A0D011002001F08EFC01F0D6FA03211920A7
S315080001B001F00AFD20B102460FF6E01100F0B6F98B
S315080001C0002002F03FFA38B102460FF6282100F067
S315080001D0ADF901F0C1FA05E00FF6342101F049FC4A
S315080001E000F026FB00F0A7FB0FF6442100F024FBE5
S315080001F0DFF8681800F019FBB0A400F01CFB00F04B
S3150800020017FB2121022001F014FD20B102460FF64A
S31508000210342100F08BF90FF6682501A900A801F032
S3150800022098FD002804BF9DF80000012802D101F0BE
S3150800023034FD48B302F0E4FB40F2FF10ADF80C00C1
S315080002404FF0FF308DF80E001A208DF80F000822A7
S3150800025007A901A802F05AFF00F031F800F0FFF8EC
S3150800026001A9002002F0F5FB00F0E5FA00F0E0FA3B
S3150800027001A801F02CFD98B102460FF63C2100F0CA
S3150800028055F901F069FA0BE000F019F801F0F1FBF5
S3150800029001A9002002F0DDFB00F0CDFA00F0C8FA53
S315080002A0002002F091FF012002F09BFF01F052FAB4
S315080002B002F099FA00F04AFB00F03BF9F6E7BDF8C0
S315080002C00C309DF80F202946704782B0029838B145
S315080002D0538802460FF60821002002B001F0C9BB78
S315080002E002B070472DE9F04E86B006460F46119CBF
S315080002F0082C06D223467A880FF60C2100F0AFF8B0
S315080003005BE0129812900822014602A802F0FEFE4F
S315080003107A880FF668290FF6942A0FF2A01BDFF8E1
S315080003203C170E9D012A0AD0022A1BD0032A49D05F
S31508000330042A52D00A2A5DD0642A7DD08AE00A2C83
S3150800034002D20FF6F4117FE0082202A802F076FF27
S31508000350002832D00FF6082100F06EFA00F082F875
S31508000360494637E066BB0FF6242100F065FA00F02F
S3150800037079F8514600F060FAA9B202A800F0E3F94C
S31508000380DFF8DC46224601A9A8B202F0B4FF40B164
S3150800039022469DF80410A8B201F067FD08B100F0E6
S315080003A08EF9002300223946A8B201F044FD020066
S315080003B003D00FF6043100F085F906B0BDE8F08EDB
S315080003C0012EFAD10FF6FC1100F036FA00F04AF8C1
S315080003D00FF6082100F030FAEFE70FF6182100F0C3
S315080003E02BFA00F03FF8514600F026FAA8B202F0C0
S315080003F03BFCC5E71098FF2805D0DFF8681601EB27
S315080004004000002181810FF6042100F015FA00F062
S3150800041029F80A2C04D20FF6082100F00DFAAFE7E6
S315080004201298407A00901298037A22460FF6102105
S31508000430002001F01EFBA3E7082202A802F0FEFE38
S315080004400028BAD00FF6142100F0F6F900F00AF8E1
S315080004505946BFE70FF6202100F034F97EE7002061
S3150800046001F007BB02A9002002F0EFBB10B5044655
S3150800047001F016FCDFF8EC150870902C04D0912CCE
S3150800048009D0942C0AD010E00FF64C2100F0D4F9CC
S31508000490BDE81040DCE00FF66C2101E00FF6902174
S315080004A00020BDE8104001F0E4BA22460FF6AC2160
S315080004B00020BDE8104001F0DCBA00000D0A00007B
S315080004C030B589B004460D4600A80FF6B0210CC910
S315080004D00CC0182102F030FF8DF81350ADF810400B
S315080004E04FF0FF308DF81200082200A902A802F08A
S315080004F00DFE02A801F0EBFB20B102460FF684219F
S3150800050000F0E0F809B030BD704702460FF68421C6
S31508000510002001F0AEBA704780B502460FF6842176
S3150800052000F004F8BDE8014001F016B9002001F01A
S31508000530C9BA2DE9F04702F076FFDFF82855298970
S31508000540411A89B2FB29C0F08180288128780228BF
S315080005503DD1002002F055FE012002F052FE02F0C5
S31508000560DCFF50B16889401C688180B2F12804D349
S31508000570002002F0B2FF00206881E888401EE8806B
S3150800058080B2022809D10A21A88801F060FC8146B8
S315080005904A460FF6302100F095F8E88838B90FF684
S315080005A0602101F066FA00F090F8F020E880E8781B
S315080005B068B1401EE870C0B248B901F0F7FC814640
S315080005C04A460FF6742100F07DF800F031F900264E
S315080005D00FF6C42A0FF69C284FF6FF7405EB46075C
S315080005E0B889A04211D0401CB88180B2F1280CD33A
S315080005F02146F0B201F05DFC414600F01DF94B467C
S3150800060032465146FFF72BFFBC81761C0F2EE5DBE1
S31508000610687868B1002068700FF6AC2101F029FAF5
S315080006203C2001F077FB00206881012002F055FF8D
S31508000630A87858B10020A87001F066FB02460FF6AC
S31508000640B8210020BDE8F04701F013BABDE8F087ED
S3150800065080B541F21110ADF8000001208DF80200B6
S3150800066000A9002001F066FC02460FF6B02100F052
S3150800067029F801BD10B588B006A80FF6D8210CC90F
S315080006800CC000F047F8052206A904F1080002F09C
S315080006903DFD4CF20F00ADF80C006420ADF80E00DD
S315080006A0012000F03DF80D200090642300F02DF89D
S315080006B002460FF6A82100F005F808B010BD02465C
S315080006C00FF2D071002001F0D4B910B586B000F051
S315080006D021F801F034FB207201F031FB000A607248
S315080006E04CF20F00ADF80C000120ADF80E0000F03A
S315080006F017F80A200090012300F007F802460FF6C3
S315080007008021FFF7DFFF06B010BD06220A2103A8E5
S3150800071001F06DBBD24C0822D049204602F0F6BC47
S315080007208DF810008DF811000020ADF8120041F286
S315080007301110ADF8140000208DF816000DF1160002
S3150800074002900194704770B588B005460E4600F0D1
S3150800075087F80446FF2C09D00FF6482100F06CF8FC
S3150800076000F062F8BBA100F067F821E000F067F836
S315080007700446FF2C04D10FF64C2100F05DF851E039
S31508000780294601F084FB18B102460FF6682147E0B6
S315080007903146204601F08DFB22460FF69821FFF7D9
S315080007A091FF00F041F8ACA100F046F800F040F8DF
S315080007B0AC4800EB440000218181A94D2A4603A9D3
S315080007C0304602F098FD40B12A469DF80C10304696
S315080007D001F04BFB08B1FFF772FF08229F49284634
S315080007E002F094FC4CF20F00ADF810000320ADF8AF
S315080007F0120001208DF814008DF815004020ADF880
S3150800080016000DF11A0002900195082000900323A6
S3150800081004AA2146012001F0D4FA02460FF648211F
S31508000820FFF750FF08B070BD2946002002F00DBA48
S31508000830002001F041B92146002001F01AB910B58F
S315080008400024204601F053FB4FF6FF71884201D180
S31508000850204610BD641CE4B20F2CF2D3FF2010BD55
S3150800086030B583B004460025284601F040FB4FF614
S31508000870FF7188420BD000A9284601F028FB082200
S3150800088000A9204602F0DAFC08B928463EBD6D1CD0
S31508000890EDB20F2DE8D3FF203EBD724A20B90129DB
S315080008A006D1012050707047012804BF01299070B5
S315080008B070471FB50FF6D011FFF7BEFFFFF7B8FF59
S315080008C000A802F081FA10B10FF6DC112EE00FF63F
S315080008D0F81101F0CEF800A802F05EF8FFF7A8FFBD
S315080008E000A801F05BFB044622460FF6F411FFF759
S315080008F0E9FEFFF79DFF4CB90FF60C21FFF79CFFA9
S31508000900FFF796FF57487821C1701FBD702C11D18B
S315080009100FF63021FFF790FFFFF78AFF0FF66421E5
S31508000920FFF78AFFFFF784FF0FF69821FFF784FF8A
S31508000930FFF77EFF1FBD00204FF6FF72494901EB06
S3150800094040018A81401C0F28F8D3704710B582B041
S3150800095000208DF8000000A901F06EF8002878D173
S315080009609DF800000A2874D03AA1FFF765FF3D4CB0
S315080009709DF800000A2818BF0D2862D0262854D0F2
S315080009802A284FD0302839D031283AD03F281CD0D1
S31508000990612828D0632837D0652838D066280DD036
S315080009A0692808D06B283AD06C2824D06D281ED028
S315080009B074280DD041E002F05EF842E00FF63821C7
S315080009C0FFF73AFF0320E0803BE000F04DF838E0FF
S315080009D00FF6E8440021204602F05DFE002120467D
S315080009E002F059FE2DE00F2002F080F829E00120E0
S315080009F002F0E5F825E0FFF73DFE22E001206070F1
S31508000A0023E00120A07020E002F066F919E00FF655
S31508000A101421002001F056F800F09EFE11E002F0C5
S31508000A20ADF90EE0FFF745FF0BE001F0BFFA02460D
S31508000A300FF20461FFF746FE03E00FF60821FFF701
S31508000A40FBFE9DF800000A2803D00FF60821FFF7E1
S31508000A50F3FE13BD0D0A00005D0D0A00A804002070
S31508000A60440300208C00002080B50FF6F811FFF72C
S31508000A70E3FEFFF7DDFE0FF6F811FFF7DDFEFFF7E1
S31508000A80D7FE0FF60421FFF7D7FEFFF7D1FE0FF6C4
S31508000A901821FFF7D1FEFFF7CBFE0FF61C21FFF753
S31508000AA0CBFEFFF7C5FE0FF62C21FFF7C5FEFFF7B5
S31508000AB0BFFE0FF63C21FFF7BFFEFFF7B9FE0FF6A4
S31508000AC05021FFF7B9FEFFF7B3FE0FF67421FFF7C3
S31508000AD0B3FEFFF7ADFE0FF69021FFF7ADFEFFF769
S31508000AE0A7FE0FF69821FFF7A7FEFFF7A1FE0FF660
S31508000AF0A421FFF7A1FEFFF79BFE0FF6B821FFF72B
S31508000B009BFEFFF795FE0FF6EC21FFF795FEFFF724
S31508000B108FFE0FF60431FFF78FFEFFF789FE0FF6FB
S31508000B203C31FFF789FEFFF783FE0FF67431FFF7B6
S31508000B3083FE0020BDE8024000F0BEBF73656E73F9
S31508000B406F720000526573657420697320307825CA
S31508000B50783A25700D0A00004552524F523A2065E0
S31508000B607A7370496E697420307825780D0A00000A
S31508000B704578706563746564204E435020455A5322
S31508000B80502076657273696F6E2025642C20627515
S31508000B907420726561642025642E0A004552524FFE
S31508000BA0523A20657A7370536574436F6E66696747
S31508000BB075726174696F6E56616C756520455A5316
S31508000BC0505F434F4E4649475F54525553545F430F
S31508000BD0454E5445525F414444524553535F434141
S31508000BE04348455F53495A453A20307825780D0AD7
S31508000BF0000000004552524F523A20657A737055EC
S31508000C0074696C496E697420307825780D0A00007D
S31508000C104556454E543A20657A73705574696C4941
S31508000C206E6974207061737365640D0A00000000B4
S31508000C300D0A494E49543A2073696E6B20617070EB
S31508000C40200000004552524F523A20657A7370537D
S31508000C506574506F6C69637920455A53505F554ED9
S31508000C6049434153545F5245504C4945535F504F91
S31508000C704C4943593A20307825780D0A000000007F
S31508000C8053494E4B204150503A20666F726D696E3B
S31508000C9067206E6574776F726B202D206368616EAE
S31508000CA06E656C20307825782C2070616E6964201A
S31508000CB030782532782C20004552524F523A206619
S31508000CC0726F6D20656D626572466F726D4E6574E2
S31508000CD0776F726B3A20307825780D0A000000008D
S31508000CE04552524F5220307825783A206E6F20614F
S31508000CF0636B20666F72206D65737361676520305C
S31508000D00782532780D0A00005258205B626164200B
S31508000D107061636B65745D20636C757374657220AE
S31508000D203078253278206F66206C656E6774682087
S31508000D3025780D0A00000000525820746F6F207342
S31508000D40686F7274205B73696E6B20616476657276
S31508000D50746973655D2066726F6D3A200000000045
S31508000D605258205B73696E6B20616476657274698C
S31508000D7073655D2066726F6D3A2000003B206967D7
S31508000D806E6F72696E670D0A000000005258205B8C
S31508000D9073656E736F722073656C6563742073690F
S31508000DA06E6B5D2066726F6D3A2000003B20707294
S31508000DB06F63657373696E67206D657373616765C5
S31508000DC00D0A00005258205B73696E6B20726561CC
S31508000DD064795D2066726F6D3A2000003B20746866
S31508000DE0697320697320616E206572726F725D0D7A
S31508000DF00A0000005258205B73696E6B2071756596
S31508000E0072795D2066726F6D3A2000005258205B39
S31508000E10444154415D2066726F6D3A20000000001F
S31508000E203B206C656E2030782578202F206461740D
S31508000E3061204E4F2044415441210D0A0000000014
S31508000E403B206C656E2030782578202F20646174ED
S31508000E5061203078257825780D0A00005258205BE5
S31508000E606D756C7469636173742068656C6C6F5D0D
S31508000E702066726F6D3A20005258205B756E6B6E55
S31508000E806F776E2028253278295D2066726F6D3A55
S31508000E90200000004552524F523A20657A7370532B
S31508000EA06574536F75726365526F7574653A203051
S31508000EB07825780D0A0000004552524F523A2065AF
S31508000EC07A737053656E645265706C793A2030781F
S31508000ED025780D0A000000004556454E543A207301
S31508000EE07461636B537461747573206E6F772045F4
S31508000EF04D4245525F4E4554574F524B5F55500D24
S31508000F000A0000004556454E543A20737461636BD7
S31508000F10537461747573206E6F7720454D42455240
S31508000F205F4E4554574F524B5F444F574E0D0A007C
S31508000F304556454E543A20737461636B5374617415
S31508000F407573206E6F7720454D4245525F4A4F496B
S31508000F504E5F4641494C45440D0A00004556454EEC
S31508000F60543A20737461636B537461747573206E9D
S31508000F706F7720307825780D0A00000073656E7348
S31508000F806F720000466F726D206572726F72203044
S31508000F90782578005363616E206572726F7220300F
S31508000FA0782578004552524F523A20657A73704533
S31508000FB072726F7248616E646C657220307825783B
S31508000FC00D0A00004556454E543A2073696E6B204B
S31508000FD073656E64206D616E792D746F2D6F6E6505
S31508000FE020726F75746520726571756573742C202F
S31508000FF073746174757320307825780D0A000000C3
S315080010004556454E543A2073696E6B206175746F68
S315080010106D61746963616C6C79206164766572745C
S315080010206973696E6720746F2066696E64207365DC
S315080010306E736F72730D0A006B65797377697463E3
S31508001040683A2073656E64696E672073776974639E
S3150800105068206E6574776F726B206B657920636F95
S315080010606D6D616E642C20737461747573202578B8
S315080010700D0A00004556454E543A20746F6F206C91
S315080010806F6E672073696E6365206C617374206880
S31508001090656172642C20000064656C6574696E670E
S315080010A02061646472657373207461626C6520697B
S315080010B06E6465782025782C2073746174757320A6
S315080010C025780D0A00000000425554544F4E303A18
S315080010D0207475726E207065726D6974206A6F6906
S315080010E06E204F4E20666F72203630207365636F10
S315080010F06E64730D0A0000004556454E543A206C3E
S3150800110065617665206E6574776F726B207374619E
S3150800111074757320307825780D0A00004556454EBB
S31508001120543A2073657474696E67206D756C7469BA
S3150800113063617374207461626C6520656E7472797C
S315080011402C20737461747573206973203078257840
S315080011500D0A000068656C6C6F0000005458205B2F
S315080011606D756C7469636173742068656C6C6F5D0A
S315080011702C2073746174757320307825780D0A00F5
S315080011805458205B73696E6B206164766572746966
S3150800119073655D2C207374617475732030782578B7
S315080011A00D0A000072656365697665206475706C62
S315080011B06963617465206D6573736167652066721E
S315080011C06F6D20005741524E494E473A206E6F20A8
S315080011D06D6F7265206672656520616464726573F9
S315080011E073207461626C6520656E74726965730D2F
S315080011F00A0000005458204552524F52205B73692A
S315080012006E6B2072656164795D2C2073657420723B
S31508001210656D6F7465204555493634206661696C7D
S315080012207572652C2073746174757320307825780F
S315080012300D0A00004556454E543A2073696E6B20D8
S315080012407365742061646472657373207461626C7B
S315080012506520656E74727920257820746F206E6F0C
S315080012606465205B000000005458205B73696E6B50
S315080012702072656164795D2C207374617475733AA4
S31508001280307825780D0A00006B6579737769746381
S31508001290683A2067656E65726174696E67206E6567
S315080012A077206B65790D0A006B65797377697463C6
S315080012B0683A206B65792067656E204641494C453A
S315080012C044210D0A000000006B6579737769746321
S315080012D0683A206E6577206B65793A200000000031
S315080012E06B65797377697463683A206263617374AE
S315080012F0206E6577206B6579207374617475732029
S31508001300307825780D0A00006B6579737769746300
S31508001310683A2077616974696E672033302073658F
S31508001320636F6E647320746F2073656E64206B65DB
S31508001330792073776974636820636F6D6D616E6475
S315080013400D0A00004552524F523A207468697320BC
S3150800135073746174757320636F756C64206D656151
S315080013606E207468617420746865206B65792075D1
S315080013707064617465207761732073656E740D0AF5
S3150800138000000000202020202020206F7574206295
S31508001390757420746861742074686520737769743D
S315080013A06368206B6579207761736E742073656E48
S315080013B074206F75742E20557365207468650D0A40
S315080013C00000000020202020202020636F6D6D6122
S315080013D06E642022262220746F2073656E64207442
S315080013E0686520737769746368206B657920636F15
S315080013F06D6D616E640D0A004556454E543A20736C
S31508001400657269616C20696E7075742C20666F72DE
S3150800141063652073696E6B2061647665727469739F
S31508001420650D0A00425554544F4E313A20526573A1
S31508001430657474696E67206E6F64652E2E2E0D0AAC
S3150800144000000000756E6B6E6F776E20636D640D1D
S315080014500A0000000D0A73696E6B2D6E6F64653E97
S31508001460000000003F203D2068656C700D0A0000F2
S3150800147069203D207072696E74206E6F64652069FC
S315080014806E666F0D0A0000006C203D2073656E6461
S31508001490206D756C746963617374205B68656C6C28
S315080014A06F5D0D0A0000000074203D20706C6179A4
S315080014B02074756E650D0A0061203D207072696E94
S315080014C0742061646472657373207461626C650D5F
S315080014D00A0000006D203D207072696E74206D75DB
S315080014E06C746963617374207461626C650D0A00BB
S315080014F066203D2073656E642073696E6B20616497
S31508001500766572746973656D656E740D0A00000000
S3150800151030203D20627574746F6E20303A207475E1
S31508001520726E20616C6C6F77206A6F696E204F4E01
S3150800153020666F72203630207365630D0A0000003E
S3150800154031203D20627574746F6E20313A206C65C7
S31508001550617665205A6967426565206E6574776F9E
S31508001560726B0D0A0000000065203D2072657365E8
S3150800157074206E6F64650D0A0000000063203D202C
S315080015807072696E74206368696C64207461626C39
S31508001590650D0A006B203D207072696E74207468B0
S315080015A065207365637572697479206B6579730D47
S315080015B00A0000002A203D20737769746368207446
S315080015C06865206E6574776F726B206B65793A2053
S315080015D073656E6420746865206B657920666F6C28
S315080015E06C6F77656420627920612073776974630C
S315080015F0680D0A00202020206B657920636F6D6DC9
S31508001600616E64203330207365636F6E6473206C7B
S31508001610617465720D0A000026203D2073656E64AC
S31508001620206120737769746368206B657920636F1E
S315080016306D6D616E642E2054686973206973206E1F
S315080016406565646564206F6E6C79206966207468C8
S3150800165065206465766963650D0A000020202020F0
S3150800166073656E742061206E6577206B65792061DD
S315080016706E64207468656E20726573657420626591
S31508001680666F7265206974207761732061626C6584
S3150800169020746F2073656E64207468650D0A0000F7
S315080016A020202020737769746368206B657920632E
S315080016B06F6D6D616E640D0A00000000490200023C
S315080016C07B010001410100010000000080B50120F6
S315080016D080F3108801215A4802F044F9012145F2A5
S315080016E03D2002F020F9012002F0FAF9554802F0EF
S315080016F011FA02F00BFC02F013FC02F034FD52481A
S3150800170002F0DAFC514802F0D7FC514802F0D4FC4A
S31508001710504802F0D1FC504803F038F84FF08040AA
S3150800172003F080F94D4803F07DF94D4803F07AF946
S315080017304C4804F04BFA01F071FE042004F039FD20
S3150800174004F05AFD04F0CEFD01F031FDBDE801407C
S3150800175004F099BE05F0A8B94348016801F4E061B0
S31508001760424A11430160BFF34F8FFEE738B504467E
S315080017700D4605F099F9012080F310882B4622467C
S315080017800FF2F801002000F09DF9BDE83140E3E7CB
S3150800179010B5374C2078FF282BD17F2002F042F96C
S315080017A0012822D07E2002F03DF9012808BF022038
S315080017B01BD07D2002F036F9012808BF032014D07B
S315080017C07C2002F02FF9012808BF04200DD07B20C9
S315080017D002F028F9012808BF052006D07A2002F071
S315080017E021F901280CBF06200020207002F049F9D3
S315080017F0207810BD80B5FFF7CBFF1E4951F82000B1
S3150800180002BD05F059B980B505F066F980B202BD8A
S31508001810032813D3184947224A6000228A600A68B7
S3150800182005220A600246501E92B21AB10A68D2030D
S31508001830FCD5F7E7086840084000086070470000D4
S315080018400B4000180024014000080140000C01402C
S31508001850001001400014014000300140000400401F
S31508001860000C0040003801400CED00E00400FA05C9
S3150800187023010020B800002010E000E00D0A5B41BB
S3150800188053534552543A25703A25645D0D0A0000B3
S3150800189070B51346101802E0A4192C705B1EDBB253
S315080018A04BB101F00F060909451E28460A2E34BF1A
S315080018B030243724F0E7101870BD2DE9F04F87B0B3
S315080018C08046894614469B4601AD002701A88DF837
S315080018D000001BE05BF804AB04224FEA1A412846D5
S315080018E0FFF7D6FF04221FFA8AF1FFF7D1FF054654
S315080018F005A8854209D39DF800002E1A00F096F82F
S31508001900002831D1F719FFB201AD641C9DF800001B
S315080019102E1A2078002807D0252802D005F8010BB2
S31508001920E6E714F8010F002876D02528F6D03228E5
S3150800193018BF34285FD0582857D063280CD064289D
S3150800194018BF6C2825D0702818BF732807D07528AB
S315080019501FD0782849D0CBE75BF8040BDEE75BF8A5
S3150800196004AB00F063F800285CD1F719FFB201ADAB
S31508001970002600E0761CF6B216F80A000028F9D10F
S31508001980324651464846C04700284BD1F719FFB2A0
S31508001990AEE75BF8040B0021002803D52D2129703A
S315080019A001214042002300224FF0000C02E0801B78
S315080019B00CF1010C0FF2341656F82260B042F6D23A
S315080019C043EA0C06F6B2002E05D0C9B20CF1300374
S315080019D04B55491C0123521C092AE5DBC9B2303094
S315080019E04855481CC0B2451982E75BF8041B022219
S315080019F0C9B2284679E714F8010F78281CBF582879
S31508001A00641EF1D114F8010C32287FF463AF5BF839
S31508001A10041B042289B2ECE700F008F810B9F019A3
S31508001A20C0B200E0002007B0BDE8F08FF2B201A90D
S31508001A304846404705F017B910B50C4605F01CFA9C
S31508001A40002801D5262010BD2070002010BD01A158
S31508001A500FE000000D0A000010B5002413460A46E0
S31508001A6001460FF23900FFF728FF00B90124204686
S31508001A7010BD0CB480B502AAFFF7EEFF02BC5DF8F4
S31508001A800CFB0CB438B5044604AAFFF7E5FF054677
S31508001A902046FFF7DCFF284625E0000038B50C464F
S31508001AA0154603E014F8010B05F000FA2846451E12
S31508001AB0C0B20028F6D132BD80B5012005F061F923
S31508001AC0002002BD0CB438B504460D46012005F0C9
S31508001AD05CF904AA29462046FFF7BEFF0446002003
S31508001AE005F053F9204632BC5DF80CFB00CA9A3B58
S31508001AF000E1F5058096980040420F00A086010097
S31508001B0010270000E8030000640000000A00000037
S31508001B101648006816494860401C086004F0EBBD8A
S31508001B2080B51448007838B904F014FF12490978CA
S31508001B30084302D0012002BD002002BD00207047E4
S31508001B4010B50C4C207830B104F039FE192803D0B2
S31508001B500021217010BD192010BD80B504F0F6FED5
S31508001B60044801210170002002BD00002401002064
S31508001B70B0040020C2040020C104002070B500F0A3
S31508001B8001FA002000F0C4FC00F015F900F0F4FC9E
S31508001B9005F0A0F900F07EF8287005F0B5F9308058
S31508001BA0204670BD38B504460D46522000F0B0FCFC
S31508001BB000F001F900F0E0FC05F08CF9044605F0A8
S31508001BC0A3F92880204632BD38B504460D46532071
S31508001BD000F09EFC00F0EFF800F053F800F063B94F
S31508001BE02DE9F84304460D46904699460A9E0B9FF2
S31508001BF0022000F08DFC00F0DEF800F042F84046C6
S31508001C0005F07BF9484605F06CF9089D00F02AF9BD
S31508001C10099C00F0D0F83146284605F0A0F9394667
S31508001C20204605F09CF900F0A7FCBDE8F14305F055
S31508001C3051B938B504460D46552000F069FC00F048
S31508001C40BAF800F00FF92EE12946204605F075B9D5
S31508001C5080B5062000F05CFC00F08EFCBDE8014073
S31508001C6000F0B3B938B50446492000F051FC00F03D
S31508001C7083FC05F02FF9054605F046F9208028462D
S31508001C8032BD284605F039B900F076FCBDE870404B
S31508001C9005F020B9044605F01DB980B5172001E006
S31508001CA080B5182000F034FC00F066FCBDE8014061
S31508001CB005F010B970B500F065F91A2000F028FC97
S31508001CC000F079F800F023F800F072F8DCE710B5B8
S31508001CD004461E2000F01CFC00F016F9208905F0C9
S31508001CE00CF9A07A05F0FDF8E07A05F0FAF8207B01
S31508001CF005F0F7F8E08905F000F9207C05F0F1F821
S31508001D00606905F00BF943E180B52020CAE728464B
S31508001D1005F004B910B50446222000F0F9FB00F0DE
S31508001D204AF835E110B50446262000F0F1FB00F02C
S31508001D3023FC21460820BDE8104005F01EB980B5F1
S31508001D40272000F0E5FB00F017FCBDE8014005F090
S31508001D50DBB870B504460D46282000F0D9FB00F024
S31508001D600BFC05F0B7F800F0C0FB2070284605F01C
S31508001D7017F9304670BDF8B500F015F84A2000F09E
S31508001D80C7FB00F018F800F0F7FB05F0A3F80446C7
S31508001D9005F0BAF82880314600F010F805F09AF8F0
S31508001DA038702046F2BD04460D4616461F46704753
S31508001DB0304605F096B8204605F093B8082005F099
S31508001DC0DCB82DE9F84300F00BF8342000F0A0FB4E
S31508001DD0FFF7F1FFFFF755FF404605F0FDF815E060
S31508001DE004460D4690469946099E0A9F70472DE976
S31508001DF0F843FFF7F5FF382000F08AFB204605F088
S31508001E00EBF800F02FF8404605F06BF8484605F069
S31508001E1068F8089C204605F064F83146FFF715FF78
S31508001E2000F0AAFB05F056F8044605F053F838709A
S31508001E302046BDE8F283F8B5FFF7B5FF392000F074
S31508001E4067FB00F021F8284605F0C6F8B1E038B57A
S31508001E5004460D46412000F05BFB00F015F800F043
S31508001E6001F820E0284605F03CB870B500F08AF87D
S31508001E705A2000F04DFB00F007F8FFF7F3FF314654
S31508001E80284605F06CF8FFE6204605F036B838B562
S31508001E9004460D465C2000F03BFBFFF78CFF294605
S31508001EA0082005F04AF800F067FBBDE8314005F068
S31508001EB011B838B504460D465D2000F029FBFFF73A
S31508001EC07AFFFFF7DEFEBDE8314000F055BB38B5B6
S31508001ED004460D465E2000F01BFBFFF76CFF00F082
S31508001EE04BFB29460820BDE8344005F046B810B536
S31508001EF004465F2000F00CFBFFF75DFF00F03CFB9B
S31508001F00BDE8104005F000B82146082005F015B8D0
S31508001F1038B504460D46632000F0FAFAFFF74BFF82
S31508001F2000F02AFB04F0D6FF0446284605F085F89B
S31508001F30204632BD38B504460D46642000F0E8FA5E
S31508001F40FFF739FF284605F073F8ACE710B50446E5
S31508001F50682000F0DDFA204605F078F818E038B574
S31508001F6004460D466A20FFE700F0D2FAFFF723FF82
S31508001F7000F002FB04F0AEFF0446284605F07FF8A1
S31508001F80204632BD04460D461646704704F0D5FF76
S31508001F9000F0F2FABDE8104004F09CBF10B5044604
S31508001FA0732000F0B5FA21461020EFE780B57420BB
S31508001FB078E6FFF7FDFE3946304604F0BEFF00F02E
S31508001FC0DBFABDE8F14004F085BF2DE9F04790B093
S31508001FD0DFF84C46DFF84C5685222968204601F082
S31508001FE095F804F20300DFF8401608602868807840
S31508001FF0072867D00D2868D00F286BD0192878D005
S315080020001B2800F084801C2800F08E80232800F00E
S315080020109480242800F09481312800F0A280322888
S3150800202000F0C1803F2800F0C780432800F0E08018
S31508002030442800F0E280452800F0EA80462800F0AF
S31508002040558148285AD0542849D0592800F0058186
S31508002050622800F0D7806E2800F06481782800F0A6
S31508002060AC817C2800F02A817D2800F01081802828
S3150800207000F01A818E2800F0A581922800F0B2811E
S31508002080932800F0C281972800F01D81982800F057
S3150800209044819B2800F04B819E2800F06481A0288B
S315080020A000F06D81A72800F07B81B62800F0BA8180
S315080020B0B72800F0DF81B82800F0E181BB2800F0DE
S315080020C0048209E205F041F809E204F01DFF05F073
S315080020D055F804E204F0FEFE05F038F8FFE104F0D6
S315080020E0F9FE044600F07DFA0146204605F045F85B
S315080020F0F5E104F0EFFEFEF7B9F9F0E104F0EAFEC7
S31508002100FFF7C8FD41B2204605F041F8E7E100A80F
S3150800211004F0CDFF04F0DEFEFFF7BCFD42B2214617
S3150800212000A805F030F8DAE104F0D4FEFFF7B2FDB6
S315080021300146204605F029F8D1E104F0CBFEFFF769
S31508002140A9FD054604F0E0FE064600F0D1F904F0C4
S31508002150C1FE009001AB32462946204604F0F7FF3F
S31508002160BDE104F0B7FE8DF8000004F0B3FE8DF86B
S31508002170010004F0C9FEADF8020004F0ABFE8DF8CC
S3150800218004000DF1050100F0B4F904F0A3FE8DF882
S315080021900D0004F09FFEFFF77DFD0246214600A8CC
S315080021A004F0D9FF9BE104F095FEFFF773FD0146A5
S315080021B0204604F0D1FF92E104F08CFE804604F03C
S315080021C0A3FE054603A804F01CFF04F083FE00F0F6
S315080021D08CF900F087F9044600F003FA029001949E
S315080021E00097334603AA29464046FEF76EF876E17D
S315080021F004F070FE04F0B1FF71E104F085FE04F00E
S31508002200ADFF6CE100F078F900A804F0A8FF66E1DC
S3150800221004F060FE804605A804F0F3FE04F05AFEBA
S3150800222000F06EF9064604F06FFE00F05BF9FFF762
S3150800223031FD814604F04EFE824600F0D2F9049044
S31508002240CDF80CA0CDF808900194009773B22A46F1
S3150800225005A94046FEF746F841E104F055FE044656
S3150800226002A900F046F904F035FE00F049F900F03D
S315080022703CF907467800C0B200F0B3F90190009720
S3150800228073B22A4602A9204601F01AF827E104F09B
S315080022903BFE044600F030F904F01CFE024600A995
S315080022A0204604F05EFF1AE104F014FE044604F02A
S315080022B02BFE0146204604F055FF10E104F024FEEB
S315080022C004F04EFF0BE104F005FEFFF7E3FC00F017
S315080022D017F900F00AF9074600F083F900903B4623
S315080022E072B22946204604F040FFF8E004F0F2FDF9
S315080022F0804604F0EFFD00F003F900F0F6F800F070
S31508002300F1F8044600F06DF9019000947BB232466C
S315080023102946404604F02AFFE1E004F0DBFD04F01C
S3150800232027FFDCE004F0D6FD04F014FFD7E000F048
S31508002330E3F804F0CFFD014600A804F00AFFCEE05A
S3150800234004F0E2FD00F0DFF804F0C4FD00F0D8F870
S31508002350064604F0D9FD009033462A4601A92046D0
S3150800236004F0F6FEBBE004F0B5FD044600A916200D
S3150800237004F003FE00A9204604F0FBFEAFE004F0DB
S31508002380A9FD044604A9102004F0F7FD00A91020B1
S3150800239004F0F3FD00AA04A9204604F0EBFE9EE033
S315080023A004F098FDFFF776FC054600F01AF9024698
S315080023B02946204604F0DFFE91E004F08BFD04F088
S315080023C0DBFE8CE004F086FDFFF764FC00F098F86D
S315080023D0064600F006F90346324669B2204604F07E
S315080023E0C6FE7CE000F084F804F074FDFFF752FCAA
S315080023F000F086F8064600F0F4F8009033466AB214
S31508002400214601A804F0AFFE69E004F063FDFFF77A
S3150800241041FC054600F0E5F802462946204604F048
S31508002420A3FE5CE005A804F05CFE04F053FD00F092
S315080024306AF804F04FFD8DF80C0004F065FDADF860
S315080024400E0004F061FDADF8100004F043FD8DF8B0
S31508002450120004F03FFD8DF8130004F03BFD00F078
S315080024604FF840B200902B4601AA214605A804F071
S3150800247086FE34E004F02EFD04F082FE2FE004F020
S3150800248043FDADF8000004F03FFDADF8020004F08E
S315080024903BFDADF8040004F037FDADF8060004F086
S315080024A033FDADF8080004F02FFDADF80A0004F07E
S315080024B02BFDADF80C0004F00DFDFFF7EBFB42B267
S315080024C0214600A804F05DFE09E000A804F009FE14
S315080024D000A804F057FE02E03120FEF71DF810B000
S315080024E0BDE8F087074604F0F5BC064604F0F2BCE2
S315080024F001A9082004F041BD00A9082004F03DBD4B
S31508002500054604F0E7BC044601A9082004F035BDD9
S315080025104449096801F20302444B1A6088707047FF
S3150800252080B5FFF70DFB192818BF272801D1012010
S3150800253002BD3C49096801F203023B4B1A60B0B977
S315080025404A788B78582B08BFC878110658BF3220AE
S31508002550910748BF3320D10748BF34203449931028
S3150800256003F001034B70521102F003020A7010B116
S31508002570FDF7D2FF022002BD10B52A4801682B4A92
S315080025801268521A92B22B4CE3780B70591CE17000
S315080025906178237941EA431100684170862A04D399
S315080025A04020BDE81040FDF7B7BF23480068027019
S315080025B0A07828B14FF4FF710FF28000FFF7D6F824
S315080025C00120A070FFF7C9FA30B9FFF7A9FF012863
S315080025D004D104F0B9FDF8E7FDF79EFF0020A070CE
S315080025E010BD114A1168401810600846704710B5AA
S315080025F0FFF7A4FA441C0F48807848B140F21F211F
S315080026000FF23800FFF7B2F802E0FFF7DEFC641EAF
S31508002610E4B21CB1FFF784FF0028F6D010BD000015
S31508002620BC010020B0040020B8040020BC0400202F
S31508002630C004002018010020B4040020657A7370D5
S315080026402E6300002DE9F04F8DB0814600264FF02D
S31508002650180B6C4DAA1C04A90420FFF78FFA04284E
S3150800266018BF01269DF8100002280CBF0020022082
S3150800267050EA06081DD100260FF25C24DA460DF151
S3150800268012012078FFF78EFA070022D16188BDF87B
S315080026901200814215D2C6B1002040EA0808083463
S315080026A0BAF1010AEBD1761C022EE5DBB8F1000F70
S315080026B023D042460FF25C114846FFF703FA012081
S315080026C087E08842E8D2012EE6D12078FFF77CFA27
S315080026D00746002FE0D0638822780FF2701148462B
S315080026E0FFF7F0F96068D8E70BF101005FFA80FBA5
S315080026F059460120FFF768FA0746002FF4D000264E
S315080027000FF2801BDFF80081404C01E0761CF6B220
S31508002710207886423CDA4FEA061A0AEB08077868F8
S31508002720417909293CBF8079092803D3F221584603
S31508002730FFF71CF8002009AA02E0B96800F04CF877
S31508002740796849798842F8DB002005AA02E0F96829
S3150800275000F042F8796889798842F8DB786805A933
S31508002760039109A90291817901914179009103792F
S31508002770428801881AF80800FFF732FA0700C5D020
S315080027803A460FF210114846FFF79CF9384620E002
S315080027900020287000A8FFF765FA824690B90DF167
S315080027A00200FFF75FFA824660B9BDF80200BDF87D
S315080027B0001041EA0040FFF724F8281DFFF7B2FA97
S315080027C0002006E052460FF2EC014846FFF77AF978
S315080027D050460DB0BDE8F08F31F8101022F81010F1
S315080027E0401CC0B2704710B5FFF701FF084C03E064
S315080027F000202070FFF72CFAFFF792F90028F7D18E
S3150800280010BD0000A40400200001002032010020B1
S31508002810190100204552524F523A20455A5350202A
S315080028207574696C7320636F6E66696720636F6D74
S315080028307061746962696C69747920666C61677322
S31508002840202D2030782534780D0A00004552524F45
S31508002850523A2053657420636F6E66696720666115
S31508002860696C656420666F72206964203078253249
S31508002870782C2076616C75652030782532780D0ABB
S3150800288000000000657A73702D7574696C732E6389
S31508002890000000004552524F523A20657A73704143
S315080028A06464456E64706F696E7420307825780D9F
S315080028B00A0000004552524F523A20657A73704713
S315080028C0657452616E646F6D4E756D626572203007
S315080028D07825780D0A00000001001800080000009D
S315080028E0020008001000000003000A002000000093
S315080028F0040000004000000005000F0080000000F2
S315080029000600010000010000070010000002000098
S315080029100800080000040000090000000008000084
S315080029200A000000001000000C0000000040000033
S315080029300D0005000080000010001E0000000400C5
S3150800294011000600000008001200B80B0000100075
S3150800295013000500000020001400140000004000C9
S3150800296015000000000080001A000F000000000299
S315080029701B000600000000011C0001000000000406
S315080029801D000000000000081E00000000000010E6
S315080029902D0001000000002030B587B004460FF274
S315080029A05845E0790590A0790490607903902079DC
S315080029B00290E0780190A07800906378227800F081
S315080029C01BF800F0F9F8E07B0590A07B0490607B8B
S315080029D00390207B0290E07A0190A07A0090637AB7
S315080029E0227A00F009F800F0E7F8BAA1002007B04B
S315080029F0BDE83040FFF73DB829460020FFF739B853
S31508002A0000B589B004A80FF20C41102204F0D2FBDD
S31508002A1000A80FF21041102204F0CCFB00A904A86C
S31508002A2000F014FD28B900220FF20841FFF721F83B
S31508002A300DE00FF2204100F005F904A8FFF7ACFFFE
S31508002A400FF22C4100F0FEF800A8FFF7A5FF09B029
S31508002A5000BDF8B504460D460FF23041FFF709F8F8
S31508002A600026BEA7725D39462046FFF702F8761C97
S31508002A70082EF7D3F1BD00B589B002A901A8FFF762
S31508002A8068F90FF2184100F0DDF80FF2184100F06E
S31508002A90D9F8B449002000F0D8F8FFF750F90246F3
S31508002AA00FF2084100F067F900F086F8BDF810004B
S31508002AB000909DF912309DF813200FF20441FFF79C
S31508002AC09CFF02A90020FFF7C4FFA74802880FF25F
S31508002AD0204100F050F900F06FF805220FF22C4162
S31508002AE000F049F900F068F809B000BD2DE9F14F8A
S31508002AF082B00FF2304100F0A5F80FF2484100F01D
S31508002B00A1F874A400F09DF800F056F800260FF21C
S31508002B1058490FF24C4A4FF6FF7B0FF23C480A25FC
S31508002B2019E03A460FF26C410020FEF7A2FF00A911
S31508002B30F0B2FFF7CCF900A9002000F086F88B4820
S31508002B4030F816200FF2584100F015F900F079F820
S31508002B5000F032F8761C9DF8080086422ADA96FBC1
S31508002B60F5F005FB106101F13003DBB2684390FB19
S31508002B70F5F000F05FF8F0B2FFF7B9F907465F45E0
S31508002B800CBF5146494600F05DF84FF6FC71781ABD
S31508002B900CD0401E05D0801EC3D15A460FF2D03144
S31508002BA0C3E74FF6FD720FF2D431BEE70A460FF2BD
S31508002BB0D831BAE7BDE8F78F0020FEF77DBF2DE9CB
S31508002BC0F04782B004460FF2E03100F03BF8FFF719
S31508002BD0F3FF00270FF218450FF208490FF2F43AEF
S31508002BE00FF2E4380A2605E0294600F02BF8FFF72D
S31508002BF0E3FF7F1CA7421BDA97FBF6F006FB107172
S31508002C0001F13003DBB2704390FBF6F000F012F8E6
S31508002C1000A9F8B2FFF77CF90028E5D1BDF8002035
S31508002C205146FEF726FF9DF8022000F0A3F8DEE7DE
S31508002C30BDE8F38700F13002D2B241460020FEF724
S31508002C4018BF21460020FEF714BFF8B504460D4606
S31508002C50082642A7701910F8012C39462046FEF7B7
S31508002C6008FF761EF6D1F1BD30B587B00446404D53
S31508002C7008223C49284600F049FAFFF760F828720E
S31508002C80FFF75DF8000A68724CF20F00ADF80C0009
S31508002C900120ADF80E008DF810008DF811004020C7
S31508002CA0ADF812000DF11600029001950A20009069
S31508002CB0012303AA21460020FFF783F840B1034603
S31508002CC022460FF240310020FEF7D3FEFFF774FFCD
S31508002CD007B030BD0D0A00002DE9FE4F0FF2503146
S31508002CE0FFF7B0FF00240FF298350FF278360FF28F
S31508002CF07C3B0FF280380FF264390FF2583A00AB7A
S31508002D0001AA0DF102012046FFF735F807462246CB
S31508002D10514600F030F8C7B901A90020FFF795FF22
S31508002D20BDF8022000F026F89DF80000032807D019
S31508002D3008D3052802D005D2314604E0594602E0F8
S31508002D40414600E02946FFF77DFF05A1FFF77AFF18
S31508002D50641C062CD3D3BDE8F78F00002578000045
S31508002D600D0A0000A8040020A604002098000020F0
S31508002D704403002049460020FEF77BBEF0B58BB021
S31508002D800124FEF78DFF022818BF032816D1022555
S31508002D900FF214360FF2F02700A92046FFF7DFF8E6
S31508002DA0012C0CBF39463146FFF74CFF0DF10300E5
S31508002DB0FFF7F2FD03246D1EEED103E00FF2083192
S31508002DC0FFF740FF0BB0F0BD38B504460025FEF707
S31508002DD01AFD011204F8151004EB450148706D1C24
S31508002DE0042DF4DB0FF21831FFF72CFF2046FFF70E
S31508002DF0D3FD002032BD000025582025582025582F
S31508002E002025582025582025582025582025582083
S31508002E10000000005A69676265652053656375722C
S31508002E2069747921656D62657220454D32353020A9
S31508002E30636869704552524F523A20696E697469DF
S31508002E40616C697A696E67207365637572697479EE
S31508002E500D0A0000494E464F203A206C696E6B20D9
S31508002E606B65792073657420746F3A200000000042
S31508002E70494E464F203A206E776B206B6579207352
S31508002E80657420746F3A2020000000004578746548
S31508002E906E64656450616E49643A200073696E6BAE
S31508002EA020000000657569205B0000005D207368DE
S31508002EB06F7274204944205B2532785D0D0A000044
S31508002EC06368616E6E656C205B307825785D2C20B2
S31508002ED0706F776572205B307825785D2C2070617D
S31508002EE06E4964205B30782532785D0D0A00000053
S31508002EF02C20737461636B205B2532785D2C20610E
S31508002F007070205B322E36305D0D0A00736563756E
S31508002F1072697479206C6576656C205B25785D0D21
S31508002F200A000000496E6465782020496E7573654D
S31508002F3020204E6F64654964202020457569363423
S31508002F4000000000202020202020202020202020F3
S31508002F50204167650000000020256325633A2000AC
S31508002F60202046414C534500202054525545200008
S31508002F702020554E55534544202020002020554EEC
S31508002F804B4E4F574E2020002020444953432041A2
S31508002F904354200020203078253278202020000055
S31508002FA02020307825327800496E64657820204DD7
S31508002FB0756C74696361737449642020456E647026
S31508002FC06F696E740D0A000020256325633A202078
S31508002FD0200000002020307825327820202020206C
S31508002FE0000000002020307825780D0A0000000037
S31508002FF0202D2D2D204552524F52202D2D2D0D0AB4
S31508003000200000004552524F523A2073656E6420E4
S31508003010756E69636173742C206368696C64202516
S3150800302032782C207374617475732025780D0A0024
S31508003030696E646578206575692020202020202027
S3150800304020202020202020696420202074797065A3
S315080030500D0A00002025783A202000002025327825
S315080030600000000020736C6565707900206D6F6242
S31508003070696C6500206E6F6E2D736C6565707900DE
S31508003080203F3F3F3F3F3F00454D4245525F545228
S315080030905553545F43454E5445525F4C494E4B5F1A
S315080030A04B45593A20000000454D4245525F43556D
S315080030B05252454E545F4E4554574F524B5F4B45FF
S315080030C0593A202000000000494E464F203A206E0B
S315080030D06F7420612076616C6964206E6574776F01
S315080030E0726B20737461746520746F2071756572D4
S315080030F07920746865206B657973200D0A200000B5
S315080031004E4557204B45593A2000000081423ABFA8
S315080031105318984204F03EB88018990707D0521EF3
S3150800312024BF13F8011D00F8011DF6D87047810762
S315080031301CD1103A07D330B433E93210103A20E9DB
S315080031403210F9D230BC1032121F24BF53F8041DB6
S3150800315040F8041DF8D838BF121D521E24BF13F8B4
S31508003160011D00F8011DF8D8704700BF083A07D3BB
S3150800317033E90210083A40F804CD40F8041DF7D2A6
S315080031800832EAE738B504460D46ADF80050102077
S315080031908DF8030003208DF8020000A9204600F0F0
S315080031A0EDFF01222946204601F03EF931BD10B552
S315080031B0214C4FF480712046FFF7E4FF4FF400716D
S315080031C02046BDE81040DDE71B4A28B1012804BFA8
S315080031D013464FF4007102E013464FF48071002243
S315080031E00BE0154A28B1012804BF13464FF40071B5
S315080031F002E013464FF48071012289B2184601F0A5
S3150800320013B938B50C4928B1012804BF0C464FF448
S31508003210007502E00C464FF48075A9B2204601F00D
S31508003220A9F8002814BF00220122A9B22046BDE849
S31508003230384001F0F9B80000000C014003000020F6
S3150800324013F0030F09D0521E22BF13F8010B11F811
S3150800325001CBB0EB0C00F3D07047121F22BF53F816
S31508003260040B51F804CB6045F7D0121D0AD200BAF8
S315080032709CFA8CFCB0EB0C0038BF6FF0000088BFDE
S3150800328001207047521E22BF13F8010B11F801CB1B
S31508003290B0EB0C00F6D0521C08BF1046704750F829
S315080032A0041B61B150F8042BD30744BFA9F10103ED
S315080032B09A18002342F8043B091FFAD1EFE7704732
S315080032C01B49097801B9704770B5FF2103F0B0FFB3
S315080032D00026049C059D0BE0014605EB4600407858
S315080032E015F8162002EB002080B203F0A1FF761C29
S315080032F0A642F1DB70BD38B50C46154603F086FFCD
S31508003300FF2801D1002032BD002106E0227831F8DD
S31508003310201025F812102178491C217005490968E2
S3150800332001EB80008078FF28F0D1012032BD000033
S315080033303301002028010020002203F0C3BF00004B
S3150800334030B58BB0012000F08AFA612000F06AFBE4
S315080033500028FAD04FF4007000F08DFA012000F032
S315080033609BFA03F0ECFF03F0E5FF06A800F0A0FACD
S315080033700121284801F0B7F8002003904FF6FF70A6
S31508003380ADF810000020ADF81200234C03A9204622
S3150800339001F025FC0C20ADF800000020ADF8020075
S315080033A00120ADF804000020ADF80600ADF80800CD
S315080033B000A9204601F081FD0121204601F0B4FE56
S315080033C01021204602F05FFB1021204602F0FAFA8F
S315080033D00028F9D0204602F0C1FA054610212046F9
S315080033E002F051FB1021204602F0ECFA0028F9D031
S315080033F0204602F0B3FA08994900401BB1FBF0F0E9
S315080034004FF47A71B0FBF1F003F07CFF03F092FF02
S315080034100BB030BD01002000000C004080B5FFF75E
S315080034208FFF002002BD80B500F002F880B202BD11
S3150800343010B5EFF3108400F003F884F3108810BD7C
S31508003440012080F3108803F057BF000010B58CB038
S315080034500C46002814BF01210021314A51705178C9
S31508003460C90710D5102201460DF10200FFF74EFEDE
S3150800347050210520FEF7DDFB68B10FF2D4010120CB
S31508003480FEF7FFFA12E00DF1020000F04BF810B952
S315080034900FF2F00107E05CB90DF1120000F042F8F6
S315080034A060B90FF208110120FEF7E3FA002012E0D6
S315080034B0102221460DF11200FFF728FE4FF4417045
S315080034C0ADF8000000208DF8220000A8FEF73EFDAA
S315080034D0401E8041C00F0CB010BD38B50400104D19
S315080034E02C7003D0697811B1012100E00221002077
S315080034F0FEF79FFB687830B9002C14BF5121502184
S315080035000520FEF796FB287830B90FF2C80101208E
S31508003510BDE83440FEF7ADBA31BD014800787047C2
S315080035203001002038B50446082500A8FEF79AFBA6
S3150800353008B1002032BDBDF8000004F8010BBDF843
S315080035400000000A04F8010B6D1EEED1012032BD01
S315080035504661696C656420746F2073657420706FAA
S315080035606C69637920666F7220726571756573740C
S31508003570696E67205443206C696E6B206B6579739E
S315080035802E0000004661696C656420746F206765CB
S315080035906E65726174652072616E646F6D206C6908
S315080035A06E6B206B65792E0D0A0000004661696C0A
S315080035B0656420746F2067656E6572617465207234
S315080035C0616E646F6D204E574B206B65792E0D0A20
S315080035D00000000054727573742043656E7465723A
S315080035E0206E6F206C6F6E67657220616C6C6F77EA
S315080035F0696E67206A6F696E732E0D0A00000000F7
S3150800360010B58AB04020ADF8040018208DF80700E0
S3150800361003208DF8060001A97A4800F0AFFD0121C4
S31508003620794800F060FF4820ADF808004FF6FF70B3
S31508003630ADF80C000020ADF80E00ADF80A00734C8A
S3150800364002A9204601F0CBFA05A801F063FD302057
S31508003650ADF814000120ADF8160005A9204601F0C2
S315080036605BFB0821204601F09DFE0121204601F062
S315080036703DFE00220221204601F0B2FD1D208DF8F4
S31508003680000000208DF80100ADF8020000A802F045
S315080036904BFD0AB010BD2DE9F04107460C46FFF771
S315080036A0AFFF5B4D6F60DFF864815A4E00F039F862
S315080036B001F0CBFF00F035F802F010F80021404683
S315080036C001F078FF387879784843642148437D21AA
S315080036D090FBF1F068800220287000206870EFF3F4
S315080036E01087012080F3108801220221404601F04C
S315080036F077FD4FF00056484806600221404602F022
S31508003700C2F9464806600121404601F00DFD87F3DF
S31508003710108801E0FEF71EF868782043FAD0BDE865
S31508003720F081387896FBF0F189B240467047F8B5D3
S31508003730364D0221284602F0A6F9354C6088411E0E
S31508003740618000284ED12078616842185278002A94
S315080037503AD0405C6426F8B12E4F97FBF0F189B257
S31508003760284601F072FF20786168405C97FBF0F10B
S3150800377089B2284601F0B2FF00F03FF8012200F0B6
S3150800378033F820786168425C4018407850437043AB
S315080037907D2190FBF1F012E04FF47A71284601F092
S315080037A054FF4FF47A71284601F098FF00F025F887
S315080037B000F019F8207861684018407870436080F6
S315080037C02078801C2070F1BD0221284601F008FDF2
S315080037D000F00EF800F007F80021284601F0A4FCD6
S315080037E001206070F1BD00220021284601F05CBE70
S315080037F00B484FF00051016070470021284601F040
S31508003800D9BE000000100140000C1A000004004058
S315080038101001002048E8010000E100E080E200E035
S3150800382080E100E02143016010BD10B5040018BF17
S31508003830B4F5804F09D0B4F5004F18BFB4F5404F22
S3150800384003D040F20B3100F006F8DFF848020168B1
S3150800385021F44041E6E70FF27820FDF787BF10B55F
S31508003860040018BF012C03D040F26A31FFF7F3FFBA
S315080038708A48046010BD10B50446B4F5807F1CBFA5
S31508003880B4F5007FB4F5407F03D040F27B31FFF7F3
S31508003890E2FF81480168C5E710B5040018BF012C8E
S315080038A003D040F28931FFF7D6FF7D48046010BD8A
S315080038B030B578490A687B4B02F00C02082A0ED10B
S315080038C00A680C68C2F38342921C774D5543E40399
S315080038D002D50C68A40301D52B4600E053430360C8
S315080038E00B68724A0468C3F303139B5C24FA03F358
S315080038F043600B684468C3F302239B5C24FA03F312
S3150800390083600B684468C3F3C2239B5C24FA03F301
S31508003910C3600968C368C1F381318918097CB3FBA0
S31508003920F1F1016130BDF8B504460D460FF2A01657
S315080039305F48044200D11CB940F2514100F00FF82B
S315080039405C4F45B1012D03D040F2524100F007F813
S315080039503868204301E03868A0433860F1BD304636
S31508003960FDF704BFF8B504460D460FF26416524833
S31508003970044200D11CB94FF48E61FFF7F0FF4F4F98
S3150800398045B1012D03D040F27141FFF7E8FF3868D1
S31508003990204301E03868A0433860F1BDF8B5044615
S315080039A00D460FF22C164248044200D11CB940F2CB
S315080039B0AB41FFF7D4FF424F45B1012D03D040F28A
S315080039C0AC41FFF7CCFF3868204301E03868A043D4
S315080039D03860F1BDF8B504460D460FF2F4063648D0
S315080039E0044200D11CB940F2CA41FFF7B8FF354F6F
S315080039F045B1012D03D040F2CB41FFF7B0FF38683F
S31508003A00204301E03868A0433860F1BD10B50400D2
S31508003A1018BF012C03D040F2DF41FFF71CFF2A48EC
S31508003A20046010BD38B504460025212C18BF312C7A
S31508003A3014D0392C18BF412C10D0612C18BF7A2C01
S31508003A400CD07B2C18BF7C2C08D07D2C1CBF7E2C60
S31508003A507F2C03D040F23B51FFF7FDFE60090C496D
S31508003A60012808BF086803D002280CBF086A486AFC
S31508003A70012104F01F029140084218BF012528467B
S31508003A8032BD1248016841F080710160704700003C
S31508003A9000100240041002402010024080044242F6
S31508003AA03C04424200127A0000093D00EC00002066
S31508003AB00200C0FF18100240003601811C100240A7
S31508003AC00C100240101002404004424224100240EA
S31508003AD073746D3332663130785F7263632E6300B8
S31508003AE010B5040018BF012C02D0882100F003F895
S31508003AF00348046010BD0FF20C00FDF737BE000046
S31508003B0020000E4273746D3332663130785F7077F9
S31508003B10722E630080B5DFF8CC1388420ED0DFF82A
S31508003B20C813884213D0DFF8C413884218D0B521C9
S31508003B30DFF8C003BDE80440FDF718BE01214FF4C5
S31508003B400070FFF72BFF00214FF4007010E00121F1
S31508003B504FF48060FFF722FF00214FF4806007E0F2
S31508003B6001214FF40040FFF719FF00214FF40040F0
S31508003B70BDE80440FFF712BF70B504460D460FF2C4
S31508003B807C36DFF8600384421FBFDFF85C0384429B
S31508003B90DFF85803844202D0DE2100F09FF9286836
S31508003BA0002818BFB0F5803F1AD0B0F5003F18BFFF
S31508003BB0B0F5403F14D0B0F5802F18BFB0F5A02F50
S31508003BC00ED0B0F5C02F18BFB0F5E02F08D0B0F56D
S31508003BD0002F18BFB0F5102F02D0DF2100F07EF9B4
S31508003BE02879002818BF012802D0E02100F076F9CC
S31508003BF06879002818BF012802D0E12100F06EF983
S31508003C00A868002818BFB0F5003F14D0B0F5802F7B
S31508003C1018BFB0F5C02F0ED0B0F5002F18BFB0F5FD
S31508003C20202F08D0B0F5402F18BFB0F5602F02D06E
S31508003C30E22100F053F9E868002818BFB0F5006FD4
S31508003C4002D0E32100F04AF9287C401EC0B21028B1
S31508003C5002D3E42100F042F96068DFF894120840C4
S31508003C6029680843297940EA01206060A068DFF8DE
S31508003C7088120840E9680843A9680843697940EA50
S31508003C804100A060E06A20F47000297C491EC9B290
S31508003C9040EA0150E06270BD70B504460D460FF269
S31508003CA05C26DFF8400284421FBFDFF83C028442EC
S31508003CB0DFF83802844203D040F22D1100F00EF9E5
S31508003CC04DB1012D03D04FF4977100F007F9A068A4
S31508003CD040F0010002E0A06840084000A06070BD06
S31508003CE010B50446DFF8FC0184421FBFDFF8F8016F
S31508003CF08442DFF8F801844203D040F27D1100F0D7
S31508003D0045F8A06840F00800A06010BD10B504464C
S31508003D10DFF8D00184421FBFDFF8CC018442DFF808
S31508003D20CC01844203D040F28B1100F02FF8A06832
S31508003D30C00828E010B50446DFF8A80184421FBF72
S31508003D40DFF8A4018442DFF8A401844203D040F2DC
S31508003D50A31100F01BF8A06840F00400A06010BD95
S31508003D6010B50446DFF87C0184421FBFDFF87801EE
S31508003D708442DFF87801844203D040F2B11100F0A2
S31508003D8005F8A068800800F0010010BD0FF26C105D
S31508003D90FDF7ECBC2DE9F84304460D4616461F46CA
S31508003DA00FF25819DFF83C0184421FBFDFF83801CB
S31508003DB08442DFF83801844203D040F2512100F0F2
S31508003DC08AF8002D18BF012D23D0022D18BF032D08
S31508003DD01FD0042D18BF052D1BD0062D18BF072D83
S31508003DE017D0082D18BF092D13D00A2D18BF0B2D73
S31508003DF00FD00C2D18BF0D2D0BD00E2D18BF0F2D63
S31508003E0007D0102D18BF112D03D040F2522100F013
S31508003E1062F8701E5FFA80F8B8F1100F03D340F20B
S31508003E20532100F058F8002F18BF012F0FD0022F8A
S31508003E3018BF032F0BD0042F18BF052F07D0062F46
S31508003E4018BF072F03D04FF4157100F044F8072068
S31508003E500A2D0CD3A5F10A0101EB4101E26888405D
S31508003E6022EA000007FA01F10843E06009E005EBE1
S31508003E7045012269884022EA000007FA01F1084351
S31508003E8020611F20072E0AD208EB8801626B884042
S31508003E9022EA000005FA01F10843606319E00D2ED5
S31508003EA00BD2F11F01EB8101226B884022EA000048
S31508003EB005FA01F1084320630BE0A6F10D0101EBB9
S31508003EC08101E26A884022EA000005FA01F1084306
S31508003ED0E062BDE8F1834846FDF748BC3046FDF789
S31508003EE045BC00000024014000280140003C014078
S31508003EF0FFFEF0FFFC3E0008FDF7F1FF73746D331B
S31508003F0032663130785F6164632E630080B50120C4
S31508003F10FFF77CFD0020BDE80240FFF777BD0000F3
S31508003F205D480021016041608160C1605B49416173
S31508003F30704770B5044620790FF26816002818BF36
S31508003F40042802D0692100F048F8607908281CBFC7
S31508003F500C28102802D06A2100F03FF82068010DCD
S31508003F60090500D110B96B2100F037F8A0794A4D40
S31508003F7060B3012804D06C2100F02FF8A07928B38B
S31508003F8029682268914329606968226891436960B3
S31508003F90217969180A6823681A430A60A968226899
S31508003FA09143A960E96822689143E96061792268CA
S31508003FB0102907D1A9681143A960E9682268114345
S31508003FC0E96070BD69180868104304E0207929186B
S31508003FD0086822689043086070BD3046FDF7C6BB86
S31508003FE038B504460025012C18BF022C32D0042C03
S31508003FF018BF082C2ED0102C18BF202C2AD0402CE5
S3150800400018BF802C26D0B4F5807F18BFB4F5007F82
S3150800401020D0B4F5806F18BFB4F5006F1AD0B4F588
S31508004020805F18BFB4F5005F14D0B4F5804F18BF91
S31508004030B4F5004F0ED0B4F5803F18BFB4F5003F75
S3150800404008D0B4F5802F18BFB4F5002F02D0BD21D3
S3150800405000F011F812480068204218BF01252846CA
S3150800406032BD10B50446200D000500D114B9D32180
S3150800407000F001F80CE00FF22C00FDF777BB10B545
S315080040800446200D000500D114B9FB21FFF7F3FF04
S315080040900348046010BD000000040140FFFF0F0044
S315080040A01404014073746D3332663130785F657875
S315080040B074692E630000000080B5DFF81C1688427C
S315080040C01ED0DFF81816884221D0DFF81416884269
S315080040D024D0DFF81016884227D0DFF80C1688425D
S315080040E02AD0DFF8081688422DD0DFF80416884251
S315080040F030D06E210FF28060BDE80440FDF736BB74
S3150800410001210420FFF74AFC002104202AE00121AE
S315080041100820FFF743FC0021082023E00121102096
S31508004120FFF73CFC002110201CE001212020FFF7AE
S3150800413035FC0021202015E001214020FFF72EFC48
S31508004140002140200EE001218020FFF727FC0021F6
S31508004150802007E001214FF48070FFF71FFC002143
S315080041604FF4807006E080B501210120FFF716FCA8
S3150800417000210120BDE80440FFF710BC2DE9F041FD
S3150800418004460D4600260FF2F058DFF84C05844227
S315080041901CBFDFF84805844215D0DFF84405844281
S315080041A01CBFDFF8400584420DD0DFF83C05844289
S315080041B01FBFDFF838058442DFF83405844202D091
S315080041C0B12100F07DF8E878002818BF04280ED041
S315080041D0282818BF48280AD0142818BF102806D03F
S315080041E01C2818BF182802D0B22100F069F82888C0
S315080041F010B9B32100F064F8E87800F00F07C0069C
S315080042000AD5A87801281CBF0228032802D0BA219B
S3150800421000F056F8A8780743288801210F22C3B270
S3150800422013B3D4F800C001FA06F39E460EEA000856
S31508004230F04514D14FEA860E02FA0EF82CEA080C5D
S3150800424007FA0EFE4EEA0C0C95F803E0BEF1280FAD
S3150800425008BF636103D0BEF1480F08BF2361761C0F
S31508004260082EE0D3C4F800C0B0F5807F26D3D4F872
S3150800427004C0002606F1080301FA03F39E460EEA77
S315080042800008F04515D14FEA860E02FA0EF82CEA18
S31508004290080C07FA0EFE4EEA0C0C95F803E0BEF180
S315080042A0280F08BF636195F803E0BEF1480F08BF01
S315080042B02361761C082EDDD3C4F804C0BDE8F0815E
S315080042C04046FDF753BAF8B504460D4600260FF2E8
S315080042D0A847DFF8040484421CBFDFF800048442C0
S315080042E016D0DFF8FC0384421CBFDFF8F8038442CB
S315080042F00ED0DFF8F40384421FBFDFF8F0038442D0
S31508004300DFF8EC03844203D040F21D1100F089F86F
S31508004310012D18BF022D27D0042D18BF082D23D034
S31508004320102D18BF202D1FD0402D18BF802D1BD053
S31508004330B5F5807F18BFB5F5007F15D0B5F5806F48
S3150800434018BFB5F5006F0FD0B5F5805F18BFB5F586
S31508004350005F09D0B5F5804F18BFB5F5004F03D0FB
S315080043604FF48F7100F05DF8A068284218BF012647
S315080043703046F2BDF8B504460D4600260FF2F8376A
S31508004380DFF8540384421CBFDFF85003844216D07A
S31508004390DFF84C0384421CBFDFF8480384420ED082
S315080043A0DFF8440384421FBFDFF840038442DFF886
S315080043B04003844203D040F2431100F032F8012D45
S315080043C018BF022D27D0042D18BF082D23D0102D75
S315080043D018BF202D1FD0402D18BF802D1BD0B5F536
S315080043E0807F18BFB5F5007F15D0B5F5806F18BF6B
S315080043F0B5F5006F0FD0B5F5805F18BFB5F5005F4E
S3150800440009D0B5F5804F18BFB5F5004F03D04FF466
S31508004410A27100F006F8E068284218BF0126304667
S31508004420F2BD3846FDF7A2B9F8B504460D4616465C
S315080044300FF24437DFF8A00284421CBFDFF89C0263
S31508004440844216D0DFF8980284421CBFDFF8940233
S3150800445084420ED0DFF8900284421FBFDFF88C0238
S315080044608442DFF88C02844203D04FF4C671FFF70A
S31508004470D8FF012D18BF022D27D0042D18BF082DEF
S3150800448023D0102D18BF202D1FD0402D18BF802DEA
S315080044901BD0B5F5807F18BFB5F5007F15D0B5F5EB
S315080044A0806F18BFB5F5006F0FD0B5F5805F18BFE0
S315080044B0B5F5005F09D0B5F5804F18BFB5F5004FC3
S315080044C003D040F28D11FFF7ACFF3EB1012E03D0A9
S315080044D04FF4C771FFF7A5FF2561F1BD6561F1BD11
S315080044E03046FDF743B970B504460D460FF28826E7
S315080044F0012C18BF022C75D0042C18BF082C71D0BB
S315080045007C4884421CBF7C4884426BD07B488442EA
S315080045101CBF7B48844265D07A4884421CBF7A48CF
S3150800452084425FD0794884421CBF7948844259D076
S315080045307848844218BFB4F5805F53D0B4F5EA1FB3
S3150800454018BFB4F5EB1F4DD0B4F5004F1CBF724829
S31508004550844247D0714884421CBF7148844241D086
S31508004560704884421CBF704884423BD0B4F1201F77
S315080045701CBF6E48844235D06D4884421CBF6D48C6
S3150800458084422FD06C4884421CBF6C48844229D090
S315080045906B48844218BFB4F5011F23D0694884428A
S315080045A01CBF694884421DD0684884421CBF6848BD
S315080045B0844217D0674884421CBF6748844211D09A
S315080045C0664884421CBF664884420BD065488442CC
S315080045D01FBF654884426548844203D040F22221C1
S315080045E0FFF77EFF002D18BF012D03D040F22321CF
S315080045F0FFF776FF5E48002C4CBF82690268C4F359
S315080046000343A1B2660D3601B14004F44016B6F56F
S31508004610401F06D122F07062036823F070630360BE
S3150800462008E0E60243BF032606FA03F39A438A43E1
S3150800463042F0706205B10A43002C01D5826170BD53
S31508004640026070BD70B504000D460FF22C1618BF37
S31508004650012C0CD0022C18BF032C08D0042C1CBF2C
S31508004660052C062C03D040F25D21FFF739FF002DFB
S3150800467018BF012D1FD0022D18BF032D1BD0042DE6
S3150800468018BF052D17D0062D18BF072D13D0082DD6
S3150800469018BF092D0FD00A2D18BF0B2D0BD00C2DC6
S315080046A018BF0D2D07D00E2D18BF0F2D03D040F2C1
S315080046B05E21FFF715FF05F00300800025F00301D2
S315080046C02C4A8B580F258540AB438B508B5804FAE0
S315080046D000F01843885070BD00080140000C0140E6
S315080046E0001001400014014000180140001C014060
S315080046F0002001401000140030001400400016008D
S31508004700C000160000011800000218000003180077
S3150800471000081A00000C1A00010020000200200000
S31508004720040020000800200010002000400020009F
S3150800473000013000000230000004300000102000A4
S315080047400020200001000080020000800400008094
S3150800475008000080100000802000008040000080D3
S3150800476080000080000100800002008000040080B4
S31508004770040001400800014073746D33326631301D
S31508004780785F6770696F2E630000000080B5DFF8F8
S31508004790781288420ED0DFF87412884216D0DFF8F5
S315080047A0701288421BD079210FF26820BDE80440B8
S315080047B0FCF7DCBF01214FF48050FFF7EFF800212A
S315080047C04FF48050BDE80440FFF7E8B801214FF4E4
S315080047D08040FFF7FFF800214FF4804007E00121F1
S315080047E04FF40040FFF7F6F800214FF40040BDE80B
S315080047F00440FFF7EFB870B504460D460FF21426CD
S31508004800DFF8040284421FBFDFF800028442DFF8A3
S315080048100002844202D0A22100F0C3F828880028AA
S3150800482018BFB0F5806F08D0B0F5004F18BFB0F5C7
S31508004830404F02D0A52100F0B4F86888B0F5827F11
S3150800484018BF002802D0A62100F0ABF8A888B0F55A
S31508004850006F18BF002802D0A72100F0A2F8E88848
S31508004860002818BF022802D0A82100F09AF8288943
S31508004870002818BF012802D0A92100F092F86889FB
S31508004880B0F5007F18BF002802D0AA2100F089F8E9
S31508004890A889002818BF08280ED0102818BF18287D
S315080048A00AD0202818BF282806D0302818BF38284C
S315080048B002D0AB2100F075F8E889002818BF8028D7
S315080048C002D0AC2100F06DF8288A10B9AD2100F0AD
S315080048D068F8208800F44150298808436988084305
S315080048E0A9880843E9880843298908436989084348
S315080048F0A9890843E98908432080A08B4FF2FF71F4
S315080049000840A083288A208270BD70B504460D46EB
S315080049100FF20016DFF8F00084421FBFDFF8EC0044
S315080049208442DFF8EC00844203D040F2AD1100F077
S3150800493038F84DB1012D03D04FF4D77100F031F896
S31508004940208840F0400003E020884FF6BF710840F9
S31508004950208070BD3846FCF709BF38B504460D46B9
S31508004960DFF8A40084421FBFDFF8A0008442DFF806
S31508004970A000844203D040F2252100F015F8A58155
S3150800498031BD10B50446204884421FBF1F488442E3
S315080049901F48844203D040F2352100F005F8A0896B
S315080049A010BD3046FCF7E2BE0FF26800FCF7DEBE2B
S315080049B0F8B506460D4600240FF2580712488642F7
S315080049C01FBF124886421248864203D040F2013180
S315080049D0FFF7C0FF802D18BF402D0FD0202D18BF20
S315080049E0102D0BD0082D18BF042D07D0022D18BF87
S315080049F0012D03D040F20231FFF7ACFF308928427F
S31508004A0018BF01242046F2BD00300140003800409E
S31508004A10003C004073746D3332663130785F7370D2
S31508004A20692E630080B5DFF89816884248D0B0F141
S31508004A30804F4ED0DFF88C16884251D0DFF88816A2
S31508004A40884254D0DFF88416884257D0DFF880169B
S31508004A5088425AD0DFF87C1688425DD0DFF878168F
S31508004A60884260D0DFF87416884265D0DFF8701681
S31508004A7088426AD0DFF86C1688426FD0DFF868166D
S31508004A80884274D0DFF86416884277D0DFF860165B
S31508004A9088427AD0DFF85C16884200F08280DFF818
S31508004AA05816884200F08680DFF85016884200F0D3
S31508004AB08A807C21DFF85806BDE80440FCF756BE1C
S31508004AC001214FF40060FEF769FF00214FF40060F2
S31508004AD081E001210120FEF77DFF002101205CE035
S31508004AE001210220FEF776FF0021022055E0012170
S31508004AF00420FEF76FFF002104204EE00121082064
S31508004B00FEF768FF0021082047E001211020FEF784
S31508004B1061FF0021102040E001212020FEF75AFF06
S31508004B200021202039E001214FF40050FEF736FF1E
S31508004B3000214FF400504EE001214FF40020FEF70B
S31508004B402DFF00214FF4002045E001214FF480108D
S31508004B50FEF724FF00214FF480103CE001214FF4BA
S31508004B600010FEF71BFF00214FF4001033E001216F
S31508004B704020FEF72FFF002140200EE00121802073
S31508004B80FEF728FF0021802007E001214FF48070FE
S31508004B90FEF720FF00214FF48070BDE80440FEF7C1
S31508004BA019BF01214FF48030FEF7F8FE00214FF4BB
S31508004BB0803010E001214FF40030FEF7EFFE0021AF
S31508004BC04FF4003007E001214FF48020FEF7E6FE9F
S31508004BD000214FF48020BDE80440FEF7DFBE2DE932
S31508004BE0F84F04460D46DFF82865DFF8EC74DFF861
S31508004BF0DC84DFF8D494DFF8CCA4DFF8C4B45C45D1
S31508004C0018BFB4F1804F35D0544518BF4C4531D044
S31508004C1044451CBFDFF8B80484422BD0DFF8B4043F
S31508004C20844218BFBC4225D0DFF8B00484421CBFBA
S31508004C30DFF8AC0484421DD0DFF8A80484421CBF08
S31508004C40DFF8A404844215D0DFF8A00484421CBF10
S31508004C50DFF89C0484420DD0DFF8980484421FBF15
S31508004C60DFF894048442DFF89404844202D0E521F4
S31508004C7000F002FC6888002818BF102807D02028F2
S31508004C801CBF4028602802D0E62100F0F5FBE88822
S31508004C9000281CBFB0F5807FB0F5007F02D0E72161
S31508004CA000F0EAFB20885C4518BFBC4208D0B4F186
S31508004CB0804F18BF544503D04C4518BF444504D10E
S31508004CC04FF68F71084069880843DFF804148C4250
S31508004CD01CBFDFF800148C4204D04FF6FF41084091
S31508004CE0E98808432080A888A085288820855C450F
S31508004CF018BFBC420AD0DFF8FC0384421FBFDFF8A6
S31508004D00F8038442DFF8F403844201D1287A208626
S31508004D100120A082BDE8F18F2DE9F84F04460D4623
S31508004D20DFF8ECA3DFF8CCB3DFF8AC83DFF89093B9
S31508004D304C4518BFB4F1804F32D0DFF8880384425F
S31508004D401CBFDFF8840384422AD0DFF8800384423C
S31508004D5018BF444524D0DFF8840384421CBFDFF81B
S31508004D60800384421CD0DFF87C0384421CBFDFF832
S31508004D707803844214D0DFF8740384421CBFDFF83A
S31508004D80700384420CD05C451FBFDFF86C03844275
S31508004D90DFF86803844203D04FF48D7100F087F87A
S31508004DA02888002818BF10280BD0202818BF3028BC
S31508004DB007D0602818BF702803D040F21B1100F0F6
S31508004DC076F86888002818BF012803D04FF48E713A
S31508004DD000F06DF82889002818BF022803D040F291
S31508004DE01D1100F064F8208C4FF6FE7108402084EF
S31508004DF0208CA688218B4FF68C7211402A88114385
S31508004E00ADF800104FF6FD710840298908436988F6
S31508004E1041EA00074C4518BF444508D05C451FBF0A
S31508004E20DFF8D4028442DFF8D402844238D1A88855
S31508004E30002818BF042803D04FF49D7100F037F8F6
S31508004E406889002818BF082803D040F23B1100F0F3
S31508004E502EF8E889B0F5007F18BF002803D04FF474
S31508004E609E7100F024F8A889B0F5807F18BF002845
S31508004E7003D040F23D1100F01AF84FF6F7703840AB
S31508004E80698908434FF6FB710840A98841EA00077B
S31508004E904FF6FF403040A9890843E98941EA0006F0
S31508004EA0A680BDF800002083E888A08602E0504668
S31508004EB0FCF75CBC2784BDE8F18F2DE9F84304466E
S31508004EC00D462888DFF84862002818BF042807D04E
S31508004ED0082818BF0C2803D04FF4137100F0CCFA39
S31508004EE06888002818BF022803D040F24D2100F038
S31508004EF0C3FAA88801281CBF0228032803D040F259
S31508004F004E2100F0B9FAE888002818BF042807D00F
S31508004F10082818BF0C2803D040F24F2100F0ACFA3D
S31508004F202889102803D34FF4147100F0A5FA2988AC
S31508004F3070486D4A694B684FDFF890C1DFF888E121
S31508004F40DFF88081DFF87891002933D14C4518BF06
S31508004F50B4F1804F23D0444518BF74451FD064452B
S31508004F6018BFBC421BD09C421CBF5D498C4216D060
S31508004F705C498C4218BF944211D05C498C421CBFD4
S31508004F805B498C420BD084421FBF5B488442DFF8E2
S31508004F904403844203D04FF4157100F06DFA2B894F
S31508004FA0AA88698800F0B1F8E9882046BDE8F44384
S31508004FB000F0DCBB042920D14C4518BFB4F1804F62
S31508004FC010D0444518BF74450CD0644518BFBC4280
S31508004FD008D09C421CBF9442844203D040F25E2112
S31508004FE000F04AFA2B89AA88698800F08AF8E988C5
S31508004FF02046BDE8F44300F00CBC08292FD14C45E7
S3150800500018BFB4F1804F0BD0444518BF744507D07C
S31508005010644518BFBC4203D04FF41A7100F02CFA4D
S315080050202989AA886888238C4FF6FF66334023842B
S31508005030A38B268C4FF60C773B401A4342EA0111A4
S31508005040A1834FF6FF51314041EA002040F48070B9
S315080050502084E9882046BDE8F44300F019BC4C4595
S3150800506018BFB4F1804F0BD0444518BF744507D01C
S31508005070644518BFBC4203D040F2722100F0FCF927
S315080050802989AA886888238C4EF6FF7633402384BC
S31508005090A38B268C40F6FF473B4043EA022242EAAE
S315080050A00131A1834DF6FF71314041EA003040F4E9
S315080050B080502084E9882046BDE8F44300F017BCF8
S315080050C0002C01400004004000080040000C00408D
S315080050D0001000400014004000340140004C01401C
S315080050E0005001400054014000180040001C0040D8
S315080050F000200040004001400044014000480140B3
S315080051003146204600F040BD3146204600F025BD18
S31508005110BC5B00080021018041808180C18001813B
S3150800512041818181C181704770B504460D46DFF81B
S315080051308861DFF87801844218BFB4F1804F3ED009
S31508005140DFF8780184421CBFDFF87401844236D048
S31508005150DFF8700184421CBFDFF86C0184422ED050
S31508005160DFF8680184421CBFDFF84401844226D078
S31508005170DFF85C0184421CBFDFF85C0184421ED064
S31508005180DFF8580184421CBFDFF85401844216D068
S31508005190DFF8500184421CBFDFF84C0184420ED070
S315080051A0DFF8040184421FBFDFF808018442DFF8F4
S315080051B02401844203D040F21F3100F05DF94DB15D
S315080051C0012D03D04FF4487100F056F9208840F0BD
S315080051D0010003E020884FF6FE710840208070BD6C
S315080051E0F8B504460D461646DFF8CC70DFF8BC0065
S315080051F0844218BFB4F1804F3ED0DFF8C000844225
S315080052001CBFDFF8BC00844236D0DFF8B800844201
S315080052101CBFDFF8B40084422ED0DFF8B000844209
S315080052201CBFDFF88C00844226D0DFF8A400844235
S315080052301CBFDFF8A40084421ED0DFF8A000844219
S315080052401CBFDFF89C00844216D0DFF89800844221
S315080052501CBFDFF8940084420ED0DFF84C0084426D
S315080052601FBFDFF850008442DFF86800844203D08D
S3150800527040F2613100F076F94FF47F40054200D1E3
S315080052801DB940F2623100F06DF946B1012E03D026
S3150800529040F2633100F066F9A089284301E0A0894D
S315080052A0A843A081F1BD000000400140002C014048
S315080052B00034014000440140BC5B00080004004083
S315080052C000080040000C0040001000400014004098
S315080052D0004C014000480140005001400054014084
S315080052E000180040001C00400020004070B504462D
S315080052F00D46DFF87C61DFF86801844218BFB4F117
S31508005300804F3ED0DFF8640184421CBFDFF8640199
S31508005310844236D0DFF8500184421CBFDFF8800192
S3150800532084422ED0DFF87C0184421CBFDFF83401AA
S31508005330844226D0DFF8480184421CBFDFF84401C6
S3150800534084421ED0DFF8400184421CBFDFF83C01CE
S31508005350844216D0DFF83C0184421CBFDFF83801CE
S3150800536084420ED0DFF8280184421FBFDFF82C01E3
S315080053708442DFF8EC01844203D040F27A5100F00F
S315080053807BF84DB1012D03D040F27B5100F074F843
S31508005390208840F0800003E020884FF67F7108409F
S315080053A0208070BD70B504460D46DFF8C4602C48F1
S315080053B0844218BFB4F1804F35D0DFF8B00084427C
S315080053C01CBFDFF8B00084422DD0DFF89C00844271
S315080053D01CBF2448844226D0DFF8A40084421CBFA0
S315080053E0DFF8A00084421ED0DFF89C0084421CBF70
S315080053F0DFF89800844216D0DFF8980084421CBF74
S31508005400DFF8940084420ED0DFF8840084421FBF80
S31508005410DFF888008442DFF84801844203D040F26E
S31508005420DF5100F029F8082D18BF002D03D04FF4DE
S31508005430BC6100F021F8208B4FF6F771084028432D
S31508005440208370BD084040EA0520208370BD0840CF
S315080054502843A08370BD084040EA0520A08370BD9C
S31508005460002C014000340140000C004000040040BC
S31508005470BC5B0008000800403046FCF777B900001E
S31508005480004C014000500140005401400018004003
S3150800549000400140001C004000200040004401403C
S315080054A00010004000140040F8B504460D461646A4
S315080054B0DFF8CC70DFF8C400844218BFB4F1804F1F
S315080054C036D0DFF8C00084421CBFDFF8BC00844237
S315080054D02ED0DFF8B80084421CBFDFF8B80084423B
S315080054E026D0DFF8B40084421CBFDFF8B00084423F
S315080054F01ED0DFF8AC0084421CBFDFF8A800844247
